{
	"contracts/LoanAccount.sol": {
		"LoanAccount": {
			"abi": [
				{
					"inputs": [
						{
							"internalType": "address",
							"name": "lender",
							"type": "address"
						},
						{
							"internalType": "address",
							"name": "borrower",
							"type": "address"
						},
						{
							"internalType": "address",
							"name": "asset_owner",
							"type": "address"
						},
						{
							"internalType": "address",
							"name": "asset_contract",
							"type": "address"
						},
						{
							"internalType": "uint256",
							"name": "asset_id",
							"type": "uint256"
						},
						{
							"internalType": "address",
							"name": "token_contract",
							"type": "address"
						}
					],
					"stateMutability": "nonpayable",
					"type": "constructor"
				},
				{
					"inputs": [
						{
							"internalType": "address",
							"name": "owner",
							"type": "address"
						}
					],
					"name": "OwnableInvalidOwner",
					"type": "error"
				},
				{
					"inputs": [
						{
							"internalType": "address",
							"name": "account",
							"type": "address"
						}
					],
					"name": "OwnableUnauthorizedAccount",
					"type": "error"
				},
				{
					"anonymous": false,
					"inputs": [
						{
							"indexed": true,
							"internalType": "address",
							"name": "previousOwner",
							"type": "address"
						},
						{
							"indexed": true,
							"internalType": "address",
							"name": "newOwner",
							"type": "address"
						}
					],
					"name": "OwnershipTransferred",
					"type": "event"
				},
				{
					"inputs": [],
					"name": "_asset_owner",
					"outputs": [
						{
							"internalType": "address",
							"name": "",
							"type": "address"
						}
					],
					"stateMutability": "view",
					"type": "function"
				},
				{
					"inputs": [],
					"name": "_borrower",
					"outputs": [
						{
							"internalType": "address",
							"name": "",
							"type": "address"
						}
					],
					"stateMutability": "view",
					"type": "function"
				},
				{
					"inputs": [],
					"name": "_interest_rate",
					"outputs": [
						{
							"internalType": "uint16",
							"name": "",
							"type": "uint16"
						}
					],
					"stateMutability": "view",
					"type": "function"
				},
				{
					"inputs": [],
					"name": "_lender",
					"outputs": [
						{
							"internalType": "address",
							"name": "",
							"type": "address"
						}
					],
					"stateMutability": "view",
					"type": "function"
				},
				{
					"inputs": [],
					"name": "_payment_defaults",
					"outputs": [
						{
							"internalType": "uint8",
							"name": "",
							"type": "uint8"
						}
					],
					"stateMutability": "view",
					"type": "function"
				},
				{
					"inputs": [],
					"name": "_payment_interval",
					"outputs": [
						{
							"internalType": "uint256",
							"name": "",
							"type": "uint256"
						}
					],
					"stateMutability": "view",
					"type": "function"
				},
				{
					"inputs": [],
					"name": "_time_period",
					"outputs": [
						{
							"internalType": "uint256",
							"name": "",
							"type": "uint256"
						}
					],
					"stateMutability": "view",
					"type": "function"
				},
				{
					"inputs": [],
					"name": "calculate_emi",
					"outputs": [
						{
							"internalType": "uint256",
							"name": "",
							"type": "uint256"
						}
					],
					"stateMutability": "view",
					"type": "function"
				},
				{
					"inputs": [],
					"name": "deduct_emi",
					"outputs": [],
					"stateMutability": "nonpayable",
					"type": "function"
				},
				{
					"inputs": [
						{
							"internalType": "uint256",
							"name": "_disbursement",
							"type": "uint256"
						},
						{
							"internalType": "uint256",
							"name": "time_period",
							"type": "uint256"
						},
						{
							"internalType": "uint256",
							"name": "payment_interval",
							"type": "uint256"
						},
						{
							"internalType": "uint16",
							"name": "interest_rate",
							"type": "uint16"
						}
					],
					"name": "disburse_loan",
					"outputs": [],
					"stateMutability": "nonpayable",
					"type": "function"
				},
				{
					"inputs": [],
					"name": "get_disbursed_asset",
					"outputs": [
						{
							"components": [
								{
									"internalType": "address",
									"name": "_token_contract",
									"type": "address"
								},
								{
									"internalType": "uint256",
									"name": "_disbursed_amount",
									"type": "uint256"
								},
								{
									"internalType": "uint256",
									"name": "_principal_repaid",
									"type": "uint256"
								},
								{
									"internalType": "uint256",
									"name": "_no_of_payments",
									"type": "uint256"
								}
							],
							"internalType": "struct LoanAccount.DisbursedTokenAsset",
							"name": "",
							"type": "tuple"
						}
					],
					"stateMutability": "view",
					"type": "function"
				},
				{
					"inputs": [],
					"name": "get_mortgaged_asset",
					"outputs": [
						{
							"components": [
								{
									"internalType": "address",
									"name": "_token_contract",
									"type": "address"
								},
								{
									"internalType": "uint256",
									"name": "_token_id",
									"type": "uint256"
								}
							],
							"internalType": "struct LoanAccount.MotrgagedAsset",
							"name": "",
							"type": "tuple"
						}
					],
					"stateMutability": "view",
					"type": "function"
				},
				{
					"inputs": [],
					"name": "get_outstanding_balance",
					"outputs": [
						{
							"internalType": "uint256",
							"name": "",
							"type": "uint256"
						}
					],
					"stateMutability": "view",
					"type": "function"
				},
				{
					"inputs": [
						{
							"internalType": "address",
							"name": "operator",
							"type": "address"
						},
						{
							"internalType": "address",
							"name": "from",
							"type": "address"
						},
						{
							"internalType": "uint256",
							"name": "tokenId",
							"type": "uint256"
						},
						{
							"internalType": "bytes",
							"name": "data",
							"type": "bytes"
						}
					],
					"name": "onERC721Received",
					"outputs": [
						{
							"internalType": "bytes4",
							"name": "",
							"type": "bytes4"
						}
					],
					"stateMutability": "pure",
					"type": "function"
				},
				{
					"inputs": [],
					"name": "owner",
					"outputs": [
						{
							"internalType": "address",
							"name": "",
							"type": "address"
						}
					],
					"stateMutability": "view",
					"type": "function"
				},
				{
					"inputs": [],
					"name": "renounceOwnership",
					"outputs": [],
					"stateMutability": "nonpayable",
					"type": "function"
				},
				{
					"inputs": [
						{
							"internalType": "address",
							"name": "newOwner",
							"type": "address"
						}
					],
					"name": "transferOwnership",
					"outputs": [],
					"stateMutability": "nonpayable",
					"type": "function"
				}
			],
			"devdoc": {
				"errors": {
					"OwnableInvalidOwner(address)": [
						{
							"details": "The owner is not a valid owner account. (eg. `address(0)`)"
						}
					],
					"OwnableUnauthorizedAccount(address)": [
						{
							"details": "The caller account is not authorized to perform an operation."
						}
					]
				},
				"kind": "dev",
				"methods": {
					"onERC721Received(address,address,uint256,bytes)": {
						"details": "Whenever an {IERC721} `tokenId` token is transferred to this contract via {IERC721-safeTransferFrom} by `operator` from `from`, this function is called. It must return its Solidity selector to confirm the token transfer. If any other value is returned or the interface is not implemented by the recipient, the transfer will be reverted. The selector can be obtained in Solidity with `IERC721Receiver.onERC721Received.selector`."
					},
					"owner()": {
						"details": "Returns the address of the current owner."
					},
					"renounceOwnership()": {
						"details": "Leaves the contract without owner. It will not be possible to call `onlyOwner` functions. Can only be called by the current owner. NOTE: Renouncing ownership will leave the contract without an owner, thereby disabling any functionality that is only available to the owner."
					},
					"transferOwnership(address)": {
						"details": "Transfers ownership of the contract to a new account (`newOwner`). Can only be called by the current owner."
					}
				},
				"version": 1
			},
			"evm": {
				"assembly": "    /* \"contracts/LoanAccount.sol\":474:6693  contract LoanAccount is Ownable, IERC721Receiver {... */\n  mstore(0x40, 0x80)\n    /* \"contracts/LoanAccount.sol\":1147:1622  constructor(... */\n  callvalue\n  dup1\n  iszero\n  tag_1\n  jumpi\n  0x00\n  dup1\n  revert\ntag_1:\n  pop\n  mload(0x40)\n  sub(codesize, bytecodeSize)\n  dup1\n  bytecodeSize\n  dup4\n  codecopy\n  dup2\n  add\n  0x40\n  dup2\n  swap1\n  mstore\n  tag_2\n  swap2\n  tag_3\n  jump\t// in\ntag_2:\n    /* \"@openzeppelin/contracts/utils/Context.sol\":735:745  msg.sender */\n  caller\n  dup1\n    /* \"@openzeppelin/contracts/access/Ownable.sol\":1269:1364  if (initialOwner == address(0)) {... */\n  tag_9\n  jumpi\n    /* \"@openzeppelin/contracts/access/Ownable.sol\":1322:1353  OwnableInvalidOwner(address(0)) */\n  mload(0x40)\n  shl(0xe0, 0x1e4fbdf7)\n  dup2\n  mstore\n    /* \"@openzeppelin/contracts/access/Ownable.sol\":1350:1351  0 */\n  0x00\n    /* \"@openzeppelin/contracts/access/Ownable.sol\":1322:1353  OwnableInvalidOwner(address(0)) */\n  0x04\n  dup3\n  add\n    /* \"#utility.yul\":959:1010   */\n  mstore\n    /* \"#utility.yul\":932:950   */\n  0x24\n  add\n    /* \"@openzeppelin/contracts/access/Ownable.sol\":1322:1353  OwnableInvalidOwner(address(0)) */\n  mload(0x40)\n  dup1\n  swap2\n  sub\n  swap1\n  revert\n    /* \"@openzeppelin/contracts/access/Ownable.sol\":1269:1364  if (initialOwner == address(0)) {... */\ntag_9:\n    /* \"@openzeppelin/contracts/access/Ownable.sol\":1373:1405  _transferOwnership(initialOwner) */\n  tag_12\n    /* \"@openzeppelin/contracts/access/Ownable.sol\":1392:1404  initialOwner */\n  dup2\n    /* \"@openzeppelin/contracts/access/Ownable.sol\":1373:1391  _transferOwnership */\n  tag_13\n    /* \"@openzeppelin/contracts/access/Ownable.sol\":1373:1405  _transferOwnership(initialOwner) */\n  jump\t// in\ntag_12:\n  pop\n    /* \"contracts/LoanAccount.sol\":1378:1390  _asset_owner */\n  0x03\n    /* \"contracts/LoanAccount.sol\":1378:1404  _asset_owner = asset_owner */\n  dup1\n  sload\n  not(sub(shl(0xa0, 0x01), 0x01))\n  swap1\n  dup2\n  and\n  sub(shl(0xa0, 0x01), 0x01)\n  swap7\n  dup8\n  and\n  or\n  swap1\n  swap2\n  sstore\n    /* \"contracts/LoanAccount.sol\":1434:1474  MotrgagedAsset(asset_contract, asset_id) */\n  0x40\n  dup1\n  mload\n  dup1\n  dup3\n  add\n  dup3\n  mstore\n  swap5\n  dup7\n  and\n  dup1\n  dup7\n  mstore\n  0x20\n  swap6\n  dup7\n  add\n  dup6\n  swap1\n  mstore\n    /* \"contracts/LoanAccount.sol\":1415:1431  _mortgaged_asset */\n  0x07\n    /* \"contracts/LoanAccount.sol\":1415:1474  _mortgaged_asset = MotrgagedAsset(asset_contract, asset_id) */\n  dup1\n  sload\n  dup5\n  and\n  swap1\n  swap2\n  or\n  swap1\n  sstore\n  0x08\n  swap4\n  swap1\n  swap4\n  sstore\n  0x01\n    /* \"contracts/LoanAccount.sol\":1487:1503  _lender = lender */\n  dup1\n  sload\n  dup3\n  and\n  swap8\n  dup7\n  and\n  swap8\n  swap1\n  swap8\n  or\n  swap1\n  swap7\n  sstore\n  0x02\n    /* \"contracts/LoanAccount.sol\":1514:1534  _borrower = borrower */\n  dup1\n  sload\n  dup8\n  and\n  swap6\n  dup6\n  and\n  swap6\n  swap1\n  swap6\n  or\n  swap1\n  swap5\n  sstore\n    /* \"contracts/LoanAccount.sol\":1570:1614  DisbursedTokenAsset(token_contract, 0, 0, 0) */\n  dup1\n  mload\n  0x80\n  dup2\n  add\n  dup3\n  mstore\n  swap4\n  swap1\n  swap3\n  and\n  dup1\n  dup5\n  mstore\n  0x00\n  swap2\n  dup5\n  add\n  dup3\n  swap1\n  mstore\n  swap2\n  dup4\n  add\n  dup2\n  swap1\n  mstore\n  0x60\n  swap1\n  swap3\n  add\n  dup3\n  swap1\n  mstore\n    /* \"contracts/LoanAccount.sol\":1545:1567  _disbursed_token_asset */\n  0x09\n    /* \"contracts/LoanAccount.sol\":1545:1614  _disbursed_token_asset = DisbursedTokenAsset(token_contract, 0, 0, 0) */\n  dup1\n  sload\n  swap1\n  swap4\n  and\n  or\n  swap1\n  swap2\n  sstore\n  0x0a\n  dup2\n  swap1\n  sstore\n  0x0b\n  dup2\n  swap1\n  sstore\n  0x0c\n  sstore\n    /* \"contracts/LoanAccount.sol\":474:6693  contract LoanAccount is Ownable, IERC721Receiver {... */\n  jump(tag_19)\n    /* \"@openzeppelin/contracts/access/Ownable.sol\":2912:3099  function _transferOwnership(address newOwner) internal virtual {... */\ntag_13:\n    /* \"@openzeppelin/contracts/access/Ownable.sol\":2985:3001  address oldOwner */\n  0x00\n    /* \"@openzeppelin/contracts/access/Ownable.sol\":3004:3010  _owner */\n  dup1\n  sload\n  sub(shl(0xa0, 0x01), 0x01)\n    /* \"@openzeppelin/contracts/access/Ownable.sol\":3020:3037  _owner = newOwner */\n  dup4\n  dup2\n  and\n  not(sub(shl(0xa0, 0x01), 0x01))\n  dup4\n  and\n  dup2\n  or\n  dup5\n  sstore\n    /* \"@openzeppelin/contracts/access/Ownable.sol\":3052:3092  OwnershipTransferred(oldOwner, newOwner) */\n  mload(0x40)\n    /* \"@openzeppelin/contracts/access/Ownable.sol\":3004:3010  _owner */\n  swap2\n  swap1\n  swap3\n  and\n  swap3\n  dup4\n  swap2\n    /* \"@openzeppelin/contracts/access/Ownable.sol\":3052:3092  OwnershipTransferred(oldOwner, newOwner) */\n  0x8be0079c531659141344cd1fd0a4f28419497f9722a3daafe3b4186f6b6457e0\n  swap2\n    /* \"@openzeppelin/contracts/access/Ownable.sol\":2985:3001  address oldOwner */\n  swap1\n    /* \"@openzeppelin/contracts/access/Ownable.sol\":3052:3092  OwnershipTransferred(oldOwner, newOwner) */\n  log3\n    /* \"@openzeppelin/contracts/access/Ownable.sol\":2975:3099  {... */\n  pop\n    /* \"@openzeppelin/contracts/access/Ownable.sol\":2912:3099  function _transferOwnership(address newOwner) internal virtual {... */\n  pop\n  jump\t// out\n    /* \"#utility.yul\":14:191   */\ntag_18:\n    /* \"#utility.yul\":93:106   */\n  dup1\n  mload\n  sub(shl(0xa0, 0x01), 0x01)\n    /* \"#utility.yul\":135:166   */\n  dup2\n  and\n    /* \"#utility.yul\":125:167   */\n  dup2\n  eq\n    /* \"#utility.yul\":115:185   */\n  tag_21\n  jumpi\n    /* \"#utility.yul\":181:182   */\n  0x00\n    /* \"#utility.yul\":178:179   */\n  dup1\n    /* \"#utility.yul\":171:183   */\n  revert\n    /* \"#utility.yul\":115:185   */\ntag_21:\n    /* \"#utility.yul\":14:191   */\n  swap2\n  swap1\n  pop\n  jump\t// out\n    /* \"#utility.yul\":196:808   */\ntag_3:\n    /* \"#utility.yul\":311:317   */\n  0x00\n    /* \"#utility.yul\":319:325   */\n  dup1\n    /* \"#utility.yul\":327:333   */\n  0x00\n    /* \"#utility.yul\":335:341   */\n  dup1\n    /* \"#utility.yul\":343:349   */\n  0x00\n    /* \"#utility.yul\":351:357   */\n  dup1\n    /* \"#utility.yul\":404:407   */\n  0xc0\n    /* \"#utility.yul\":392:401   */\n  dup8\n    /* \"#utility.yul\":383:390   */\n  dup10\n    /* \"#utility.yul\":379:402   */\n  sub\n    /* \"#utility.yul\":375:408   */\n  slt\n    /* \"#utility.yul\":372:425   */\n  iszero\n  tag_23\n  jumpi\n    /* \"#utility.yul\":421:422   */\n  0x00\n    /* \"#utility.yul\":418:419   */\n  dup1\n    /* \"#utility.yul\":411:423   */\n  revert\n    /* \"#utility.yul\":372:425   */\ntag_23:\n    /* \"#utility.yul\":444:484   */\n  tag_24\n    /* \"#utility.yul\":474:483   */\n  dup8\n    /* \"#utility.yul\":444:484   */\n  tag_18\n  jump\t// in\ntag_24:\n    /* \"#utility.yul\":434:484   */\n  swap6\n  pop\n    /* \"#utility.yul\":503:552   */\n  tag_25\n    /* \"#utility.yul\":548:550   */\n  0x20\n    /* \"#utility.yul\":537:546   */\n  dup9\n    /* \"#utility.yul\":533:551   */\n  add\n    /* \"#utility.yul\":503:552   */\n  tag_18\n  jump\t// in\ntag_25:\n    /* \"#utility.yul\":493:552   */\n  swap5\n  pop\n    /* \"#utility.yul\":571:620   */\n  tag_26\n    /* \"#utility.yul\":616:618   */\n  0x40\n    /* \"#utility.yul\":605:614   */\n  dup9\n    /* \"#utility.yul\":601:619   */\n  add\n    /* \"#utility.yul\":571:620   */\n  tag_18\n  jump\t// in\ntag_26:\n    /* \"#utility.yul\":561:620   */\n  swap4\n  pop\n    /* \"#utility.yul\":639:688   */\n  tag_27\n    /* \"#utility.yul\":684:686   */\n  0x60\n    /* \"#utility.yul\":673:682   */\n  dup9\n    /* \"#utility.yul\":669:687   */\n  add\n    /* \"#utility.yul\":639:688   */\n  tag_18\n  jump\t// in\ntag_27:\n    /* \"#utility.yul\":629:688   */\n  swap3\n  pop\n    /* \"#utility.yul\":728:731   */\n  0x80\n    /* \"#utility.yul\":717:726   */\n  dup8\n    /* \"#utility.yul\":713:732   */\n  add\n    /* \"#utility.yul\":707:733   */\n  mload\n    /* \"#utility.yul\":697:733   */\n  swap2\n  pop\n    /* \"#utility.yul\":752:802   */\n  tag_28\n    /* \"#utility.yul\":797:800   */\n  0xa0\n    /* \"#utility.yul\":786:795   */\n  dup9\n    /* \"#utility.yul\":782:801   */\n  add\n    /* \"#utility.yul\":752:802   */\n  tag_18\n  jump\t// in\ntag_28:\n    /* \"#utility.yul\":742:802   */\n  swap1\n  pop\n    /* \"#utility.yul\":196:808   */\n  swap3\n  swap6\n  pop\n  swap3\n  swap6\n  pop\n  swap3\n  swap6\n  jump\t// out\n    /* \"#utility.yul\":813:1016   */\ntag_19:\n    /* \"contracts/LoanAccount.sol\":474:6693  contract LoanAccount is Ownable, IERC721Receiver {... */\n  dataSize(sub_0)\n  dup1\n  dataOffset(sub_0)\n  0x00\n  codecopy\n  0x00\n  return\nstop\n\nsub_0: assembly {\n        /* \"contracts/LoanAccount.sol\":474:6693  contract LoanAccount is Ownable, IERC721Receiver {... */\n      mstore(0x40, 0x80)\n      callvalue\n      dup1\n      iszero\n      tag_1\n      jumpi\n      0x00\n      dup1\n      revert\n    tag_1:\n      pop\n      jumpi(tag_2, lt(calldatasize, 0x04))\n      shr(0xe0, calldataload(0x00))\n      dup1\n      0x8da5cb5b\n      gt\n      tag_20\n      jumpi\n      dup1\n      0xb96243ba\n      gt\n      tag_21\n      jumpi\n      dup1\n      0xb96243ba\n      eq\n      tag_15\n      jumpi\n      dup1\n      0xc6ca5bf2\n      eq\n      tag_16\n      jumpi\n      dup1\n      0xd170b376\n      eq\n      tag_17\n      jumpi\n      dup1\n      0xd7ca70c4\n      eq\n      tag_18\n      jumpi\n      dup1\n      0xf2fde38b\n      eq\n      tag_19\n      jumpi\n      0x00\n      dup1\n      revert\n    tag_21:\n      dup1\n      0x8da5cb5b\n      eq\n      tag_11\n      jumpi\n      dup1\n      0x913cef99\n      eq\n      tag_12\n      jumpi\n      dup1\n      0x93287a1d\n      eq\n      tag_13\n      jumpi\n      dup1\n      0xa91647e6\n      eq\n      tag_14\n      jumpi\n      0x00\n      dup1\n      revert\n    tag_20:\n      dup1\n      0x705caf5f\n      gt\n      tag_22\n      jumpi\n      dup1\n      0x705caf5f\n      eq\n      tag_7\n      jumpi\n      dup1\n      0x715018a6\n      eq\n      tag_8\n      jumpi\n      dup1\n      0x770fea5e\n      eq\n      tag_9\n      jumpi\n      dup1\n      0x819ed863\n      eq\n      tag_10\n      jumpi\n      0x00\n      dup1\n      revert\n    tag_22:\n      dup1\n      0x11ee307e\n      eq\n      tag_3\n      jumpi\n      dup1\n      0x1394cd8f\n      eq\n      tag_4\n      jumpi\n      dup1\n      0x150b7a02\n      eq\n      tag_5\n      jumpi\n      dup1\n      0x2279de4e\n      eq\n      tag_6\n      jumpi\n    tag_2:\n      0x00\n      dup1\n      revert\n        /* \"contracts/LoanAccount.sol\":946:978  uint256 public _payment_interval */\n    tag_3:\n      tag_23\n      sload(0x04)\n      dup2\n      jump\n    tag_23:\n      mload(0x40)\n        /* \"#utility.yul\":160:185   */\n      swap1\n      dup2\n      mstore\n        /* \"#utility.yul\":148:150   */\n      0x20\n        /* \"#utility.yul\":133:151   */\n      add\n        /* \"contracts/LoanAccount.sol\":946:978  uint256 public _payment_interval */\n    tag_25:\n      mload(0x40)\n      dup1\n      swap2\n      sub\n      swap1\n      return\n        /* \"contracts/LoanAccount.sol\":5837:5966  function get_disbursed_asset() external view returns(DisbursedTokenAsset memory) {... */\n    tag_4:\n      tag_27\n      tag_28\n      jump\t// in\n    tag_27:\n      mload(0x40)\n      tag_25\n      swap2\n      swap1\n        /* \"#utility.yul\":437:450   */\n      dup2\n      mload\n      sub(shl(0xa0, 0x01), 0x01)\n        /* \"#utility.yul\":433:472   */\n      and\n        /* \"#utility.yul\":415:473   */\n      dup2\n      mstore\n        /* \"#utility.yul\":529:533   */\n      0x20\n        /* \"#utility.yul\":517:534   */\n      dup1\n      dup4\n      add\n        /* \"#utility.yul\":511:535   */\n      mload\n        /* \"#utility.yul\":489:509   */\n      swap1\n      dup3\n      add\n        /* \"#utility.yul\":482:536   */\n      mstore\n        /* \"#utility.yul\":592:596   */\n      0x40\n        /* \"#utility.yul\":580:597   */\n      dup1\n      dup4\n      add\n        /* \"#utility.yul\":574:598   */\n      mload\n        /* \"#utility.yul\":552:572   */\n      swap1\n      dup3\n      add\n        /* \"#utility.yul\":545:599   */\n      mstore\n        /* \"#utility.yul\":655:659   */\n      0x60\n        /* \"#utility.yul\":643:660   */\n      swap2\n      dup3\n      add\n        /* \"#utility.yul\":637:661   */\n      mload\n        /* \"#utility.yul\":615:635   */\n      swap2\n      dup2\n      add\n        /* \"#utility.yul\":608:662   */\n      swap2\n      swap1\n      swap2\n      mstore\n        /* \"#utility.yul\":402:405   */\n      0x80\n        /* \"#utility.yul\":387:406   */\n      add\n      swap1\n        /* \"#utility.yul\":196:668   */\n      jump\n        /* \"contracts/LoanAccount.sol\":6464:6690  function onERC721Received(... */\n    tag_5:\n      tag_31\n      tag_32\n      calldatasize\n      0x04\n      tag_33\n      jump\t// in\n    tag_32:\n      shl(0xe1, 0x0a85bd01)\n      swap6\n      swap5\n      pop\n      pop\n      pop\n      pop\n      pop\n      jump\n    tag_31:\n      mload(0x40)\n      not(sub(shl(0xe0, 0x01), 0x01))\n        /* \"#utility.yul\":1912:1945   */\n      swap1\n      swap2\n      and\n        /* \"#utility.yul\":1894:1946   */\n      dup2\n      mstore\n        /* \"#utility.yul\":1882:1884   */\n      0x20\n        /* \"#utility.yul\":1867:1885   */\n      add\n        /* \"contracts/LoanAccount.sol\":6464:6690  function onERC721Received(... */\n      tag_25\n        /* \"#utility.yul\":1750:1952   */\n      jump\n        /* \"contracts/LoanAccount.sol\":4962:5646  function calculate_emi() public view returns (uint256) {... */\n    tag_6:\n      tag_23\n      tag_38\n      jump\t// in\n        /* \"contracts/LoanAccount.sol\":844:868  address public _borrower */\n    tag_7:\n      sload(0x02)\n      tag_40\n      swap1\n      sub(shl(0xa0, 0x01), 0x01)\n      and\n      dup2\n      jump\n    tag_40:\n      mload(0x40)\n      sub(shl(0xa0, 0x01), 0x01)\n        /* \"#utility.yul\":2121:2153   */\n      swap1\n      swap2\n      and\n        /* \"#utility.yul\":2103:2154   */\n      dup2\n      mstore\n        /* \"#utility.yul\":2091:2093   */\n      0x20\n        /* \"#utility.yul\":2076:2094   */\n      add\n        /* \"contracts/LoanAccount.sol\":844:868  address public _borrower */\n      tag_25\n        /* \"#utility.yul\":1957:2160   */\n      jump\n        /* \"@openzeppelin/contracts/access/Ownable.sol\":2293:2394  function renounceOwnership() public virtual onlyOwner {... */\n    tag_8:\n      tag_44\n      tag_45\n      jump\t// in\n    tag_44:\n      stop\n        /* \"contracts/LoanAccount.sol\":5654:5829  function get_outstanding_balance() external view returns(uint256) {... */\n    tag_9:\n      tag_23\n      tag_47\n      jump\t// in\n        /* \"contracts/LoanAccount.sol\":815:837  address public _lender */\n    tag_10:\n      sload(0x01)\n      tag_40\n      swap1\n      sub(shl(0xa0, 0x01), 0x01)\n      and\n      dup2\n      jump\n        /* \"@openzeppelin/contracts/access/Ownable.sol\":1638:1723  function owner() public view virtual returns (address) {... */\n    tag_11:\n        /* \"@openzeppelin/contracts/access/Ownable.sol\":1684:1691  address */\n      0x00\n        /* \"@openzeppelin/contracts/access/Ownable.sol\":1710:1716  _owner */\n      sload\n      sub(shl(0xa0, 0x01), 0x01)\n      and\n        /* \"@openzeppelin/contracts/access/Ownable.sol\":1638:1723  function owner() public view virtual returns (address) {... */\n      jump(tag_40)\n        /* \"contracts/LoanAccount.sol\":875:902  address public _asset_owner */\n    tag_12:\n      sload(0x03)\n      tag_40\n      swap1\n      sub(shl(0xa0, 0x01), 0x01)\n      and\n      dup2\n      jump\n        /* \"contracts/LoanAccount.sol\":985:1015  uint8 public _payment_defaults */\n    tag_13:\n      sload(0x05)\n      tag_58\n      swap1\n      0xff\n      and\n      dup2\n      jump\n    tag_58:\n      mload(0x40)\n        /* \"#utility.yul\":2337:2341   */\n      0xff\n        /* \"#utility.yul\":2325:2342   */\n      swap1\n      swap2\n      and\n        /* \"#utility.yul\":2307:2343   */\n      dup2\n      mstore\n        /* \"#utility.yul\":2295:2297   */\n      0x20\n        /* \"#utility.yul\":2280:2298   */\n      add\n        /* \"contracts/LoanAccount.sol\":985:1015  uint8 public _payment_defaults */\n      tag_25\n        /* \"#utility.yul\":2165:2349   */\n      jump\n        /* \"contracts/LoanAccount.sol\":5974:6092  function get_mortgaged_asset() external view returns(MotrgagedAsset memory) {... */\n    tag_14:\n      0x40\n      dup1\n      mload\n      dup1\n      dup3\n      add\n      dup3\n      mstore\n      0x00\n      dup1\n      dup3\n      mstore\n      0x20\n      swap2\n      dup3\n      add\n      mstore\n        /* \"contracts/LoanAccount.sol\":6061:6084  return _mortgaged_asset */\n      dup2\n      mload\n      dup1\n      dup4\n      add\n      dup4\n      mstore\n        /* \"contracts/LoanAccount.sol\":6068:6084  _mortgaged_asset */\n      0x07\n        /* \"contracts/LoanAccount.sol\":6061:6084  return _mortgaged_asset */\n      sload\n      sub(shl(0xa0, 0x01), 0x01)\n      and\n      dup1\n      dup3\n      mstore\n      sload(0x08)\n      swap2\n      dup4\n      add\n      swap2\n      dup3\n      mstore\n        /* \"contracts/LoanAccount.sol\":5974:6092  function get_mortgaged_asset() external view returns(MotrgagedAsset memory) {... */\n      dup4\n      mload\n        /* \"#utility.yul\":2562:2620   */\n      swap1\n      dup2\n      mstore\n        /* \"#utility.yul\":2658:2682   */\n      swap1\n      mload\n        /* \"#utility.yul\":2636:2656   */\n      swap2\n      dup2\n      add\n        /* \"#utility.yul\":2629:2683   */\n      swap2\n      swap1\n      swap2\n      mstore\n        /* \"#utility.yul\":2535:2553   */\n      add\n        /* \"contracts/LoanAccount.sol\":5974:6092  function get_mortgaged_asset() external view returns(MotrgagedAsset memory) {... */\n      tag_25\n        /* \"#utility.yul\":2354:2689   */\n      jump\n        /* \"contracts/LoanAccount.sol\":3964:4954  function deduct_emi() onlyOwner() external {... */\n    tag_15:\n      tag_44\n      tag_67\n      jump\t// in\n        /* \"contracts/LoanAccount.sol\":911:939  uint16 public _interest_rate */\n    tag_16:\n      sload(0x03)\n      tag_68\n      swap1\n      shl(0xa0, 0x01)\n      swap1\n      div\n      0xffff\n      and\n      dup2\n      jump\n    tag_68:\n      mload(0x40)\n        /* \"#utility.yul\":2868:2874   */\n      0xffff\n        /* \"#utility.yul\":2856:2875   */\n      swap1\n      swap2\n      and\n        /* \"#utility.yul\":2838:2876   */\n      dup2\n      mstore\n        /* \"#utility.yul\":2826:2828   */\n      0x20\n        /* \"#utility.yul\":2811:2829   */\n      add\n        /* \"contracts/LoanAccount.sol\":911:939  uint16 public _interest_rate */\n      tag_25\n        /* \"#utility.yul\":2694:2882   */\n      jump\n        /* \"contracts/LoanAccount.sol\":1630:3956  function disburse_loan(... */\n    tag_17:\n      tag_44\n      tag_73\n      calldatasize\n      0x04\n      tag_74\n      jump\t// in\n    tag_73:\n      tag_75\n      jump\t// in\n        /* \"contracts/LoanAccount.sol\":1022:1049  uint256 public _time_period */\n    tag_18:\n      tag_23\n      sload(0x06)\n      dup2\n      jump\n        /* \"@openzeppelin/contracts/access/Ownable.sol\":2543:2758  function transferOwnership(address newOwner) public virtual onlyOwner {... */\n    tag_19:\n      tag_44\n      tag_80\n      calldatasize\n      0x04\n      tag_81\n      jump\t// in\n    tag_80:\n      tag_82\n      jump\t// in\n        /* \"contracts/LoanAccount.sol\":5837:5966  function get_disbursed_asset() external view returns(DisbursedTokenAsset memory) {... */\n    tag_28:\n        /* \"contracts/LoanAccount.sol\":5890:5916  DisbursedTokenAsset memory */\n      tag_83\n      mload(0x40)\n      dup1\n      0x80\n      add\n      0x40\n      mstore\n      dup1\n      and(sub(shl(0xa0, 0x01), 0x01), 0x00)\n      dup2\n      mstore\n      0x20\n      add\n      0x00\n      dup2\n      mstore\n      0x20\n      add\n      0x00\n      dup2\n      mstore\n      0x20\n      add\n      0x00\n      dup2\n      mstore\n      pop\n      swap1\n      jump\n    tag_83:\n      pop\n        /* \"contracts/LoanAccount.sol\":5929:5958  return _disbursed_token_asset */\n      0x40\n      dup1\n      mload\n      0x80\n      dup2\n      add\n      dup3\n      mstore\n        /* \"contracts/LoanAccount.sol\":5936:5958  _disbursed_token_asset */\n      0x09\n        /* \"contracts/LoanAccount.sol\":5929:5958  return _disbursed_token_asset */\n      sload\n      sub(shl(0xa0, 0x01), 0x01)\n      and\n      dup2\n      mstore\n      sload(0x0a)\n      0x20\n      dup3\n      add\n      mstore\n      sload(0x0b)\n      swap2\n      dup2\n      add\n      swap2\n      swap1\n      swap2\n      mstore\n      sload(0x0c)\n      0x60\n      dup3\n      add\n      mstore\n      swap1\n        /* \"contracts/LoanAccount.sol\":5837:5966  function get_disbursed_asset() external view returns(DisbursedTokenAsset memory) {... */\n      jump\t// out\n        /* \"contracts/LoanAccount.sol\":4962:5646  function calculate_emi() public view returns (uint256) {... */\n    tag_38:\n        /* \"contracts/LoanAccount.sol\":5008:5015  uint256 */\n      0x00\n        /* \"contracts/LoanAccount.sol\":5028:5051  uint256 _no_of_payments */\n      dup1\n        /* \"contracts/LoanAccount.sol\":5069:5086  _payment_interval */\n      sload(0x04)\n        /* \"contracts/LoanAccount.sol\":5054:5066  _time_period */\n      sload(0x06)\n        /* \"contracts/LoanAccount.sol\":5054:5086  _time_period / _payment_interval */\n      tag_88\n      swap2\n      swap1\n      tag_89\n      jump\t// in\n    tag_88:\n        /* \"contracts/LoanAccount.sol\":5028:5086  uint256 _no_of_payments = _time_period / _payment_interval */\n      swap1\n      pop\n        /* \"contracts/LoanAccount.sol\":5143:5158  _no_of_payments */\n      dup1\n        /* \"contracts/LoanAccount.sol\":5101:5123  _disbursed_token_asset */\n      0x09\n        /* \"contracts/LoanAccount.sol\":5101:5139  _disbursed_token_asset._no_of_payments */\n      0x03\n      add\n      sload\n        /* \"contracts/LoanAccount.sol\":5101:5158  _disbursed_token_asset._no_of_payments == _no_of_payments */\n      sub\n        /* \"contracts/LoanAccount.sol\":5097:5195  if (_disbursed_token_asset._no_of_payments == _no_of_payments) {... */\n      tag_90\n      jumpi\n        /* \"contracts/LoanAccount.sol\":5182:5183  0 */\n      0x00\n        /* \"contracts/LoanAccount.sol\":5175:5183  return 0 */\n      swap2\n      pop\n      pop\n        /* \"contracts/LoanAccount.sol\":4962:5646  function calculate_emi() public view returns (uint256) {... */\n      swap1\n      jump\t// out\n        /* \"contracts/LoanAccount.sol\":5097:5195  if (_disbursed_token_asset._no_of_payments == _no_of_payments) {... */\n    tag_90:\n        /* \"contracts/LoanAccount.sol\":5243:5257  _interest_rate */\n      sload(0x03)\n        /* \"contracts/LoanAccount.sol\":5205:5223  uint256 _numerator */\n      0x00\n      swap1\n        /* \"contracts/LoanAccount.sol\":5263:5278  _no_of_payments */\n      dup3\n      swap1\n        /* \"contracts/LoanAccount.sol\":5227:5258  10000 + uint256(_interest_rate) */\n      tag_91\n      swap1\n      shl(0xa0, 0x01)\n        /* \"contracts/LoanAccount.sol\":5243:5257  _interest_rate */\n      swap1\n      div\n      0xffff\n      and\n        /* \"contracts/LoanAccount.sol\":5227:5232  10000 */\n      0x2710\n        /* \"contracts/LoanAccount.sol\":5227:5258  10000 + uint256(_interest_rate) */\n      tag_92\n      jump\t// in\n    tag_91:\n        /* \"contracts/LoanAccount.sol\":5226:5278  (10000 + uint256(_interest_rate)) ** _no_of_payments */\n      tag_93\n      swap2\n      swap1\n      tag_94\n      jump\t// in\n    tag_93:\n        /* \"contracts/LoanAccount.sol\":5205:5278  uint256 _numerator = (10000 + uint256(_interest_rate)) ** _no_of_payments */\n      swap1\n      pop\n        /* \"contracts/LoanAccount.sol\":5289:5309  uint256 _denominator */\n      0x00\n        /* \"contracts/LoanAccount.sol\":5370:5394  10000 ** _no_of_payments */\n      tag_95\n        /* \"contracts/LoanAccount.sol\":5379:5394  _no_of_payments */\n      dup4\n        /* \"contracts/LoanAccount.sol\":5370:5375  10000 */\n      0x2710\n        /* \"contracts/LoanAccount.sol\":5370:5394  10000 ** _no_of_payments */\n      tag_94\n      jump\t// in\n    tag_95:\n        /* \"contracts/LoanAccount.sol\":5330:5344  _interest_rate */\n      sload(0x03)\n        /* \"contracts/LoanAccount.sol\":5350:5365  _no_of_payments */\n      dup5\n      swap1\n        /* \"contracts/LoanAccount.sol\":5314:5345  10000 + uint256(_interest_rate) */\n      tag_96\n      swap1\n      shl(0xa0, 0x01)\n        /* \"contracts/LoanAccount.sol\":5330:5344  _interest_rate */\n      swap1\n      div\n      0xffff\n      and\n        /* \"contracts/LoanAccount.sol\":5314:5319  10000 */\n      0x2710\n        /* \"contracts/LoanAccount.sol\":5314:5345  10000 + uint256(_interest_rate) */\n      tag_92\n      jump\t// in\n    tag_96:\n        /* \"contracts/LoanAccount.sol\":5313:5365  (10000 + uint256(_interest_rate)) ** _no_of_payments */\n      tag_97\n      swap2\n      swap1\n      tag_94\n      jump\t// in\n    tag_97:\n        /* \"contracts/LoanAccount.sol\":5312:5395  ((10000 + uint256(_interest_rate)) ** _no_of_payments) - (10000 ** _no_of_payments) */\n      tag_98\n      swap2\n      swap1\n      tag_99\n      jump\t// in\n    tag_98:\n        /* \"contracts/LoanAccount.sol\":5473:5487  _interest_rate */\n      sload(0x03)\n        /* \"contracts/LoanAccount.sol\":5422:5462  _disbursed_token_asset._disbursed_amount */\n      sload(0x0a)\n        /* \"contracts/LoanAccount.sol\":5289:5395  uint256 _denominator = ((10000 + uint256(_interest_rate)) ** _no_of_payments) - (10000 ** _no_of_payments) */\n      swap2\n      swap3\n      pop\n        /* \"contracts/LoanAccount.sol\":5406:5418  uint256 _emi */\n      0x00\n      swap2\n        /* \"contracts/LoanAccount.sol\":5289:5395  uint256 _denominator = ((10000 + uint256(_interest_rate)) ** _no_of_payments) - (10000 ** _no_of_payments) */\n      dup4\n      swap2\n        /* \"contracts/LoanAccount.sol\":5491:5501  _numerator */\n      dup6\n      swap2\n        /* \"contracts/LoanAccount.sol\":5422:5488  _disbursed_token_asset._disbursed_amount * uint256(_interest_rate) */\n      tag_100\n      swap2\n      shl(0xa0, 0x01)\n        /* \"contracts/LoanAccount.sol\":5473:5487  _interest_rate */\n      swap1\n      div\n      0xffff\n      and\n      swap1\n        /* \"contracts/LoanAccount.sol\":5422:5488  _disbursed_token_asset._disbursed_amount * uint256(_interest_rate) */\n      tag_101\n      jump\t// in\n    tag_100:\n        /* \"contracts/LoanAccount.sol\":5422:5501  _disbursed_token_asset._disbursed_amount * uint256(_interest_rate) * _numerator */\n      tag_102\n      swap2\n      swap1\n      tag_101\n      jump\t// in\n    tag_102:\n        /* \"contracts/LoanAccount.sol\":5421:5517  (_disbursed_token_asset._disbursed_amount * uint256(_interest_rate) * _numerator) / _denominator */\n      tag_103\n      swap2\n      swap1\n      tag_89\n      jump\t// in\n    tag_103:\n        /* \"contracts/LoanAccount.sol\":5594:5611  _payment_defaults */\n      sload(0x05)\n        /* \"contracts/LoanAccount.sol\":5406:5517  uint256 _emi = (_disbursed_token_asset._disbursed_amount * uint256(_interest_rate) * _numerator) / _denominator */\n      swap1\n      swap2\n      pop\n        /* \"contracts/LoanAccount.sol\":5529:5545  uint256 _payment */\n      0x00\n      swap1\n        /* \"contracts/LoanAccount.sol\":5587:5611  100 ** _payment_defaults */\n      tag_104\n      swap1\n        /* \"contracts/LoanAccount.sol\":5594:5611  _payment_defaults */\n      0xff\n      and\n        /* \"contracts/LoanAccount.sol\":5587:5590  100 */\n      0x64\n        /* \"contracts/LoanAccount.sol\":5587:5611  100 ** _payment_defaults */\n      tag_105\n      jump\t// in\n    tag_104:\n        /* \"contracts/LoanAccount.sol\":5564:5581  _payment_defaults */\n      sload(0x05)\n        /* \"contracts/LoanAccount.sol\":5557:5581  110 ** _payment_defaults */\n      tag_106\n      swap1\n        /* \"contracts/LoanAccount.sol\":5564:5581  _payment_defaults */\n      0xff\n      and\n        /* \"contracts/LoanAccount.sol\":5557:5560  110 */\n      0x6e\n        /* \"contracts/LoanAccount.sol\":5557:5581  110 ** _payment_defaults */\n      tag_105\n      jump\t// in\n    tag_106:\n        /* \"contracts/LoanAccount.sol\":5549:5582  _emi * (110 ** _payment_defaults) */\n      tag_107\n      swap1\n        /* \"contracts/LoanAccount.sol\":5549:5553  _emi */\n      dup5\n        /* \"contracts/LoanAccount.sol\":5549:5582  _emi * (110 ** _payment_defaults) */\n      tag_101\n      jump\t// in\n    tag_107:\n        /* \"contracts/LoanAccount.sol\":5548:5612  (_emi * (110 ** _payment_defaults)) / (100 ** _payment_defaults) */\n      tag_108\n      swap2\n      swap1\n      tag_89\n      jump\t// in\n    tag_108:\n        /* \"contracts/LoanAccount.sol\":5529:5612  uint256 _payment = (_emi * (110 ** _payment_defaults)) / (100 ** _payment_defaults) */\n      swap7\n        /* \"contracts/LoanAccount.sol\":4962:5646  function calculate_emi() public view returns (uint256) {... */\n      swap6\n      pop\n      pop\n      pop\n      pop\n      pop\n      pop\n      jump\t// out\n        /* \"@openzeppelin/contracts/access/Ownable.sol\":2293:2394  function renounceOwnership() public virtual onlyOwner {... */\n    tag_45:\n        /* \"@openzeppelin/contracts/access/Ownable.sol\":1531:1544  _checkOwner() */\n      tag_110\n        /* \"@openzeppelin/contracts/access/Ownable.sol\":1531:1542  _checkOwner */\n      tag_111\n        /* \"@openzeppelin/contracts/access/Ownable.sol\":1531:1544  _checkOwner() */\n      jump\t// in\n    tag_110:\n        /* \"@openzeppelin/contracts/access/Ownable.sol\":2357:2387  _transferOwnership(address(0)) */\n      tag_113\n        /* \"@openzeppelin/contracts/access/Ownable.sol\":2384:2385  0 */\n      0x00\n        /* \"@openzeppelin/contracts/access/Ownable.sol\":2357:2375  _transferOwnership */\n      tag_114\n        /* \"@openzeppelin/contracts/access/Ownable.sol\":2357:2387  _transferOwnership(address(0)) */\n      jump\t// in\n    tag_113:\n        /* \"@openzeppelin/contracts/access/Ownable.sol\":2293:2394  function renounceOwnership() public virtual onlyOwner {... */\n      jump\t// out\n        /* \"contracts/LoanAccount.sol\":5654:5829  function get_outstanding_balance() external view returns(uint256) {... */\n    tag_47:\n        /* \"contracts/LoanAccount.sol\":5781:5821  _disbursed_token_asset._principal_repaid */\n      sload(0x0b)\n        /* \"contracts/LoanAccount.sol\":5738:5778  _disbursed_token_asset._disbursed_amount */\n      sload(0x0a)\n        /* \"contracts/LoanAccount.sol\":5711:5718  uint256 */\n      0x00\n      swap2\n        /* \"contracts/LoanAccount.sol\":5738:5821  _disbursed_token_asset._disbursed_amount - _disbursed_token_asset._principal_repaid */\n      tag_116\n      swap2\n      tag_99\n      jump\t// in\n    tag_116:\n        /* \"contracts/LoanAccount.sol\":5731:5821  return _disbursed_token_asset._disbursed_amount - _disbursed_token_asset._principal_repaid */\n      swap1\n      pop\n        /* \"contracts/LoanAccount.sol\":5654:5829  function get_outstanding_balance() external view returns(uint256) {... */\n      swap1\n      jump\t// out\n        /* \"contracts/LoanAccount.sol\":3964:4954  function deduct_emi() onlyOwner() external {... */\n    tag_67:\n        /* \"@openzeppelin/contracts/access/Ownable.sol\":1531:1544  _checkOwner() */\n      tag_122\n        /* \"@openzeppelin/contracts/access/Ownable.sol\":1531:1542  _checkOwner */\n      tag_111\n        /* \"@openzeppelin/contracts/access/Ownable.sol\":1531:1544  _checkOwner() */\n      jump\t// in\n    tag_122:\n        /* \"contracts/LoanAccount.sol\":4041:4063  _disbursed_token_asset */\n      0x09\n        /* \"contracts/LoanAccount.sol\":4041:4079  _disbursed_token_asset._token_contract */\n      sload\n      sub(shl(0xa0, 0x01), 0x01)\n      and\n        /* \"contracts/LoanAccount.sol\":4018:4031  IERC20 _token */\n      0x00\n        /* \"contracts/LoanAccount.sol\":4110:4125  calculate_emi() */\n      tag_124\n        /* \"contracts/LoanAccount.sol\":4110:4123  calculate_emi */\n      tag_38\n        /* \"contracts/LoanAccount.sol\":4110:4125  calculate_emi() */\n      jump\t// in\n    tag_124:\n        /* \"contracts/LoanAccount.sol\":4091:4125  uint256 _payment = calculate_emi() */\n      swap1\n      pop\n        /* \"contracts/LoanAccount.sol\":4139:4147  _payment */\n      dup1\n        /* \"contracts/LoanAccount.sol\":4151:4152  0 */\n      0x00\n        /* \"contracts/LoanAccount.sol\":4139:4152  _payment == 0 */\n      sub\n        /* \"contracts/LoanAccount.sol\":4136:4314  if(_payment == 0) {... */\n      tag_125\n      jumpi\n        /* \"contracts/LoanAccount.sol\":4177:4193  _mortgaged_asset */\n      0x07\n        /* \"contracts/LoanAccount.sol\":4177:4209  _mortgaged_asset._token_contract */\n      sload\n        /* \"contracts/LoanAccount.sol\":4243:4252  _borrower */\n      sload(0x02)\n        /* \"contracts/LoanAccount.sol\":4254:4280  _mortgaged_asset._token_id */\n      sload(0x08)\n        /* \"contracts/LoanAccount.sol\":4169:4281  IERC721(_mortgaged_asset._token_contract).safeTransferFrom(address(this), _borrower, _mortgaged_asset._token_id) */\n      mload(0x40)\n      shl(0xe1, 0x21421707)\n      dup2\n      mstore\n      sub(shl(0xa0, 0x01), 0x01)\n        /* \"contracts/LoanAccount.sol\":4177:4209  _mortgaged_asset._token_contract */\n      swap4\n      dup5\n      and\n      swap4\n        /* \"contracts/LoanAccount.sol\":4169:4227  IERC721(_mortgaged_asset._token_contract).safeTransferFrom */\n      0x42842e0e\n      swap4\n        /* \"contracts/LoanAccount.sol\":4169:4281  IERC721(_mortgaged_asset._token_contract).safeTransferFrom(address(this), _borrower, _mortgaged_asset._token_id) */\n      tag_126\n      swap4\n        /* \"contracts/LoanAccount.sol\":4236:4240  this */\n      address\n      swap4\n        /* \"contracts/LoanAccount.sol\":4243:4252  _borrower */\n      swap3\n      swap1\n      swap2\n      and\n      swap2\n        /* \"contracts/LoanAccount.sol\":4169:4281  IERC721(_mortgaged_asset._token_contract).safeTransferFrom(address(this), _borrower, _mortgaged_asset._token_id) */\n      0x04\n      add\n      tag_127\n      jump\t// in\n    tag_126:\n      0x00\n      mload(0x40)\n      dup1\n      dup4\n      sub\n      dup2\n      0x00\n      dup8\n      dup1\n      extcodesize\n      iszero\n      dup1\n      iszero\n      tag_128\n      jumpi\n      0x00\n      dup1\n      revert\n    tag_128:\n      pop\n      gas\n      call\n      iszero\n      dup1\n      iszero\n      tag_130\n      jumpi\n      returndatasize\n      0x00\n      dup1\n      returndatacopy\n      revert(0x00, returndatasize)\n    tag_130:\n      pop\n      pop\n      pop\n      pop\n        /* \"contracts/LoanAccount.sol\":4296:4303  return; */\n      pop\n      pop\n        /* \"@openzeppelin/contracts/access/Ownable.sol\":2293:2394  function renounceOwnership() public virtual onlyOwner {... */\n      jump\t// out\n        /* \"contracts/LoanAccount.sol\":4136:4314  if(_payment == 0) {... */\n    tag_125:\n        /* \"contracts/LoanAccount.sol\":4345:4354  _borrower */\n      sload(0x02)\n        /* \"contracts/LoanAccount.sol\":4328:4355  _token.balanceOf(_borrower) */\n      mload(0x40)\n      shl(0xe0, 0x70a08231)\n      dup2\n      mstore\n      sub(shl(0xa0, 0x01), 0x01)\n        /* \"contracts/LoanAccount.sol\":4345:4354  _borrower */\n      swap2\n      dup3\n      and\n        /* \"contracts/LoanAccount.sol\":4328:4355  _token.balanceOf(_borrower) */\n      0x04\n      dup3\n      add\n        /* \"#utility.yul\":2103:2154   */\n      mstore\n        /* \"contracts/LoanAccount.sol\":4359:4367  _payment */\n      dup3\n      swap2\n        /* \"contracts/LoanAccount.sol\":4328:4344  _token.balanceOf */\n      dup5\n      and\n      swap1\n      0x70a08231\n      swap1\n        /* \"#utility.yul\":2076:2094   */\n      0x24\n      add\n        /* \"contracts/LoanAccount.sol\":4328:4355  _token.balanceOf(_borrower) */\n      0x20\n      mload(0x40)\n      dup1\n      dup4\n      sub\n      dup2\n      dup7\n      gas\n      staticcall\n      iszero\n      dup1\n      iszero\n      tag_133\n      jumpi\n      returndatasize\n      0x00\n      dup1\n      returndatacopy\n      revert(0x00, returndatasize)\n    tag_133:\n      pop\n      pop\n      pop\n      pop\n      mload(0x40)\n      returndatasize\n      not(0x1f)\n      0x1f\n      dup3\n      add\n      and\n      dup3\n      add\n      dup1\n      0x40\n      mstore\n      pop\n      dup2\n      add\n      swap1\n      tag_134\n      swap2\n      swap1\n      tag_135\n      jump\t// in\n    tag_134:\n        /* \"contracts/LoanAccount.sol\":4328:4367  _token.balanceOf(_borrower) >= _payment */\n      lt\n      iszero\n        /* \"contracts/LoanAccount.sol\":4328:4425  _token.balanceOf(_borrower) >= _payment && _token.allowance(_borrower, address(this)) >= _payment */\n      dup1\n      iszero\n      tag_136\n      jumpi\n      pop\n        /* \"contracts/LoanAccount.sol\":4388:4397  _borrower */\n      sload(0x02)\n        /* \"contracts/LoanAccount.sol\":4371:4413  _token.allowance(_borrower, address(this)) */\n      mload(0x40)\n      shl(0xe1, 0x6eb1769f)\n      dup2\n      mstore\n      sub(shl(0xa0, 0x01), 0x01)\n        /* \"contracts/LoanAccount.sol\":4388:4397  _borrower */\n      swap2\n      dup3\n      and\n        /* \"contracts/LoanAccount.sol\":4371:4413  _token.allowance(_borrower, address(this)) */\n      0x04\n      dup3\n      add\n        /* \"#utility.yul\":6705:6739   */\n      mstore\n        /* \"contracts/LoanAccount.sol\":4407:4411  this */\n      address\n        /* \"#utility.yul\":6755:6773   */\n      0x24\n      dup3\n      add\n        /* \"#utility.yul\":6748:6791   */\n      mstore\n        /* \"contracts/LoanAccount.sol\":4417:4425  _payment */\n      dup3\n      swap2\n        /* \"contracts/LoanAccount.sol\":4371:4387  _token.allowance */\n      dup5\n      and\n      swap1\n      0xdd62ed3e\n      swap1\n        /* \"#utility.yul\":6640:6658   */\n      0x44\n      add\n        /* \"contracts/LoanAccount.sol\":4371:4413  _token.allowance(_borrower, address(this)) */\n      0x20\n      mload(0x40)\n      dup1\n      dup4\n      sub\n      dup2\n      dup7\n      gas\n      staticcall\n      iszero\n      dup1\n      iszero\n      tag_140\n      jumpi\n      returndatasize\n      0x00\n      dup1\n      returndatacopy\n      revert(0x00, returndatasize)\n    tag_140:\n      pop\n      pop\n      pop\n      pop\n      mload(0x40)\n      returndatasize\n      not(0x1f)\n      0x1f\n      dup3\n      add\n      and\n      dup3\n      add\n      dup1\n      0x40\n      mstore\n      pop\n      dup2\n      add\n      swap1\n      tag_141\n      swap2\n      swap1\n      tag_135\n      jump\t// in\n    tag_141:\n        /* \"contracts/LoanAccount.sol\":4371:4425  _token.allowance(_borrower, address(this)) >= _payment */\n      lt\n      iszero\n        /* \"contracts/LoanAccount.sol\":4328:4425  _token.balanceOf(_borrower) >= _payment && _token.allowance(_borrower, address(this)) >= _payment */\n    tag_136:\n        /* \"contracts/LoanAccount.sol\":4324:4947  if (_token.balanceOf(_borrower) >= _payment && _token.allowance(_borrower, address(this)) >= _payment) {... */\n      iszero\n      tag_142\n      jumpi\n        /* \"contracts/LoanAccount.sol\":4462:4471  _borrower */\n      sload(0x02)\n      0x01\n        /* \"contracts/LoanAccount.sol\":4473:4480  _lender */\n      sload\n        /* \"contracts/LoanAccount.sol\":4442:4491  _token.transferFrom(_borrower, _lender, _payment) */\n      mload(0x40)\n      shl(0xe0, 0x23b872dd)\n      dup2\n      mstore\n      sub(shl(0xa0, 0x01), 0x01)\n        /* \"contracts/LoanAccount.sol\":4442:4461  _token.transferFrom */\n      dup1\n      dup7\n      and\n      swap4\n      0x23b872dd\n      swap4\n        /* \"contracts/LoanAccount.sol\":4442:4491  _token.transferFrom(_borrower, _lender, _payment) */\n      tag_143\n      swap4\n        /* \"contracts/LoanAccount.sol\":4462:4471  _borrower */\n      swap2\n      dup4\n      and\n      swap3\n        /* \"contracts/LoanAccount.sol\":4473:4480  _lender */\n      and\n      swap1\n        /* \"contracts/LoanAccount.sol\":4482:4490  _payment */\n      dup7\n      swap1\n        /* \"contracts/LoanAccount.sol\":4442:4491  _token.transferFrom(_borrower, _lender, _payment) */\n      0x04\n      add\n      tag_127\n      jump\t// in\n    tag_143:\n      0x20\n      mload(0x40)\n      dup1\n      dup4\n      sub\n      dup2\n      0x00\n      dup8\n      gas\n      call\n      iszero\n      dup1\n      iszero\n      tag_145\n      jumpi\n      returndatasize\n      0x00\n      dup1\n      returndatacopy\n      revert(0x00, returndatasize)\n    tag_145:\n      pop\n      pop\n      pop\n      pop\n      mload(0x40)\n      returndatasize\n      not(0x1f)\n      0x1f\n      dup3\n      add\n      and\n      dup3\n      add\n      dup1\n      0x40\n      mstore\n      pop\n      dup2\n      add\n      swap1\n      tag_146\n      swap2\n      swap1\n      tag_147\n      jump\t// in\n    tag_146:\n      pop\n        /* \"contracts/LoanAccount.sol\":4649:4666  _payment_interval */\n      sload(0x04)\n        /* \"contracts/LoanAccount.sol\":4634:4646  _time_period */\n      sload(0x06)\n        /* \"contracts/LoanAccount.sol\":4634:4666  _time_period / _payment_interval */\n      tag_148\n      swap2\n      swap1\n      tag_89\n      jump\t// in\n    tag_148:\n        /* \"contracts/LoanAccount.sol\":4625:4667  10000 * (_time_period / _payment_interval) */\n      tag_149\n      swap1\n        /* \"contracts/LoanAccount.sol\":4625:4630  10000 */\n      0x2710\n        /* \"contracts/LoanAccount.sol\":4625:4667  10000 * (_time_period / _payment_interval) */\n      tag_101\n      jump\t// in\n    tag_149:\n        /* \"contracts/LoanAccount.sol\":4606:4620  _interest_rate */\n      sload(0x03)\n        /* \"contracts/LoanAccount.sol\":4563:4603  _disbursed_token_asset._disbursed_amount */\n      sload(0x0a)\n        /* \"contracts/LoanAccount.sol\":4563:4620  _disbursed_token_asset._disbursed_amount * _interest_rate */\n      tag_150\n      swap2\n      shl(0xa0, 0x01)\n        /* \"contracts/LoanAccount.sol\":4606:4620  _interest_rate */\n      swap1\n      div\n      0xffff\n      and\n      swap1\n        /* \"contracts/LoanAccount.sol\":4563:4620  _disbursed_token_asset._disbursed_amount * _interest_rate */\n      tag_101\n      jump\t// in\n    tag_150:\n        /* \"contracts/LoanAccount.sol\":4562:4668  (_disbursed_token_asset._disbursed_amount * _interest_rate) / (10000 * (_time_period / _payment_interval)) */\n      tag_151\n      swap2\n      swap1\n      tag_89\n      jump\t// in\n    tag_151:\n        /* \"contracts/LoanAccount.sol\":4550:4669  _payment - ((_disbursed_token_asset._disbursed_amount * _interest_rate) / (10000 * (_time_period / _payment_interval))) */\n      tag_152\n      swap1\n        /* \"contracts/LoanAccount.sol\":4550:4558  _payment */\n      dup3\n        /* \"contracts/LoanAccount.sol\":4550:4669  _payment - ((_disbursed_token_asset._disbursed_amount * _interest_rate) / (10000 * (_time_period / _payment_interval))) */\n      tag_99\n      jump\t// in\n    tag_152:\n        /* \"contracts/LoanAccount.sol\":4506:4546  _disbursed_token_asset._principal_repaid */\n      0x0b\n        /* \"contracts/LoanAccount.sol\":4506:4669  _disbursed_token_asset._principal_repaid += _payment - ((_disbursed_token_asset._disbursed_amount * _interest_rate) / (10000 * (_time_period / _payment_interval))) */\n      dup1\n      sload\n        /* \"contracts/LoanAccount.sol\":4506:4546  _disbursed_token_asset._principal_repaid */\n      0x00\n      swap1\n        /* \"contracts/LoanAccount.sol\":4506:4669  _disbursed_token_asset._principal_repaid += _payment - ((_disbursed_token_asset._disbursed_amount * _interest_rate) / (10000 * (_time_period / _payment_interval))) */\n      tag_153\n      swap1\n      dup5\n      swap1\n      tag_92\n      jump\t// in\n    tag_153:\n      swap1\n      swap2\n      sstore\n      pop\n      pop\n        /* \"contracts/LoanAccount.sol\":4684:4722  _disbursed_token_asset._no_of_payments */\n      0x0c\n        /* \"contracts/LoanAccount.sol\":4684:4724  _disbursed_token_asset._no_of_payments++ */\n      dup1\n      sload\n      swap1\n        /* \"contracts/LoanAccount.sol\":4684:4722  _disbursed_token_asset._no_of_payments */\n      0x00\n        /* \"contracts/LoanAccount.sol\":4684:4724  _disbursed_token_asset._no_of_payments++ */\n      tag_154\n      dup4\n      tag_155\n      jump\t// in\n    tag_154:\n      swap1\n      swap2\n      sstore\n      pop\n      pop\n        /* \"contracts/LoanAccount.sol\":4739:4756  _payment_defaults */\n      0x05\n        /* \"contracts/LoanAccount.sol\":4739:4760  _payment_defaults = 0 */\n      dup1\n      sload\n      not(0xff)\n      and\n      swap1\n      sstore\n        /* \"contracts/LoanAccount.sol\":4007:4954  {... */\n      pop\n      pop\n        /* \"contracts/LoanAccount.sol\":3964:4954  function deduct_emi() onlyOwner() external {... */\n      jump\t// out\n        /* \"contracts/LoanAccount.sol\":4324:4947  if (_token.balanceOf(_borrower) >= _payment && _token.allowance(_borrower, address(this)) >= _payment) {... */\n    tag_142:\n        /* \"contracts/LoanAccount.sol\":4817:4818  5 */\n      0x05\n        /* \"contracts/LoanAccount.sol\":4797:4814  _payment_defaults */\n      dup1\n      sload\n      0xff\n      and\n        /* \"contracts/LoanAccount.sol\":4797:4818  _payment_defaults < 5 */\n      lt\n        /* \"contracts/LoanAccount.sol\":4793:4936  if (_payment_defaults < 5) {... */\n      iszero\n      tag_157\n      jumpi\n        /* \"contracts/LoanAccount.sol\":4839:4856  _payment_defaults */\n      0x05\n        /* \"contracts/LoanAccount.sol\":4839:4858  _payment_defaults++ */\n      dup1\n      sload\n      0xff\n      and\n      swap1\n        /* \"contracts/LoanAccount.sol\":4839:4856  _payment_defaults */\n      0x00\n        /* \"contracts/LoanAccount.sol\":4839:4858  _payment_defaults++ */\n      tag_158\n      dup4\n      tag_159\n      jump\t// in\n    tag_158:\n      swap2\n      swap1\n      0x0100\n      exp\n      dup2\n      sload\n      dup2\n      0xff\n      mul\n      not\n      and\n      swap1\n      dup4\n      0xff\n      and\n      mul\n      or\n      swap1\n      sstore\n      pop\n      pop\n        /* \"contracts/LoanAccount.sol\":4007:4954  {... */\n      pop\n      pop\n        /* \"contracts/LoanAccount.sol\":3964:4954  function deduct_emi() onlyOwner() external {... */\n      jump\t// out\n        /* \"contracts/LoanAccount.sol\":4793:4936  if (_payment_defaults < 5) {... */\n    tag_157:\n        /* \"contracts/LoanAccount.sol\":4899:4920  invalidate_contract() */\n      tag_161\n        /* \"contracts/LoanAccount.sol\":4899:4918  invalidate_contract */\n      tag_162\n        /* \"contracts/LoanAccount.sol\":4899:4920  invalidate_contract() */\n      jump\t// in\n    tag_161:\n        /* \"contracts/LoanAccount.sol\":4007:4954  {... */\n      pop\n      pop\n        /* \"contracts/LoanAccount.sol\":3964:4954  function deduct_emi() onlyOwner() external {... */\n      jump\t// out\n        /* \"contracts/LoanAccount.sol\":1630:3956  function disburse_loan(... */\n    tag_75:\n        /* \"@openzeppelin/contracts/access/Ownable.sol\":1531:1544  _checkOwner() */\n      tag_164\n        /* \"@openzeppelin/contracts/access/Ownable.sol\":1531:1542  _checkOwner */\n      tag_111\n        /* \"@openzeppelin/contracts/access/Ownable.sol\":1531:1544  _checkOwner() */\n      jump\t// in\n    tag_164:\n        /* \"contracts/LoanAccount.sol\":1867:1889  _disbursed_token_asset */\n      0x09\n        /* \"contracts/LoanAccount.sol\":1867:1905  _disbursed_token_asset._token_contract */\n      sload\n        /* \"contracts/LoanAccount.sol\":1951:1967  _mortgaged_asset */\n      0x07\n        /* \"contracts/LoanAccount.sol\":1951:1983  _mortgaged_asset._token_contract */\n      sload\n      sub(shl(0xa0, 0x01), 0x01)\n        /* \"contracts/LoanAccount.sol\":1867:1905  _disbursed_token_asset._token_contract */\n      swap2\n      dup3\n      and\n      swap2\n        /* \"contracts/LoanAccount.sol\":1951:1983  _mortgaged_asset._token_contract */\n      and\n        /* \"contracts/LoanAccount.sol\":2005:2036  time_period >= payment_interval */\n      dup4\n      dup6\n      lt\n      iszero\n        /* \"contracts/LoanAccount.sol\":1997:2089  require(time_period >= payment_interval, \"Time period cannot be less than payment interval\") */\n      tag_166\n      jumpi\n      mload(0x40)\n      shl(0xe5, 0x461bcd)\n      dup2\n      mstore\n        /* \"#utility.yul\":7606:7608   */\n      0x20\n        /* \"contracts/LoanAccount.sol\":1997:2089  require(time_period >= payment_interval, \"Time period cannot be less than payment interval\") */\n      0x04\n      dup3\n      add\n        /* \"#utility.yul\":7588:7609   */\n      mstore\n        /* \"#utility.yul\":7645:7647   */\n      0x30\n        /* \"#utility.yul\":7625:7643   */\n      0x24\n      dup3\n      add\n        /* \"#utility.yul\":7618:7648   */\n      mstore\n        /* \"#utility.yul\":7684:7718   */\n      0x54696d6520706572696f642063616e6e6f74206265206c657373207468616e20\n        /* \"#utility.yul\":7664:7682   */\n      0x44\n      dup3\n      add\n        /* \"#utility.yul\":7657:7719   */\n      mstore\n      shl(0x82, 0x1c185e5b595b9d081a5b9d195c9d985b)\n        /* \"#utility.yul\":7735:7753   */\n      0x64\n      dup3\n      add\n        /* \"#utility.yul\":7728:7774   */\n      mstore\n        /* \"#utility.yul\":7791:7810   */\n      0x84\n      add\n        /* \"contracts/LoanAccount.sol\":1997:2089  require(time_period >= payment_interval, \"Time period cannot be less than payment interval\") */\n    tag_167:\n      mload(0x40)\n      dup1\n      swap2\n      sub\n      swap1\n      revert\n    tag_166:\n        /* \"contracts/LoanAccount.sol\":2208:2213  10000 */\n      0x2710\n        /* \"contracts/LoanAccount.sol\":2184:2204  _disbursement * 2500 */\n      tag_169\n        /* \"contracts/LoanAccount.sol\":2184:2197  _disbursement */\n      dup8\n        /* \"contracts/LoanAccount.sol\":2200:2204  2500 */\n      0x09c4\n        /* \"contracts/LoanAccount.sol\":2184:2204  _disbursement * 2500 */\n      tag_101\n      jump\t// in\n    tag_169:\n        /* \"contracts/LoanAccount.sol\":2183:2213  (_disbursement * 2500) / 10000 */\n      tag_170\n      swap2\n      swap1\n      tag_89\n      jump\t// in\n    tag_170:\n        /* \"contracts/LoanAccount.sol\":2154:2163  _borrower */\n      sload(0x02)\n        /* \"contracts/LoanAccount.sol\":2122:2179  disbursed_token_asset.allowance(_borrower, address(this)) */\n      mload(0x40)\n      shl(0xe1, 0x6eb1769f)\n      dup2\n      mstore\n      sub(shl(0xa0, 0x01), 0x01)\n        /* \"contracts/LoanAccount.sol\":2154:2163  _borrower */\n      swap2\n      dup3\n      and\n        /* \"contracts/LoanAccount.sol\":2122:2179  disbursed_token_asset.allowance(_borrower, address(this)) */\n      0x04\n      dup3\n      add\n        /* \"#utility.yul\":6705:6739   */\n      mstore\n        /* \"contracts/LoanAccount.sol\":2173:2177  this */\n      address\n        /* \"#utility.yul\":6755:6773   */\n      0x24\n      dup3\n      add\n        /* \"#utility.yul\":6748:6791   */\n      mstore\n        /* \"contracts/LoanAccount.sol\":2122:2153  disbursed_token_asset.allowance */\n      swap1\n      dup5\n      and\n      swap1\n      0xdd62ed3e\n      swap1\n        /* \"#utility.yul\":6640:6658   */\n      0x44\n      add\n        /* \"contracts/LoanAccount.sol\":2122:2179  disbursed_token_asset.allowance(_borrower, address(this)) */\n      0x20\n      mload(0x40)\n      dup1\n      dup4\n      sub\n      dup2\n      dup7\n      gas\n      staticcall\n      iszero\n      dup1\n      iszero\n      tag_173\n      jumpi\n      returndatasize\n      0x00\n      dup1\n      returndatacopy\n      revert(0x00, returndatasize)\n    tag_173:\n      pop\n      pop\n      pop\n      pop\n      mload(0x40)\n      returndatasize\n      not(0x1f)\n      0x1f\n      dup3\n      add\n      and\n      dup3\n      add\n      dup1\n      0x40\n      mstore\n      pop\n      dup2\n      add\n      swap1\n      tag_174\n      swap2\n      swap1\n      tag_135\n      jump\t// in\n    tag_174:\n        /* \"contracts/LoanAccount.sol\":2122:2213  disbursed_token_asset.allowance(_borrower, address(this)) >= (_disbursement * 2500) / 10000 */\n      lt\n      iszero\n        /* \"contracts/LoanAccount.sol\":2100:2268  require(... */\n      tag_175\n      jumpi\n      mload(0x40)\n      shl(0xe5, 0x461bcd)\n      dup2\n      mstore\n        /* \"#utility.yul\":8023:8025   */\n      0x20\n        /* \"contracts/LoanAccount.sol\":2100:2268  require(... */\n      0x04\n      dup3\n      add\n        /* \"#utility.yul\":8005:8026   */\n      mstore\n        /* \"#utility.yul\":8062:8064   */\n      0x1b\n        /* \"#utility.yul\":8042:8060   */\n      0x24\n      dup3\n      add\n        /* \"#utility.yul\":8035:8065   */\n      mstore\n        /* \"#utility.yul\":8101:8130   */\n      0x426f72726f77657220616c6c6f77616e636520746f6f206c6f772e0000000000\n        /* \"#utility.yul\":8081:8099   */\n      0x44\n      dup3\n      add\n        /* \"#utility.yul\":8074:8131   */\n      mstore\n        /* \"#utility.yul\":8148:8166   */\n      0x64\n      add\n        /* \"contracts/LoanAccount.sol\":2100:2268  require(... */\n      tag_167\n        /* \"#utility.yul\":7821:8172   */\n      jump\n        /* \"contracts/LoanAccount.sol\":2100:2268  require(... */\n    tag_175:\n        /* \"contracts/LoanAccount.sol\":2372:2377  10000 */\n      0x2710\n        /* \"contracts/LoanAccount.sol\":2348:2368  _disbursement * 2500 */\n      tag_178\n        /* \"contracts/LoanAccount.sol\":2348:2361  _disbursement */\n      dup8\n        /* \"contracts/LoanAccount.sol\":2364:2368  2500 */\n      0x09c4\n        /* \"contracts/LoanAccount.sol\":2348:2368  _disbursement * 2500 */\n      tag_101\n      jump\t// in\n    tag_178:\n        /* \"contracts/LoanAccount.sol\":2347:2377  (_disbursement * 2500) / 10000 */\n      tag_179\n      swap2\n      swap1\n      tag_89\n      jump\t// in\n    tag_179:\n        /* \"contracts/LoanAccount.sol\":2333:2342  _borrower */\n      sload(0x02)\n        /* \"contracts/LoanAccount.sol\":2301:2343  disbursed_token_asset.balanceOf(_borrower) */\n      mload(0x40)\n      shl(0xe0, 0x70a08231)\n      dup2\n      mstore\n      sub(shl(0xa0, 0x01), 0x01)\n        /* \"contracts/LoanAccount.sol\":2333:2342  _borrower */\n      swap2\n      dup3\n      and\n        /* \"contracts/LoanAccount.sol\":2301:2343  disbursed_token_asset.balanceOf(_borrower) */\n      0x04\n      dup3\n      add\n        /* \"#utility.yul\":2103:2154   */\n      mstore\n        /* \"contracts/LoanAccount.sol\":2301:2332  disbursed_token_asset.balanceOf */\n      swap1\n      dup5\n      and\n      swap1\n      0x70a08231\n      swap1\n        /* \"#utility.yul\":2076:2094   */\n      0x24\n      add\n        /* \"contracts/LoanAccount.sol\":2301:2343  disbursed_token_asset.balanceOf(_borrower) */\n      0x20\n      mload(0x40)\n      dup1\n      dup4\n      sub\n      dup2\n      dup7\n      gas\n      staticcall\n      iszero\n      dup1\n      iszero\n      tag_182\n      jumpi\n      returndatasize\n      0x00\n      dup1\n      returndatacopy\n      revert(0x00, returndatasize)\n    tag_182:\n      pop\n      pop\n      pop\n      pop\n      mload(0x40)\n      returndatasize\n      not(0x1f)\n      0x1f\n      dup3\n      add\n      and\n      dup3\n      add\n      dup1\n      0x40\n      mstore\n      pop\n      dup2\n      add\n      swap1\n      tag_183\n      swap2\n      swap1\n      tag_135\n      jump\t// in\n    tag_183:\n        /* \"contracts/LoanAccount.sol\":2301:2377  disbursed_token_asset.balanceOf(_borrower) >= (_disbursement * 2500) / 10000 */\n      lt\n      iszero\n        /* \"contracts/LoanAccount.sol\":2279:2430  require(... */\n      tag_184\n      jumpi\n      mload(0x40)\n      shl(0xe5, 0x461bcd)\n      dup2\n      mstore\n        /* \"#utility.yul\":8379:8381   */\n      0x20\n        /* \"contracts/LoanAccount.sol\":2279:2430  require(... */\n      0x04\n      dup3\n      add\n        /* \"#utility.yul\":8361:8382   */\n      mstore\n        /* \"#utility.yul\":8418:8420   */\n      0x19\n        /* \"#utility.yul\":8398:8416   */\n      0x24\n      dup3\n      add\n        /* \"#utility.yul\":8391:8421   */\n      mstore\n        /* \"#utility.yul\":8457:8484   */\n      0x426f72726f7765722062616c616e636520746f6f206c6f772e00000000000000\n        /* \"#utility.yul\":8437:8455   */\n      0x44\n      dup3\n      add\n        /* \"#utility.yul\":8430:8485   */\n      mstore\n        /* \"#utility.yul\":8502:8520   */\n      0x64\n      add\n        /* \"contracts/LoanAccount.sol\":2279:2430  require(... */\n      tag_167\n        /* \"#utility.yul\":8177:8526   */\n      jump\n        /* \"contracts/LoanAccount.sol\":2279:2430  require(... */\n    tag_184:\n        /* \"contracts/LoanAccount.sol\":2495:2502  _lender */\n      sload(0x01)\n        /* \"contracts/LoanAccount.sol\":2463:2518  disbursed_token_asset.allowance(_lender, address(this)) */\n      mload(0x40)\n      shl(0xe1, 0x6eb1769f)\n      dup2\n      mstore\n      sub(shl(0xa0, 0x01), 0x01)\n        /* \"contracts/LoanAccount.sol\":2495:2502  _lender */\n      swap2\n      dup3\n      and\n        /* \"contracts/LoanAccount.sol\":2463:2518  disbursed_token_asset.allowance(_lender, address(this)) */\n      0x04\n      dup3\n      add\n        /* \"#utility.yul\":6705:6739   */\n      mstore\n        /* \"contracts/LoanAccount.sol\":2512:2516  this */\n      address\n        /* \"#utility.yul\":6755:6773   */\n      0x24\n      dup3\n      add\n        /* \"#utility.yul\":6748:6791   */\n      mstore\n        /* \"contracts/LoanAccount.sol\":2522:2535  _disbursement */\n      dup8\n      swap2\n        /* \"contracts/LoanAccount.sol\":2463:2494  disbursed_token_asset.allowance */\n      dup5\n      and\n      swap1\n      0xdd62ed3e\n      swap1\n        /* \"#utility.yul\":6640:6658   */\n      0x44\n      add\n        /* \"contracts/LoanAccount.sol\":2463:2518  disbursed_token_asset.allowance(_lender, address(this)) */\n      0x20\n      mload(0x40)\n      dup1\n      dup4\n      sub\n      dup2\n      dup7\n      gas\n      staticcall\n      iszero\n      dup1\n      iszero\n      tag_189\n      jumpi\n      returndatasize\n      0x00\n      dup1\n      returndatacopy\n      revert(0x00, returndatasize)\n    tag_189:\n      pop\n      pop\n      pop\n      pop\n      mload(0x40)\n      returndatasize\n      not(0x1f)\n      0x1f\n      dup3\n      add\n      and\n      dup3\n      add\n      dup1\n      0x40\n      mstore\n      pop\n      dup2\n      add\n      swap1\n      tag_190\n      swap2\n      swap1\n      tag_135\n      jump\t// in\n    tag_190:\n        /* \"contracts/LoanAccount.sol\":2463:2535  disbursed_token_asset.allowance(_lender, address(this)) >= _disbursement */\n      lt\n      iszero\n        /* \"contracts/LoanAccount.sol\":2441:2588  require(... */\n      tag_191\n      jumpi\n      mload(0x40)\n      shl(0xe5, 0x461bcd)\n      dup2\n      mstore\n        /* \"#utility.yul\":8733:8735   */\n      0x20\n        /* \"contracts/LoanAccount.sol\":2441:2588  require(... */\n      0x04\n      dup3\n      add\n        /* \"#utility.yul\":8715:8736   */\n      mstore\n        /* \"#utility.yul\":8772:8774   */\n      0x19\n        /* \"#utility.yul\":8752:8770   */\n      0x24\n      dup3\n      add\n        /* \"#utility.yul\":8745:8775   */\n      mstore\n        /* \"#utility.yul\":8811:8838   */\n      0x4c656e64657220616c6c6f77616e636520746f6f206c6f772e00000000000000\n        /* \"#utility.yul\":8791:8809   */\n      0x44\n      dup3\n      add\n        /* \"#utility.yul\":8784:8839   */\n      mstore\n        /* \"#utility.yul\":8856:8874   */\n      0x64\n      add\n        /* \"contracts/LoanAccount.sol\":2441:2588  require(... */\n      tag_167\n        /* \"#utility.yul\":8531:8880   */\n      jump\n        /* \"contracts/LoanAccount.sol\":2441:2588  require(... */\n    tag_191:\n        /* \"contracts/LoanAccount.sol\":2653:2660  _lender */\n      sload(0x01)\n        /* \"contracts/LoanAccount.sol\":2621:2661  disbursed_token_asset.balanceOf(_lender) */\n      mload(0x40)\n      shl(0xe0, 0x70a08231)\n      dup2\n      mstore\n      sub(shl(0xa0, 0x01), 0x01)\n        /* \"contracts/LoanAccount.sol\":2653:2660  _lender */\n      swap2\n      dup3\n      and\n        /* \"contracts/LoanAccount.sol\":2621:2661  disbursed_token_asset.balanceOf(_lender) */\n      0x04\n      dup3\n      add\n        /* \"#utility.yul\":2103:2154   */\n      mstore\n        /* \"contracts/LoanAccount.sol\":2665:2678  _disbursement */\n      dup8\n      swap2\n        /* \"contracts/LoanAccount.sol\":2621:2652  disbursed_token_asset.balanceOf */\n      dup5\n      and\n      swap1\n      0x70a08231\n      swap1\n        /* \"#utility.yul\":2076:2094   */\n      0x24\n      add\n        /* \"contracts/LoanAccount.sol\":2621:2661  disbursed_token_asset.balanceOf(_lender) */\n      0x20\n      mload(0x40)\n      dup1\n      dup4\n      sub\n      dup2\n      dup7\n      gas\n      staticcall\n      iszero\n      dup1\n      iszero\n      tag_196\n      jumpi\n      returndatasize\n      0x00\n      dup1\n      returndatacopy\n      revert(0x00, returndatasize)\n    tag_196:\n      pop\n      pop\n      pop\n      pop\n      mload(0x40)\n      returndatasize\n      not(0x1f)\n      0x1f\n      dup3\n      add\n      and\n      dup3\n      add\n      dup1\n      0x40\n      mstore\n      pop\n      dup2\n      add\n      swap1\n      tag_197\n      swap2\n      swap1\n      tag_135\n      jump\t// in\n    tag_197:\n        /* \"contracts/LoanAccount.sol\":2621:2678  disbursed_token_asset.balanceOf(_lender) >= _disbursement */\n      lt\n      iszero\n        /* \"contracts/LoanAccount.sol\":2599:2729  require(... */\n      tag_198\n      jumpi\n      mload(0x40)\n      shl(0xe5, 0x461bcd)\n      dup2\n      mstore\n        /* \"#utility.yul\":9087:9089   */\n      0x20\n        /* \"contracts/LoanAccount.sol\":2599:2729  require(... */\n      0x04\n      dup3\n      add\n        /* \"#utility.yul\":9069:9090   */\n      mstore\n        /* \"#utility.yul\":9126:9128   */\n      0x17\n        /* \"#utility.yul\":9106:9124   */\n      0x24\n      dup3\n      add\n        /* \"#utility.yul\":9099:9129   */\n      mstore\n        /* \"#utility.yul\":9165:9190   */\n      0x4c656e6465722062616c616e636520746f6f206c6f772e000000000000000000\n        /* \"#utility.yul\":9145:9163   */\n      0x44\n      dup3\n      add\n        /* \"#utility.yul\":9138:9191   */\n      mstore\n        /* \"#utility.yul\":9208:9226   */\n      0x64\n      add\n        /* \"contracts/LoanAccount.sol\":2599:2729  require(... */\n      tag_167\n        /* \"#utility.yul\":8885:9232   */\n      jump\n        /* \"contracts/LoanAccount.sol\":2599:2729  require(... */\n    tag_198:\n        /* \"contracts/LoanAccount.sol\":2790:2816  _mortgaged_asset._token_id */\n      sload(0x08)\n        /* \"contracts/LoanAccount.sol\":2762:2817  mortgaged_asset.getApproved(_mortgaged_asset._token_id) */\n      mload(0x40)\n      shl(0xe2, 0x020604bf)\n      dup2\n      mstore\n        /* \"contracts/LoanAccount.sol\":2829:2833  this */\n      address\n      swap2\n      sub(shl(0xa0, 0x01), 0x01)\n        /* \"contracts/LoanAccount.sol\":2762:2789  mortgaged_asset.getApproved */\n      dup5\n      and\n      swap2\n      0x081812fc\n      swap2\n        /* \"contracts/LoanAccount.sol\":2762:2817  mortgaged_asset.getApproved(_mortgaged_asset._token_id) */\n      tag_201\n      swap2\n      0x04\n      add\n        /* \"#utility.yul\":160:185   */\n      swap1\n      dup2\n      mstore\n        /* \"#utility.yul\":148:150   */\n      0x20\n        /* \"#utility.yul\":133:151   */\n      add\n      swap1\n        /* \"#utility.yul\":14:191   */\n      jump\n        /* \"contracts/LoanAccount.sol\":2762:2817  mortgaged_asset.getApproved(_mortgaged_asset._token_id) */\n    tag_201:\n      0x20\n      mload(0x40)\n      dup1\n      dup4\n      sub\n      dup2\n      dup7\n      gas\n      staticcall\n      iszero\n      dup1\n      iszero\n      tag_203\n      jumpi\n      returndatasize\n      0x00\n      dup1\n      returndatacopy\n      revert(0x00, returndatasize)\n    tag_203:\n      pop\n      pop\n      pop\n      pop\n      mload(0x40)\n      returndatasize\n      not(0x1f)\n      0x1f\n      dup3\n      add\n      and\n      dup3\n      add\n      dup1\n      0x40\n      mstore\n      pop\n      dup2\n      add\n      swap1\n      tag_204\n      swap2\n      swap1\n      tag_205\n      jump\t// in\n    tag_204:\n      sub(shl(0xa0, 0x01), 0x01)\n        /* \"contracts/LoanAccount.sol\":2762:2834  mortgaged_asset.getApproved(_mortgaged_asset._token_id) == address(this) */\n      and\n      eq\n        /* \"contracts/LoanAccount.sol\":2740:2917  require(... */\n      tag_206\n      jumpi\n      mload(0x40)\n      shl(0xe5, 0x461bcd)\n      dup2\n      mstore\n        /* \"#utility.yul\":9695:9697   */\n      0x20\n        /* \"contracts/LoanAccount.sol\":2740:2917  require(... */\n      0x04\n      dup3\n      add\n        /* \"#utility.yul\":9677:9698   */\n      mstore\n        /* \"#utility.yul\":9734:9736   */\n      0x37\n        /* \"#utility.yul\":9714:9732   */\n      0x24\n      dup3\n      add\n        /* \"#utility.yul\":9707:9737   */\n      mstore\n        /* \"#utility.yul\":9773:9807   */\n      0x4173736574206f776e6572206e6565647320746f20617070726f7665206c6f61\n        /* \"#utility.yul\":9753:9771   */\n      0x44\n      dup3\n      add\n        /* \"#utility.yul\":9746:9808   */\n      mstore\n        /* \"#utility.yul\":9844:9869   */\n      0x6e206163636f756e7420666f722061737365742069642e000000000000000000\n        /* \"#utility.yul\":9824:9842   */\n      0x64\n      dup3\n      add\n        /* \"#utility.yul\":9817:9870   */\n      mstore\n        /* \"#utility.yul\":9887:9906   */\n      0x84\n      add\n        /* \"contracts/LoanAccount.sol\":2740:2917  require(... */\n      tag_167\n        /* \"#utility.yul\":9493:9912   */\n      jump\n        /* \"contracts/LoanAccount.sol\":2740:2917  require(... */\n    tag_206:\n        /* \"contracts/LoanAccount.sol\":2985:3025  _disbursed_token_asset._disbursed_amount */\n      sload(0x0a)\n        /* \"contracts/LoanAccount.sol\":2930:2968  bool downPaymentDisbursementSuccessful */\n      0x00\n      swap1\n        /* \"contracts/LoanAccount.sol\":2985:3030  _disbursed_token_asset._disbursed_amount == 0 */\n      dup2\n      sub\n        /* \"contracts/LoanAccount.sol\":2981:3547  if (_disbursed_token_asset._disbursed_amount == 0) {... */\n      tag_209\n      jumpi\n        /* \"contracts/LoanAccount.sol\":3047:3059  _time_period */\n      0x06\n        /* \"contracts/LoanAccount.sol\":3047:3073  _time_period = time_period */\n      dup7\n      swap1\n      sstore\n        /* \"contracts/LoanAccount.sol\":3088:3105  _payment_interval */\n      0x04\n        /* \"contracts/LoanAccount.sol\":3088:3124  _payment_interval = payment_interval */\n      dup6\n      dup2\n      sstore\n        /* \"contracts/LoanAccount.sol\":3139:3153  _interest_rate */\n      0x03\n        /* \"contracts/LoanAccount.sol\":3139:3169  _interest_rate = interest_rate */\n      dup1\n      sload\n      0xffff\n      dup8\n      and\n      shl(0xa0, 0x01)\n      mul\n      not(shl(0xa0, 0xffff))\n      dup3\n      and\n      dup2\n      or\n      swap1\n      swap3\n      sstore\n        /* \"contracts/LoanAccount.sol\":3192:3208  _mortgaged_asset */\n      0x07\n        /* \"contracts/LoanAccount.sol\":3192:3224  _mortgaged_asset._token_contract */\n      sload\n        /* \"contracts/LoanAccount.sol\":3272:3298  _mortgaged_asset._token_id */\n      sload(0x08)\n        /* \"contracts/LoanAccount.sol\":3184:3299  IERC721(_mortgaged_asset._token_contract).safeTransferFrom(_asset_owner, address(this), _mortgaged_asset._token_id) */\n      mload(0x40)\n      shl(0xe1, 0x21421707)\n      dup2\n      mstore\n      sub(shl(0xa0, 0x01), 0x01)\n        /* \"contracts/LoanAccount.sol\":3192:3224  _mortgaged_asset._token_contract */\n      swap3\n      dup4\n      and\n      swap6\n        /* \"contracts/LoanAccount.sol\":3184:3242  IERC721(_mortgaged_asset._token_contract).safeTransferFrom */\n      0x42842e0e\n      swap6\n        /* \"contracts/LoanAccount.sol\":3184:3299  IERC721(_mortgaged_asset._token_contract).safeTransferFrom(_asset_owner, address(this), _mortgaged_asset._token_id) */\n      tag_210\n      swap6\n        /* \"contracts/LoanAccount.sol\":3243:3255  _asset_owner */\n      swap1\n      dup6\n      and\n      swap5\n      and\n      swap4\n      swap1\n      swap4\n      or\n      swap3\n        /* \"contracts/LoanAccount.sol\":3265:3269  this */\n      address\n      swap3\n        /* \"contracts/LoanAccount.sol\":3272:3298  _mortgaged_asset._token_id */\n      swap2\n        /* \"contracts/LoanAccount.sol\":3184:3299  IERC721(_mortgaged_asset._token_contract).safeTransferFrom(_asset_owner, address(this), _mortgaged_asset._token_id) */\n      add\n      tag_127\n      jump\t// in\n    tag_210:\n      0x00\n      mload(0x40)\n      dup1\n      dup4\n      sub\n      dup2\n      0x00\n      dup8\n      dup1\n      extcodesize\n      iszero\n      dup1\n      iszero\n      tag_211\n      jumpi\n      0x00\n      dup1\n      revert\n    tag_211:\n      pop\n      gas\n      call\n      iszero\n      dup1\n      iszero\n      tag_213\n      jumpi\n      returndatasize\n      0x00\n      dup1\n      returndatacopy\n      revert(0x00, returndatasize)\n    tag_213:\n      pop\n      pop\n        /* \"contracts/LoanAccount.sol\":3359:3381  _disbursed_token_asset */\n      0x09\n        /* \"contracts/LoanAccount.sol\":3359:3397  _disbursed_token_asset._token_contract */\n      sload\n        /* \"contracts/LoanAccount.sol\":3430:3439  _borrower */\n      sload(0x02)\n        /* \"contracts/LoanAccount.sol\":3458:3470  _asset_owner */\n      sload(0x03)\n      sub(shl(0xa0, 0x01), 0x01)\n        /* \"contracts/LoanAccount.sol\":3359:3397  _disbursed_token_asset._token_contract */\n      swap3\n      dup4\n      and\n      swap5\n      pop\n        /* \"contracts/LoanAccount.sol\":3352:3411  IERC20(_disbursed_token_asset._token_contract).transferFrom */\n      0x23b872dd\n      swap4\n      pop\n        /* \"contracts/LoanAccount.sol\":3430:3439  _borrower */\n      swap1\n      dup3\n      and\n      swap2\n        /* \"contracts/LoanAccount.sol\":3458:3470  _asset_owner */\n      and\n        /* \"contracts/LoanAccount.sol\":3515:3520  10000 */\n      0x2710\n        /* \"contracts/LoanAccount.sol\":3491:3511  _disbursement * 2500 */\n      tag_214\n        /* \"contracts/LoanAccount.sol\":3491:3504  _disbursement */\n      dup13\n        /* \"contracts/LoanAccount.sol\":3507:3511  2500 */\n      0x09c4\n        /* \"contracts/LoanAccount.sol\":3491:3511  _disbursement * 2500 */\n      tag_101\n      jump\t// in\n    tag_214:\n        /* \"contracts/LoanAccount.sol\":3490:3520  (_disbursement * 2500) / 10000 */\n      tag_215\n      swap2\n      swap1\n      tag_89\n      jump\t// in\n    tag_215:\n        /* \"contracts/LoanAccount.sol\":3352:3535  IERC20(_disbursed_token_asset._token_contract).transferFrom(... */\n      mload(0x40)\n      dup5\n      0xffffffff\n      and\n      0xe0\n      shl\n      dup2\n      mstore\n      0x04\n      add\n      tag_216\n      swap4\n      swap3\n      swap2\n      swap1\n      tag_127\n      jump\t// in\n    tag_216:\n      0x20\n      mload(0x40)\n      dup1\n      dup4\n      sub\n      dup2\n      0x00\n      dup8\n      gas\n      call\n      iszero\n      dup1\n      iszero\n      tag_218\n      jumpi\n      returndatasize\n      0x00\n      dup1\n      returndatacopy\n      revert(0x00, returndatasize)\n    tag_218:\n      pop\n      pop\n      pop\n      pop\n      mload(0x40)\n      returndatasize\n      not(0x1f)\n      0x1f\n      dup3\n      add\n      and\n      dup3\n      add\n      dup1\n      0x40\n      mstore\n      pop\n      dup2\n      add\n      swap1\n      tag_219\n      swap2\n      swap1\n      tag_147\n      jump\t// in\n    tag_219:\n        /* \"contracts/LoanAccount.sol\":3316:3535  downPaymentDisbursementSuccessful = IERC20(_disbursed_token_asset._token_contract).transferFrom(... */\n      swap1\n      pop\n        /* \"contracts/LoanAccount.sol\":2981:3547  if (_disbursed_token_asset._disbursed_amount == 0) {... */\n    tag_209:\n        /* \"contracts/LoanAccount.sol\":3602:3624  _disbursed_token_asset */\n      0x09\n        /* \"contracts/LoanAccount.sol\":3602:3640  _disbursed_token_asset._token_contract */\n      sload\n      0x01\n        /* \"contracts/LoanAccount.sol\":3669:3676  _lender */\n      sload\n        /* \"contracts/LoanAccount.sol\":3692:3704  _asset_owner */\n      sload(0x03)\n        /* \"contracts/LoanAccount.sol\":3595:3744  IERC20(_disbursed_token_asset._token_contract).transferFrom(... */\n      mload(0x40)\n      shl(0xe0, 0x23b872dd)\n      dup2\n      mstore\n        /* \"contracts/LoanAccount.sol\":3559:3592  bool lenderDisbursementSuccessful */\n      0x00\n      swap4\n      sub(shl(0xa0, 0x01), 0x01)\n        /* \"contracts/LoanAccount.sol\":3602:3640  _disbursed_token_asset._token_contract */\n      swap1\n      dup2\n      and\n      swap4\n        /* \"contracts/LoanAccount.sol\":3595:3654  IERC20(_disbursed_token_asset._token_contract).transferFrom */\n      0x23b872dd\n      swap4\n        /* \"contracts/LoanAccount.sol\":3595:3744  IERC20(_disbursed_token_asset._token_contract).transferFrom(... */\n      tag_220\n      swap4\n        /* \"contracts/LoanAccount.sol\":3669:3676  _lender */\n      swap2\n      dup4\n      and\n      swap3\n        /* \"contracts/LoanAccount.sol\":3692:3704  _asset_owner */\n      and\n      swap1\n        /* \"contracts/LoanAccount.sol\":3720:3733  _disbursement */\n      dup14\n      swap1\n        /* \"contracts/LoanAccount.sol\":3595:3744  IERC20(_disbursed_token_asset._token_contract).transferFrom(... */\n      0x04\n      add\n      tag_127\n      jump\t// in\n    tag_220:\n      0x20\n      mload(0x40)\n      dup1\n      dup4\n      sub\n      dup2\n      0x00\n      dup8\n      gas\n      call\n      iszero\n      dup1\n      iszero\n      tag_222\n      jumpi\n      returndatasize\n      0x00\n      dup1\n      returndatacopy\n      revert(0x00, returndatasize)\n    tag_222:\n      pop\n      pop\n      pop\n      pop\n      mload(0x40)\n      returndatasize\n      not(0x1f)\n      0x1f\n      dup3\n      add\n      and\n      dup3\n      add\n      dup1\n      0x40\n      mstore\n      pop\n      dup2\n      add\n      swap1\n      tag_223\n      swap2\n      swap1\n      tag_147\n      jump\t// in\n    tag_223:\n        /* \"contracts/LoanAccount.sol\":3559:3744  bool lenderDisbursementSuccessful = IERC20(_disbursed_token_asset._token_contract).transferFrom(... */\n      swap1\n      pop\n        /* \"contracts/LoanAccount.sol\":3799:3812  _disbursement */\n      dup8\n        /* \"contracts/LoanAccount.sol\":3755:3777  _disbursed_token_asset */\n      0x09\n        /* \"contracts/LoanAccount.sol\":3755:3795  _disbursed_token_asset._disbursed_amount */\n      0x01\n      add\n      0x00\n        /* \"contracts/LoanAccount.sol\":3755:3812  _disbursed_token_asset._disbursed_amount += _disbursement */\n      dup3\n      dup3\n      sload\n      tag_224\n      swap2\n      swap1\n      tag_92\n      jump\t// in\n    tag_224:\n      swap1\n      swap2\n      sstore\n      pop\n        /* \"contracts/LoanAccount.sol\":3833:3861  lenderDisbursementSuccessful */\n      dup2\n      swap1\n      pop\n        /* \"contracts/LoanAccount.sol\":3833:3898  lenderDisbursementSuccessful && downPaymentDisbursementSuccessful */\n      dup1\n      iszero\n      tag_225\n      jumpi\n      pop\n        /* \"contracts/LoanAccount.sol\":3865:3898  downPaymentDisbursementSuccessful */\n      dup2\n        /* \"contracts/LoanAccount.sol\":3833:3898  lenderDisbursementSuccessful && downPaymentDisbursementSuccessful */\n    tag_225:\n        /* \"contracts/LoanAccount.sol\":3825:3948  require(lenderDisbursementSuccessful && downPaymentDisbursementSuccessful, \"Disbursement Failed. Please approve contract.\") */\n      tag_226\n      jumpi\n      mload(0x40)\n      shl(0xe5, 0x461bcd)\n      dup2\n      mstore\n        /* \"#utility.yul\":10119:10121   */\n      0x20\n        /* \"contracts/LoanAccount.sol\":3825:3948  require(lenderDisbursementSuccessful && downPaymentDisbursementSuccessful, \"Disbursement Failed. Please approve contract.\") */\n      0x04\n      dup3\n      add\n        /* \"#utility.yul\":10101:10122   */\n      mstore\n        /* \"#utility.yul\":10158:10160   */\n      0x2d\n        /* \"#utility.yul\":10138:10156   */\n      0x24\n      dup3\n      add\n        /* \"#utility.yul\":10131:10161   */\n      mstore\n        /* \"#utility.yul\":10197:10231   */\n      0x44697362757273656d656e74204661696c65642e20506c656173652061707072\n        /* \"#utility.yul\":10177:10195   */\n      0x44\n      dup3\n      add\n        /* \"#utility.yul\":10170:10232   */\n      mstore\n      shl(0x99, 0x37bb329031b7b73a3930b1ba17)\n        /* \"#utility.yul\":10248:10266   */\n      0x64\n      dup3\n      add\n        /* \"#utility.yul\":10241:10284   */\n      mstore\n        /* \"#utility.yul\":10301:10320   */\n      0x84\n      add\n        /* \"contracts/LoanAccount.sol\":3825:3948  require(lenderDisbursementSuccessful && downPaymentDisbursementSuccessful, \"Disbursement Failed. Please approve contract.\") */\n      tag_167\n        /* \"#utility.yul\":9917:10326   */\n      jump\n        /* \"contracts/LoanAccount.sol\":3825:3948  require(lenderDisbursementSuccessful && downPaymentDisbursementSuccessful, \"Disbursement Failed. Please approve contract.\") */\n    tag_226:\n        /* \"contracts/LoanAccount.sol\":1818:3956  {... */\n      pop\n      pop\n      pop\n      pop\n        /* \"contracts/LoanAccount.sol\":1630:3956  function disburse_loan(... */\n      pop\n      pop\n      pop\n      pop\n      jump\t// out\n        /* \"@openzeppelin/contracts/access/Ownable.sol\":2543:2758  function transferOwnership(address newOwner) public virtual onlyOwner {... */\n    tag_82:\n        /* \"@openzeppelin/contracts/access/Ownable.sol\":1531:1544  _checkOwner() */\n      tag_230\n        /* \"@openzeppelin/contracts/access/Ownable.sol\":1531:1542  _checkOwner */\n      tag_111\n        /* \"@openzeppelin/contracts/access/Ownable.sol\":1531:1544  _checkOwner() */\n      jump\t// in\n    tag_230:\n      sub(shl(0xa0, 0x01), 0x01)\n        /* \"@openzeppelin/contracts/access/Ownable.sol\":2627:2649  newOwner == address(0) */\n      dup2\n      and\n        /* \"@openzeppelin/contracts/access/Ownable.sol\":2623:2714  if (newOwner == address(0)) {... */\n      tag_232\n      jumpi\n        /* \"@openzeppelin/contracts/access/Ownable.sol\":2672:2703  OwnableInvalidOwner(address(0)) */\n      mload(0x40)\n      shl(0xe0, 0x1e4fbdf7)\n      dup2\n      mstore\n        /* \"@openzeppelin/contracts/access/Ownable.sol\":2700:2701  0 */\n      0x00\n        /* \"@openzeppelin/contracts/access/Ownable.sol\":2672:2703  OwnableInvalidOwner(address(0)) */\n      0x04\n      dup3\n      add\n        /* \"#utility.yul\":2103:2154   */\n      mstore\n        /* \"#utility.yul\":2076:2094   */\n      0x24\n      add\n        /* \"@openzeppelin/contracts/access/Ownable.sol\":2672:2703  OwnableInvalidOwner(address(0)) */\n      tag_167\n        /* \"#utility.yul\":1957:2160   */\n      jump\n        /* \"@openzeppelin/contracts/access/Ownable.sol\":2623:2714  if (newOwner == address(0)) {... */\n    tag_232:\n        /* \"@openzeppelin/contracts/access/Ownable.sol\":2723:2751  _transferOwnership(newOwner) */\n      tag_234\n        /* \"@openzeppelin/contracts/access/Ownable.sol\":2742:2750  newOwner */\n      dup2\n        /* \"@openzeppelin/contracts/access/Ownable.sol\":2723:2741  _transferOwnership */\n      tag_114\n        /* \"@openzeppelin/contracts/access/Ownable.sol\":2723:2751  _transferOwnership(newOwner) */\n      jump\t// in\n    tag_234:\n        /* \"@openzeppelin/contracts/access/Ownable.sol\":2543:2758  function transferOwnership(address newOwner) public virtual onlyOwner {... */\n      pop\n      jump\t// out\n        /* \"@openzeppelin/contracts/access/Ownable.sol\":1796:1958  function _checkOwner() internal view virtual {... */\n    tag_111:\n        /* \"@openzeppelin/contracts/access/Ownable.sol\":1684:1691  address */\n      0x00\n        /* \"@openzeppelin/contracts/access/Ownable.sol\":1710:1716  _owner */\n      sload\n      sub(shl(0xa0, 0x01), 0x01)\n      and\n        /* \"@openzeppelin/contracts/utils/Context.sol\":735:745  msg.sender */\n      caller\n        /* \"@openzeppelin/contracts/access/Ownable.sol\":1855:1878  owner() != _msgSender() */\n      eq\n        /* \"@openzeppelin/contracts/access/Ownable.sol\":1851:1952  if (owner() != _msgSender()) {... */\n      tag_113\n      jumpi\n        /* \"@openzeppelin/contracts/access/Ownable.sol\":1901:1941  OwnableUnauthorizedAccount(_msgSender()) */\n      mload(0x40)\n      shl(0xe0, 0x118cdaa7)\n      dup2\n      mstore\n        /* \"@openzeppelin/contracts/utils/Context.sol\":735:745  msg.sender */\n      caller\n        /* \"@openzeppelin/contracts/access/Ownable.sol\":1901:1941  OwnableUnauthorizedAccount(_msgSender()) */\n      0x04\n      dup3\n      add\n        /* \"#utility.yul\":2103:2154   */\n      mstore\n        /* \"#utility.yul\":2076:2094   */\n      0x24\n      add\n        /* \"@openzeppelin/contracts/access/Ownable.sol\":1901:1941  OwnableUnauthorizedAccount(_msgSender()) */\n      tag_167\n        /* \"#utility.yul\":1957:2160   */\n      jump\n        /* \"@openzeppelin/contracts/access/Ownable.sol\":2912:3099  function _transferOwnership(address newOwner) internal virtual {... */\n    tag_114:\n        /* \"@openzeppelin/contracts/access/Ownable.sol\":2985:3001  address oldOwner */\n      0x00\n        /* \"@openzeppelin/contracts/access/Ownable.sol\":3004:3010  _owner */\n      dup1\n      sload\n      sub(shl(0xa0, 0x01), 0x01)\n        /* \"@openzeppelin/contracts/access/Ownable.sol\":3020:3037  _owner = newOwner */\n      dup4\n      dup2\n      and\n      not(sub(shl(0xa0, 0x01), 0x01))\n      dup4\n      and\n      dup2\n      or\n      dup5\n      sstore\n        /* \"@openzeppelin/contracts/access/Ownable.sol\":3052:3092  OwnershipTransferred(oldOwner, newOwner) */\n      mload(0x40)\n        /* \"@openzeppelin/contracts/access/Ownable.sol\":3004:3010  _owner */\n      swap2\n      swap1\n      swap3\n      and\n      swap3\n      dup4\n      swap2\n        /* \"@openzeppelin/contracts/access/Ownable.sol\":3052:3092  OwnershipTransferred(oldOwner, newOwner) */\n      0x8be0079c531659141344cd1fd0a4f28419497f9722a3daafe3b4186f6b6457e0\n      swap2\n        /* \"@openzeppelin/contracts/access/Ownable.sol\":2985:3001  address oldOwner */\n      swap1\n        /* \"@openzeppelin/contracts/access/Ownable.sol\":3052:3092  OwnershipTransferred(oldOwner, newOwner) */\n      log3\n        /* \"@openzeppelin/contracts/access/Ownable.sol\":2975:3099  {... */\n      pop\n        /* \"@openzeppelin/contracts/access/Ownable.sol\":2912:3099  function _transferOwnership(address newOwner) internal virtual {... */\n      pop\n      jump\t// out\n        /* \"contracts/LoanAccount.sol\":6100:6456  function invalidate_contract() internal {... */\n    tag_162:\n        /* \"contracts/LoanAccount.sol\":6174:6196  _disbursed_token_asset */\n      0x09\n        /* \"contracts/LoanAccount.sol\":6174:6212  _disbursed_token_asset._token_contract */\n      sload\n        /* \"contracts/LoanAccount.sol\":6249:6265  _mortgaged_asset */\n      0x07\n        /* \"contracts/LoanAccount.sol\":6249:6281  _mortgaged_asset._token_contract */\n      sload\n        /* \"contracts/LoanAccount.sol\":6174:6212  _disbursed_token_asset._token_contract */\n      0x01\n        /* \"contracts/LoanAccount.sol\":6311:6318  _lender */\n      sload\n        /* \"contracts/LoanAccount.sol\":6320:6351  _token.balanceOf(address(this)) */\n      mload(0x40)\n      shl(0xe0, 0x70a08231)\n      dup2\n      mstore\n        /* \"contracts/LoanAccount.sol\":6345:6349  this */\n      address\n        /* \"contracts/LoanAccount.sol\":6320:6351  _token.balanceOf(address(this)) */\n      0x04\n      dup3\n      add\n        /* \"#utility.yul\":2103:2154   */\n      mstore\n      sub(shl(0xa0, 0x01), 0x01)\n        /* \"contracts/LoanAccount.sol\":6174:6212  _disbursed_token_asset._token_contract */\n      swap4\n      dup5\n      and\n      swap4\n        /* \"contracts/LoanAccount.sol\":6249:6281  _mortgaged_asset._token_contract */\n      swap3\n      dup4\n      and\n      swap3\n        /* \"contracts/LoanAccount.sol\":6174:6212  _disbursed_token_asset._token_contract */\n      dup5\n      swap3\n        /* \"contracts/LoanAccount.sol\":6295:6310  _token.transfer */\n      0xa9059cbb\n      swap3\n        /* \"contracts/LoanAccount.sol\":6311:6318  _lender */\n      swap2\n      and\n      swap1\n        /* \"contracts/LoanAccount.sol\":6174:6212  _disbursed_token_asset._token_contract */\n      dup4\n      swap1\n        /* \"contracts/LoanAccount.sol\":6320:6336  _token.balanceOf */\n      0x70a08231\n      swap1\n        /* \"#utility.yul\":2076:2094   */\n      0x24\n      add\n        /* \"contracts/LoanAccount.sol\":6320:6351  _token.balanceOf(address(this)) */\n      0x20\n      mload(0x40)\n      dup1\n      dup4\n      sub\n      dup2\n      dup7\n      gas\n      staticcall\n      iszero\n      dup1\n      iszero\n      tag_246\n      jumpi\n      returndatasize\n      0x00\n      dup1\n      returndatacopy\n      revert(0x00, returndatasize)\n    tag_246:\n      pop\n      pop\n      pop\n      pop\n      mload(0x40)\n      returndatasize\n      not(0x1f)\n      0x1f\n      dup3\n      add\n      and\n      dup3\n      add\n      dup1\n      0x40\n      mstore\n      pop\n      dup2\n      add\n      swap1\n      tag_247\n      swap2\n      swap1\n      tag_135\n      jump\t// in\n    tag_247:\n        /* \"contracts/LoanAccount.sol\":6295:6352  _token.transfer(_lender, _token.balanceOf(address(this))) */\n      mload(0x40)\n      not(sub(shl(0xe0, 0x01), 0x01))\n      0xe0\n      dup6\n      swap1\n      shl\n      and\n      dup2\n      mstore\n      sub(shl(0xa0, 0x01), 0x01)\n        /* \"#utility.yul\":10523:10555   */\n      swap1\n      swap3\n      and\n        /* \"contracts/LoanAccount.sol\":6295:6352  _token.transfer(_lender, _token.balanceOf(address(this))) */\n      0x04\n      dup4\n      add\n        /* \"#utility.yul\":10505:10556   */\n      mstore\n        /* \"#utility.yul\":10572:10590   */\n      0x24\n      dup3\n      add\n        /* \"#utility.yul\":10565:10599   */\n      mstore\n        /* \"#utility.yul\":10478:10496   */\n      0x44\n      add\n        /* \"contracts/LoanAccount.sol\":6295:6352  _token.transfer(_lender, _token.balanceOf(address(this))) */\n      0x20\n      mload(0x40)\n      dup1\n      dup4\n      sub\n      dup2\n      0x00\n      dup8\n      gas\n      call\n      iszero\n      dup1\n      iszero\n      tag_251\n      jumpi\n      returndatasize\n      0x00\n      dup1\n      returndatacopy\n      revert(0x00, returndatasize)\n    tag_251:\n      pop\n      pop\n      pop\n      pop\n      mload(0x40)\n      returndatasize\n      not(0x1f)\n      0x1f\n      dup3\n      add\n      and\n      dup3\n      add\n      dup1\n      0x40\n      mstore\n      pop\n      dup2\n      add\n      swap1\n      tag_252\n      swap2\n      swap1\n      tag_147\n      jump\t// in\n    tag_252:\n      pop\n        /* \"contracts/LoanAccount.sol\":6402:6409  _lender */\n      sload(0x01)\n        /* \"contracts/LoanAccount.sol\":6411:6437  _mortgaged_asset._token_id */\n      sload(0x08)\n        /* \"contracts/LoanAccount.sol\":6363:6438  _asset.safeTransferFrom(address(this), _lender, _mortgaged_asset._token_id) */\n      mload(0x40)\n      shl(0xe1, 0x21421707)\n      dup2\n      mstore\n      sub(shl(0xa0, 0x01), 0x01)\n        /* \"contracts/LoanAccount.sol\":6363:6386  _asset.safeTransferFrom */\n      dup5\n      dup2\n      and\n      swap4\n      0x42842e0e\n      swap4\n        /* \"contracts/LoanAccount.sol\":6363:6438  _asset.safeTransferFrom(address(this), _lender, _mortgaged_asset._token_id) */\n      tag_126\n      swap4\n        /* \"contracts/LoanAccount.sol\":6395:6399  this */\n      address\n      swap4\n        /* \"contracts/LoanAccount.sol\":6402:6409  _lender */\n      swap1\n      swap3\n      and\n      swap2\n        /* \"contracts/LoanAccount.sol\":6363:6438  _asset.safeTransferFrom(address(this), _lender, _mortgaged_asset._token_id) */\n      0x04\n      add\n      tag_127\n      jump\t// in\n        /* \"#utility.yul\":673:804   */\n    tag_258:\n      sub(shl(0xa0, 0x01), 0x01)\n        /* \"#utility.yul\":748:779   */\n      dup2\n      and\n        /* \"#utility.yul\":738:780   */\n      dup2\n      eq\n        /* \"#utility.yul\":728:798   */\n      tag_234\n      jumpi\n        /* \"#utility.yul\":794:795   */\n      0x00\n        /* \"#utility.yul\":791:792   */\n      dup1\n        /* \"#utility.yul\":784:796   */\n      revert\n        /* \"#utility.yul\":809:1745   */\n    tag_33:\n        /* \"#utility.yul\":906:912   */\n      0x00\n        /* \"#utility.yul\":914:920   */\n      dup1\n        /* \"#utility.yul\":922:928   */\n      0x00\n        /* \"#utility.yul\":930:936   */\n      dup1\n        /* \"#utility.yul\":938:944   */\n      0x00\n        /* \"#utility.yul\":991:994   */\n      0x80\n        /* \"#utility.yul\":979:988   */\n      dup7\n        /* \"#utility.yul\":970:977   */\n      dup9\n        /* \"#utility.yul\":966:989   */\n      sub\n        /* \"#utility.yul\":962:995   */\n      slt\n        /* \"#utility.yul\":959:1012   */\n      iszero\n      tag_268\n      jumpi\n        /* \"#utility.yul\":1008:1009   */\n      0x00\n        /* \"#utility.yul\":1005:1006   */\n      dup1\n        /* \"#utility.yul\":998:1010   */\n      revert\n        /* \"#utility.yul\":959:1012   */\n    tag_268:\n        /* \"#utility.yul\":1047:1056   */\n      dup6\n        /* \"#utility.yul\":1034:1057   */\n      calldataload\n        /* \"#utility.yul\":1066:1097   */\n      tag_269\n        /* \"#utility.yul\":1091:1096   */\n      dup2\n        /* \"#utility.yul\":1066:1097   */\n      tag_258\n      jump\t// in\n    tag_269:\n        /* \"#utility.yul\":1116:1121   */\n      swap5\n      pop\n        /* \"#utility.yul\":1173:1175   */\n      0x20\n        /* \"#utility.yul\":1158:1176   */\n      dup7\n      add\n        /* \"#utility.yul\":1145:1177   */\n      calldataload\n        /* \"#utility.yul\":1186:1219   */\n      tag_270\n        /* \"#utility.yul\":1145:1177   */\n      dup2\n        /* \"#utility.yul\":1186:1219   */\n      tag_258\n      jump\t// in\n    tag_270:\n        /* \"#utility.yul\":1238:1245   */\n      swap4\n      pop\n        /* \"#utility.yul\":1292:1294   */\n      0x40\n        /* \"#utility.yul\":1277:1295   */\n      dup7\n      add\n        /* \"#utility.yul\":1264:1296   */\n      calldataload\n      swap3\n      pop\n        /* \"#utility.yul\":1347:1349   */\n      0x60\n        /* \"#utility.yul\":1332:1350   */\n      dup7\n      add\n        /* \"#utility.yul\":1319:1351   */\n      calldataload\n        /* \"#utility.yul\":1370:1388   */\n      0xffffffffffffffff\n        /* \"#utility.yul\":1400:1414   */\n      dup1\n      dup3\n      gt\n        /* \"#utility.yul\":1397:1431   */\n      iszero\n      tag_271\n      jumpi\n        /* \"#utility.yul\":1427:1428   */\n      0x00\n        /* \"#utility.yul\":1424:1425   */\n      dup1\n        /* \"#utility.yul\":1417:1429   */\n      revert\n        /* \"#utility.yul\":1397:1431   */\n    tag_271:\n        /* \"#utility.yul\":1465:1471   */\n      dup2\n        /* \"#utility.yul\":1454:1463   */\n      dup9\n        /* \"#utility.yul\":1450:1472   */\n      add\n        /* \"#utility.yul\":1440:1472   */\n      swap2\n      pop\n        /* \"#utility.yul\":1510:1517   */\n      dup9\n        /* \"#utility.yul\":1503:1507   */\n      0x1f\n        /* \"#utility.yul\":1499:1501   */\n      dup4\n        /* \"#utility.yul\":1495:1508   */\n      add\n        /* \"#utility.yul\":1491:1518   */\n      slt\n        /* \"#utility.yul\":1481:1536   */\n      tag_272\n      jumpi\n        /* \"#utility.yul\":1532:1533   */\n      0x00\n        /* \"#utility.yul\":1529:1530   */\n      dup1\n        /* \"#utility.yul\":1522:1534   */\n      revert\n        /* \"#utility.yul\":1481:1536   */\n    tag_272:\n        /* \"#utility.yul\":1572:1574   */\n      dup2\n        /* \"#utility.yul\":1559:1575   */\n      calldataload\n        /* \"#utility.yul\":1598:1600   */\n      dup2\n        /* \"#utility.yul\":1590:1596   */\n      dup2\n        /* \"#utility.yul\":1587:1601   */\n      gt\n        /* \"#utility.yul\":1584:1618   */\n      iszero\n      tag_273\n      jumpi\n        /* \"#utility.yul\":1614:1615   */\n      0x00\n        /* \"#utility.yul\":1611:1612   */\n      dup1\n        /* \"#utility.yul\":1604:1616   */\n      revert\n        /* \"#utility.yul\":1584:1618   */\n    tag_273:\n        /* \"#utility.yul\":1659:1666   */\n      dup10\n        /* \"#utility.yul\":1654:1656   */\n      0x20\n        /* \"#utility.yul\":1645:1651   */\n      dup3\n        /* \"#utility.yul\":1641:1643   */\n      dup6\n        /* \"#utility.yul\":1637:1652   */\n      add\n        /* \"#utility.yul\":1633:1657   */\n      add\n        /* \"#utility.yul\":1630:1667   */\n      gt\n        /* \"#utility.yul\":1627:1684   */\n      iszero\n      tag_274\n      jumpi\n        /* \"#utility.yul\":1680:1681   */\n      0x00\n        /* \"#utility.yul\":1677:1678   */\n      dup1\n        /* \"#utility.yul\":1670:1682   */\n      revert\n        /* \"#utility.yul\":1627:1684   */\n    tag_274:\n        /* \"#utility.yul\":809:1745   */\n      swap7\n      swap10\n      swap6\n      swap9\n      pop\n      swap4\n      swap7\n      pop\n        /* \"#utility.yul\":1711:1713   */\n      0x20\n        /* \"#utility.yul\":1703:1714   */\n      add\n      swap5\n        /* \"#utility.yul\":1733:1739   */\n      swap4\n        /* \"#utility.yul\":809:1745   */\n      swap3\n      pop\n      pop\n      pop\n      jump\t// out\n        /* \"#utility.yul\":2887:3364   */\n    tag_74:\n        /* \"#utility.yul\":2972:2978   */\n      0x00\n        /* \"#utility.yul\":2980:2986   */\n      dup1\n        /* \"#utility.yul\":2988:2994   */\n      0x00\n        /* \"#utility.yul\":2996:3002   */\n      dup1\n        /* \"#utility.yul\":3049:3052   */\n      0x80\n        /* \"#utility.yul\":3037:3046   */\n      dup6\n        /* \"#utility.yul\":3028:3035   */\n      dup8\n        /* \"#utility.yul\":3024:3047   */\n      sub\n        /* \"#utility.yul\":3020:3053   */\n      slt\n        /* \"#utility.yul\":3017:3070   */\n      iszero\n      tag_281\n      jumpi\n        /* \"#utility.yul\":3066:3067   */\n      0x00\n        /* \"#utility.yul\":3063:3064   */\n      dup1\n        /* \"#utility.yul\":3056:3068   */\n      revert\n        /* \"#utility.yul\":3017:3070   */\n    tag_281:\n        /* \"#utility.yul\":3102:3111   */\n      dup5\n        /* \"#utility.yul\":3089:3112   */\n      calldataload\n        /* \"#utility.yul\":3079:3112   */\n      swap4\n      pop\n        /* \"#utility.yul\":3159:3161   */\n      0x20\n        /* \"#utility.yul\":3148:3157   */\n      dup6\n        /* \"#utility.yul\":3144:3162   */\n      add\n        /* \"#utility.yul\":3131:3163   */\n      calldataload\n        /* \"#utility.yul\":3121:3163   */\n      swap3\n      pop\n        /* \"#utility.yul\":3210:3212   */\n      0x40\n        /* \"#utility.yul\":3199:3208   */\n      dup6\n        /* \"#utility.yul\":3195:3213   */\n      add\n        /* \"#utility.yul\":3182:3214   */\n      calldataload\n        /* \"#utility.yul\":3172:3214   */\n      swap2\n      pop\n        /* \"#utility.yul\":3264:3266   */\n      0x60\n        /* \"#utility.yul\":3253:3262   */\n      dup6\n        /* \"#utility.yul\":3249:3267   */\n      add\n        /* \"#utility.yul\":3236:3268   */\n      calldataload\n        /* \"#utility.yul\":3308:3314   */\n      0xffff\n        /* \"#utility.yul\":3301:3306   */\n      dup2\n        /* \"#utility.yul\":3297:3315   */\n      and\n        /* \"#utility.yul\":3290:3295   */\n      dup2\n        /* \"#utility.yul\":3287:3316   */\n      eq\n        /* \"#utility.yul\":3277:3334   */\n      tag_282\n      jumpi\n        /* \"#utility.yul\":3330:3331   */\n      0x00\n        /* \"#utility.yul\":3327:3328   */\n      dup1\n        /* \"#utility.yul\":3320:3332   */\n      revert\n        /* \"#utility.yul\":3277:3334   */\n    tag_282:\n        /* \"#utility.yul\":2887:3364   */\n      swap4\n      swap7\n      swap3\n      swap6\n      pop\n      swap1\n      swap4\n      pop\n      pop\n      jump\t// out\n        /* \"#utility.yul\":3369:3616   */\n    tag_81:\n        /* \"#utility.yul\":3428:3434   */\n      0x00\n        /* \"#utility.yul\":3481:3483   */\n      0x20\n        /* \"#utility.yul\":3469:3478   */\n      dup3\n        /* \"#utility.yul\":3460:3467   */\n      dup5\n        /* \"#utility.yul\":3456:3479   */\n      sub\n        /* \"#utility.yul\":3452:3484   */\n      slt\n        /* \"#utility.yul\":3449:3501   */\n      iszero\n      tag_284\n      jumpi\n        /* \"#utility.yul\":3497:3498   */\n      0x00\n        /* \"#utility.yul\":3494:3495   */\n      dup1\n        /* \"#utility.yul\":3487:3499   */\n      revert\n        /* \"#utility.yul\":3449:3501   */\n    tag_284:\n        /* \"#utility.yul\":3536:3545   */\n      dup2\n        /* \"#utility.yul\":3523:3546   */\n      calldataload\n        /* \"#utility.yul\":3555:3586   */\n      tag_285\n        /* \"#utility.yul\":3580:3585   */\n      dup2\n        /* \"#utility.yul\":3555:3586   */\n      tag_258\n      jump\t// in\n    tag_285:\n        /* \"#utility.yul\":3605:3610   */\n      swap4\n        /* \"#utility.yul\":3369:3616   */\n      swap3\n      pop\n      pop\n      pop\n      jump\t// out\n        /* \"#utility.yul\":3621:3748   */\n    tag_259:\n        /* \"#utility.yul\":3682:3692   */\n      0x4e487b71\n        /* \"#utility.yul\":3677:3680   */\n      0xe0\n        /* \"#utility.yul\":3673:3693   */\n      shl\n        /* \"#utility.yul\":3670:3671   */\n      0x00\n        /* \"#utility.yul\":3663:3694   */\n      mstore\n        /* \"#utility.yul\":3713:3717   */\n      0x11\n        /* \"#utility.yul\":3710:3711   */\n      0x04\n        /* \"#utility.yul\":3703:3718   */\n      mstore\n        /* \"#utility.yul\":3737:3741   */\n      0x24\n        /* \"#utility.yul\":3734:3735   */\n      0x00\n        /* \"#utility.yul\":3727:3742   */\n      revert\n        /* \"#utility.yul\":3753:3970   */\n    tag_89:\n        /* \"#utility.yul\":3793:3794   */\n      0x00\n        /* \"#utility.yul\":3819:3820   */\n      dup3\n        /* \"#utility.yul\":3809:3941   */\n      tag_288\n      jumpi\n        /* \"#utility.yul\":3863:3873   */\n      0x4e487b71\n        /* \"#utility.yul\":3858:3861   */\n      0xe0\n        /* \"#utility.yul\":3854:3874   */\n      shl\n        /* \"#utility.yul\":3851:3852   */\n      0x00\n        /* \"#utility.yul\":3844:3875   */\n      mstore\n        /* \"#utility.yul\":3898:3902   */\n      0x12\n        /* \"#utility.yul\":3895:3896   */\n      0x04\n        /* \"#utility.yul\":3888:3903   */\n      mstore\n        /* \"#utility.yul\":3926:3930   */\n      0x24\n        /* \"#utility.yul\":3923:3924   */\n      0x00\n        /* \"#utility.yul\":3916:3931   */\n      revert\n        /* \"#utility.yul\":3809:3941   */\n    tag_288:\n      pop\n        /* \"#utility.yul\":3955:3964   */\n      div\n      swap1\n        /* \"#utility.yul\":3753:3970   */\n      jump\t// out\n        /* \"#utility.yul\":3975:4100   */\n    tag_92:\n        /* \"#utility.yul\":4040:4049   */\n      dup1\n      dup3\n      add\n        /* \"#utility.yul\":4061:4071   */\n      dup1\n      dup3\n      gt\n        /* \"#utility.yul\":4058:4094   */\n      iszero\n      tag_291\n      jumpi\n        /* \"#utility.yul\":4074:4092   */\n      tag_291\n      tag_259\n      jump\t// in\n    tag_291:\n        /* \"#utility.yul\":3975:4100   */\n      swap3\n      swap2\n      pop\n      pop\n      jump\t// out\n        /* \"#utility.yul\":4105:4521   */\n    tag_260:\n        /* \"#utility.yul\":4194:4195   */\n      0x01\n        /* \"#utility.yul\":4231:4236   */\n      dup2\n        /* \"#utility.yul\":4194:4195   */\n      dup2\n        /* \"#utility.yul\":4245:4515   */\n    tag_293:\n        /* \"#utility.yul\":4266:4273   */\n      dup1\n        /* \"#utility.yul\":4256:4264   */\n      dup6\n        /* \"#utility.yul\":4253:4274   */\n      gt\n        /* \"#utility.yul\":4245:4515   */\n      iszero\n      tag_295\n      jumpi\n        /* \"#utility.yul\":4325:4329   */\n      dup2\n        /* \"#utility.yul\":4321:4322   */\n      0x00\n        /* \"#utility.yul\":4317:4323   */\n      not\n        /* \"#utility.yul\":4313:4330   */\n      div\n        /* \"#utility.yul\":4307:4311   */\n      dup3\n        /* \"#utility.yul\":4304:4331   */\n      gt\n        /* \"#utility.yul\":4301:4354   */\n      iszero\n      tag_297\n      jumpi\n        /* \"#utility.yul\":4334:4352   */\n      tag_297\n      tag_259\n      jump\t// in\n    tag_297:\n        /* \"#utility.yul\":4384:4391   */\n      dup1\n        /* \"#utility.yul\":4374:4382   */\n      dup6\n        /* \"#utility.yul\":4370:4392   */\n      and\n        /* \"#utility.yul\":4367:4422   */\n      iszero\n      tag_298\n      jumpi\n        /* \"#utility.yul\":4404:4420   */\n      swap2\n      dup2\n      mul\n      swap2\n        /* \"#utility.yul\":4367:4422   */\n    tag_298:\n        /* \"#utility.yul\":4483:4505   */\n      swap4\n      dup5\n      shr\n      swap4\n        /* \"#utility.yul\":4443:4458   */\n      swap1\n      dup1\n      mul\n      swap1\n        /* \"#utility.yul\":4245:4515   */\n      jump(tag_293)\n    tag_295:\n        /* \"#utility.yul\":4249:4252   */\n      pop\n        /* \"#utility.yul\":4105:4521   */\n      swap3\n      pop\n      swap3\n      swap1\n      pop\n      jump\t// out\n        /* \"#utility.yul\":4526:5332   */\n    tag_261:\n        /* \"#utility.yul\":4575:4580   */\n      0x00\n        /* \"#utility.yul\":4605:4613   */\n      dup3\n        /* \"#utility.yul\":4595:4675   */\n      tag_300\n      jumpi\n      pop\n        /* \"#utility.yul\":4646:4647   */\n      0x01\n        /* \"#utility.yul\":4660:4665   */\n      jump(tag_291)\n        /* \"#utility.yul\":4595:4675   */\n    tag_300:\n        /* \"#utility.yul\":4694:4698   */\n      dup2\n        /* \"#utility.yul\":4684:4760   */\n      tag_301\n      jumpi\n      pop\n        /* \"#utility.yul\":4731:4732   */\n      0x00\n        /* \"#utility.yul\":4745:4750   */\n      jump(tag_291)\n        /* \"#utility.yul\":4684:4760   */\n    tag_301:\n        /* \"#utility.yul\":4776:4780   */\n      dup2\n        /* \"#utility.yul\":4794:4795   */\n      0x01\n        /* \"#utility.yul\":4789:4848   */\n      dup2\n      eq\n      tag_303\n      jumpi\n        /* \"#utility.yul\":4862:4863   */\n      0x02\n        /* \"#utility.yul\":4857:4987   */\n      dup2\n      eq\n      tag_304\n      jumpi\n        /* \"#utility.yul\":4769:4987   */\n      jump(tag_302)\n        /* \"#utility.yul\":4789:4848   */\n    tag_303:\n        /* \"#utility.yul\":4819:4820   */\n      0x01\n        /* \"#utility.yul\":4810:4820   */\n      swap2\n      pop\n        /* \"#utility.yul\":4833:4838   */\n      pop\n      jump(tag_291)\n        /* \"#utility.yul\":4857:4987   */\n    tag_304:\n        /* \"#utility.yul\":4894:4897   */\n      0xff\n        /* \"#utility.yul\":4884:4892   */\n      dup5\n        /* \"#utility.yul\":4881:4898   */\n      gt\n        /* \"#utility.yul\":4878:4921   */\n      iszero\n      tag_306\n      jumpi\n        /* \"#utility.yul\":4901:4919   */\n      tag_306\n      tag_259\n      jump\t// in\n    tag_306:\n      pop\n      pop\n        /* \"#utility.yul\":4957:4958   */\n      0x01\n        /* \"#utility.yul\":4943:4959   */\n      dup3\n      shl\n        /* \"#utility.yul\":4972:4977   */\n      jump(tag_291)\n        /* \"#utility.yul\":4769:4987   */\n    tag_302:\n      pop\n        /* \"#utility.yul\":5071:5073   */\n      0x20\n        /* \"#utility.yul\":5061:5069   */\n      dup4\n        /* \"#utility.yul\":5058:5074   */\n      lt\n        /* \"#utility.yul\":5052:5055   */\n      0x0133\n        /* \"#utility.yul\":5046:5050   */\n      dup4\n        /* \"#utility.yul\":5043:5056   */\n      lt\n        /* \"#utility.yul\":5039:5075   */\n      and\n        /* \"#utility.yul\":5033:5035   */\n      0x4e\n        /* \"#utility.yul\":5023:5031   */\n      dup5\n        /* \"#utility.yul\":5020:5036   */\n      lt\n        /* \"#utility.yul\":5015:5017   */\n      0x0b\n        /* \"#utility.yul\":5009:5013   */\n      dup5\n        /* \"#utility.yul\":5006:5018   */\n      lt\n        /* \"#utility.yul\":5002:5037   */\n      and\n        /* \"#utility.yul\":4999:5076   */\n      or\n        /* \"#utility.yul\":4996:5155   */\n      iszero\n      tag_307\n      jumpi\n      pop\n        /* \"#utility.yul\":5108:5127   */\n      dup2\n      dup2\n      exp\n        /* \"#utility.yul\":5140:5145   */\n      jump(tag_291)\n        /* \"#utility.yul\":4996:5155   */\n    tag_307:\n        /* \"#utility.yul\":5187:5221   */\n      tag_308\n        /* \"#utility.yul\":5212:5220   */\n      dup4\n        /* \"#utility.yul\":5206:5210   */\n      dup4\n        /* \"#utility.yul\":5187:5221   */\n      tag_260\n      jump\t// in\n    tag_308:\n        /* \"#utility.yul\":5257:5263   */\n      dup1\n        /* \"#utility.yul\":5253:5254   */\n      0x00\n        /* \"#utility.yul\":5249:5255   */\n      not\n        /* \"#utility.yul\":5245:5264   */\n      div\n        /* \"#utility.yul\":5236:5243   */\n      dup3\n        /* \"#utility.yul\":5233:5265   */\n      gt\n        /* \"#utility.yul\":5230:5288   */\n      iszero\n      tag_310\n      jumpi\n        /* \"#utility.yul\":5268:5286   */\n      tag_310\n      tag_259\n      jump\t// in\n    tag_310:\n        /* \"#utility.yul\":5306:5326   */\n      mul\n      swap4\n        /* \"#utility.yul\":4526:5332   */\n      swap3\n      pop\n      pop\n      pop\n      jump\t// out\n        /* \"#utility.yul\":5337:5468   */\n    tag_94:\n        /* \"#utility.yul\":5397:5402   */\n      0x00\n        /* \"#utility.yul\":5426:5462   */\n      tag_285\n        /* \"#utility.yul\":5453:5461   */\n      dup4\n        /* \"#utility.yul\":5447:5451   */\n      dup4\n        /* \"#utility.yul\":5426:5462   */\n      tag_261\n      jump\t// in\n        /* \"#utility.yul\":5473:5601   */\n    tag_99:\n        /* \"#utility.yul\":5540:5549   */\n      dup2\n      dup2\n      sub\n        /* \"#utility.yul\":5561:5572   */\n      dup2\n      dup2\n      gt\n        /* \"#utility.yul\":5558:5595   */\n      iszero\n      tag_291\n      jumpi\n        /* \"#utility.yul\":5575:5593   */\n      tag_291\n      tag_259\n      jump\t// in\n        /* \"#utility.yul\":5606:5774   */\n    tag_101:\n        /* \"#utility.yul\":5679:5688   */\n      dup1\n      dup3\n      mul\n        /* \"#utility.yul\":5710:5719   */\n      dup2\n      iszero\n        /* \"#utility.yul\":5727:5742   */\n      dup3\n      dup3\n      div\n        /* \"#utility.yul\":5721:5743   */\n      dup5\n      eq\n        /* \"#utility.yul\":5707:5744   */\n      or\n        /* \"#utility.yul\":5697:5768   */\n      tag_291\n      jumpi\n        /* \"#utility.yul\":5748:5766   */\n      tag_291\n      tag_259\n      jump\t// in\n        /* \"#utility.yul\":5779:5919   */\n    tag_105:\n        /* \"#utility.yul\":5837:5842   */\n      0x00\n        /* \"#utility.yul\":5866:5913   */\n      tag_285\n        /* \"#utility.yul\":5907:5911   */\n      0xff\n        /* \"#utility.yul\":5897:5905   */\n      dup5\n        /* \"#utility.yul\":5893:5912   */\n      and\n        /* \"#utility.yul\":5887:5891   */\n      dup4\n        /* \"#utility.yul\":5866:5913   */\n      tag_261\n      jump\t// in\n        /* \"#utility.yul\":5924:6299   */\n    tag_127:\n      sub(shl(0xa0, 0x01), 0x01)\n        /* \"#utility.yul\":6182:6197   */\n      swap4\n      dup5\n      and\n        /* \"#utility.yul\":6164:6198   */\n      dup2\n      mstore\n        /* \"#utility.yul\":6234:6249   */\n      swap2\n      swap1\n      swap3\n      and\n        /* \"#utility.yul\":6229:6231   */\n      0x20\n        /* \"#utility.yul\":6214:6232   */\n      dup3\n      add\n        /* \"#utility.yul\":6207:6250   */\n      mstore\n        /* \"#utility.yul\":6281:6283   */\n      0x40\n        /* \"#utility.yul\":6266:6284   */\n      dup2\n      add\n        /* \"#utility.yul\":6259:6293   */\n      swap2\n      swap1\n      swap2\n      mstore\n        /* \"#utility.yul\":6114:6116   */\n      0x60\n        /* \"#utility.yul\":6099:6117   */\n      add\n      swap1\n        /* \"#utility.yul\":5924:6299   */\n      jump\t// out\n        /* \"#utility.yul\":6304:6488   */\n    tag_135:\n        /* \"#utility.yul\":6374:6380   */\n      0x00\n        /* \"#utility.yul\":6427:6429   */\n      0x20\n        /* \"#utility.yul\":6415:6424   */\n      dup3\n        /* \"#utility.yul\":6406:6413   */\n      dup5\n        /* \"#utility.yul\":6402:6425   */\n      sub\n        /* \"#utility.yul\":6398:6430   */\n      slt\n        /* \"#utility.yul\":6395:6447   */\n      iszero\n      tag_323\n      jumpi\n        /* \"#utility.yul\":6443:6444   */\n      0x00\n        /* \"#utility.yul\":6440:6441   */\n      dup1\n        /* \"#utility.yul\":6433:6445   */\n      revert\n        /* \"#utility.yul\":6395:6447   */\n    tag_323:\n      pop\n        /* \"#utility.yul\":6466:6482   */\n      mload\n      swap2\n        /* \"#utility.yul\":6304:6488   */\n      swap1\n      pop\n      jump\t// out\n        /* \"#utility.yul\":6802:7079   */\n    tag_147:\n        /* \"#utility.yul\":6869:6875   */\n      0x00\n        /* \"#utility.yul\":6922:6924   */\n      0x20\n        /* \"#utility.yul\":6910:6919   */\n      dup3\n        /* \"#utility.yul\":6901:6908   */\n      dup5\n        /* \"#utility.yul\":6897:6920   */\n      sub\n        /* \"#utility.yul\":6893:6925   */\n      slt\n        /* \"#utility.yul\":6890:6942   */\n      iszero\n      tag_326\n      jumpi\n        /* \"#utility.yul\":6938:6939   */\n      0x00\n        /* \"#utility.yul\":6935:6936   */\n      dup1\n        /* \"#utility.yul\":6928:6940   */\n      revert\n        /* \"#utility.yul\":6890:6942   */\n    tag_326:\n        /* \"#utility.yul\":6970:6979   */\n      dup2\n        /* \"#utility.yul\":6964:6980   */\n      mload\n        /* \"#utility.yul\":7023:7028   */\n      dup1\n        /* \"#utility.yul\":7016:7029   */\n      iszero\n        /* \"#utility.yul\":7009:7030   */\n      iszero\n        /* \"#utility.yul\":7002:7007   */\n      dup2\n        /* \"#utility.yul\":6999:7031   */\n      eq\n        /* \"#utility.yul\":6989:7049   */\n      tag_285\n      jumpi\n        /* \"#utility.yul\":7045:7046   */\n      0x00\n        /* \"#utility.yul\":7042:7043   */\n      dup1\n        /* \"#utility.yul\":7035:7047   */\n      revert\n        /* \"#utility.yul\":7084:7219   */\n    tag_155:\n        /* \"#utility.yul\":7123:7126   */\n      0x00\n        /* \"#utility.yul\":7144:7161   */\n      0x01\n      dup3\n      add\n        /* \"#utility.yul\":7141:7184   */\n      tag_330\n      jumpi\n        /* \"#utility.yul\":7164:7182   */\n      tag_330\n      tag_259\n      jump\t// in\n    tag_330:\n      pop\n        /* \"#utility.yul\":7211:7212   */\n      0x01\n        /* \"#utility.yul\":7200:7213   */\n      add\n      swap1\n        /* \"#utility.yul\":7084:7219   */\n      jump\t// out\n        /* \"#utility.yul\":7224:7399   */\n    tag_159:\n        /* \"#utility.yul\":7261:7264   */\n      0x00\n        /* \"#utility.yul\":7305:7309   */\n      0xff\n        /* \"#utility.yul\":7298:7303   */\n      dup3\n        /* \"#utility.yul\":7294:7310   */\n      and\n        /* \"#utility.yul\":7334:7338   */\n      0xff\n        /* \"#utility.yul\":7325:7332   */\n      dup2\n        /* \"#utility.yul\":7322:7339   */\n      sub\n        /* \"#utility.yul\":7319:7362   */\n      tag_333\n      jumpi\n        /* \"#utility.yul\":7342:7360   */\n      tag_333\n      tag_259\n      jump\t// in\n    tag_333:\n        /* \"#utility.yul\":7391:7392   */\n      0x01\n        /* \"#utility.yul\":7378:7393   */\n      add\n      swap3\n        /* \"#utility.yul\":7224:7399   */\n      swap2\n      pop\n      pop\n      jump\t// out\n        /* \"#utility.yul\":9237:9488   */\n    tag_205:\n        /* \"#utility.yul\":9307:9313   */\n      0x00\n        /* \"#utility.yul\":9360:9362   */\n      0x20\n        /* \"#utility.yul\":9348:9357   */\n      dup3\n        /* \"#utility.yul\":9339:9346   */\n      dup5\n        /* \"#utility.yul\":9335:9358   */\n      sub\n        /* \"#utility.yul\":9331:9363   */\n      slt\n        /* \"#utility.yul\":9328:9380   */\n      iszero\n      tag_340\n      jumpi\n        /* \"#utility.yul\":9376:9377   */\n      0x00\n        /* \"#utility.yul\":9373:9374   */\n      dup1\n        /* \"#utility.yul\":9366:9378   */\n      revert\n        /* \"#utility.yul\":9328:9380   */\n    tag_340:\n        /* \"#utility.yul\":9408:9417   */\n      dup2\n        /* \"#utility.yul\":9402:9418   */\n      mload\n        /* \"#utility.yul\":9427:9458   */\n      tag_285\n        /* \"#utility.yul\":9452:9457   */\n      dup2\n        /* \"#utility.yul\":9427:9458   */\n      tag_258\n      jump\t// in\n\n    auxdata: 0xa2646970667358221220200a91f9fd8b0f35ce37d6b313aa8d13f254b8e740f3c5eb60e9debe82e78d3b64736f6c63430008160033\n}\n",
				"bytecode": {
					"linkReferences": {},
					"object": "608060405234801562000010575f80fd5b506040516200156038038062001560833981016040819052620000339162000179565b33806200005957604051631e4fbdf760e01b81525f600482015260240160405180910390fd5b62000064816200010e565b50600380546001600160a01b03199081166001600160a01b03968716179091556040805180820182529486168086526020958601859052600780548416909117905560089390935560018054821697861697909717909655600280548716958516959095179094558051608081018252939092168084525f91840182905291830181905260609092018290526009805490931617909155600a819055600b819055600c55620001ed565b5f80546001600160a01b038381166001600160a01b0319831681178455604051919092169283917f8be0079c531659141344cd1fd0a4f28419497f9722a3daafe3b4186f6b6457e09190a35050565b80516001600160a01b038116811462000174575f80fd5b919050565b5f805f805f8060c087890312156200018f575f80fd5b6200019a876200015d565b9550620001aa602088016200015d565b9450620001ba604088016200015d565b9350620001ca606088016200015d565b925060808701519150620001e160a088016200015d565b90509295509295509295565b61136580620001fb5f395ff3fe608060405234801561000f575f80fd5b5060043610610106575f3560e01c80638da5cb5b1161009e578063b96243ba1161006e578063b96243ba14610282578063c6ca5bf21461028a578063d170b376146102b2578063d7ca70c4146102c5578063f2fde38b146102ce575f80fd5b80638da5cb5b146101fa578063913cef991461020a57806393287a1d1461021d578063a91647e61461023c575f80fd5b8063705caf5f116100d9578063705caf5f146101aa578063715018a6146101d5578063770fea5e146101df578063819ed863146101e7575f80fd5b806311ee307e1461010a5780631394cd8f14610126578063150b7a021461016a5780632279de4e146101a2575b5f80fd5b61011360045481565b6040519081526020015b60405180910390f35b61012e6102e1565b60405161011d919081516001600160a01b0316815260208083015190820152604080830151908201526060918201519181019190915260800190565b610189610178366004611018565b630a85bd0160e11b95945050505050565b6040516001600160e01b0319909116815260200161011d565b610113610347565b6002546101bd906001600160a01b031681565b6040516001600160a01b03909116815260200161011d565b6101dd610452565b005b610113610465565b6001546101bd906001600160a01b031681565b5f546001600160a01b03166101bd565b6003546101bd906001600160a01b031681565b60055461022a9060ff1681565b60405160ff909116815260200161011d565b6040805180820182525f808252602091820152815180830183526007546001600160a01b031680825260085491830191825283519081529051918101919091520161011d565b6101dd61047b565b60035461029f90600160a01b900461ffff1681565b60405161ffff909116815260200161011d565b6101dd6102c03660046110af565b610743565b61011360065481565b6101dd6102dc3660046110f3565b610e27565b61031160405180608001604052805f6001600160a01b031681526020015f81526020015f81526020015f81525090565b50604080516080810182526009546001600160a01b03168152600a546020820152600b5491810191909152600c54606082015290565b5f806004546006546103599190611129565b9050806009600301540361036e575f91505090565b6003545f90829061038c90600160a01b900461ffff16612710611148565b6103969190611241565b90505f6103a583612710611241565b60035484906103c190600160a01b900461ffff16612710611148565b6103cb9190611241565b6103d5919061124c565b600354600a549192505f91839185916103f991600160a01b900461ffff169061125f565b610403919061125f565b61040d9190611129565b6005549091505f906104239060ff166064611276565b6005546104349060ff16606e611276565b61043e908461125f565b6104489190611129565b9695505050505050565b61045a610e64565b6104635f610e90565b565b600b54600a545f916104769161124c565b905090565b610483610e64565b6009546001600160a01b03165f610498610347565b9050805f0361050d57600754600254600854604051632142170760e11b81526001600160a01b03938416936342842e0e936104dc9330939290911691600401611284565b5f604051808303815f87803b1580156104f3575f80fd5b505af1158015610505573d5f803e3d5ffd5b505050505050565b6002546040516370a0823160e01b81526001600160a01b03918216600482015282918416906370a0823190602401602060405180830381865afa158015610556573d5f803e3d5ffd5b505050506040513d601f19601f8201168201806040525081019061057a91906112a8565b101580156105f95750600254604051636eb1769f60e11b81526001600160a01b039182166004820152306024820152829184169063dd62ed3e90604401602060405180830381865afa1580156105d2573d5f803e3d5ffd5b505050506040513d601f19601f820116820180604052508101906105f691906112a8565b10155b156106fb576002546001546040516323b872dd60e01b81526001600160a01b03808616936323b872dd93610637939183169216908690600401611284565b6020604051808303815f875af1158015610653573d5f803e3d5ffd5b505050506040513d601f19601f8201168201806040525081019061067791906112bf565b506004546006546106889190611129565b6106949061271061125f565b600354600a546106af91600160a01b900461ffff169061125f565b6106b99190611129565b6106c3908261124c565b600b80545f906106d4908490611148565b9091555050600c8054905f6106e8836112de565b90915550506005805460ff191690555050565b6005805460ff161015610737576005805460ff16905f61071a836112f6565b91906101000a81548160ff021916908360ff160217905550505050565b61073f610edf565b5050565b61074b610e64565b6009546007546001600160a01b039182169116838510156107cc5760405162461bcd60e51b815260206004820152603060248201527f54696d6520706572696f642063616e6e6f74206265206c657373207468616e2060448201526f1c185e5b595b9d081a5b9d195c9d985b60821b60648201526084015b60405180910390fd5b6127106107db876109c461125f565b6107e59190611129565b600254604051636eb1769f60e11b81526001600160a01b0391821660048201523060248201529084169063dd62ed3e90604401602060405180830381865afa158015610833573d5f803e3d5ffd5b505050506040513d601f19601f8201168201806040525081019061085791906112a8565b10156108a55760405162461bcd60e51b815260206004820152601b60248201527f426f72726f77657220616c6c6f77616e636520746f6f206c6f772e000000000060448201526064016107c3565b6127106108b4876109c461125f565b6108be9190611129565b6002546040516370a0823160e01b81526001600160a01b039182166004820152908416906370a0823190602401602060405180830381865afa158015610906573d5f803e3d5ffd5b505050506040513d601f19601f8201168201806040525081019061092a91906112a8565b10156109785760405162461bcd60e51b815260206004820152601960248201527f426f72726f7765722062616c616e636520746f6f206c6f772e0000000000000060448201526064016107c3565b600154604051636eb1769f60e11b81526001600160a01b039182166004820152306024820152879184169063dd62ed3e90604401602060405180830381865afa1580156109c7573d5f803e3d5ffd5b505050506040513d601f19601f820116820180604052508101906109eb91906112a8565b1015610a395760405162461bcd60e51b815260206004820152601960248201527f4c656e64657220616c6c6f77616e636520746f6f206c6f772e0000000000000060448201526064016107c3565b6001546040516370a0823160e01b81526001600160a01b03918216600482015287918416906370a0823190602401602060405180830381865afa158015610a82573d5f803e3d5ffd5b505050506040513d601f19601f82011682018060405250810190610aa691906112a8565b1015610af45760405162461bcd60e51b815260206004820152601760248201527f4c656e6465722062616c616e636520746f6f206c6f772e00000000000000000060448201526064016107c3565b60085460405163020604bf60e21b815230916001600160a01b0384169163081812fc91610b279160040190815260200190565b602060405180830381865afa158015610b42573d5f803e3d5ffd5b505050506040513d601f19601f82011682018060405250810190610b669190611314565b6001600160a01b031614610be25760405162461bcd60e51b815260206004820152603760248201527f4173736574206f776e6572206e6565647320746f20617070726f7665206c6f6160448201527f6e206163636f756e7420666f722061737365742069642e00000000000000000060648201526084016107c3565b600a545f908103610d1757600686905560048581556003805461ffff8716600160a01b0261ffff60a01b1982168117909255600754600854604051632142170760e11b81526001600160a01b03928316956342842e0e95610c50959085169416939093179230929101611284565b5f604051808303815f87803b158015610c67575f80fd5b505af1158015610c79573d5f803e3d5ffd5b50506009546002546003546001600160a01b0392831694506323b872dd93509082169116612710610cac8c6109c461125f565b610cb69190611129565b6040518463ffffffff1660e01b8152600401610cd493929190611284565b6020604051808303815f875af1158015610cf0573d5f803e3d5ffd5b505050506040513d601f19601f82011682018060405250810190610d1491906112bf565b90505b6009546001546003546040516323b872dd60e01b81525f936001600160a01b03908116936323b872dd93610d55939183169216908d90600401611284565b6020604051808303815f875af1158015610d71573d5f803e3d5ffd5b505050506040513d601f19601f82011682018060405250810190610d9591906112bf565b90508760096001015f828254610dab9190611148565b909155508190508015610dbb5750815b610e1d5760405162461bcd60e51b815260206004820152602d60248201527f44697362757273656d656e74204661696c65642e20506c65617365206170707260448201526c37bb329031b7b73a3930b1ba1760991b60648201526084016107c3565b5050505050505050565b610e2f610e64565b6001600160a01b038116610e5857604051631e4fbdf760e01b81525f60048201526024016107c3565b610e6181610e90565b50565b5f546001600160a01b031633146104635760405163118cdaa760e01b81523360048201526024016107c3565b5f80546001600160a01b038381166001600160a01b0319831681178455604051919092169283917f8be0079c531659141344cd1fd0a4f28419497f9722a3daafe3b4186f6b6457e09190a35050565b6009546007546001546040516370a0823160e01b81523060048201526001600160a01b039384169392831692849263a9059cbb9291169083906370a0823190602401602060405180830381865afa158015610f3c573d5f803e3d5ffd5b505050506040513d601f19601f82011682018060405250810190610f6091906112a8565b6040516001600160e01b031960e085901b1681526001600160a01b03909216600483015260248201526044016020604051808303815f875af1158015610fa8573d5f803e3d5ffd5b505050506040513d601f19601f82011682018060405250810190610fcc91906112bf565b50600154600854604051632142170760e11b81526001600160a01b03848116936342842e0e936104dc93309390921691600401611284565b6001600160a01b0381168114610e61575f80fd5b5f805f805f6080868803121561102c575f80fd5b853561103781611004565b9450602086013561104781611004565b935060408601359250606086013567ffffffffffffffff8082111561106a575f80fd5b818801915088601f83011261107d575f80fd5b81358181111561108b575f80fd5b89602082850101111561109c575f80fd5b9699959850939650602001949392505050565b5f805f80608085870312156110c2575f80fd5b843593506020850135925060408501359150606085013561ffff811681146110e8575f80fd5b939692955090935050565b5f60208284031215611103575f80fd5b813561110e81611004565b9392505050565b634e487b7160e01b5f52601160045260245ffd5b5f8261114357634e487b7160e01b5f52601260045260245ffd5b500490565b8082018082111561115b5761115b611115565b92915050565b600181815b8085111561119b57815f190482111561118157611181611115565b8085161561118e57918102915b93841c9390800290611166565b509250929050565b5f826111b15750600161115b565b816111bd57505f61115b565b81600181146111d357600281146111dd576111f9565b600191505061115b565b60ff8411156111ee576111ee611115565b50506001821b61115b565b5060208310610133831016604e8410600b841016171561121c575081810a61115b565b6112268383611161565b805f190482111561123957611239611115565b029392505050565b5f61110e83836111a3565b8181038181111561115b5761115b611115565b808202811582820484141761115b5761115b611115565b5f61110e60ff8416836111a3565b6001600160a01b039384168152919092166020820152604081019190915260600190565b5f602082840312156112b8575f80fd5b5051919050565b5f602082840312156112cf575f80fd5b8151801515811461110e575f80fd5b5f600182016112ef576112ef611115565b5060010190565b5f60ff821660ff810361130b5761130b611115565b60010192915050565b5f60208284031215611324575f80fd5b815161110e8161100456fea2646970667358221220200a91f9fd8b0f35ce37d6b313aa8d13f254b8e740f3c5eb60e9debe82e78d3b64736f6c63430008160033",
					"opcodes": "PUSH1 0x80 PUSH1 0x40 MSTORE CALLVALUE DUP1 ISZERO PUSH3 0x10 JUMPI PUSH0 DUP1 REVERT JUMPDEST POP PUSH1 0x40 MLOAD PUSH3 0x1560 CODESIZE SUB DUP1 PUSH3 0x1560 DUP4 CODECOPY DUP2 ADD PUSH1 0x40 DUP2 SWAP1 MSTORE PUSH3 0x33 SWAP2 PUSH3 0x179 JUMP JUMPDEST CALLER DUP1 PUSH3 0x59 JUMPI PUSH1 0x40 MLOAD PUSH4 0x1E4FBDF7 PUSH1 0xE0 SHL DUP2 MSTORE PUSH0 PUSH1 0x4 DUP3 ADD MSTORE PUSH1 0x24 ADD PUSH1 0x40 MLOAD DUP1 SWAP2 SUB SWAP1 REVERT JUMPDEST PUSH3 0x64 DUP2 PUSH3 0x10E JUMP JUMPDEST POP PUSH1 0x3 DUP1 SLOAD PUSH1 0x1 PUSH1 0x1 PUSH1 0xA0 SHL SUB NOT SWAP1 DUP2 AND PUSH1 0x1 PUSH1 0x1 PUSH1 0xA0 SHL SUB SWAP7 DUP8 AND OR SWAP1 SWAP2 SSTORE PUSH1 0x40 DUP1 MLOAD DUP1 DUP3 ADD DUP3 MSTORE SWAP5 DUP7 AND DUP1 DUP7 MSTORE PUSH1 0x20 SWAP6 DUP7 ADD DUP6 SWAP1 MSTORE PUSH1 0x7 DUP1 SLOAD DUP5 AND SWAP1 SWAP2 OR SWAP1 SSTORE PUSH1 0x8 SWAP4 SWAP1 SWAP4 SSTORE PUSH1 0x1 DUP1 SLOAD DUP3 AND SWAP8 DUP7 AND SWAP8 SWAP1 SWAP8 OR SWAP1 SWAP7 SSTORE PUSH1 0x2 DUP1 SLOAD DUP8 AND SWAP6 DUP6 AND SWAP6 SWAP1 SWAP6 OR SWAP1 SWAP5 SSTORE DUP1 MLOAD PUSH1 0x80 DUP2 ADD DUP3 MSTORE SWAP4 SWAP1 SWAP3 AND DUP1 DUP5 MSTORE PUSH0 SWAP2 DUP5 ADD DUP3 SWAP1 MSTORE SWAP2 DUP4 ADD DUP2 SWAP1 MSTORE PUSH1 0x60 SWAP1 SWAP3 ADD DUP3 SWAP1 MSTORE PUSH1 0x9 DUP1 SLOAD SWAP1 SWAP4 AND OR SWAP1 SWAP2 SSTORE PUSH1 0xA DUP2 SWAP1 SSTORE PUSH1 0xB DUP2 SWAP1 SSTORE PUSH1 0xC SSTORE PUSH3 0x1ED JUMP JUMPDEST PUSH0 DUP1 SLOAD PUSH1 0x1 PUSH1 0x1 PUSH1 0xA0 SHL SUB DUP4 DUP2 AND PUSH1 0x1 PUSH1 0x1 PUSH1 0xA0 SHL SUB NOT DUP4 AND DUP2 OR DUP5 SSTORE PUSH1 0x40 MLOAD SWAP2 SWAP1 SWAP3 AND SWAP3 DUP4 SWAP2 PUSH32 0x8BE0079C531659141344CD1FD0A4F28419497F9722A3DAAFE3B4186F6B6457E0 SWAP2 SWAP1 LOG3 POP POP JUMP JUMPDEST DUP1 MLOAD PUSH1 0x1 PUSH1 0x1 PUSH1 0xA0 SHL SUB DUP2 AND DUP2 EQ PUSH3 0x174 JUMPI PUSH0 DUP1 REVERT JUMPDEST SWAP2 SWAP1 POP JUMP JUMPDEST PUSH0 DUP1 PUSH0 DUP1 PUSH0 DUP1 PUSH1 0xC0 DUP8 DUP10 SUB SLT ISZERO PUSH3 0x18F JUMPI PUSH0 DUP1 REVERT JUMPDEST PUSH3 0x19A DUP8 PUSH3 0x15D JUMP JUMPDEST SWAP6 POP PUSH3 0x1AA PUSH1 0x20 DUP9 ADD PUSH3 0x15D JUMP JUMPDEST SWAP5 POP PUSH3 0x1BA PUSH1 0x40 DUP9 ADD PUSH3 0x15D JUMP JUMPDEST SWAP4 POP PUSH3 0x1CA PUSH1 0x60 DUP9 ADD PUSH3 0x15D JUMP JUMPDEST SWAP3 POP PUSH1 0x80 DUP8 ADD MLOAD SWAP2 POP PUSH3 0x1E1 PUSH1 0xA0 DUP9 ADD PUSH3 0x15D JUMP JUMPDEST SWAP1 POP SWAP3 SWAP6 POP SWAP3 SWAP6 POP SWAP3 SWAP6 JUMP JUMPDEST PUSH2 0x1365 DUP1 PUSH3 0x1FB PUSH0 CODECOPY PUSH0 RETURN INVALID PUSH1 0x80 PUSH1 0x40 MSTORE CALLVALUE DUP1 ISZERO PUSH2 0xF JUMPI PUSH0 DUP1 REVERT JUMPDEST POP PUSH1 0x4 CALLDATASIZE LT PUSH2 0x106 JUMPI PUSH0 CALLDATALOAD PUSH1 0xE0 SHR DUP1 PUSH4 0x8DA5CB5B GT PUSH2 0x9E JUMPI DUP1 PUSH4 0xB96243BA GT PUSH2 0x6E JUMPI DUP1 PUSH4 0xB96243BA EQ PUSH2 0x282 JUMPI DUP1 PUSH4 0xC6CA5BF2 EQ PUSH2 0x28A JUMPI DUP1 PUSH4 0xD170B376 EQ PUSH2 0x2B2 JUMPI DUP1 PUSH4 0xD7CA70C4 EQ PUSH2 0x2C5 JUMPI DUP1 PUSH4 0xF2FDE38B EQ PUSH2 0x2CE JUMPI PUSH0 DUP1 REVERT JUMPDEST DUP1 PUSH4 0x8DA5CB5B EQ PUSH2 0x1FA JUMPI DUP1 PUSH4 0x913CEF99 EQ PUSH2 0x20A JUMPI DUP1 PUSH4 0x93287A1D EQ PUSH2 0x21D JUMPI DUP1 PUSH4 0xA91647E6 EQ PUSH2 0x23C JUMPI PUSH0 DUP1 REVERT JUMPDEST DUP1 PUSH4 0x705CAF5F GT PUSH2 0xD9 JUMPI DUP1 PUSH4 0x705CAF5F EQ PUSH2 0x1AA JUMPI DUP1 PUSH4 0x715018A6 EQ PUSH2 0x1D5 JUMPI DUP1 PUSH4 0x770FEA5E EQ PUSH2 0x1DF JUMPI DUP1 PUSH4 0x819ED863 EQ PUSH2 0x1E7 JUMPI PUSH0 DUP1 REVERT JUMPDEST DUP1 PUSH4 0x11EE307E EQ PUSH2 0x10A JUMPI DUP1 PUSH4 0x1394CD8F EQ PUSH2 0x126 JUMPI DUP1 PUSH4 0x150B7A02 EQ PUSH2 0x16A JUMPI DUP1 PUSH4 0x2279DE4E EQ PUSH2 0x1A2 JUMPI JUMPDEST PUSH0 DUP1 REVERT JUMPDEST PUSH2 0x113 PUSH1 0x4 SLOAD DUP2 JUMP JUMPDEST PUSH1 0x40 MLOAD SWAP1 DUP2 MSTORE PUSH1 0x20 ADD JUMPDEST PUSH1 0x40 MLOAD DUP1 SWAP2 SUB SWAP1 RETURN JUMPDEST PUSH2 0x12E PUSH2 0x2E1 JUMP JUMPDEST PUSH1 0x40 MLOAD PUSH2 0x11D SWAP2 SWAP1 DUP2 MLOAD PUSH1 0x1 PUSH1 0x1 PUSH1 0xA0 SHL SUB AND DUP2 MSTORE PUSH1 0x20 DUP1 DUP4 ADD MLOAD SWAP1 DUP3 ADD MSTORE PUSH1 0x40 DUP1 DUP4 ADD MLOAD SWAP1 DUP3 ADD MSTORE PUSH1 0x60 SWAP2 DUP3 ADD MLOAD SWAP2 DUP2 ADD SWAP2 SWAP1 SWAP2 MSTORE PUSH1 0x80 ADD SWAP1 JUMP JUMPDEST PUSH2 0x189 PUSH2 0x178 CALLDATASIZE PUSH1 0x4 PUSH2 0x1018 JUMP JUMPDEST PUSH4 0xA85BD01 PUSH1 0xE1 SHL SWAP6 SWAP5 POP POP POP POP POP JUMP JUMPDEST PUSH1 0x40 MLOAD PUSH1 0x1 PUSH1 0x1 PUSH1 0xE0 SHL SUB NOT SWAP1 SWAP2 AND DUP2 MSTORE PUSH1 0x20 ADD PUSH2 0x11D JUMP JUMPDEST PUSH2 0x113 PUSH2 0x347 JUMP JUMPDEST PUSH1 0x2 SLOAD PUSH2 0x1BD SWAP1 PUSH1 0x1 PUSH1 0x1 PUSH1 0xA0 SHL SUB AND DUP2 JUMP JUMPDEST PUSH1 0x40 MLOAD PUSH1 0x1 PUSH1 0x1 PUSH1 0xA0 SHL SUB SWAP1 SWAP2 AND DUP2 MSTORE PUSH1 0x20 ADD PUSH2 0x11D JUMP JUMPDEST PUSH2 0x1DD PUSH2 0x452 JUMP JUMPDEST STOP JUMPDEST PUSH2 0x113 PUSH2 0x465 JUMP JUMPDEST PUSH1 0x1 SLOAD PUSH2 0x1BD SWAP1 PUSH1 0x1 PUSH1 0x1 PUSH1 0xA0 SHL SUB AND DUP2 JUMP JUMPDEST PUSH0 SLOAD PUSH1 0x1 PUSH1 0x1 PUSH1 0xA0 SHL SUB AND PUSH2 0x1BD JUMP JUMPDEST PUSH1 0x3 SLOAD PUSH2 0x1BD SWAP1 PUSH1 0x1 PUSH1 0x1 PUSH1 0xA0 SHL SUB AND DUP2 JUMP JUMPDEST PUSH1 0x5 SLOAD PUSH2 0x22A SWAP1 PUSH1 0xFF AND DUP2 JUMP JUMPDEST PUSH1 0x40 MLOAD PUSH1 0xFF SWAP1 SWAP2 AND DUP2 MSTORE PUSH1 0x20 ADD PUSH2 0x11D JUMP JUMPDEST PUSH1 0x40 DUP1 MLOAD DUP1 DUP3 ADD DUP3 MSTORE PUSH0 DUP1 DUP3 MSTORE PUSH1 0x20 SWAP2 DUP3 ADD MSTORE DUP2 MLOAD DUP1 DUP4 ADD DUP4 MSTORE PUSH1 0x7 SLOAD PUSH1 0x1 PUSH1 0x1 PUSH1 0xA0 SHL SUB AND DUP1 DUP3 MSTORE PUSH1 0x8 SLOAD SWAP2 DUP4 ADD SWAP2 DUP3 MSTORE DUP4 MLOAD SWAP1 DUP2 MSTORE SWAP1 MLOAD SWAP2 DUP2 ADD SWAP2 SWAP1 SWAP2 MSTORE ADD PUSH2 0x11D JUMP JUMPDEST PUSH2 0x1DD PUSH2 0x47B JUMP JUMPDEST PUSH1 0x3 SLOAD PUSH2 0x29F SWAP1 PUSH1 0x1 PUSH1 0xA0 SHL SWAP1 DIV PUSH2 0xFFFF AND DUP2 JUMP JUMPDEST PUSH1 0x40 MLOAD PUSH2 0xFFFF SWAP1 SWAP2 AND DUP2 MSTORE PUSH1 0x20 ADD PUSH2 0x11D JUMP JUMPDEST PUSH2 0x1DD PUSH2 0x2C0 CALLDATASIZE PUSH1 0x4 PUSH2 0x10AF JUMP JUMPDEST PUSH2 0x743 JUMP JUMPDEST PUSH2 0x113 PUSH1 0x6 SLOAD DUP2 JUMP JUMPDEST PUSH2 0x1DD PUSH2 0x2DC CALLDATASIZE PUSH1 0x4 PUSH2 0x10F3 JUMP JUMPDEST PUSH2 0xE27 JUMP JUMPDEST PUSH2 0x311 PUSH1 0x40 MLOAD DUP1 PUSH1 0x80 ADD PUSH1 0x40 MSTORE DUP1 PUSH0 PUSH1 0x1 PUSH1 0x1 PUSH1 0xA0 SHL SUB AND DUP2 MSTORE PUSH1 0x20 ADD PUSH0 DUP2 MSTORE PUSH1 0x20 ADD PUSH0 DUP2 MSTORE PUSH1 0x20 ADD PUSH0 DUP2 MSTORE POP SWAP1 JUMP JUMPDEST POP PUSH1 0x40 DUP1 MLOAD PUSH1 0x80 DUP2 ADD DUP3 MSTORE PUSH1 0x9 SLOAD PUSH1 0x1 PUSH1 0x1 PUSH1 0xA0 SHL SUB AND DUP2 MSTORE PUSH1 0xA SLOAD PUSH1 0x20 DUP3 ADD MSTORE PUSH1 0xB SLOAD SWAP2 DUP2 ADD SWAP2 SWAP1 SWAP2 MSTORE PUSH1 0xC SLOAD PUSH1 0x60 DUP3 ADD MSTORE SWAP1 JUMP JUMPDEST PUSH0 DUP1 PUSH1 0x4 SLOAD PUSH1 0x6 SLOAD PUSH2 0x359 SWAP2 SWAP1 PUSH2 0x1129 JUMP JUMPDEST SWAP1 POP DUP1 PUSH1 0x9 PUSH1 0x3 ADD SLOAD SUB PUSH2 0x36E JUMPI PUSH0 SWAP2 POP POP SWAP1 JUMP JUMPDEST PUSH1 0x3 SLOAD PUSH0 SWAP1 DUP3 SWAP1 PUSH2 0x38C SWAP1 PUSH1 0x1 PUSH1 0xA0 SHL SWAP1 DIV PUSH2 0xFFFF AND PUSH2 0x2710 PUSH2 0x1148 JUMP JUMPDEST PUSH2 0x396 SWAP2 SWAP1 PUSH2 0x1241 JUMP JUMPDEST SWAP1 POP PUSH0 PUSH2 0x3A5 DUP4 PUSH2 0x2710 PUSH2 0x1241 JUMP JUMPDEST PUSH1 0x3 SLOAD DUP5 SWAP1 PUSH2 0x3C1 SWAP1 PUSH1 0x1 PUSH1 0xA0 SHL SWAP1 DIV PUSH2 0xFFFF AND PUSH2 0x2710 PUSH2 0x1148 JUMP JUMPDEST PUSH2 0x3CB SWAP2 SWAP1 PUSH2 0x1241 JUMP JUMPDEST PUSH2 0x3D5 SWAP2 SWAP1 PUSH2 0x124C JUMP JUMPDEST PUSH1 0x3 SLOAD PUSH1 0xA SLOAD SWAP2 SWAP3 POP PUSH0 SWAP2 DUP4 SWAP2 DUP6 SWAP2 PUSH2 0x3F9 SWAP2 PUSH1 0x1 PUSH1 0xA0 SHL SWAP1 DIV PUSH2 0xFFFF AND SWAP1 PUSH2 0x125F JUMP JUMPDEST PUSH2 0x403 SWAP2 SWAP1 PUSH2 0x125F JUMP JUMPDEST PUSH2 0x40D SWAP2 SWAP1 PUSH2 0x1129 JUMP JUMPDEST PUSH1 0x5 SLOAD SWAP1 SWAP2 POP PUSH0 SWAP1 PUSH2 0x423 SWAP1 PUSH1 0xFF AND PUSH1 0x64 PUSH2 0x1276 JUMP JUMPDEST PUSH1 0x5 SLOAD PUSH2 0x434 SWAP1 PUSH1 0xFF AND PUSH1 0x6E PUSH2 0x1276 JUMP JUMPDEST PUSH2 0x43E SWAP1 DUP5 PUSH2 0x125F JUMP JUMPDEST PUSH2 0x448 SWAP2 SWAP1 PUSH2 0x1129 JUMP JUMPDEST SWAP7 SWAP6 POP POP POP POP POP POP JUMP JUMPDEST PUSH2 0x45A PUSH2 0xE64 JUMP JUMPDEST PUSH2 0x463 PUSH0 PUSH2 0xE90 JUMP JUMPDEST JUMP JUMPDEST PUSH1 0xB SLOAD PUSH1 0xA SLOAD PUSH0 SWAP2 PUSH2 0x476 SWAP2 PUSH2 0x124C JUMP JUMPDEST SWAP1 POP SWAP1 JUMP JUMPDEST PUSH2 0x483 PUSH2 0xE64 JUMP JUMPDEST PUSH1 0x9 SLOAD PUSH1 0x1 PUSH1 0x1 PUSH1 0xA0 SHL SUB AND PUSH0 PUSH2 0x498 PUSH2 0x347 JUMP JUMPDEST SWAP1 POP DUP1 PUSH0 SUB PUSH2 0x50D JUMPI PUSH1 0x7 SLOAD PUSH1 0x2 SLOAD PUSH1 0x8 SLOAD PUSH1 0x40 MLOAD PUSH4 0x21421707 PUSH1 0xE1 SHL DUP2 MSTORE PUSH1 0x1 PUSH1 0x1 PUSH1 0xA0 SHL SUB SWAP4 DUP5 AND SWAP4 PUSH4 0x42842E0E SWAP4 PUSH2 0x4DC SWAP4 ADDRESS SWAP4 SWAP3 SWAP1 SWAP2 AND SWAP2 PUSH1 0x4 ADD PUSH2 0x1284 JUMP JUMPDEST PUSH0 PUSH1 0x40 MLOAD DUP1 DUP4 SUB DUP2 PUSH0 DUP8 DUP1 EXTCODESIZE ISZERO DUP1 ISZERO PUSH2 0x4F3 JUMPI PUSH0 DUP1 REVERT JUMPDEST POP GAS CALL ISZERO DUP1 ISZERO PUSH2 0x505 JUMPI RETURNDATASIZE PUSH0 DUP1 RETURNDATACOPY RETURNDATASIZE PUSH0 REVERT JUMPDEST POP POP POP POP POP POP JUMP JUMPDEST PUSH1 0x2 SLOAD PUSH1 0x40 MLOAD PUSH4 0x70A08231 PUSH1 0xE0 SHL DUP2 MSTORE PUSH1 0x1 PUSH1 0x1 PUSH1 0xA0 SHL SUB SWAP2 DUP3 AND PUSH1 0x4 DUP3 ADD MSTORE DUP3 SWAP2 DUP5 AND SWAP1 PUSH4 0x70A08231 SWAP1 PUSH1 0x24 ADD PUSH1 0x20 PUSH1 0x40 MLOAD DUP1 DUP4 SUB DUP2 DUP7 GAS STATICCALL ISZERO DUP1 ISZERO PUSH2 0x556 JUMPI RETURNDATASIZE PUSH0 DUP1 RETURNDATACOPY RETURNDATASIZE PUSH0 REVERT JUMPDEST POP POP POP POP PUSH1 0x40 MLOAD RETURNDATASIZE PUSH1 0x1F NOT PUSH1 0x1F DUP3 ADD AND DUP3 ADD DUP1 PUSH1 0x40 MSTORE POP DUP2 ADD SWAP1 PUSH2 0x57A SWAP2 SWAP1 PUSH2 0x12A8 JUMP JUMPDEST LT ISZERO DUP1 ISZERO PUSH2 0x5F9 JUMPI POP PUSH1 0x2 SLOAD PUSH1 0x40 MLOAD PUSH4 0x6EB1769F PUSH1 0xE1 SHL DUP2 MSTORE PUSH1 0x1 PUSH1 0x1 PUSH1 0xA0 SHL SUB SWAP2 DUP3 AND PUSH1 0x4 DUP3 ADD MSTORE ADDRESS PUSH1 0x24 DUP3 ADD MSTORE DUP3 SWAP2 DUP5 AND SWAP1 PUSH4 0xDD62ED3E SWAP1 PUSH1 0x44 ADD PUSH1 0x20 PUSH1 0x40 MLOAD DUP1 DUP4 SUB DUP2 DUP7 GAS STATICCALL ISZERO DUP1 ISZERO PUSH2 0x5D2 JUMPI RETURNDATASIZE PUSH0 DUP1 RETURNDATACOPY RETURNDATASIZE PUSH0 REVERT JUMPDEST POP POP POP POP PUSH1 0x40 MLOAD RETURNDATASIZE PUSH1 0x1F NOT PUSH1 0x1F DUP3 ADD AND DUP3 ADD DUP1 PUSH1 0x40 MSTORE POP DUP2 ADD SWAP1 PUSH2 0x5F6 SWAP2 SWAP1 PUSH2 0x12A8 JUMP JUMPDEST LT ISZERO JUMPDEST ISZERO PUSH2 0x6FB JUMPI PUSH1 0x2 SLOAD PUSH1 0x1 SLOAD PUSH1 0x40 MLOAD PUSH4 0x23B872DD PUSH1 0xE0 SHL DUP2 MSTORE PUSH1 0x1 PUSH1 0x1 PUSH1 0xA0 SHL SUB DUP1 DUP7 AND SWAP4 PUSH4 0x23B872DD SWAP4 PUSH2 0x637 SWAP4 SWAP2 DUP4 AND SWAP3 AND SWAP1 DUP7 SWAP1 PUSH1 0x4 ADD PUSH2 0x1284 JUMP JUMPDEST PUSH1 0x20 PUSH1 0x40 MLOAD DUP1 DUP4 SUB DUP2 PUSH0 DUP8 GAS CALL ISZERO DUP1 ISZERO PUSH2 0x653 JUMPI RETURNDATASIZE PUSH0 DUP1 RETURNDATACOPY RETURNDATASIZE PUSH0 REVERT JUMPDEST POP POP POP POP PUSH1 0x40 MLOAD RETURNDATASIZE PUSH1 0x1F NOT PUSH1 0x1F DUP3 ADD AND DUP3 ADD DUP1 PUSH1 0x40 MSTORE POP DUP2 ADD SWAP1 PUSH2 0x677 SWAP2 SWAP1 PUSH2 0x12BF JUMP JUMPDEST POP PUSH1 0x4 SLOAD PUSH1 0x6 SLOAD PUSH2 0x688 SWAP2 SWAP1 PUSH2 0x1129 JUMP JUMPDEST PUSH2 0x694 SWAP1 PUSH2 0x2710 PUSH2 0x125F JUMP JUMPDEST PUSH1 0x3 SLOAD PUSH1 0xA SLOAD PUSH2 0x6AF SWAP2 PUSH1 0x1 PUSH1 0xA0 SHL SWAP1 DIV PUSH2 0xFFFF AND SWAP1 PUSH2 0x125F JUMP JUMPDEST PUSH2 0x6B9 SWAP2 SWAP1 PUSH2 0x1129 JUMP JUMPDEST PUSH2 0x6C3 SWAP1 DUP3 PUSH2 0x124C JUMP JUMPDEST PUSH1 0xB DUP1 SLOAD PUSH0 SWAP1 PUSH2 0x6D4 SWAP1 DUP5 SWAP1 PUSH2 0x1148 JUMP JUMPDEST SWAP1 SWAP2 SSTORE POP POP PUSH1 0xC DUP1 SLOAD SWAP1 PUSH0 PUSH2 0x6E8 DUP4 PUSH2 0x12DE JUMP JUMPDEST SWAP1 SWAP2 SSTORE POP POP PUSH1 0x5 DUP1 SLOAD PUSH1 0xFF NOT AND SWAP1 SSTORE POP POP JUMP JUMPDEST PUSH1 0x5 DUP1 SLOAD PUSH1 0xFF AND LT ISZERO PUSH2 0x737 JUMPI PUSH1 0x5 DUP1 SLOAD PUSH1 0xFF AND SWAP1 PUSH0 PUSH2 0x71A DUP4 PUSH2 0x12F6 JUMP JUMPDEST SWAP2 SWAP1 PUSH2 0x100 EXP DUP2 SLOAD DUP2 PUSH1 0xFF MUL NOT AND SWAP1 DUP4 PUSH1 0xFF AND MUL OR SWAP1 SSTORE POP POP POP POP JUMP JUMPDEST PUSH2 0x73F PUSH2 0xEDF JUMP JUMPDEST POP POP JUMP JUMPDEST PUSH2 0x74B PUSH2 0xE64 JUMP JUMPDEST PUSH1 0x9 SLOAD PUSH1 0x7 SLOAD PUSH1 0x1 PUSH1 0x1 PUSH1 0xA0 SHL SUB SWAP2 DUP3 AND SWAP2 AND DUP4 DUP6 LT ISZERO PUSH2 0x7CC JUMPI PUSH1 0x40 MLOAD PUSH3 0x461BCD PUSH1 0xE5 SHL DUP2 MSTORE PUSH1 0x20 PUSH1 0x4 DUP3 ADD MSTORE PUSH1 0x30 PUSH1 0x24 DUP3 ADD MSTORE PUSH32 0x54696D6520706572696F642063616E6E6F74206265206C657373207468616E20 PUSH1 0x44 DUP3 ADD MSTORE PUSH16 0x1C185E5B595B9D081A5B9D195C9D985B PUSH1 0x82 SHL PUSH1 0x64 DUP3 ADD MSTORE PUSH1 0x84 ADD JUMPDEST PUSH1 0x40 MLOAD DUP1 SWAP2 SUB SWAP1 REVERT JUMPDEST PUSH2 0x2710 PUSH2 0x7DB DUP8 PUSH2 0x9C4 PUSH2 0x125F JUMP JUMPDEST PUSH2 0x7E5 SWAP2 SWAP1 PUSH2 0x1129 JUMP JUMPDEST PUSH1 0x2 SLOAD PUSH1 0x40 MLOAD PUSH4 0x6EB1769F PUSH1 0xE1 SHL DUP2 MSTORE PUSH1 0x1 PUSH1 0x1 PUSH1 0xA0 SHL SUB SWAP2 DUP3 AND PUSH1 0x4 DUP3 ADD MSTORE ADDRESS PUSH1 0x24 DUP3 ADD MSTORE SWAP1 DUP5 AND SWAP1 PUSH4 0xDD62ED3E SWAP1 PUSH1 0x44 ADD PUSH1 0x20 PUSH1 0x40 MLOAD DUP1 DUP4 SUB DUP2 DUP7 GAS STATICCALL ISZERO DUP1 ISZERO PUSH2 0x833 JUMPI RETURNDATASIZE PUSH0 DUP1 RETURNDATACOPY RETURNDATASIZE PUSH0 REVERT JUMPDEST POP POP POP POP PUSH1 0x40 MLOAD RETURNDATASIZE PUSH1 0x1F NOT PUSH1 0x1F DUP3 ADD AND DUP3 ADD DUP1 PUSH1 0x40 MSTORE POP DUP2 ADD SWAP1 PUSH2 0x857 SWAP2 SWAP1 PUSH2 0x12A8 JUMP JUMPDEST LT ISZERO PUSH2 0x8A5 JUMPI PUSH1 0x40 MLOAD PUSH3 0x461BCD PUSH1 0xE5 SHL DUP2 MSTORE PUSH1 0x20 PUSH1 0x4 DUP3 ADD MSTORE PUSH1 0x1B PUSH1 0x24 DUP3 ADD MSTORE PUSH32 0x426F72726F77657220616C6C6F77616E636520746F6F206C6F772E0000000000 PUSH1 0x44 DUP3 ADD MSTORE PUSH1 0x64 ADD PUSH2 0x7C3 JUMP JUMPDEST PUSH2 0x2710 PUSH2 0x8B4 DUP8 PUSH2 0x9C4 PUSH2 0x125F JUMP JUMPDEST PUSH2 0x8BE SWAP2 SWAP1 PUSH2 0x1129 JUMP JUMPDEST PUSH1 0x2 SLOAD PUSH1 0x40 MLOAD PUSH4 0x70A08231 PUSH1 0xE0 SHL DUP2 MSTORE PUSH1 0x1 PUSH1 0x1 PUSH1 0xA0 SHL SUB SWAP2 DUP3 AND PUSH1 0x4 DUP3 ADD MSTORE SWAP1 DUP5 AND SWAP1 PUSH4 0x70A08231 SWAP1 PUSH1 0x24 ADD PUSH1 0x20 PUSH1 0x40 MLOAD DUP1 DUP4 SUB DUP2 DUP7 GAS STATICCALL ISZERO DUP1 ISZERO PUSH2 0x906 JUMPI RETURNDATASIZE PUSH0 DUP1 RETURNDATACOPY RETURNDATASIZE PUSH0 REVERT JUMPDEST POP POP POP POP PUSH1 0x40 MLOAD RETURNDATASIZE PUSH1 0x1F NOT PUSH1 0x1F DUP3 ADD AND DUP3 ADD DUP1 PUSH1 0x40 MSTORE POP DUP2 ADD SWAP1 PUSH2 0x92A SWAP2 SWAP1 PUSH2 0x12A8 JUMP JUMPDEST LT ISZERO PUSH2 0x978 JUMPI PUSH1 0x40 MLOAD PUSH3 0x461BCD PUSH1 0xE5 SHL DUP2 MSTORE PUSH1 0x20 PUSH1 0x4 DUP3 ADD MSTORE PUSH1 0x19 PUSH1 0x24 DUP3 ADD MSTORE PUSH32 0x426F72726F7765722062616C616E636520746F6F206C6F772E00000000000000 PUSH1 0x44 DUP3 ADD MSTORE PUSH1 0x64 ADD PUSH2 0x7C3 JUMP JUMPDEST PUSH1 0x1 SLOAD PUSH1 0x40 MLOAD PUSH4 0x6EB1769F PUSH1 0xE1 SHL DUP2 MSTORE PUSH1 0x1 PUSH1 0x1 PUSH1 0xA0 SHL SUB SWAP2 DUP3 AND PUSH1 0x4 DUP3 ADD MSTORE ADDRESS PUSH1 0x24 DUP3 ADD MSTORE DUP8 SWAP2 DUP5 AND SWAP1 PUSH4 0xDD62ED3E SWAP1 PUSH1 0x44 ADD PUSH1 0x20 PUSH1 0x40 MLOAD DUP1 DUP4 SUB DUP2 DUP7 GAS STATICCALL ISZERO DUP1 ISZERO PUSH2 0x9C7 JUMPI RETURNDATASIZE PUSH0 DUP1 RETURNDATACOPY RETURNDATASIZE PUSH0 REVERT JUMPDEST POP POP POP POP PUSH1 0x40 MLOAD RETURNDATASIZE PUSH1 0x1F NOT PUSH1 0x1F DUP3 ADD AND DUP3 ADD DUP1 PUSH1 0x40 MSTORE POP DUP2 ADD SWAP1 PUSH2 0x9EB SWAP2 SWAP1 PUSH2 0x12A8 JUMP JUMPDEST LT ISZERO PUSH2 0xA39 JUMPI PUSH1 0x40 MLOAD PUSH3 0x461BCD PUSH1 0xE5 SHL DUP2 MSTORE PUSH1 0x20 PUSH1 0x4 DUP3 ADD MSTORE PUSH1 0x19 PUSH1 0x24 DUP3 ADD MSTORE PUSH32 0x4C656E64657220616C6C6F77616E636520746F6F206C6F772E00000000000000 PUSH1 0x44 DUP3 ADD MSTORE PUSH1 0x64 ADD PUSH2 0x7C3 JUMP JUMPDEST PUSH1 0x1 SLOAD PUSH1 0x40 MLOAD PUSH4 0x70A08231 PUSH1 0xE0 SHL DUP2 MSTORE PUSH1 0x1 PUSH1 0x1 PUSH1 0xA0 SHL SUB SWAP2 DUP3 AND PUSH1 0x4 DUP3 ADD MSTORE DUP8 SWAP2 DUP5 AND SWAP1 PUSH4 0x70A08231 SWAP1 PUSH1 0x24 ADD PUSH1 0x20 PUSH1 0x40 MLOAD DUP1 DUP4 SUB DUP2 DUP7 GAS STATICCALL ISZERO DUP1 ISZERO PUSH2 0xA82 JUMPI RETURNDATASIZE PUSH0 DUP1 RETURNDATACOPY RETURNDATASIZE PUSH0 REVERT JUMPDEST POP POP POP POP PUSH1 0x40 MLOAD RETURNDATASIZE PUSH1 0x1F NOT PUSH1 0x1F DUP3 ADD AND DUP3 ADD DUP1 PUSH1 0x40 MSTORE POP DUP2 ADD SWAP1 PUSH2 0xAA6 SWAP2 SWAP1 PUSH2 0x12A8 JUMP JUMPDEST LT ISZERO PUSH2 0xAF4 JUMPI PUSH1 0x40 MLOAD PUSH3 0x461BCD PUSH1 0xE5 SHL DUP2 MSTORE PUSH1 0x20 PUSH1 0x4 DUP3 ADD MSTORE PUSH1 0x17 PUSH1 0x24 DUP3 ADD MSTORE PUSH32 0x4C656E6465722062616C616E636520746F6F206C6F772E000000000000000000 PUSH1 0x44 DUP3 ADD MSTORE PUSH1 0x64 ADD PUSH2 0x7C3 JUMP JUMPDEST PUSH1 0x8 SLOAD PUSH1 0x40 MLOAD PUSH4 0x20604BF PUSH1 0xE2 SHL DUP2 MSTORE ADDRESS SWAP2 PUSH1 0x1 PUSH1 0x1 PUSH1 0xA0 SHL SUB DUP5 AND SWAP2 PUSH4 0x81812FC SWAP2 PUSH2 0xB27 SWAP2 PUSH1 0x4 ADD SWAP1 DUP2 MSTORE PUSH1 0x20 ADD SWAP1 JUMP JUMPDEST PUSH1 0x20 PUSH1 0x40 MLOAD DUP1 DUP4 SUB DUP2 DUP7 GAS STATICCALL ISZERO DUP1 ISZERO PUSH2 0xB42 JUMPI RETURNDATASIZE PUSH0 DUP1 RETURNDATACOPY RETURNDATASIZE PUSH0 REVERT JUMPDEST POP POP POP POP PUSH1 0x40 MLOAD RETURNDATASIZE PUSH1 0x1F NOT PUSH1 0x1F DUP3 ADD AND DUP3 ADD DUP1 PUSH1 0x40 MSTORE POP DUP2 ADD SWAP1 PUSH2 0xB66 SWAP2 SWAP1 PUSH2 0x1314 JUMP JUMPDEST PUSH1 0x1 PUSH1 0x1 PUSH1 0xA0 SHL SUB AND EQ PUSH2 0xBE2 JUMPI PUSH1 0x40 MLOAD PUSH3 0x461BCD PUSH1 0xE5 SHL DUP2 MSTORE PUSH1 0x20 PUSH1 0x4 DUP3 ADD MSTORE PUSH1 0x37 PUSH1 0x24 DUP3 ADD MSTORE PUSH32 0x4173736574206F776E6572206E6565647320746F20617070726F7665206C6F61 PUSH1 0x44 DUP3 ADD MSTORE PUSH32 0x6E206163636F756E7420666F722061737365742069642E000000000000000000 PUSH1 0x64 DUP3 ADD MSTORE PUSH1 0x84 ADD PUSH2 0x7C3 JUMP JUMPDEST PUSH1 0xA SLOAD PUSH0 SWAP1 DUP2 SUB PUSH2 0xD17 JUMPI PUSH1 0x6 DUP7 SWAP1 SSTORE PUSH1 0x4 DUP6 DUP2 SSTORE PUSH1 0x3 DUP1 SLOAD PUSH2 0xFFFF DUP8 AND PUSH1 0x1 PUSH1 0xA0 SHL MUL PUSH2 0xFFFF PUSH1 0xA0 SHL NOT DUP3 AND DUP2 OR SWAP1 SWAP3 SSTORE PUSH1 0x7 SLOAD PUSH1 0x8 SLOAD PUSH1 0x40 MLOAD PUSH4 0x21421707 PUSH1 0xE1 SHL DUP2 MSTORE PUSH1 0x1 PUSH1 0x1 PUSH1 0xA0 SHL SUB SWAP3 DUP4 AND SWAP6 PUSH4 0x42842E0E SWAP6 PUSH2 0xC50 SWAP6 SWAP1 DUP6 AND SWAP5 AND SWAP4 SWAP1 SWAP4 OR SWAP3 ADDRESS SWAP3 SWAP2 ADD PUSH2 0x1284 JUMP JUMPDEST PUSH0 PUSH1 0x40 MLOAD DUP1 DUP4 SUB DUP2 PUSH0 DUP8 DUP1 EXTCODESIZE ISZERO DUP1 ISZERO PUSH2 0xC67 JUMPI PUSH0 DUP1 REVERT JUMPDEST POP GAS CALL ISZERO DUP1 ISZERO PUSH2 0xC79 JUMPI RETURNDATASIZE PUSH0 DUP1 RETURNDATACOPY RETURNDATASIZE PUSH0 REVERT JUMPDEST POP POP PUSH1 0x9 SLOAD PUSH1 0x2 SLOAD PUSH1 0x3 SLOAD PUSH1 0x1 PUSH1 0x1 PUSH1 0xA0 SHL SUB SWAP3 DUP4 AND SWAP5 POP PUSH4 0x23B872DD SWAP4 POP SWAP1 DUP3 AND SWAP2 AND PUSH2 0x2710 PUSH2 0xCAC DUP13 PUSH2 0x9C4 PUSH2 0x125F JUMP JUMPDEST PUSH2 0xCB6 SWAP2 SWAP1 PUSH2 0x1129 JUMP JUMPDEST PUSH1 0x40 MLOAD DUP5 PUSH4 0xFFFFFFFF AND PUSH1 0xE0 SHL DUP2 MSTORE PUSH1 0x4 ADD PUSH2 0xCD4 SWAP4 SWAP3 SWAP2 SWAP1 PUSH2 0x1284 JUMP JUMPDEST PUSH1 0x20 PUSH1 0x40 MLOAD DUP1 DUP4 SUB DUP2 PUSH0 DUP8 GAS CALL ISZERO DUP1 ISZERO PUSH2 0xCF0 JUMPI RETURNDATASIZE PUSH0 DUP1 RETURNDATACOPY RETURNDATASIZE PUSH0 REVERT JUMPDEST POP POP POP POP PUSH1 0x40 MLOAD RETURNDATASIZE PUSH1 0x1F NOT PUSH1 0x1F DUP3 ADD AND DUP3 ADD DUP1 PUSH1 0x40 MSTORE POP DUP2 ADD SWAP1 PUSH2 0xD14 SWAP2 SWAP1 PUSH2 0x12BF JUMP JUMPDEST SWAP1 POP JUMPDEST PUSH1 0x9 SLOAD PUSH1 0x1 SLOAD PUSH1 0x3 SLOAD PUSH1 0x40 MLOAD PUSH4 0x23B872DD PUSH1 0xE0 SHL DUP2 MSTORE PUSH0 SWAP4 PUSH1 0x1 PUSH1 0x1 PUSH1 0xA0 SHL SUB SWAP1 DUP2 AND SWAP4 PUSH4 0x23B872DD SWAP4 PUSH2 0xD55 SWAP4 SWAP2 DUP4 AND SWAP3 AND SWAP1 DUP14 SWAP1 PUSH1 0x4 ADD PUSH2 0x1284 JUMP JUMPDEST PUSH1 0x20 PUSH1 0x40 MLOAD DUP1 DUP4 SUB DUP2 PUSH0 DUP8 GAS CALL ISZERO DUP1 ISZERO PUSH2 0xD71 JUMPI RETURNDATASIZE PUSH0 DUP1 RETURNDATACOPY RETURNDATASIZE PUSH0 REVERT JUMPDEST POP POP POP POP PUSH1 0x40 MLOAD RETURNDATASIZE PUSH1 0x1F NOT PUSH1 0x1F DUP3 ADD AND DUP3 ADD DUP1 PUSH1 0x40 MSTORE POP DUP2 ADD SWAP1 PUSH2 0xD95 SWAP2 SWAP1 PUSH2 0x12BF JUMP JUMPDEST SWAP1 POP DUP8 PUSH1 0x9 PUSH1 0x1 ADD PUSH0 DUP3 DUP3 SLOAD PUSH2 0xDAB SWAP2 SWAP1 PUSH2 0x1148 JUMP JUMPDEST SWAP1 SWAP2 SSTORE POP DUP2 SWAP1 POP DUP1 ISZERO PUSH2 0xDBB JUMPI POP DUP2 JUMPDEST PUSH2 0xE1D JUMPI PUSH1 0x40 MLOAD PUSH3 0x461BCD PUSH1 0xE5 SHL DUP2 MSTORE PUSH1 0x20 PUSH1 0x4 DUP3 ADD MSTORE PUSH1 0x2D PUSH1 0x24 DUP3 ADD MSTORE PUSH32 0x44697362757273656D656E74204661696C65642E20506C656173652061707072 PUSH1 0x44 DUP3 ADD MSTORE PUSH13 0x37BB329031B7B73A3930B1BA17 PUSH1 0x99 SHL PUSH1 0x64 DUP3 ADD MSTORE PUSH1 0x84 ADD PUSH2 0x7C3 JUMP JUMPDEST POP POP POP POP POP POP POP POP JUMP JUMPDEST PUSH2 0xE2F PUSH2 0xE64 JUMP JUMPDEST PUSH1 0x1 PUSH1 0x1 PUSH1 0xA0 SHL SUB DUP2 AND PUSH2 0xE58 JUMPI PUSH1 0x40 MLOAD PUSH4 0x1E4FBDF7 PUSH1 0xE0 SHL DUP2 MSTORE PUSH0 PUSH1 0x4 DUP3 ADD MSTORE PUSH1 0x24 ADD PUSH2 0x7C3 JUMP JUMPDEST PUSH2 0xE61 DUP2 PUSH2 0xE90 JUMP JUMPDEST POP JUMP JUMPDEST PUSH0 SLOAD PUSH1 0x1 PUSH1 0x1 PUSH1 0xA0 SHL SUB AND CALLER EQ PUSH2 0x463 JUMPI PUSH1 0x40 MLOAD PUSH4 0x118CDAA7 PUSH1 0xE0 SHL DUP2 MSTORE CALLER PUSH1 0x4 DUP3 ADD MSTORE PUSH1 0x24 ADD PUSH2 0x7C3 JUMP JUMPDEST PUSH0 DUP1 SLOAD PUSH1 0x1 PUSH1 0x1 PUSH1 0xA0 SHL SUB DUP4 DUP2 AND PUSH1 0x1 PUSH1 0x1 PUSH1 0xA0 SHL SUB NOT DUP4 AND DUP2 OR DUP5 SSTORE PUSH1 0x40 MLOAD SWAP2 SWAP1 SWAP3 AND SWAP3 DUP4 SWAP2 PUSH32 0x8BE0079C531659141344CD1FD0A4F28419497F9722A3DAAFE3B4186F6B6457E0 SWAP2 SWAP1 LOG3 POP POP JUMP JUMPDEST PUSH1 0x9 SLOAD PUSH1 0x7 SLOAD PUSH1 0x1 SLOAD PUSH1 0x40 MLOAD PUSH4 0x70A08231 PUSH1 0xE0 SHL DUP2 MSTORE ADDRESS PUSH1 0x4 DUP3 ADD MSTORE PUSH1 0x1 PUSH1 0x1 PUSH1 0xA0 SHL SUB SWAP4 DUP5 AND SWAP4 SWAP3 DUP4 AND SWAP3 DUP5 SWAP3 PUSH4 0xA9059CBB SWAP3 SWAP2 AND SWAP1 DUP4 SWAP1 PUSH4 0x70A08231 SWAP1 PUSH1 0x24 ADD PUSH1 0x20 PUSH1 0x40 MLOAD DUP1 DUP4 SUB DUP2 DUP7 GAS STATICCALL ISZERO DUP1 ISZERO PUSH2 0xF3C JUMPI RETURNDATASIZE PUSH0 DUP1 RETURNDATACOPY RETURNDATASIZE PUSH0 REVERT JUMPDEST POP POP POP POP PUSH1 0x40 MLOAD RETURNDATASIZE PUSH1 0x1F NOT PUSH1 0x1F DUP3 ADD AND DUP3 ADD DUP1 PUSH1 0x40 MSTORE POP DUP2 ADD SWAP1 PUSH2 0xF60 SWAP2 SWAP1 PUSH2 0x12A8 JUMP JUMPDEST PUSH1 0x40 MLOAD PUSH1 0x1 PUSH1 0x1 PUSH1 0xE0 SHL SUB NOT PUSH1 0xE0 DUP6 SWAP1 SHL AND DUP2 MSTORE PUSH1 0x1 PUSH1 0x1 PUSH1 0xA0 SHL SUB SWAP1 SWAP3 AND PUSH1 0x4 DUP4 ADD MSTORE PUSH1 0x24 DUP3 ADD MSTORE PUSH1 0x44 ADD PUSH1 0x20 PUSH1 0x40 MLOAD DUP1 DUP4 SUB DUP2 PUSH0 DUP8 GAS CALL ISZERO DUP1 ISZERO PUSH2 0xFA8 JUMPI RETURNDATASIZE PUSH0 DUP1 RETURNDATACOPY RETURNDATASIZE PUSH0 REVERT JUMPDEST POP POP POP POP PUSH1 0x40 MLOAD RETURNDATASIZE PUSH1 0x1F NOT PUSH1 0x1F DUP3 ADD AND DUP3 ADD DUP1 PUSH1 0x40 MSTORE POP DUP2 ADD SWAP1 PUSH2 0xFCC SWAP2 SWAP1 PUSH2 0x12BF JUMP JUMPDEST POP PUSH1 0x1 SLOAD PUSH1 0x8 SLOAD PUSH1 0x40 MLOAD PUSH4 0x21421707 PUSH1 0xE1 SHL DUP2 MSTORE PUSH1 0x1 PUSH1 0x1 PUSH1 0xA0 SHL SUB DUP5 DUP2 AND SWAP4 PUSH4 0x42842E0E SWAP4 PUSH2 0x4DC SWAP4 ADDRESS SWAP4 SWAP1 SWAP3 AND SWAP2 PUSH1 0x4 ADD PUSH2 0x1284 JUMP JUMPDEST PUSH1 0x1 PUSH1 0x1 PUSH1 0xA0 SHL SUB DUP2 AND DUP2 EQ PUSH2 0xE61 JUMPI PUSH0 DUP1 REVERT JUMPDEST PUSH0 DUP1 PUSH0 DUP1 PUSH0 PUSH1 0x80 DUP7 DUP9 SUB SLT ISZERO PUSH2 0x102C JUMPI PUSH0 DUP1 REVERT JUMPDEST DUP6 CALLDATALOAD PUSH2 0x1037 DUP2 PUSH2 0x1004 JUMP JUMPDEST SWAP5 POP PUSH1 0x20 DUP7 ADD CALLDATALOAD PUSH2 0x1047 DUP2 PUSH2 0x1004 JUMP JUMPDEST SWAP4 POP PUSH1 0x40 DUP7 ADD CALLDATALOAD SWAP3 POP PUSH1 0x60 DUP7 ADD CALLDATALOAD PUSH8 0xFFFFFFFFFFFFFFFF DUP1 DUP3 GT ISZERO PUSH2 0x106A JUMPI PUSH0 DUP1 REVERT JUMPDEST DUP2 DUP9 ADD SWAP2 POP DUP9 PUSH1 0x1F DUP4 ADD SLT PUSH2 0x107D JUMPI PUSH0 DUP1 REVERT JUMPDEST DUP2 CALLDATALOAD DUP2 DUP2 GT ISZERO PUSH2 0x108B JUMPI PUSH0 DUP1 REVERT JUMPDEST DUP10 PUSH1 0x20 DUP3 DUP6 ADD ADD GT ISZERO PUSH2 0x109C JUMPI PUSH0 DUP1 REVERT JUMPDEST SWAP7 SWAP10 SWAP6 SWAP9 POP SWAP4 SWAP7 POP PUSH1 0x20 ADD SWAP5 SWAP4 SWAP3 POP POP POP JUMP JUMPDEST PUSH0 DUP1 PUSH0 DUP1 PUSH1 0x80 DUP6 DUP8 SUB SLT ISZERO PUSH2 0x10C2 JUMPI PUSH0 DUP1 REVERT JUMPDEST DUP5 CALLDATALOAD SWAP4 POP PUSH1 0x20 DUP6 ADD CALLDATALOAD SWAP3 POP PUSH1 0x40 DUP6 ADD CALLDATALOAD SWAP2 POP PUSH1 0x60 DUP6 ADD CALLDATALOAD PUSH2 0xFFFF DUP2 AND DUP2 EQ PUSH2 0x10E8 JUMPI PUSH0 DUP1 REVERT JUMPDEST SWAP4 SWAP7 SWAP3 SWAP6 POP SWAP1 SWAP4 POP POP JUMP JUMPDEST PUSH0 PUSH1 0x20 DUP3 DUP5 SUB SLT ISZERO PUSH2 0x1103 JUMPI PUSH0 DUP1 REVERT JUMPDEST DUP2 CALLDATALOAD PUSH2 0x110E DUP2 PUSH2 0x1004 JUMP JUMPDEST SWAP4 SWAP3 POP POP POP JUMP JUMPDEST PUSH4 0x4E487B71 PUSH1 0xE0 SHL PUSH0 MSTORE PUSH1 0x11 PUSH1 0x4 MSTORE PUSH1 0x24 PUSH0 REVERT JUMPDEST PUSH0 DUP3 PUSH2 0x1143 JUMPI PUSH4 0x4E487B71 PUSH1 0xE0 SHL PUSH0 MSTORE PUSH1 0x12 PUSH1 0x4 MSTORE PUSH1 0x24 PUSH0 REVERT JUMPDEST POP DIV SWAP1 JUMP JUMPDEST DUP1 DUP3 ADD DUP1 DUP3 GT ISZERO PUSH2 0x115B JUMPI PUSH2 0x115B PUSH2 0x1115 JUMP JUMPDEST SWAP3 SWAP2 POP POP JUMP JUMPDEST PUSH1 0x1 DUP2 DUP2 JUMPDEST DUP1 DUP6 GT ISZERO PUSH2 0x119B JUMPI DUP2 PUSH0 NOT DIV DUP3 GT ISZERO PUSH2 0x1181 JUMPI PUSH2 0x1181 PUSH2 0x1115 JUMP JUMPDEST DUP1 DUP6 AND ISZERO PUSH2 0x118E JUMPI SWAP2 DUP2 MUL SWAP2 JUMPDEST SWAP4 DUP5 SHR SWAP4 SWAP1 DUP1 MUL SWAP1 PUSH2 0x1166 JUMP JUMPDEST POP SWAP3 POP SWAP3 SWAP1 POP JUMP JUMPDEST PUSH0 DUP3 PUSH2 0x11B1 JUMPI POP PUSH1 0x1 PUSH2 0x115B JUMP JUMPDEST DUP2 PUSH2 0x11BD JUMPI POP PUSH0 PUSH2 0x115B JUMP JUMPDEST DUP2 PUSH1 0x1 DUP2 EQ PUSH2 0x11D3 JUMPI PUSH1 0x2 DUP2 EQ PUSH2 0x11DD JUMPI PUSH2 0x11F9 JUMP JUMPDEST PUSH1 0x1 SWAP2 POP POP PUSH2 0x115B JUMP JUMPDEST PUSH1 0xFF DUP5 GT ISZERO PUSH2 0x11EE JUMPI PUSH2 0x11EE PUSH2 0x1115 JUMP JUMPDEST POP POP PUSH1 0x1 DUP3 SHL PUSH2 0x115B JUMP JUMPDEST POP PUSH1 0x20 DUP4 LT PUSH2 0x133 DUP4 LT AND PUSH1 0x4E DUP5 LT PUSH1 0xB DUP5 LT AND OR ISZERO PUSH2 0x121C JUMPI POP DUP2 DUP2 EXP PUSH2 0x115B JUMP JUMPDEST PUSH2 0x1226 DUP4 DUP4 PUSH2 0x1161 JUMP JUMPDEST DUP1 PUSH0 NOT DIV DUP3 GT ISZERO PUSH2 0x1239 JUMPI PUSH2 0x1239 PUSH2 0x1115 JUMP JUMPDEST MUL SWAP4 SWAP3 POP POP POP JUMP JUMPDEST PUSH0 PUSH2 0x110E DUP4 DUP4 PUSH2 0x11A3 JUMP JUMPDEST DUP2 DUP2 SUB DUP2 DUP2 GT ISZERO PUSH2 0x115B JUMPI PUSH2 0x115B PUSH2 0x1115 JUMP JUMPDEST DUP1 DUP3 MUL DUP2 ISZERO DUP3 DUP3 DIV DUP5 EQ OR PUSH2 0x115B JUMPI PUSH2 0x115B PUSH2 0x1115 JUMP JUMPDEST PUSH0 PUSH2 0x110E PUSH1 0xFF DUP5 AND DUP4 PUSH2 0x11A3 JUMP JUMPDEST PUSH1 0x1 PUSH1 0x1 PUSH1 0xA0 SHL SUB SWAP4 DUP5 AND DUP2 MSTORE SWAP2 SWAP1 SWAP3 AND PUSH1 0x20 DUP3 ADD MSTORE PUSH1 0x40 DUP2 ADD SWAP2 SWAP1 SWAP2 MSTORE PUSH1 0x60 ADD SWAP1 JUMP JUMPDEST PUSH0 PUSH1 0x20 DUP3 DUP5 SUB SLT ISZERO PUSH2 0x12B8 JUMPI PUSH0 DUP1 REVERT JUMPDEST POP MLOAD SWAP2 SWAP1 POP JUMP JUMPDEST PUSH0 PUSH1 0x20 DUP3 DUP5 SUB SLT ISZERO PUSH2 0x12CF JUMPI PUSH0 DUP1 REVERT JUMPDEST DUP2 MLOAD DUP1 ISZERO ISZERO DUP2 EQ PUSH2 0x110E JUMPI PUSH0 DUP1 REVERT JUMPDEST PUSH0 PUSH1 0x1 DUP3 ADD PUSH2 0x12EF JUMPI PUSH2 0x12EF PUSH2 0x1115 JUMP JUMPDEST POP PUSH1 0x1 ADD SWAP1 JUMP JUMPDEST PUSH0 PUSH1 0xFF DUP3 AND PUSH1 0xFF DUP2 SUB PUSH2 0x130B JUMPI PUSH2 0x130B PUSH2 0x1115 JUMP JUMPDEST PUSH1 0x1 ADD SWAP3 SWAP2 POP POP JUMP JUMPDEST PUSH0 PUSH1 0x20 DUP3 DUP5 SUB SLT ISZERO PUSH2 0x1324 JUMPI PUSH0 DUP1 REVERT JUMPDEST DUP2 MLOAD PUSH2 0x110E DUP2 PUSH2 0x1004 JUMP INVALID LOG2 PUSH5 0x6970667358 0x22 SLT KECCAK256 KECCAK256 EXP SWAP2 0xF9 REVERT DUP12 0xF CALLDATALOAD 0xCE CALLDATACOPY 0xD6 0xB3 SGT 0xAA DUP14 SGT CALLCODE SLOAD 0xB8 0xE7 BLOCKHASH RETURN 0xC5 0xEB PUSH1 0xE9 0xDE 0xBE DUP3 0xE7 DUP14 EXTCODESIZE PUSH5 0x736F6C6343 STOP ADDMOD AND STOP CALLER "
				},
				"gasEstimates": {
					"creation": {
						"codeDepositCost": "993000",
						"executionCost": "infinite",
						"totalCost": "infinite"
					},
					"external": {
						"_asset_owner()": "2381",
						"_borrower()": "2359",
						"_interest_rate()": "2373",
						"_lender()": "2425",
						"_payment_defaults()": "2379",
						"_payment_interval()": "2307",
						"_time_period()": "2371",
						"calculate_emi()": "infinite",
						"deduct_emi()": "infinite",
						"disburse_loan(uint256,uint256,uint256,uint16)": "infinite",
						"get_disbursed_asset()": "9018",
						"get_mortgaged_asset()": "4626",
						"get_outstanding_balance()": "4547",
						"onERC721Received(address,address,uint256,bytes)": "infinite",
						"owner()": "2352",
						"renounceOwnership()": "infinite",
						"transferOwnership(address)": "infinite"
					},
					"internal": {
						"invalidate_contract()": "infinite"
					}
				},
				"methodIdentifiers": {
					"_asset_owner()": "913cef99",
					"_borrower()": "705caf5f",
					"_interest_rate()": "c6ca5bf2",
					"_lender()": "819ed863",
					"_payment_defaults()": "93287a1d",
					"_payment_interval()": "11ee307e",
					"_time_period()": "d7ca70c4",
					"calculate_emi()": "2279de4e",
					"deduct_emi()": "b96243ba",
					"disburse_loan(uint256,uint256,uint256,uint16)": "d170b376",
					"get_disbursed_asset()": "1394cd8f",
					"get_mortgaged_asset()": "a91647e6",
					"get_outstanding_balance()": "770fea5e",
					"onERC721Received(address,address,uint256,bytes)": "150b7a02",
					"owner()": "8da5cb5b",
					"renounceOwnership()": "715018a6",
					"transferOwnership(address)": "f2fde38b"
				}
			},
			"storageLayout": {
				"storage": [
					{
						"astId": 387,
						"contract": "contracts/LoanAccount.sol:LoanAccount",
						"label": "_owner",
						"offset": 0,
						"slot": "0",
						"type": "t_address"
					},
					{
						"astId": 837,
						"contract": "contracts/LoanAccount.sol:LoanAccount",
						"label": "_lender",
						"offset": 0,
						"slot": "1",
						"type": "t_address"
					},
					{
						"astId": 839,
						"contract": "contracts/LoanAccount.sol:LoanAccount",
						"label": "_borrower",
						"offset": 0,
						"slot": "2",
						"type": "t_address"
					},
					{
						"astId": 841,
						"contract": "contracts/LoanAccount.sol:LoanAccount",
						"label": "_asset_owner",
						"offset": 0,
						"slot": "3",
						"type": "t_address"
					},
					{
						"astId": 843,
						"contract": "contracts/LoanAccount.sol:LoanAccount",
						"label": "_interest_rate",
						"offset": 20,
						"slot": "3",
						"type": "t_uint16"
					},
					{
						"astId": 845,
						"contract": "contracts/LoanAccount.sol:LoanAccount",
						"label": "_payment_interval",
						"offset": 0,
						"slot": "4",
						"type": "t_uint256"
					},
					{
						"astId": 847,
						"contract": "contracts/LoanAccount.sol:LoanAccount",
						"label": "_payment_defaults",
						"offset": 0,
						"slot": "5",
						"type": "t_uint8"
					},
					{
						"astId": 849,
						"contract": "contracts/LoanAccount.sol:LoanAccount",
						"label": "_time_period",
						"offset": 0,
						"slot": "6",
						"type": "t_uint256"
					},
					{
						"astId": 852,
						"contract": "contracts/LoanAccount.sol:LoanAccount",
						"label": "_mortgaged_asset",
						"offset": 0,
						"slot": "7",
						"type": "t_struct(MotrgagedAsset)826_storage"
					},
					{
						"astId": 855,
						"contract": "contracts/LoanAccount.sol:LoanAccount",
						"label": "_disbursed_token_asset",
						"offset": 0,
						"slot": "9",
						"type": "t_struct(DisbursedTokenAsset)835_storage"
					}
				],
				"types": {
					"t_address": {
						"encoding": "inplace",
						"label": "address",
						"numberOfBytes": "20"
					},
					"t_struct(DisbursedTokenAsset)835_storage": {
						"encoding": "inplace",
						"label": "struct LoanAccount.DisbursedTokenAsset",
						"members": [
							{
								"astId": 828,
								"contract": "contracts/LoanAccount.sol:LoanAccount",
								"label": "_token_contract",
								"offset": 0,
								"slot": "0",
								"type": "t_address"
							},
							{
								"astId": 830,
								"contract": "contracts/LoanAccount.sol:LoanAccount",
								"label": "_disbursed_amount",
								"offset": 0,
								"slot": "1",
								"type": "t_uint256"
							},
							{
								"astId": 832,
								"contract": "contracts/LoanAccount.sol:LoanAccount",
								"label": "_principal_repaid",
								"offset": 0,
								"slot": "2",
								"type": "t_uint256"
							},
							{
								"astId": 834,
								"contract": "contracts/LoanAccount.sol:LoanAccount",
								"label": "_no_of_payments",
								"offset": 0,
								"slot": "3",
								"type": "t_uint256"
							}
						],
						"numberOfBytes": "128"
					},
					"t_struct(MotrgagedAsset)826_storage": {
						"encoding": "inplace",
						"label": "struct LoanAccount.MotrgagedAsset",
						"members": [
							{
								"astId": 823,
								"contract": "contracts/LoanAccount.sol:LoanAccount",
								"label": "_token_contract",
								"offset": 0,
								"slot": "0",
								"type": "t_address"
							},
							{
								"astId": 825,
								"contract": "contracts/LoanAccount.sol:LoanAccount",
								"label": "_token_id",
								"offset": 0,
								"slot": "1",
								"type": "t_uint256"
							}
						],
						"numberOfBytes": "64"
					},
					"t_uint16": {
						"encoding": "inplace",
						"label": "uint16",
						"numberOfBytes": "2"
					},
					"t_uint256": {
						"encoding": "inplace",
						"label": "uint256",
						"numberOfBytes": "32"
					},
					"t_uint8": {
						"encoding": "inplace",
						"label": "uint8",
						"numberOfBytes": "1"
					}
				}
			},
			"userdoc": {
				"kind": "user",
				"methods": {},
				"version": 1
			}
		}
	}
}