{
	"data": {
		"bytecode": {
			"linkReferences": {},
			"object": "608060405234801562000010575f80fd5b506040516200156038038062001560833981016040819052620000339162000179565b33806200005957604051631e4fbdf760e01b81525f600482015260240160405180910390fd5b62000064816200010e565b50600380546001600160a01b03199081166001600160a01b03968716179091556040805180820182529486168086526020958601859052600780548416909117905560089390935560018054821697861697909717909655600280548716958516959095179094558051608081018252939092168084525f91840182905291830181905260609092018290526009805490931617909155600a819055600b819055600c55620001ed565b5f80546001600160a01b038381166001600160a01b0319831681178455604051919092169283917f8be0079c531659141344cd1fd0a4f28419497f9722a3daafe3b4186f6b6457e09190a35050565b80516001600160a01b038116811462000174575f80fd5b919050565b5f805f805f8060c087890312156200018f575f80fd5b6200019a876200015d565b9550620001aa602088016200015d565b9450620001ba604088016200015d565b9350620001ca606088016200015d565b925060808701519150620001e160a088016200015d565b90509295509295509295565b61136580620001fb5f395ff3fe608060405234801561000f575f80fd5b5060043610610106575f3560e01c80638da5cb5b1161009e578063b96243ba1161006e578063b96243ba14610282578063c6ca5bf21461028a578063d170b376146102b2578063d7ca70c4146102c5578063f2fde38b146102ce575f80fd5b80638da5cb5b146101fa578063913cef991461020a57806393287a1d1461021d578063a91647e61461023c575f80fd5b8063705caf5f116100d9578063705caf5f146101aa578063715018a6146101d5578063770fea5e146101df578063819ed863146101e7575f80fd5b806311ee307e1461010a5780631394cd8f14610126578063150b7a021461016a5780632279de4e146101a2575b5f80fd5b61011360045481565b6040519081526020015b60405180910390f35b61012e6102e1565b60405161011d919081516001600160a01b0316815260208083015190820152604080830151908201526060918201519181019190915260800190565b610189610178366004611018565b630a85bd0160e11b95945050505050565b6040516001600160e01b0319909116815260200161011d565b610113610347565b6002546101bd906001600160a01b031681565b6040516001600160a01b03909116815260200161011d565b6101dd610452565b005b610113610465565b6001546101bd906001600160a01b031681565b5f546001600160a01b03166101bd565b6003546101bd906001600160a01b031681565b60055461022a9060ff1681565b60405160ff909116815260200161011d565b6040805180820182525f808252602091820152815180830183526007546001600160a01b031680825260085491830191825283519081529051918101919091520161011d565b6101dd61047b565b60035461029f90600160a01b900461ffff1681565b60405161ffff909116815260200161011d565b6101dd6102c03660046110af565b610743565b61011360065481565b6101dd6102dc3660046110f3565b610e27565b61031160405180608001604052805f6001600160a01b031681526020015f81526020015f81526020015f81525090565b50604080516080810182526009546001600160a01b03168152600a546020820152600b5491810191909152600c54606082015290565b5f806004546006546103599190611129565b9050806009600301540361036e575f91505090565b6003545f90829061038c90600160a01b900461ffff16612710611148565b6103969190611241565b90505f6103a583612710611241565b60035484906103c190600160a01b900461ffff16612710611148565b6103cb9190611241565b6103d5919061124c565b600354600a549192505f91839185916103f991600160a01b900461ffff169061125f565b610403919061125f565b61040d9190611129565b6005549091505f906104239060ff166064611276565b6005546104349060ff16606e611276565b61043e908461125f565b6104489190611129565b9695505050505050565b61045a610e64565b6104635f610e90565b565b600b54600a545f916104769161124c565b905090565b610483610e64565b6009546001600160a01b03165f610498610347565b9050805f0361050d57600754600254600854604051632142170760e11b81526001600160a01b03938416936342842e0e936104dc9330939290911691600401611284565b5f604051808303815f87803b1580156104f3575f80fd5b505af1158015610505573d5f803e3d5ffd5b505050505050565b6002546040516370a0823160e01b81526001600160a01b03918216600482015282918416906370a0823190602401602060405180830381865afa158015610556573d5f803e3d5ffd5b505050506040513d601f19601f8201168201806040525081019061057a91906112a8565b101580156105f95750600254604051636eb1769f60e11b81526001600160a01b039182166004820152306024820152829184169063dd62ed3e90604401602060405180830381865afa1580156105d2573d5f803e3d5ffd5b505050506040513d601f19601f820116820180604052508101906105f691906112a8565b10155b156106fb576002546001546040516323b872dd60e01b81526001600160a01b03808616936323b872dd93610637939183169216908690600401611284565b6020604051808303815f875af1158015610653573d5f803e3d5ffd5b505050506040513d601f19601f8201168201806040525081019061067791906112bf565b506004546006546106889190611129565b6106949061271061125f565b600354600a546106af91600160a01b900461ffff169061125f565b6106b99190611129565b6106c3908261124c565b600b80545f906106d4908490611148565b9091555050600c8054905f6106e8836112de565b90915550506005805460ff191690555050565b6005805460ff161015610737576005805460ff16905f61071a836112f6565b91906101000a81548160ff021916908360ff160217905550505050565b61073f610edf565b5050565b61074b610e64565b6009546007546001600160a01b039182169116838510156107cc5760405162461bcd60e51b815260206004820152603060248201527f54696d6520706572696f642063616e6e6f74206265206c657373207468616e2060448201526f1c185e5b595b9d081a5b9d195c9d985b60821b60648201526084015b60405180910390fd5b6127106107db876109c461125f565b6107e59190611129565b600254604051636eb1769f60e11b81526001600160a01b0391821660048201523060248201529084169063dd62ed3e90604401602060405180830381865afa158015610833573d5f803e3d5ffd5b505050506040513d601f19601f8201168201806040525081019061085791906112a8565b10156108a55760405162461bcd60e51b815260206004820152601b60248201527f426f72726f77657220616c6c6f77616e636520746f6f206c6f772e000000000060448201526064016107c3565b6127106108b4876109c461125f565b6108be9190611129565b6002546040516370a0823160e01b81526001600160a01b039182166004820152908416906370a0823190602401602060405180830381865afa158015610906573d5f803e3d5ffd5b505050506040513d601f19601f8201168201806040525081019061092a91906112a8565b10156109785760405162461bcd60e51b815260206004820152601960248201527f426f72726f7765722062616c616e636520746f6f206c6f772e0000000000000060448201526064016107c3565b600154604051636eb1769f60e11b81526001600160a01b039182166004820152306024820152879184169063dd62ed3e90604401602060405180830381865afa1580156109c7573d5f803e3d5ffd5b505050506040513d601f19601f820116820180604052508101906109eb91906112a8565b1015610a395760405162461bcd60e51b815260206004820152601960248201527f4c656e64657220616c6c6f77616e636520746f6f206c6f772e0000000000000060448201526064016107c3565b6001546040516370a0823160e01b81526001600160a01b03918216600482015287918416906370a0823190602401602060405180830381865afa158015610a82573d5f803e3d5ffd5b505050506040513d601f19601f82011682018060405250810190610aa691906112a8565b1015610af45760405162461bcd60e51b815260206004820152601760248201527f4c656e6465722062616c616e636520746f6f206c6f772e00000000000000000060448201526064016107c3565b60085460405163020604bf60e21b815230916001600160a01b0384169163081812fc91610b279160040190815260200190565b602060405180830381865afa158015610b42573d5f803e3d5ffd5b505050506040513d601f19601f82011682018060405250810190610b669190611314565b6001600160a01b031614610be25760405162461bcd60e51b815260206004820152603760248201527f4173736574206f776e6572206e6565647320746f20617070726f7665206c6f6160448201527f6e206163636f756e7420666f722061737365742069642e00000000000000000060648201526084016107c3565b600a545f908103610d1757600686905560048581556003805461ffff8716600160a01b0261ffff60a01b1982168117909255600754600854604051632142170760e11b81526001600160a01b03928316956342842e0e95610c50959085169416939093179230929101611284565b5f604051808303815f87803b158015610c67575f80fd5b505af1158015610c79573d5f803e3d5ffd5b50506009546002546003546001600160a01b0392831694506323b872dd93509082169116612710610cac8c6109c461125f565b610cb69190611129565b6040518463ffffffff1660e01b8152600401610cd493929190611284565b6020604051808303815f875af1158015610cf0573d5f803e3d5ffd5b505050506040513d601f19601f82011682018060405250810190610d1491906112bf565b90505b6009546001546003546040516323b872dd60e01b81525f936001600160a01b03908116936323b872dd93610d55939183169216908d90600401611284565b6020604051808303815f875af1158015610d71573d5f803e3d5ffd5b505050506040513d601f19601f82011682018060405250810190610d9591906112bf565b90508760096001015f828254610dab9190611148565b909155508190508015610dbb5750815b610e1d5760405162461bcd60e51b815260206004820152602d60248201527f44697362757273656d656e74204661696c65642e20506c65617365206170707260448201526c37bb329031b7b73a3930b1ba1760991b60648201526084016107c3565b5050505050505050565b610e2f610e64565b6001600160a01b038116610e5857604051631e4fbdf760e01b81525f60048201526024016107c3565b610e6181610e90565b50565b5f546001600160a01b031633146104635760405163118cdaa760e01b81523360048201526024016107c3565b5f80546001600160a01b038381166001600160a01b0319831681178455604051919092169283917f8be0079c531659141344cd1fd0a4f28419497f9722a3daafe3b4186f6b6457e09190a35050565b6009546007546001546040516370a0823160e01b81523060048201526001600160a01b039384169392831692849263a9059cbb9291169083906370a0823190602401602060405180830381865afa158015610f3c573d5f803e3d5ffd5b505050506040513d601f19601f82011682018060405250810190610f6091906112a8565b6040516001600160e01b031960e085901b1681526001600160a01b03909216600483015260248201526044016020604051808303815f875af1158015610fa8573d5f803e3d5ffd5b505050506040513d601f19601f82011682018060405250810190610fcc91906112bf565b50600154600854604051632142170760e11b81526001600160a01b03848116936342842e0e936104dc93309390921691600401611284565b6001600160a01b0381168114610e61575f80fd5b5f805f805f6080868803121561102c575f80fd5b853561103781611004565b9450602086013561104781611004565b935060408601359250606086013567ffffffffffffffff8082111561106a575f80fd5b818801915088601f83011261107d575f80fd5b81358181111561108b575f80fd5b89602082850101111561109c575f80fd5b9699959850939650602001949392505050565b5f805f80608085870312156110c2575f80fd5b843593506020850135925060408501359150606085013561ffff811681146110e8575f80fd5b939692955090935050565b5f60208284031215611103575f80fd5b813561110e81611004565b9392505050565b634e487b7160e01b5f52601160045260245ffd5b5f8261114357634e487b7160e01b5f52601260045260245ffd5b500490565b8082018082111561115b5761115b611115565b92915050565b600181815b8085111561119b57815f190482111561118157611181611115565b8085161561118e57918102915b93841c9390800290611166565b509250929050565b5f826111b15750600161115b565b816111bd57505f61115b565b81600181146111d357600281146111dd576111f9565b600191505061115b565b60ff8411156111ee576111ee611115565b50506001821b61115b565b5060208310610133831016604e8410600b841016171561121c575081810a61115b565b6112268383611161565b805f190482111561123957611239611115565b029392505050565b5f61110e83836111a3565b8181038181111561115b5761115b611115565b808202811582820484141761115b5761115b611115565b5f61110e60ff8416836111a3565b6001600160a01b039384168152919092166020820152604081019190915260600190565b5f602082840312156112b8575f80fd5b5051919050565b5f602082840312156112cf575f80fd5b8151801515811461110e575f80fd5b5f600182016112ef576112ef611115565b5060010190565b5f60ff821660ff810361130b5761130b611115565b60010192915050565b5f60208284031215611324575f80fd5b815161110e8161100456fea2646970667358221220200a91f9fd8b0f35ce37d6b313aa8d13f254b8e740f3c5eb60e9debe82e78d3b64736f6c63430008160033",
			"opcodes": "PUSH1 0x80 PUSH1 0x40 MSTORE CALLVALUE DUP1 ISZERO PUSH3 0x10 JUMPI PUSH0 DUP1 REVERT JUMPDEST POP PUSH1 0x40 MLOAD PUSH3 0x1560 CODESIZE SUB DUP1 PUSH3 0x1560 DUP4 CODECOPY DUP2 ADD PUSH1 0x40 DUP2 SWAP1 MSTORE PUSH3 0x33 SWAP2 PUSH3 0x179 JUMP JUMPDEST CALLER DUP1 PUSH3 0x59 JUMPI PUSH1 0x40 MLOAD PUSH4 0x1E4FBDF7 PUSH1 0xE0 SHL DUP2 MSTORE PUSH0 PUSH1 0x4 DUP3 ADD MSTORE PUSH1 0x24 ADD PUSH1 0x40 MLOAD DUP1 SWAP2 SUB SWAP1 REVERT JUMPDEST PUSH3 0x64 DUP2 PUSH3 0x10E JUMP JUMPDEST POP PUSH1 0x3 DUP1 SLOAD PUSH1 0x1 PUSH1 0x1 PUSH1 0xA0 SHL SUB NOT SWAP1 DUP2 AND PUSH1 0x1 PUSH1 0x1 PUSH1 0xA0 SHL SUB SWAP7 DUP8 AND OR SWAP1 SWAP2 SSTORE PUSH1 0x40 DUP1 MLOAD DUP1 DUP3 ADD DUP3 MSTORE SWAP5 DUP7 AND DUP1 DUP7 MSTORE PUSH1 0x20 SWAP6 DUP7 ADD DUP6 SWAP1 MSTORE PUSH1 0x7 DUP1 SLOAD DUP5 AND SWAP1 SWAP2 OR SWAP1 SSTORE PUSH1 0x8 SWAP4 SWAP1 SWAP4 SSTORE PUSH1 0x1 DUP1 SLOAD DUP3 AND SWAP8 DUP7 AND SWAP8 SWAP1 SWAP8 OR SWAP1 SWAP7 SSTORE PUSH1 0x2 DUP1 SLOAD DUP8 AND SWAP6 DUP6 AND SWAP6 SWAP1 SWAP6 OR SWAP1 SWAP5 SSTORE DUP1 MLOAD PUSH1 0x80 DUP2 ADD DUP3 MSTORE SWAP4 SWAP1 SWAP3 AND DUP1 DUP5 MSTORE PUSH0 SWAP2 DUP5 ADD DUP3 SWAP1 MSTORE SWAP2 DUP4 ADD DUP2 SWAP1 MSTORE PUSH1 0x60 SWAP1 SWAP3 ADD DUP3 SWAP1 MSTORE PUSH1 0x9 DUP1 SLOAD SWAP1 SWAP4 AND OR SWAP1 SWAP2 SSTORE PUSH1 0xA DUP2 SWAP1 SSTORE PUSH1 0xB DUP2 SWAP1 SSTORE PUSH1 0xC SSTORE PUSH3 0x1ED JUMP JUMPDEST PUSH0 DUP1 SLOAD PUSH1 0x1 PUSH1 0x1 PUSH1 0xA0 SHL SUB DUP4 DUP2 AND PUSH1 0x1 PUSH1 0x1 PUSH1 0xA0 SHL SUB NOT DUP4 AND DUP2 OR DUP5 SSTORE PUSH1 0x40 MLOAD SWAP2 SWAP1 SWAP3 AND SWAP3 DUP4 SWAP2 PUSH32 0x8BE0079C531659141344CD1FD0A4F28419497F9722A3DAAFE3B4186F6B6457E0 SWAP2 SWAP1 LOG3 POP POP JUMP JUMPDEST DUP1 MLOAD PUSH1 0x1 PUSH1 0x1 PUSH1 0xA0 SHL SUB DUP2 AND DUP2 EQ PUSH3 0x174 JUMPI PUSH0 DUP1 REVERT JUMPDEST SWAP2 SWAP1 POP JUMP JUMPDEST PUSH0 DUP1 PUSH0 DUP1 PUSH0 DUP1 PUSH1 0xC0 DUP8 DUP10 SUB SLT ISZERO PUSH3 0x18F JUMPI PUSH0 DUP1 REVERT JUMPDEST PUSH3 0x19A DUP8 PUSH3 0x15D JUMP JUMPDEST SWAP6 POP PUSH3 0x1AA PUSH1 0x20 DUP9 ADD PUSH3 0x15D JUMP JUMPDEST SWAP5 POP PUSH3 0x1BA PUSH1 0x40 DUP9 ADD PUSH3 0x15D JUMP JUMPDEST SWAP4 POP PUSH3 0x1CA PUSH1 0x60 DUP9 ADD PUSH3 0x15D JUMP JUMPDEST SWAP3 POP PUSH1 0x80 DUP8 ADD MLOAD SWAP2 POP PUSH3 0x1E1 PUSH1 0xA0 DUP9 ADD PUSH3 0x15D JUMP JUMPDEST SWAP1 POP SWAP3 SWAP6 POP SWAP3 SWAP6 POP SWAP3 SWAP6 JUMP JUMPDEST PUSH2 0x1365 DUP1 PUSH3 0x1FB PUSH0 CODECOPY PUSH0 RETURN INVALID PUSH1 0x80 PUSH1 0x40 MSTORE CALLVALUE DUP1 ISZERO PUSH2 0xF JUMPI PUSH0 DUP1 REVERT JUMPDEST POP PUSH1 0x4 CALLDATASIZE LT PUSH2 0x106 JUMPI PUSH0 CALLDATALOAD PUSH1 0xE0 SHR DUP1 PUSH4 0x8DA5CB5B GT PUSH2 0x9E JUMPI DUP1 PUSH4 0xB96243BA GT PUSH2 0x6E JUMPI DUP1 PUSH4 0xB96243BA EQ PUSH2 0x282 JUMPI DUP1 PUSH4 0xC6CA5BF2 EQ PUSH2 0x28A JUMPI DUP1 PUSH4 0xD170B376 EQ PUSH2 0x2B2 JUMPI DUP1 PUSH4 0xD7CA70C4 EQ PUSH2 0x2C5 JUMPI DUP1 PUSH4 0xF2FDE38B EQ PUSH2 0x2CE JUMPI PUSH0 DUP1 REVERT JUMPDEST DUP1 PUSH4 0x8DA5CB5B EQ PUSH2 0x1FA JUMPI DUP1 PUSH4 0x913CEF99 EQ PUSH2 0x20A JUMPI DUP1 PUSH4 0x93287A1D EQ PUSH2 0x21D JUMPI DUP1 PUSH4 0xA91647E6 EQ PUSH2 0x23C JUMPI PUSH0 DUP1 REVERT JUMPDEST DUP1 PUSH4 0x705CAF5F GT PUSH2 0xD9 JUMPI DUP1 PUSH4 0x705CAF5F EQ PUSH2 0x1AA JUMPI DUP1 PUSH4 0x715018A6 EQ PUSH2 0x1D5 JUMPI DUP1 PUSH4 0x770FEA5E EQ PUSH2 0x1DF JUMPI DUP1 PUSH4 0x819ED863 EQ PUSH2 0x1E7 JUMPI PUSH0 DUP1 REVERT JUMPDEST DUP1 PUSH4 0x11EE307E EQ PUSH2 0x10A JUMPI DUP1 PUSH4 0x1394CD8F EQ PUSH2 0x126 JUMPI DUP1 PUSH4 0x150B7A02 EQ PUSH2 0x16A JUMPI DUP1 PUSH4 0x2279DE4E EQ PUSH2 0x1A2 JUMPI JUMPDEST PUSH0 DUP1 REVERT JUMPDEST PUSH2 0x113 PUSH1 0x4 SLOAD DUP2 JUMP JUMPDEST PUSH1 0x40 MLOAD SWAP1 DUP2 MSTORE PUSH1 0x20 ADD JUMPDEST PUSH1 0x40 MLOAD DUP1 SWAP2 SUB SWAP1 RETURN JUMPDEST PUSH2 0x12E PUSH2 0x2E1 JUMP JUMPDEST PUSH1 0x40 MLOAD PUSH2 0x11D SWAP2 SWAP1 DUP2 MLOAD PUSH1 0x1 PUSH1 0x1 PUSH1 0xA0 SHL SUB AND DUP2 MSTORE PUSH1 0x20 DUP1 DUP4 ADD MLOAD SWAP1 DUP3 ADD MSTORE PUSH1 0x40 DUP1 DUP4 ADD MLOAD SWAP1 DUP3 ADD MSTORE PUSH1 0x60 SWAP2 DUP3 ADD MLOAD SWAP2 DUP2 ADD SWAP2 SWAP1 SWAP2 MSTORE PUSH1 0x80 ADD SWAP1 JUMP JUMPDEST PUSH2 0x189 PUSH2 0x178 CALLDATASIZE PUSH1 0x4 PUSH2 0x1018 JUMP JUMPDEST PUSH4 0xA85BD01 PUSH1 0xE1 SHL SWAP6 SWAP5 POP POP POP POP POP JUMP JUMPDEST PUSH1 0x40 MLOAD PUSH1 0x1 PUSH1 0x1 PUSH1 0xE0 SHL SUB NOT SWAP1 SWAP2 AND DUP2 MSTORE PUSH1 0x20 ADD PUSH2 0x11D JUMP JUMPDEST PUSH2 0x113 PUSH2 0x347 JUMP JUMPDEST PUSH1 0x2 SLOAD PUSH2 0x1BD SWAP1 PUSH1 0x1 PUSH1 0x1 PUSH1 0xA0 SHL SUB AND DUP2 JUMP JUMPDEST PUSH1 0x40 MLOAD PUSH1 0x1 PUSH1 0x1 PUSH1 0xA0 SHL SUB SWAP1 SWAP2 AND DUP2 MSTORE PUSH1 0x20 ADD PUSH2 0x11D JUMP JUMPDEST PUSH2 0x1DD PUSH2 0x452 JUMP JUMPDEST STOP JUMPDEST PUSH2 0x113 PUSH2 0x465 JUMP JUMPDEST PUSH1 0x1 SLOAD PUSH2 0x1BD SWAP1 PUSH1 0x1 PUSH1 0x1 PUSH1 0xA0 SHL SUB AND DUP2 JUMP JUMPDEST PUSH0 SLOAD PUSH1 0x1 PUSH1 0x1 PUSH1 0xA0 SHL SUB AND PUSH2 0x1BD JUMP JUMPDEST PUSH1 0x3 SLOAD PUSH2 0x1BD SWAP1 PUSH1 0x1 PUSH1 0x1 PUSH1 0xA0 SHL SUB AND DUP2 JUMP JUMPDEST PUSH1 0x5 SLOAD PUSH2 0x22A SWAP1 PUSH1 0xFF AND DUP2 JUMP JUMPDEST PUSH1 0x40 MLOAD PUSH1 0xFF SWAP1 SWAP2 AND DUP2 MSTORE PUSH1 0x20 ADD PUSH2 0x11D JUMP JUMPDEST PUSH1 0x40 DUP1 MLOAD DUP1 DUP3 ADD DUP3 MSTORE PUSH0 DUP1 DUP3 MSTORE PUSH1 0x20 SWAP2 DUP3 ADD MSTORE DUP2 MLOAD DUP1 DUP4 ADD DUP4 MSTORE PUSH1 0x7 SLOAD PUSH1 0x1 PUSH1 0x1 PUSH1 0xA0 SHL SUB AND DUP1 DUP3 MSTORE PUSH1 0x8 SLOAD SWAP2 DUP4 ADD SWAP2 DUP3 MSTORE DUP4 MLOAD SWAP1 DUP2 MSTORE SWAP1 MLOAD SWAP2 DUP2 ADD SWAP2 SWAP1 SWAP2 MSTORE ADD PUSH2 0x11D JUMP JUMPDEST PUSH2 0x1DD PUSH2 0x47B JUMP JUMPDEST PUSH1 0x3 SLOAD PUSH2 0x29F SWAP1 PUSH1 0x1 PUSH1 0xA0 SHL SWAP1 DIV PUSH2 0xFFFF AND DUP2 JUMP JUMPDEST PUSH1 0x40 MLOAD PUSH2 0xFFFF SWAP1 SWAP2 AND DUP2 MSTORE PUSH1 0x20 ADD PUSH2 0x11D JUMP JUMPDEST PUSH2 0x1DD PUSH2 0x2C0 CALLDATASIZE PUSH1 0x4 PUSH2 0x10AF JUMP JUMPDEST PUSH2 0x743 JUMP JUMPDEST PUSH2 0x113 PUSH1 0x6 SLOAD DUP2 JUMP JUMPDEST PUSH2 0x1DD PUSH2 0x2DC CALLDATASIZE PUSH1 0x4 PUSH2 0x10F3 JUMP JUMPDEST PUSH2 0xE27 JUMP JUMPDEST PUSH2 0x311 PUSH1 0x40 MLOAD DUP1 PUSH1 0x80 ADD PUSH1 0x40 MSTORE DUP1 PUSH0 PUSH1 0x1 PUSH1 0x1 PUSH1 0xA0 SHL SUB AND DUP2 MSTORE PUSH1 0x20 ADD PUSH0 DUP2 MSTORE PUSH1 0x20 ADD PUSH0 DUP2 MSTORE PUSH1 0x20 ADD PUSH0 DUP2 MSTORE POP SWAP1 JUMP JUMPDEST POP PUSH1 0x40 DUP1 MLOAD PUSH1 0x80 DUP2 ADD DUP3 MSTORE PUSH1 0x9 SLOAD PUSH1 0x1 PUSH1 0x1 PUSH1 0xA0 SHL SUB AND DUP2 MSTORE PUSH1 0xA SLOAD PUSH1 0x20 DUP3 ADD MSTORE PUSH1 0xB SLOAD SWAP2 DUP2 ADD SWAP2 SWAP1 SWAP2 MSTORE PUSH1 0xC SLOAD PUSH1 0x60 DUP3 ADD MSTORE SWAP1 JUMP JUMPDEST PUSH0 DUP1 PUSH1 0x4 SLOAD PUSH1 0x6 SLOAD PUSH2 0x359 SWAP2 SWAP1 PUSH2 0x1129 JUMP JUMPDEST SWAP1 POP DUP1 PUSH1 0x9 PUSH1 0x3 ADD SLOAD SUB PUSH2 0x36E JUMPI PUSH0 SWAP2 POP POP SWAP1 JUMP JUMPDEST PUSH1 0x3 SLOAD PUSH0 SWAP1 DUP3 SWAP1 PUSH2 0x38C SWAP1 PUSH1 0x1 PUSH1 0xA0 SHL SWAP1 DIV PUSH2 0xFFFF AND PUSH2 0x2710 PUSH2 0x1148 JUMP JUMPDEST PUSH2 0x396 SWAP2 SWAP1 PUSH2 0x1241 JUMP JUMPDEST SWAP1 POP PUSH0 PUSH2 0x3A5 DUP4 PUSH2 0x2710 PUSH2 0x1241 JUMP JUMPDEST PUSH1 0x3 SLOAD DUP5 SWAP1 PUSH2 0x3C1 SWAP1 PUSH1 0x1 PUSH1 0xA0 SHL SWAP1 DIV PUSH2 0xFFFF AND PUSH2 0x2710 PUSH2 0x1148 JUMP JUMPDEST PUSH2 0x3CB SWAP2 SWAP1 PUSH2 0x1241 JUMP JUMPDEST PUSH2 0x3D5 SWAP2 SWAP1 PUSH2 0x124C JUMP JUMPDEST PUSH1 0x3 SLOAD PUSH1 0xA SLOAD SWAP2 SWAP3 POP PUSH0 SWAP2 DUP4 SWAP2 DUP6 SWAP2 PUSH2 0x3F9 SWAP2 PUSH1 0x1 PUSH1 0xA0 SHL SWAP1 DIV PUSH2 0xFFFF AND SWAP1 PUSH2 0x125F JUMP JUMPDEST PUSH2 0x403 SWAP2 SWAP1 PUSH2 0x125F JUMP JUMPDEST PUSH2 0x40D SWAP2 SWAP1 PUSH2 0x1129 JUMP JUMPDEST PUSH1 0x5 SLOAD SWAP1 SWAP2 POP PUSH0 SWAP1 PUSH2 0x423 SWAP1 PUSH1 0xFF AND PUSH1 0x64 PUSH2 0x1276 JUMP JUMPDEST PUSH1 0x5 SLOAD PUSH2 0x434 SWAP1 PUSH1 0xFF AND PUSH1 0x6E PUSH2 0x1276 JUMP JUMPDEST PUSH2 0x43E SWAP1 DUP5 PUSH2 0x125F JUMP JUMPDEST PUSH2 0x448 SWAP2 SWAP1 PUSH2 0x1129 JUMP JUMPDEST SWAP7 SWAP6 POP POP POP POP POP POP JUMP JUMPDEST PUSH2 0x45A PUSH2 0xE64 JUMP JUMPDEST PUSH2 0x463 PUSH0 PUSH2 0xE90 JUMP JUMPDEST JUMP JUMPDEST PUSH1 0xB SLOAD PUSH1 0xA SLOAD PUSH0 SWAP2 PUSH2 0x476 SWAP2 PUSH2 0x124C JUMP JUMPDEST SWAP1 POP SWAP1 JUMP JUMPDEST PUSH2 0x483 PUSH2 0xE64 JUMP JUMPDEST PUSH1 0x9 SLOAD PUSH1 0x1 PUSH1 0x1 PUSH1 0xA0 SHL SUB AND PUSH0 PUSH2 0x498 PUSH2 0x347 JUMP JUMPDEST SWAP1 POP DUP1 PUSH0 SUB PUSH2 0x50D JUMPI PUSH1 0x7 SLOAD PUSH1 0x2 SLOAD PUSH1 0x8 SLOAD PUSH1 0x40 MLOAD PUSH4 0x21421707 PUSH1 0xE1 SHL DUP2 MSTORE PUSH1 0x1 PUSH1 0x1 PUSH1 0xA0 SHL SUB SWAP4 DUP5 AND SWAP4 PUSH4 0x42842E0E SWAP4 PUSH2 0x4DC SWAP4 ADDRESS SWAP4 SWAP3 SWAP1 SWAP2 AND SWAP2 PUSH1 0x4 ADD PUSH2 0x1284 JUMP JUMPDEST PUSH0 PUSH1 0x40 MLOAD DUP1 DUP4 SUB DUP2 PUSH0 DUP8 DUP1 EXTCODESIZE ISZERO DUP1 ISZERO PUSH2 0x4F3 JUMPI PUSH0 DUP1 REVERT JUMPDEST POP GAS CALL ISZERO DUP1 ISZERO PUSH2 0x505 JUMPI RETURNDATASIZE PUSH0 DUP1 RETURNDATACOPY RETURNDATASIZE PUSH0 REVERT JUMPDEST POP POP POP POP POP POP JUMP JUMPDEST PUSH1 0x2 SLOAD PUSH1 0x40 MLOAD PUSH4 0x70A08231 PUSH1 0xE0 SHL DUP2 MSTORE PUSH1 0x1 PUSH1 0x1 PUSH1 0xA0 SHL SUB SWAP2 DUP3 AND PUSH1 0x4 DUP3 ADD MSTORE DUP3 SWAP2 DUP5 AND SWAP1 PUSH4 0x70A08231 SWAP1 PUSH1 0x24 ADD PUSH1 0x20 PUSH1 0x40 MLOAD DUP1 DUP4 SUB DUP2 DUP7 GAS STATICCALL ISZERO DUP1 ISZERO PUSH2 0x556 JUMPI RETURNDATASIZE PUSH0 DUP1 RETURNDATACOPY RETURNDATASIZE PUSH0 REVERT JUMPDEST POP POP POP POP PUSH1 0x40 MLOAD RETURNDATASIZE PUSH1 0x1F NOT PUSH1 0x1F DUP3 ADD AND DUP3 ADD DUP1 PUSH1 0x40 MSTORE POP DUP2 ADD SWAP1 PUSH2 0x57A SWAP2 SWAP1 PUSH2 0x12A8 JUMP JUMPDEST LT ISZERO DUP1 ISZERO PUSH2 0x5F9 JUMPI POP PUSH1 0x2 SLOAD PUSH1 0x40 MLOAD PUSH4 0x6EB1769F PUSH1 0xE1 SHL DUP2 MSTORE PUSH1 0x1 PUSH1 0x1 PUSH1 0xA0 SHL SUB SWAP2 DUP3 AND PUSH1 0x4 DUP3 ADD MSTORE ADDRESS PUSH1 0x24 DUP3 ADD MSTORE DUP3 SWAP2 DUP5 AND SWAP1 PUSH4 0xDD62ED3E SWAP1 PUSH1 0x44 ADD PUSH1 0x20 PUSH1 0x40 MLOAD DUP1 DUP4 SUB DUP2 DUP7 GAS STATICCALL ISZERO DUP1 ISZERO PUSH2 0x5D2 JUMPI RETURNDATASIZE PUSH0 DUP1 RETURNDATACOPY RETURNDATASIZE PUSH0 REVERT JUMPDEST POP POP POP POP PUSH1 0x40 MLOAD RETURNDATASIZE PUSH1 0x1F NOT PUSH1 0x1F DUP3 ADD AND DUP3 ADD DUP1 PUSH1 0x40 MSTORE POP DUP2 ADD SWAP1 PUSH2 0x5F6 SWAP2 SWAP1 PUSH2 0x12A8 JUMP JUMPDEST LT ISZERO JUMPDEST ISZERO PUSH2 0x6FB JUMPI PUSH1 0x2 SLOAD PUSH1 0x1 SLOAD PUSH1 0x40 MLOAD PUSH4 0x23B872DD PUSH1 0xE0 SHL DUP2 MSTORE PUSH1 0x1 PUSH1 0x1 PUSH1 0xA0 SHL SUB DUP1 DUP7 AND SWAP4 PUSH4 0x23B872DD SWAP4 PUSH2 0x637 SWAP4 SWAP2 DUP4 AND SWAP3 AND SWAP1 DUP7 SWAP1 PUSH1 0x4 ADD PUSH2 0x1284 JUMP JUMPDEST PUSH1 0x20 PUSH1 0x40 MLOAD DUP1 DUP4 SUB DUP2 PUSH0 DUP8 GAS CALL ISZERO DUP1 ISZERO PUSH2 0x653 JUMPI RETURNDATASIZE PUSH0 DUP1 RETURNDATACOPY RETURNDATASIZE PUSH0 REVERT JUMPDEST POP POP POP POP PUSH1 0x40 MLOAD RETURNDATASIZE PUSH1 0x1F NOT PUSH1 0x1F DUP3 ADD AND DUP3 ADD DUP1 PUSH1 0x40 MSTORE POP DUP2 ADD SWAP1 PUSH2 0x677 SWAP2 SWAP1 PUSH2 0x12BF JUMP JUMPDEST POP PUSH1 0x4 SLOAD PUSH1 0x6 SLOAD PUSH2 0x688 SWAP2 SWAP1 PUSH2 0x1129 JUMP JUMPDEST PUSH2 0x694 SWAP1 PUSH2 0x2710 PUSH2 0x125F JUMP JUMPDEST PUSH1 0x3 SLOAD PUSH1 0xA SLOAD PUSH2 0x6AF SWAP2 PUSH1 0x1 PUSH1 0xA0 SHL SWAP1 DIV PUSH2 0xFFFF AND SWAP1 PUSH2 0x125F JUMP JUMPDEST PUSH2 0x6B9 SWAP2 SWAP1 PUSH2 0x1129 JUMP JUMPDEST PUSH2 0x6C3 SWAP1 DUP3 PUSH2 0x124C JUMP JUMPDEST PUSH1 0xB DUP1 SLOAD PUSH0 SWAP1 PUSH2 0x6D4 SWAP1 DUP5 SWAP1 PUSH2 0x1148 JUMP JUMPDEST SWAP1 SWAP2 SSTORE POP POP PUSH1 0xC DUP1 SLOAD SWAP1 PUSH0 PUSH2 0x6E8 DUP4 PUSH2 0x12DE JUMP JUMPDEST SWAP1 SWAP2 SSTORE POP POP PUSH1 0x5 DUP1 SLOAD PUSH1 0xFF NOT AND SWAP1 SSTORE POP POP JUMP JUMPDEST PUSH1 0x5 DUP1 SLOAD PUSH1 0xFF AND LT ISZERO PUSH2 0x737 JUMPI PUSH1 0x5 DUP1 SLOAD PUSH1 0xFF AND SWAP1 PUSH0 PUSH2 0x71A DUP4 PUSH2 0x12F6 JUMP JUMPDEST SWAP2 SWAP1 PUSH2 0x100 EXP DUP2 SLOAD DUP2 PUSH1 0xFF MUL NOT AND SWAP1 DUP4 PUSH1 0xFF AND MUL OR SWAP1 SSTORE POP POP POP POP JUMP JUMPDEST PUSH2 0x73F PUSH2 0xEDF JUMP JUMPDEST POP POP JUMP JUMPDEST PUSH2 0x74B PUSH2 0xE64 JUMP JUMPDEST PUSH1 0x9 SLOAD PUSH1 0x7 SLOAD PUSH1 0x1 PUSH1 0x1 PUSH1 0xA0 SHL SUB SWAP2 DUP3 AND SWAP2 AND DUP4 DUP6 LT ISZERO PUSH2 0x7CC JUMPI PUSH1 0x40 MLOAD PUSH3 0x461BCD PUSH1 0xE5 SHL DUP2 MSTORE PUSH1 0x20 PUSH1 0x4 DUP3 ADD MSTORE PUSH1 0x30 PUSH1 0x24 DUP3 ADD MSTORE PUSH32 0x54696D6520706572696F642063616E6E6F74206265206C657373207468616E20 PUSH1 0x44 DUP3 ADD MSTORE PUSH16 0x1C185E5B595B9D081A5B9D195C9D985B PUSH1 0x82 SHL PUSH1 0x64 DUP3 ADD MSTORE PUSH1 0x84 ADD JUMPDEST PUSH1 0x40 MLOAD DUP1 SWAP2 SUB SWAP1 REVERT JUMPDEST PUSH2 0x2710 PUSH2 0x7DB DUP8 PUSH2 0x9C4 PUSH2 0x125F JUMP JUMPDEST PUSH2 0x7E5 SWAP2 SWAP1 PUSH2 0x1129 JUMP JUMPDEST PUSH1 0x2 SLOAD PUSH1 0x40 MLOAD PUSH4 0x6EB1769F PUSH1 0xE1 SHL DUP2 MSTORE PUSH1 0x1 PUSH1 0x1 PUSH1 0xA0 SHL SUB SWAP2 DUP3 AND PUSH1 0x4 DUP3 ADD MSTORE ADDRESS PUSH1 0x24 DUP3 ADD MSTORE SWAP1 DUP5 AND SWAP1 PUSH4 0xDD62ED3E SWAP1 PUSH1 0x44 ADD PUSH1 0x20 PUSH1 0x40 MLOAD DUP1 DUP4 SUB DUP2 DUP7 GAS STATICCALL ISZERO DUP1 ISZERO PUSH2 0x833 JUMPI RETURNDATASIZE PUSH0 DUP1 RETURNDATACOPY RETURNDATASIZE PUSH0 REVERT JUMPDEST POP POP POP POP PUSH1 0x40 MLOAD RETURNDATASIZE PUSH1 0x1F NOT PUSH1 0x1F DUP3 ADD AND DUP3 ADD DUP1 PUSH1 0x40 MSTORE POP DUP2 ADD SWAP1 PUSH2 0x857 SWAP2 SWAP1 PUSH2 0x12A8 JUMP JUMPDEST LT ISZERO PUSH2 0x8A5 JUMPI PUSH1 0x40 MLOAD PUSH3 0x461BCD PUSH1 0xE5 SHL DUP2 MSTORE PUSH1 0x20 PUSH1 0x4 DUP3 ADD MSTORE PUSH1 0x1B PUSH1 0x24 DUP3 ADD MSTORE PUSH32 0x426F72726F77657220616C6C6F77616E636520746F6F206C6F772E0000000000 PUSH1 0x44 DUP3 ADD MSTORE PUSH1 0x64 ADD PUSH2 0x7C3 JUMP JUMPDEST PUSH2 0x2710 PUSH2 0x8B4 DUP8 PUSH2 0x9C4 PUSH2 0x125F JUMP JUMPDEST PUSH2 0x8BE SWAP2 SWAP1 PUSH2 0x1129 JUMP JUMPDEST PUSH1 0x2 SLOAD PUSH1 0x40 MLOAD PUSH4 0x70A08231 PUSH1 0xE0 SHL DUP2 MSTORE PUSH1 0x1 PUSH1 0x1 PUSH1 0xA0 SHL SUB SWAP2 DUP3 AND PUSH1 0x4 DUP3 ADD MSTORE SWAP1 DUP5 AND SWAP1 PUSH4 0x70A08231 SWAP1 PUSH1 0x24 ADD PUSH1 0x20 PUSH1 0x40 MLOAD DUP1 DUP4 SUB DUP2 DUP7 GAS STATICCALL ISZERO DUP1 ISZERO PUSH2 0x906 JUMPI RETURNDATASIZE PUSH0 DUP1 RETURNDATACOPY RETURNDATASIZE PUSH0 REVERT JUMPDEST POP POP POP POP PUSH1 0x40 MLOAD RETURNDATASIZE PUSH1 0x1F NOT PUSH1 0x1F DUP3 ADD AND DUP3 ADD DUP1 PUSH1 0x40 MSTORE POP DUP2 ADD SWAP1 PUSH2 0x92A SWAP2 SWAP1 PUSH2 0x12A8 JUMP JUMPDEST LT ISZERO PUSH2 0x978 JUMPI PUSH1 0x40 MLOAD PUSH3 0x461BCD PUSH1 0xE5 SHL DUP2 MSTORE PUSH1 0x20 PUSH1 0x4 DUP3 ADD MSTORE PUSH1 0x19 PUSH1 0x24 DUP3 ADD MSTORE PUSH32 0x426F72726F7765722062616C616E636520746F6F206C6F772E00000000000000 PUSH1 0x44 DUP3 ADD MSTORE PUSH1 0x64 ADD PUSH2 0x7C3 JUMP JUMPDEST PUSH1 0x1 SLOAD PUSH1 0x40 MLOAD PUSH4 0x6EB1769F PUSH1 0xE1 SHL DUP2 MSTORE PUSH1 0x1 PUSH1 0x1 PUSH1 0xA0 SHL SUB SWAP2 DUP3 AND PUSH1 0x4 DUP3 ADD MSTORE ADDRESS PUSH1 0x24 DUP3 ADD MSTORE DUP8 SWAP2 DUP5 AND SWAP1 PUSH4 0xDD62ED3E SWAP1 PUSH1 0x44 ADD PUSH1 0x20 PUSH1 0x40 MLOAD DUP1 DUP4 SUB DUP2 DUP7 GAS STATICCALL ISZERO DUP1 ISZERO PUSH2 0x9C7 JUMPI RETURNDATASIZE PUSH0 DUP1 RETURNDATACOPY RETURNDATASIZE PUSH0 REVERT JUMPDEST POP POP POP POP PUSH1 0x40 MLOAD RETURNDATASIZE PUSH1 0x1F NOT PUSH1 0x1F DUP3 ADD AND DUP3 ADD DUP1 PUSH1 0x40 MSTORE POP DUP2 ADD SWAP1 PUSH2 0x9EB SWAP2 SWAP1 PUSH2 0x12A8 JUMP JUMPDEST LT ISZERO PUSH2 0xA39 JUMPI PUSH1 0x40 MLOAD PUSH3 0x461BCD PUSH1 0xE5 SHL DUP2 MSTORE PUSH1 0x20 PUSH1 0x4 DUP3 ADD MSTORE PUSH1 0x19 PUSH1 0x24 DUP3 ADD MSTORE PUSH32 0x4C656E64657220616C6C6F77616E636520746F6F206C6F772E00000000000000 PUSH1 0x44 DUP3 ADD MSTORE PUSH1 0x64 ADD PUSH2 0x7C3 JUMP JUMPDEST PUSH1 0x1 SLOAD PUSH1 0x40 MLOAD PUSH4 0x70A08231 PUSH1 0xE0 SHL DUP2 MSTORE PUSH1 0x1 PUSH1 0x1 PUSH1 0xA0 SHL SUB SWAP2 DUP3 AND PUSH1 0x4 DUP3 ADD MSTORE DUP8 SWAP2 DUP5 AND SWAP1 PUSH4 0x70A08231 SWAP1 PUSH1 0x24 ADD PUSH1 0x20 PUSH1 0x40 MLOAD DUP1 DUP4 SUB DUP2 DUP7 GAS STATICCALL ISZERO DUP1 ISZERO PUSH2 0xA82 JUMPI RETURNDATASIZE PUSH0 DUP1 RETURNDATACOPY RETURNDATASIZE PUSH0 REVERT JUMPDEST POP POP POP POP PUSH1 0x40 MLOAD RETURNDATASIZE PUSH1 0x1F NOT PUSH1 0x1F DUP3 ADD AND DUP3 ADD DUP1 PUSH1 0x40 MSTORE POP DUP2 ADD SWAP1 PUSH2 0xAA6 SWAP2 SWAP1 PUSH2 0x12A8 JUMP JUMPDEST LT ISZERO PUSH2 0xAF4 JUMPI PUSH1 0x40 MLOAD PUSH3 0x461BCD PUSH1 0xE5 SHL DUP2 MSTORE PUSH1 0x20 PUSH1 0x4 DUP3 ADD MSTORE PUSH1 0x17 PUSH1 0x24 DUP3 ADD MSTORE PUSH32 0x4C656E6465722062616C616E636520746F6F206C6F772E000000000000000000 PUSH1 0x44 DUP3 ADD MSTORE PUSH1 0x64 ADD PUSH2 0x7C3 JUMP JUMPDEST PUSH1 0x8 SLOAD PUSH1 0x40 MLOAD PUSH4 0x20604BF PUSH1 0xE2 SHL DUP2 MSTORE ADDRESS SWAP2 PUSH1 0x1 PUSH1 0x1 PUSH1 0xA0 SHL SUB DUP5 AND SWAP2 PUSH4 0x81812FC SWAP2 PUSH2 0xB27 SWAP2 PUSH1 0x4 ADD SWAP1 DUP2 MSTORE PUSH1 0x20 ADD SWAP1 JUMP JUMPDEST PUSH1 0x20 PUSH1 0x40 MLOAD DUP1 DUP4 SUB DUP2 DUP7 GAS STATICCALL ISZERO DUP1 ISZERO PUSH2 0xB42 JUMPI RETURNDATASIZE PUSH0 DUP1 RETURNDATACOPY RETURNDATASIZE PUSH0 REVERT JUMPDEST POP POP POP POP PUSH1 0x40 MLOAD RETURNDATASIZE PUSH1 0x1F NOT PUSH1 0x1F DUP3 ADD AND DUP3 ADD DUP1 PUSH1 0x40 MSTORE POP DUP2 ADD SWAP1 PUSH2 0xB66 SWAP2 SWAP1 PUSH2 0x1314 JUMP JUMPDEST PUSH1 0x1 PUSH1 0x1 PUSH1 0xA0 SHL SUB AND EQ PUSH2 0xBE2 JUMPI PUSH1 0x40 MLOAD PUSH3 0x461BCD PUSH1 0xE5 SHL DUP2 MSTORE PUSH1 0x20 PUSH1 0x4 DUP3 ADD MSTORE PUSH1 0x37 PUSH1 0x24 DUP3 ADD MSTORE PUSH32 0x4173736574206F776E6572206E6565647320746F20617070726F7665206C6F61 PUSH1 0x44 DUP3 ADD MSTORE PUSH32 0x6E206163636F756E7420666F722061737365742069642E000000000000000000 PUSH1 0x64 DUP3 ADD MSTORE PUSH1 0x84 ADD PUSH2 0x7C3 JUMP JUMPDEST PUSH1 0xA SLOAD PUSH0 SWAP1 DUP2 SUB PUSH2 0xD17 JUMPI PUSH1 0x6 DUP7 SWAP1 SSTORE PUSH1 0x4 DUP6 DUP2 SSTORE PUSH1 0x3 DUP1 SLOAD PUSH2 0xFFFF DUP8 AND PUSH1 0x1 PUSH1 0xA0 SHL MUL PUSH2 0xFFFF PUSH1 0xA0 SHL NOT DUP3 AND DUP2 OR SWAP1 SWAP3 SSTORE PUSH1 0x7 SLOAD PUSH1 0x8 SLOAD PUSH1 0x40 MLOAD PUSH4 0x21421707 PUSH1 0xE1 SHL DUP2 MSTORE PUSH1 0x1 PUSH1 0x1 PUSH1 0xA0 SHL SUB SWAP3 DUP4 AND SWAP6 PUSH4 0x42842E0E SWAP6 PUSH2 0xC50 SWAP6 SWAP1 DUP6 AND SWAP5 AND SWAP4 SWAP1 SWAP4 OR SWAP3 ADDRESS SWAP3 SWAP2 ADD PUSH2 0x1284 JUMP JUMPDEST PUSH0 PUSH1 0x40 MLOAD DUP1 DUP4 SUB DUP2 PUSH0 DUP8 DUP1 EXTCODESIZE ISZERO DUP1 ISZERO PUSH2 0xC67 JUMPI PUSH0 DUP1 REVERT JUMPDEST POP GAS CALL ISZERO DUP1 ISZERO PUSH2 0xC79 JUMPI RETURNDATASIZE PUSH0 DUP1 RETURNDATACOPY RETURNDATASIZE PUSH0 REVERT JUMPDEST POP POP PUSH1 0x9 SLOAD PUSH1 0x2 SLOAD PUSH1 0x3 SLOAD PUSH1 0x1 PUSH1 0x1 PUSH1 0xA0 SHL SUB SWAP3 DUP4 AND SWAP5 POP PUSH4 0x23B872DD SWAP4 POP SWAP1 DUP3 AND SWAP2 AND PUSH2 0x2710 PUSH2 0xCAC DUP13 PUSH2 0x9C4 PUSH2 0x125F JUMP JUMPDEST PUSH2 0xCB6 SWAP2 SWAP1 PUSH2 0x1129 JUMP JUMPDEST PUSH1 0x40 MLOAD DUP5 PUSH4 0xFFFFFFFF AND PUSH1 0xE0 SHL DUP2 MSTORE PUSH1 0x4 ADD PUSH2 0xCD4 SWAP4 SWAP3 SWAP2 SWAP1 PUSH2 0x1284 JUMP JUMPDEST PUSH1 0x20 PUSH1 0x40 MLOAD DUP1 DUP4 SUB DUP2 PUSH0 DUP8 GAS CALL ISZERO DUP1 ISZERO PUSH2 0xCF0 JUMPI RETURNDATASIZE PUSH0 DUP1 RETURNDATACOPY RETURNDATASIZE PUSH0 REVERT JUMPDEST POP POP POP POP PUSH1 0x40 MLOAD RETURNDATASIZE PUSH1 0x1F NOT PUSH1 0x1F DUP3 ADD AND DUP3 ADD DUP1 PUSH1 0x40 MSTORE POP DUP2 ADD SWAP1 PUSH2 0xD14 SWAP2 SWAP1 PUSH2 0x12BF JUMP JUMPDEST SWAP1 POP JUMPDEST PUSH1 0x9 SLOAD PUSH1 0x1 SLOAD PUSH1 0x3 SLOAD PUSH1 0x40 MLOAD PUSH4 0x23B872DD PUSH1 0xE0 SHL DUP2 MSTORE PUSH0 SWAP4 PUSH1 0x1 PUSH1 0x1 PUSH1 0xA0 SHL SUB SWAP1 DUP2 AND SWAP4 PUSH4 0x23B872DD SWAP4 PUSH2 0xD55 SWAP4 SWAP2 DUP4 AND SWAP3 AND SWAP1 DUP14 SWAP1 PUSH1 0x4 ADD PUSH2 0x1284 JUMP JUMPDEST PUSH1 0x20 PUSH1 0x40 MLOAD DUP1 DUP4 SUB DUP2 PUSH0 DUP8 GAS CALL ISZERO DUP1 ISZERO PUSH2 0xD71 JUMPI RETURNDATASIZE PUSH0 DUP1 RETURNDATACOPY RETURNDATASIZE PUSH0 REVERT JUMPDEST POP POP POP POP PUSH1 0x40 MLOAD RETURNDATASIZE PUSH1 0x1F NOT PUSH1 0x1F DUP3 ADD AND DUP3 ADD DUP1 PUSH1 0x40 MSTORE POP DUP2 ADD SWAP1 PUSH2 0xD95 SWAP2 SWAP1 PUSH2 0x12BF JUMP JUMPDEST SWAP1 POP DUP8 PUSH1 0x9 PUSH1 0x1 ADD PUSH0 DUP3 DUP3 SLOAD PUSH2 0xDAB SWAP2 SWAP1 PUSH2 0x1148 JUMP JUMPDEST SWAP1 SWAP2 SSTORE POP DUP2 SWAP1 POP DUP1 ISZERO PUSH2 0xDBB JUMPI POP DUP2 JUMPDEST PUSH2 0xE1D JUMPI PUSH1 0x40 MLOAD PUSH3 0x461BCD PUSH1 0xE5 SHL DUP2 MSTORE PUSH1 0x20 PUSH1 0x4 DUP3 ADD MSTORE PUSH1 0x2D PUSH1 0x24 DUP3 ADD MSTORE PUSH32 0x44697362757273656D656E74204661696C65642E20506C656173652061707072 PUSH1 0x44 DUP3 ADD MSTORE PUSH13 0x37BB329031B7B73A3930B1BA17 PUSH1 0x99 SHL PUSH1 0x64 DUP3 ADD MSTORE PUSH1 0x84 ADD PUSH2 0x7C3 JUMP JUMPDEST POP POP POP POP POP POP POP POP JUMP JUMPDEST PUSH2 0xE2F PUSH2 0xE64 JUMP JUMPDEST PUSH1 0x1 PUSH1 0x1 PUSH1 0xA0 SHL SUB DUP2 AND PUSH2 0xE58 JUMPI PUSH1 0x40 MLOAD PUSH4 0x1E4FBDF7 PUSH1 0xE0 SHL DUP2 MSTORE PUSH0 PUSH1 0x4 DUP3 ADD MSTORE PUSH1 0x24 ADD PUSH2 0x7C3 JUMP JUMPDEST PUSH2 0xE61 DUP2 PUSH2 0xE90 JUMP JUMPDEST POP JUMP JUMPDEST PUSH0 SLOAD PUSH1 0x1 PUSH1 0x1 PUSH1 0xA0 SHL SUB AND CALLER EQ PUSH2 0x463 JUMPI PUSH1 0x40 MLOAD PUSH4 0x118CDAA7 PUSH1 0xE0 SHL DUP2 MSTORE CALLER PUSH1 0x4 DUP3 ADD MSTORE PUSH1 0x24 ADD PUSH2 0x7C3 JUMP JUMPDEST PUSH0 DUP1 SLOAD PUSH1 0x1 PUSH1 0x1 PUSH1 0xA0 SHL SUB DUP4 DUP2 AND PUSH1 0x1 PUSH1 0x1 PUSH1 0xA0 SHL SUB NOT DUP4 AND DUP2 OR DUP5 SSTORE PUSH1 0x40 MLOAD SWAP2 SWAP1 SWAP3 AND SWAP3 DUP4 SWAP2 PUSH32 0x8BE0079C531659141344CD1FD0A4F28419497F9722A3DAAFE3B4186F6B6457E0 SWAP2 SWAP1 LOG3 POP POP JUMP JUMPDEST PUSH1 0x9 SLOAD PUSH1 0x7 SLOAD PUSH1 0x1 SLOAD PUSH1 0x40 MLOAD PUSH4 0x70A08231 PUSH1 0xE0 SHL DUP2 MSTORE ADDRESS PUSH1 0x4 DUP3 ADD MSTORE PUSH1 0x1 PUSH1 0x1 PUSH1 0xA0 SHL SUB SWAP4 DUP5 AND SWAP4 SWAP3 DUP4 AND SWAP3 DUP5 SWAP3 PUSH4 0xA9059CBB SWAP3 SWAP2 AND SWAP1 DUP4 SWAP1 PUSH4 0x70A08231 SWAP1 PUSH1 0x24 ADD PUSH1 0x20 PUSH1 0x40 MLOAD DUP1 DUP4 SUB DUP2 DUP7 GAS STATICCALL ISZERO DUP1 ISZERO PUSH2 0xF3C JUMPI RETURNDATASIZE PUSH0 DUP1 RETURNDATACOPY RETURNDATASIZE PUSH0 REVERT JUMPDEST POP POP POP POP PUSH1 0x40 MLOAD RETURNDATASIZE PUSH1 0x1F NOT PUSH1 0x1F DUP3 ADD AND DUP3 ADD DUP1 PUSH1 0x40 MSTORE POP DUP2 ADD SWAP1 PUSH2 0xF60 SWAP2 SWAP1 PUSH2 0x12A8 JUMP JUMPDEST PUSH1 0x40 MLOAD PUSH1 0x1 PUSH1 0x1 PUSH1 0xE0 SHL SUB NOT PUSH1 0xE0 DUP6 SWAP1 SHL AND DUP2 MSTORE PUSH1 0x1 PUSH1 0x1 PUSH1 0xA0 SHL SUB SWAP1 SWAP3 AND PUSH1 0x4 DUP4 ADD MSTORE PUSH1 0x24 DUP3 ADD MSTORE PUSH1 0x44 ADD PUSH1 0x20 PUSH1 0x40 MLOAD DUP1 DUP4 SUB DUP2 PUSH0 DUP8 GAS CALL ISZERO DUP1 ISZERO PUSH2 0xFA8 JUMPI RETURNDATASIZE PUSH0 DUP1 RETURNDATACOPY RETURNDATASIZE PUSH0 REVERT JUMPDEST POP POP POP POP PUSH1 0x40 MLOAD RETURNDATASIZE PUSH1 0x1F NOT PUSH1 0x1F DUP3 ADD AND DUP3 ADD DUP1 PUSH1 0x40 MSTORE POP DUP2 ADD SWAP1 PUSH2 0xFCC SWAP2 SWAP1 PUSH2 0x12BF JUMP JUMPDEST POP PUSH1 0x1 SLOAD PUSH1 0x8 SLOAD PUSH1 0x40 MLOAD PUSH4 0x21421707 PUSH1 0xE1 SHL DUP2 MSTORE PUSH1 0x1 PUSH1 0x1 PUSH1 0xA0 SHL SUB DUP5 DUP2 AND SWAP4 PUSH4 0x42842E0E SWAP4 PUSH2 0x4DC SWAP4 ADDRESS SWAP4 SWAP1 SWAP3 AND SWAP2 PUSH1 0x4 ADD PUSH2 0x1284 JUMP JUMPDEST PUSH1 0x1 PUSH1 0x1 PUSH1 0xA0 SHL SUB DUP2 AND DUP2 EQ PUSH2 0xE61 JUMPI PUSH0 DUP1 REVERT JUMPDEST PUSH0 DUP1 PUSH0 DUP1 PUSH0 PUSH1 0x80 DUP7 DUP9 SUB SLT ISZERO PUSH2 0x102C JUMPI PUSH0 DUP1 REVERT JUMPDEST DUP6 CALLDATALOAD PUSH2 0x1037 DUP2 PUSH2 0x1004 JUMP JUMPDEST SWAP5 POP PUSH1 0x20 DUP7 ADD CALLDATALOAD PUSH2 0x1047 DUP2 PUSH2 0x1004 JUMP JUMPDEST SWAP4 POP PUSH1 0x40 DUP7 ADD CALLDATALOAD SWAP3 POP PUSH1 0x60 DUP7 ADD CALLDATALOAD PUSH8 0xFFFFFFFFFFFFFFFF DUP1 DUP3 GT ISZERO PUSH2 0x106A JUMPI PUSH0 DUP1 REVERT JUMPDEST DUP2 DUP9 ADD SWAP2 POP DUP9 PUSH1 0x1F DUP4 ADD SLT PUSH2 0x107D JUMPI PUSH0 DUP1 REVERT JUMPDEST DUP2 CALLDATALOAD DUP2 DUP2 GT ISZERO PUSH2 0x108B JUMPI PUSH0 DUP1 REVERT JUMPDEST DUP10 PUSH1 0x20 DUP3 DUP6 ADD ADD GT ISZERO PUSH2 0x109C JUMPI PUSH0 DUP1 REVERT JUMPDEST SWAP7 SWAP10 SWAP6 SWAP9 POP SWAP4 SWAP7 POP PUSH1 0x20 ADD SWAP5 SWAP4 SWAP3 POP POP POP JUMP JUMPDEST PUSH0 DUP1 PUSH0 DUP1 PUSH1 0x80 DUP6 DUP8 SUB SLT ISZERO PUSH2 0x10C2 JUMPI PUSH0 DUP1 REVERT JUMPDEST DUP5 CALLDATALOAD SWAP4 POP PUSH1 0x20 DUP6 ADD CALLDATALOAD SWAP3 POP PUSH1 0x40 DUP6 ADD CALLDATALOAD SWAP2 POP PUSH1 0x60 DUP6 ADD CALLDATALOAD PUSH2 0xFFFF DUP2 AND DUP2 EQ PUSH2 0x10E8 JUMPI PUSH0 DUP1 REVERT JUMPDEST SWAP4 SWAP7 SWAP3 SWAP6 POP SWAP1 SWAP4 POP POP JUMP JUMPDEST PUSH0 PUSH1 0x20 DUP3 DUP5 SUB SLT ISZERO PUSH2 0x1103 JUMPI PUSH0 DUP1 REVERT JUMPDEST DUP2 CALLDATALOAD PUSH2 0x110E DUP2 PUSH2 0x1004 JUMP JUMPDEST SWAP4 SWAP3 POP POP POP JUMP JUMPDEST PUSH4 0x4E487B71 PUSH1 0xE0 SHL PUSH0 MSTORE PUSH1 0x11 PUSH1 0x4 MSTORE PUSH1 0x24 PUSH0 REVERT JUMPDEST PUSH0 DUP3 PUSH2 0x1143 JUMPI PUSH4 0x4E487B71 PUSH1 0xE0 SHL PUSH0 MSTORE PUSH1 0x12 PUSH1 0x4 MSTORE PUSH1 0x24 PUSH0 REVERT JUMPDEST POP DIV SWAP1 JUMP JUMPDEST DUP1 DUP3 ADD DUP1 DUP3 GT ISZERO PUSH2 0x115B JUMPI PUSH2 0x115B PUSH2 0x1115 JUMP JUMPDEST SWAP3 SWAP2 POP POP JUMP JUMPDEST PUSH1 0x1 DUP2 DUP2 JUMPDEST DUP1 DUP6 GT ISZERO PUSH2 0x119B JUMPI DUP2 PUSH0 NOT DIV DUP3 GT ISZERO PUSH2 0x1181 JUMPI PUSH2 0x1181 PUSH2 0x1115 JUMP JUMPDEST DUP1 DUP6 AND ISZERO PUSH2 0x118E JUMPI SWAP2 DUP2 MUL SWAP2 JUMPDEST SWAP4 DUP5 SHR SWAP4 SWAP1 DUP1 MUL SWAP1 PUSH2 0x1166 JUMP JUMPDEST POP SWAP3 POP SWAP3 SWAP1 POP JUMP JUMPDEST PUSH0 DUP3 PUSH2 0x11B1 JUMPI POP PUSH1 0x1 PUSH2 0x115B JUMP JUMPDEST DUP2 PUSH2 0x11BD JUMPI POP PUSH0 PUSH2 0x115B JUMP JUMPDEST DUP2 PUSH1 0x1 DUP2 EQ PUSH2 0x11D3 JUMPI PUSH1 0x2 DUP2 EQ PUSH2 0x11DD JUMPI PUSH2 0x11F9 JUMP JUMPDEST PUSH1 0x1 SWAP2 POP POP PUSH2 0x115B JUMP JUMPDEST PUSH1 0xFF DUP5 GT ISZERO PUSH2 0x11EE JUMPI PUSH2 0x11EE PUSH2 0x1115 JUMP JUMPDEST POP POP PUSH1 0x1 DUP3 SHL PUSH2 0x115B JUMP JUMPDEST POP PUSH1 0x20 DUP4 LT PUSH2 0x133 DUP4 LT AND PUSH1 0x4E DUP5 LT PUSH1 0xB DUP5 LT AND OR ISZERO PUSH2 0x121C JUMPI POP DUP2 DUP2 EXP PUSH2 0x115B JUMP JUMPDEST PUSH2 0x1226 DUP4 DUP4 PUSH2 0x1161 JUMP JUMPDEST DUP1 PUSH0 NOT DIV DUP3 GT ISZERO PUSH2 0x1239 JUMPI PUSH2 0x1239 PUSH2 0x1115 JUMP JUMPDEST MUL SWAP4 SWAP3 POP POP POP JUMP JUMPDEST PUSH0 PUSH2 0x110E DUP4 DUP4 PUSH2 0x11A3 JUMP JUMPDEST DUP2 DUP2 SUB DUP2 DUP2 GT ISZERO PUSH2 0x115B JUMPI PUSH2 0x115B PUSH2 0x1115 JUMP JUMPDEST DUP1 DUP3 MUL DUP2 ISZERO DUP3 DUP3 DIV DUP5 EQ OR PUSH2 0x115B JUMPI PUSH2 0x115B PUSH2 0x1115 JUMP JUMPDEST PUSH0 PUSH2 0x110E PUSH1 0xFF DUP5 AND DUP4 PUSH2 0x11A3 JUMP JUMPDEST PUSH1 0x1 PUSH1 0x1 PUSH1 0xA0 SHL SUB SWAP4 DUP5 AND DUP2 MSTORE SWAP2 SWAP1 SWAP3 AND PUSH1 0x20 DUP3 ADD MSTORE PUSH1 0x40 DUP2 ADD SWAP2 SWAP1 SWAP2 MSTORE PUSH1 0x60 ADD SWAP1 JUMP JUMPDEST PUSH0 PUSH1 0x20 DUP3 DUP5 SUB SLT ISZERO PUSH2 0x12B8 JUMPI PUSH0 DUP1 REVERT JUMPDEST POP MLOAD SWAP2 SWAP1 POP JUMP JUMPDEST PUSH0 PUSH1 0x20 DUP3 DUP5 SUB SLT ISZERO PUSH2 0x12CF JUMPI PUSH0 DUP1 REVERT JUMPDEST DUP2 MLOAD DUP1 ISZERO ISZERO DUP2 EQ PUSH2 0x110E JUMPI PUSH0 DUP1 REVERT JUMPDEST PUSH0 PUSH1 0x1 DUP3 ADD PUSH2 0x12EF JUMPI PUSH2 0x12EF PUSH2 0x1115 JUMP JUMPDEST POP PUSH1 0x1 ADD SWAP1 JUMP JUMPDEST PUSH0 PUSH1 0xFF DUP3 AND PUSH1 0xFF DUP2 SUB PUSH2 0x130B JUMPI PUSH2 0x130B PUSH2 0x1115 JUMP JUMPDEST PUSH1 0x1 ADD SWAP3 SWAP2 POP POP JUMP JUMPDEST PUSH0 PUSH1 0x20 DUP3 DUP5 SUB SLT ISZERO PUSH2 0x1324 JUMPI PUSH0 DUP1 REVERT JUMPDEST DUP2 MLOAD PUSH2 0x110E DUP2 PUSH2 0x1004 JUMP INVALID LOG2 PUSH5 0x6970667358 0x22 SLT KECCAK256 KECCAK256 EXP SWAP2 0xF9 REVERT DUP12 0xF CALLDATALOAD 0xCE CALLDATACOPY 0xD6 0xB3 SGT 0xAA DUP14 SGT CALLCODE SLOAD 0xB8 0xE7 BLOCKHASH RETURN 0xC5 0xEB PUSH1 0xE9 0xDE 0xBE DUP3 0xE7 DUP14 EXTCODESIZE PUSH5 0x736F6C6343 STOP ADDMOD AND STOP CALLER "
		},
		"gasEstimates": {
			"creation": {
				"codeDepositCost": "993000",
				"executionCost": "infinite",
				"totalCost": "infinite"
			},
			"external": {
				"_asset_owner()": "2381",
				"_borrower()": "2359",
				"_interest_rate()": "2373",
				"_lender()": "2425",
				"_payment_defaults()": "2379",
				"_payment_interval()": "2307",
				"_time_period()": "2371",
				"calculate_emi()": "infinite",
				"deduct_emi()": "infinite",
				"disburse_loan(uint256,uint256,uint256,uint16)": "infinite",
				"get_disbursed_asset()": "9018",
				"get_mortgaged_asset()": "4626",
				"get_outstanding_balance()": "4547",
				"onERC721Received(address,address,uint256,bytes)": "infinite",
				"owner()": "2352",
				"renounceOwnership()": "infinite",
				"transferOwnership(address)": "infinite"
			},
			"internal": {
				"invalidate_contract()": "infinite"
			}
		},
		"methodIdentifiers": {
			"_asset_owner()": "913cef99",
			"_borrower()": "705caf5f",
			"_interest_rate()": "c6ca5bf2",
			"_lender()": "819ed863",
			"_payment_defaults()": "93287a1d",
			"_payment_interval()": "11ee307e",
			"_time_period()": "d7ca70c4",
			"calculate_emi()": "2279de4e",
			"deduct_emi()": "b96243ba",
			"disburse_loan(uint256,uint256,uint256,uint16)": "d170b376",
			"get_disbursed_asset()": "1394cd8f",
			"get_mortgaged_asset()": "a91647e6",
			"get_outstanding_balance()": "770fea5e",
			"onERC721Received(address,address,uint256,bytes)": "150b7a02",
			"owner()": "8da5cb5b",
			"renounceOwnership()": "715018a6",
			"transferOwnership(address)": "f2fde38b"
		}
	},
	"abi": [
		{
			"inputs": [
				{
					"internalType": "address",
					"name": "lender",
					"type": "address"
				},
				{
					"internalType": "address",
					"name": "borrower",
					"type": "address"
				},
				{
					"internalType": "address",
					"name": "asset_owner",
					"type": "address"
				},
				{
					"internalType": "address",
					"name": "asset_contract",
					"type": "address"
				},
				{
					"internalType": "uint256",
					"name": "asset_id",
					"type": "uint256"
				},
				{
					"internalType": "address",
					"name": "token_contract",
					"type": "address"
				}
			],
			"stateMutability": "nonpayable",
			"type": "constructor"
		},
		{
			"inputs": [
				{
					"internalType": "address",
					"name": "owner",
					"type": "address"
				}
			],
			"name": "OwnableInvalidOwner",
			"type": "error"
		},
		{
			"inputs": [
				{
					"internalType": "address",
					"name": "account",
					"type": "address"
				}
			],
			"name": "OwnableUnauthorizedAccount",
			"type": "error"
		},
		{
			"anonymous": false,
			"inputs": [
				{
					"indexed": true,
					"internalType": "address",
					"name": "previousOwner",
					"type": "address"
				},
				{
					"indexed": true,
					"internalType": "address",
					"name": "newOwner",
					"type": "address"
				}
			],
			"name": "OwnershipTransferred",
			"type": "event"
		},
		{
			"inputs": [],
			"name": "_asset_owner",
			"outputs": [
				{
					"internalType": "address",
					"name": "",
					"type": "address"
				}
			],
			"stateMutability": "view",
			"type": "function"
		},
		{
			"inputs": [],
			"name": "_borrower",
			"outputs": [
				{
					"internalType": "address",
					"name": "",
					"type": "address"
				}
			],
			"stateMutability": "view",
			"type": "function"
		},
		{
			"inputs": [],
			"name": "_interest_rate",
			"outputs": [
				{
					"internalType": "uint16",
					"name": "",
					"type": "uint16"
				}
			],
			"stateMutability": "view",
			"type": "function"
		},
		{
			"inputs": [],
			"name": "_lender",
			"outputs": [
				{
					"internalType": "address",
					"name": "",
					"type": "address"
				}
			],
			"stateMutability": "view",
			"type": "function"
		},
		{
			"inputs": [],
			"name": "_payment_defaults",
			"outputs": [
				{
					"internalType": "uint8",
					"name": "",
					"type": "uint8"
				}
			],
			"stateMutability": "view",
			"type": "function"
		},
		{
			"inputs": [],
			"name": "_payment_interval",
			"outputs": [
				{
					"internalType": "uint256",
					"name": "",
					"type": "uint256"
				}
			],
			"stateMutability": "view",
			"type": "function"
		},
		{
			"inputs": [],
			"name": "_time_period",
			"outputs": [
				{
					"internalType": "uint256",
					"name": "",
					"type": "uint256"
				}
			],
			"stateMutability": "view",
			"type": "function"
		},
		{
			"inputs": [],
			"name": "calculate_emi",
			"outputs": [
				{
					"internalType": "uint256",
					"name": "",
					"type": "uint256"
				}
			],
			"stateMutability": "view",
			"type": "function"
		},
		{
			"inputs": [],
			"name": "deduct_emi",
			"outputs": [],
			"stateMutability": "nonpayable",
			"type": "function"
		},
		{
			"inputs": [
				{
					"internalType": "uint256",
					"name": "_disbursement",
					"type": "uint256"
				},
				{
					"internalType": "uint256",
					"name": "time_period",
					"type": "uint256"
				},
				{
					"internalType": "uint256",
					"name": "payment_interval",
					"type": "uint256"
				},
				{
					"internalType": "uint16",
					"name": "interest_rate",
					"type": "uint16"
				}
			],
			"name": "disburse_loan",
			"outputs": [],
			"stateMutability": "nonpayable",
			"type": "function"
		},
		{
			"inputs": [],
			"name": "get_disbursed_asset",
			"outputs": [
				{
					"components": [
						{
							"internalType": "address",
							"name": "_token_contract",
							"type": "address"
						},
						{
							"internalType": "uint256",
							"name": "_disbursed_amount",
							"type": "uint256"
						},
						{
							"internalType": "uint256",
							"name": "_principal_repaid",
							"type": "uint256"
						},
						{
							"internalType": "uint256",
							"name": "_no_of_payments",
							"type": "uint256"
						}
					],
					"internalType": "struct LoanAccount.DisbursedTokenAsset",
					"name": "",
					"type": "tuple"
				}
			],
			"stateMutability": "view",
			"type": "function"
		},
		{
			"inputs": [],
			"name": "get_mortgaged_asset",
			"outputs": [
				{
					"components": [
						{
							"internalType": "address",
							"name": "_token_contract",
							"type": "address"
						},
						{
							"internalType": "uint256",
							"name": "_token_id",
							"type": "uint256"
						}
					],
					"internalType": "struct LoanAccount.MotrgagedAsset",
					"name": "",
					"type": "tuple"
				}
			],
			"stateMutability": "view",
			"type": "function"
		},
		{
			"inputs": [],
			"name": "get_outstanding_balance",
			"outputs": [
				{
					"internalType": "uint256",
					"name": "",
					"type": "uint256"
				}
			],
			"stateMutability": "view",
			"type": "function"
		},
		{
			"inputs": [
				{
					"internalType": "address",
					"name": "operator",
					"type": "address"
				},
				{
					"internalType": "address",
					"name": "from",
					"type": "address"
				},
				{
					"internalType": "uint256",
					"name": "tokenId",
					"type": "uint256"
				},
				{
					"internalType": "bytes",
					"name": "data",
					"type": "bytes"
				}
			],
			"name": "onERC721Received",
			"outputs": [
				{
					"internalType": "bytes4",
					"name": "",
					"type": "bytes4"
				}
			],
			"stateMutability": "pure",
			"type": "function"
		},
		{
			"inputs": [],
			"name": "owner",
			"outputs": [
				{
					"internalType": "address",
					"name": "",
					"type": "address"
				}
			],
			"stateMutability": "view",
			"type": "function"
		},
		{
			"inputs": [],
			"name": "renounceOwnership",
			"outputs": [],
			"stateMutability": "nonpayable",
			"type": "function"
		},
		{
			"inputs": [
				{
					"internalType": "address",
					"name": "newOwner",
					"type": "address"
				}
			],
			"name": "transferOwnership",
			"outputs": [],
			"stateMutability": "nonpayable",
			"type": "function"
		}
	]
}