{
	"data": {
		"bytecode": {
			"linkReferences": {},
			"object": "608060405234801561000f575f80fd5b50600580546001600160a01b03191633908117909155610030905f90610036565b506100df565b5f828152602081815260408083206001600160a01b038516845290915281205460ff166100d6575f838152602081815260408083206001600160a01b03861684529091529020805460ff1916600117905561008e3390565b6001600160a01b0316826001600160a01b0316847f2f8788117e7eff1d82e926ec794901d17c78024a50270940304540a733656f0d60405160405180910390a45060016100d9565b505f5b92915050565b612ba3806100ec5f395ff3fe608060405234801562000010575f80fd5b506004361062000164575f3560e01c80637b820f4c11620000cf578063b960b0791162000083578063b960b079146200035e578063c5f2409b1462000380578063ccf3a06f1462000397578063ce27d01a14620003ae578063d547741f14620003c5578063f3fef3a314620003dc575f80fd5b80637b820f4c14620002ec5780638da5cb5b146200030357806391d1485414620003175780639767b19c146200032e578063986716141462000342578063a217fddf1462000356575f80fd5b80633bf3513f11620001275780633bf3513f146200020f5780633cae4e1914620002315780633e4bea4f14620002485780634585e33b146200028c5780636e04ff0d14620002a357806379357e6c14620002ca575f80fd5b806301ffc9a71462000168578063248a9ca3146200019457806324ff766e14620001c85780632f2ff15d14620001e157806336568abe14620001f8575b5f80fd5b6200017f62000179366004620011be565b620003f3565b60405190151581526020015b60405180910390f35b620001b9620001a5366004620011ee565b5f9081526020819052604090206001015490565b6040519081526020016200018b565b620001df620001d93660046200121b565b6200042a565b005b620001df620001f236600462001239565b6200048b565b620001df6200020936600462001239565b620004b9565b620001b9620002203660046200121b565b60026020525f908152604090205481565b620001df620002423660046200126a565b620004f4565b62000273620002593660046200121b565b60016020525f90815260409020546001600160a01b031681565b6040516001600160a01b0390911681526020016200018b565b620001df6200029d366004620012d7565b620005b3565b620002ba620002b4366004620012d7565b62000731565b6040516200018b9291906200138d565b620001b9620002db3660046200121b565b60046020525f908152604090205481565b620001df620002fd3660046200121b565b62000893565b60055462000273906001600160a01b031681565b6200017f6200032836600462001239565b6200093a565b60075462000273906001600160a01b031681565b60065462000273906001600160a01b031681565b620001b95f81565b620001b96200036f3660046200121b565b60036020525f908152604090205481565b620001df620003913660046200121b565b62000962565b620001df620003a8366004620013b1565b620009c5565b620001df620003bf3660046200121b565b62000b53565b620001df620003d636600462001239565b62000bab565b620001df620003ed366004620013ff565b62000bd3565b5f6001600160e01b03198216637965db0b60e01b14806200042457506301ffc9a760e01b6001600160e01b03198316145b92915050565b6005546001600160a01b0316336001600160a01b031614620004695760405162461bcd60e51b815260040162000460906200142c565b60405180910390fd5b600780546001600160a01b0319166001600160a01b0392909216919091179055565b5f82815260208190526040902060010154620004a78162000c80565b620004b3838362000c8f565b50505050565b6001600160a01b0381163314620004e35760405163334bd91960e11b815260040160405180910390fd5b620004ef828262000d24565b505050565b5f3386868686866040516200050990620011b0565b6001600160a01b039687168152948616602086015292851660408501529084166060840152608083015290911660a082015260c001604051809103905ff08015801562000558573d5f803e3d5ffd5b506001600160a01b0381165f8181526001602052604080822080546001600160a01b031916331790555192935090917f17fbc99083c988b1936cf513cd75de61e8e7e9545b3f8cf403855068b7c1bea29190a2505050505050565b5f620005c2828401846200121b565b90505f819050806001600160a01b03166311ee307e6040518163ffffffff1660e01b8152600401602060405180830381865afa15801562000605573d5f803e3d5ffd5b505050506040513d601f19601f820116820180604052508101906200062b91906200146f565b6001600160a01b0383165f908152600460205260409020546200064f904262001487565b106200067b57620006608262000893565b6001600160a01b0382165f9081526004602052604090204290555b806001600160a01b03166311ee307e6040518163ffffffff1660e01b8152600401602060405180830381865afa158015620006b8573d5f803e3d5ffd5b505050506040513d601f19601f82011682018060405250810190620006de91906200146f565b6001600160a01b0383165f9081526003602052604090205462000702904262001487565b10620004b357620007138262000962565b506001600160a01b03165f9081526003602052604090204290555050565b5f60608162000743848601866200121b565b90505f819050806001600160a01b03166311ee307e6040518163ffffffff1660e01b8152600401602060405180830381865afa15801562000786573d5f803e3d5ffd5b505050506040513d601f19601f82011682018060405250810190620007ac91906200146f565b6001600160a01b0383165f90815260036020526040902054620007d0904262001487565b101580620008635750806001600160a01b03166311ee307e6040518163ffffffff1660e01b8152600401602060405180830381865afa15801562000816573d5f803e3d5ffd5b505050506040513d601f19601f820116820180604052508101906200083c91906200146f565b6001600160a01b0383165f9081526004602052604090205462000860904262001487565b10155b604080516001600160a01b0385166020820152016040516020818303038152906040529350935050509250929050565b5f819050816001600160a01b03167f15ebee52007e74f07c8b4073bae0dbf814e0b17c74d81cc4e3309433c92d3721826001600160a01b0316632279de4e6040518163ffffffff1660e01b8152600401602060405180830381865afa158015620008ff573d5f803e3d5ffd5b505050506040513d601f19601f820116820180604052508101906200092591906200146f565b60405190815260200160405180910390a25050565b5f918252602082815260408084206001600160a01b0393909316845291905290205460ff1690565b5f819050806001600160a01b031663b96243ba6040518163ffffffff1660e01b81526004015f604051808303815f87803b1580156200099f575f80fd5b505af1158015620009b2573d5f803e3d5ffd5b50505050620009c18162000d91565b5050565b6001600160a01b038086165f90815260016020526040902054869116331462000a4e5760405162461bcd60e51b815260206004820152603460248201527f4f6e6c79206c656e646572206f662074686973206163636f756e742063616e206044820152733832b93337b936903a3434b99030b1ba34b7b71760611b606482015260840162000460565b6040516368b859bb60e11b815260048101869052602481018590526044810184905261ffff8316606482015286906001600160a01b0382169063d170b376906084015f604051808303815f87803b15801562000aa8575f80fd5b505af115801562000abb573d5f803e3d5ffd5b5050506001600160a01b0388165f9081526003602052604090204290555062000ae6600285620014a7565b62000af2904262001487565b6001600160a01b0388165f9081526004602052604090205562000b158162000f40565b60405186815230907fc31bb806fcba2c023d34eac91b760422818e0446743a8ea9759932f9282c3ead9060200160405180910390a250505050505050565b6005546001600160a01b0316336001600160a01b03161462000b895760405162461bcd60e51b815260040162000460906200142c565b600680546001600160a01b0319166001600160a01b0392909216919091179055565b5f8281526020819052604090206001015462000bc78162000c80565b620004b3838362000d24565b6005546001600160a01b0316336001600160a01b03161462000c095760405162461bcd60e51b815260040162000460906200142c565b60055460405163a9059cbb60e01b81526001600160a01b039182166004820152602481018390529083169063a9059cbb906044016020604051808303815f875af115801562000c5a573d5f803e3d5ffd5b505050506040513d601f19601f82011682018060405250810190620004ef9190620014c7565b62000c8c813362001173565b50565b5f62000c9c83836200093a565b62000d1c575f838152602081815260408083206001600160a01b03861684529091529020805460ff1916600117905562000cd33390565b6001600160a01b0316826001600160a01b0316847f2f8788117e7eff1d82e926ec794901d17c78024a50270940304540a733656f0d60405160405180910390a450600162000424565b505f62000424565b5f62000d3183836200093a565b1562000d1c575f838152602081815260408083206001600160a01b0386168085529252808320805460ff1916905551339286917ff6391f5c32d9c69d2a47ea670b442974b53935d1edc7fd64eb21e047a839171b9190a450600162000424565b5f816001600160a01b0316632279de4e6040518163ffffffff1660e01b8152600401602060405180830381865afa15801562000dcf573d5f803e3d5ffd5b505050506040513d601f19601f8201168201806040525081019062000df591906200146f565b1162000e9e576006546001600160a01b038281165f9081526002602052604090819020549051636402401160e11b8152600481019190915291169063c8048022906024015f604051808303815f87803b15801562000e51575f80fd5b505af115801562000e64573d5f803e3d5ffd5b50506040516001600160a01b03841692507f2ac7d74ab1f8585f26dc62c514e692302d68208ff8eba59985066ce6ff9136a291505f90a250565b806001600160a01b03167feb7c26fe56b2a64244feba0eedfdebc4d422a2d05688a3a7cab93c91382d4ab3826001600160a01b031663770fea5e6040518163ffffffff1660e01b8152600401602060405180830381865afa15801562000f06573d5f803e3d5ffd5b505050506040513d601f19601f8201168201806040525081019062000f2c91906200146f565b60405190815260200160405180910390a250565b60408051610140810182526e02637b0b71020b1b1b7bab73a10169608d1b610160820152606083811b6bffffffffffffffffffffffff191661016f83015282516101638184030181526101838301845282528251602080820185525f808352818501929092523084860152624c4b40928401929092526005546001600160a01b03908116608085015260a08401829052845181871681850152855180820385018152908601865260c08501528451808401865282815260e085015284518084018652828152610100850152671bc16d674ec800006101208501819052600754600654875163095ea7b360e01b815290841660048201526024810192909252955194959091169363095ea7b393604480840194919383900301908290875af11580156200106e573d5f803e3d5ffd5b505050506040513d601f19601f82011682018060405250810190620010949190620014c7565b50600654604051633f678e1160e01b81525f916001600160a01b031690633f678e1190620010c7908590600401620014e8565b6020604051808303815f875af1158015620010e4573d5f803e3d5ffd5b505050506040513d601f19601f820116820180604052508101906200110a91906200146f565b9050801562001132576001600160a01b0383165f908152600260205260409020819055505050565b60405162461bcd60e51b8152602060048201526015602482015274185d5d1bcb585c1c1c9bdd9948191a5cd8589b1959605a1b604482015260640162000460565b6200117f82826200093a565b620009c15760405163e2517d3f60e01b81526001600160a01b03821660048201526024810183905260440162000460565b611560806200160e83390190565b5f60208284031215620011cf575f80fd5b81356001600160e01b031981168114620011e7575f80fd5b9392505050565b5f60208284031215620011ff575f80fd5b5035919050565b6001600160a01b038116811462000c8c575f80fd5b5f602082840312156200122c575f80fd5b8135620011e78162001206565b5f80604083850312156200124b575f80fd5b8235915060208301356200125f8162001206565b809150509250929050565b5f805f805f60a086880312156200127f575f80fd5b85356200128c8162001206565b945060208601356200129e8162001206565b93506040860135620012b08162001206565b9250606086013591506080860135620012c98162001206565b809150509295509295909350565b5f8060208385031215620012e9575f80fd5b823567ffffffffffffffff8082111562001301575f80fd5b818501915085601f83011262001315575f80fd5b81358181111562001324575f80fd5b86602082850101111562001336575f80fd5b60209290920196919550909350505050565b5f81518084525f5b818110156200136e5760208185018101518683018201520162001350565b505f602082860101526020601f19601f83011685010191505092915050565b8215158152604060208201525f620013a9604083018462001348565b949350505050565b5f805f805f60a08688031215620013c6575f80fd5b8535620013d38162001206565b9450602086013593506040860135925060608601359150608086013561ffff81168114620012c9575f80fd5b5f806040838503121562001411575f80fd5b82356200141e8162001206565b946020939093013593505050565b60208082526023908201527f4f6e6c79206f776e65722063616e20706572666f726d2074686973206163746960408201526237b71760e91b606082015260800190565b5f6020828403121562001480575f80fd5b5051919050565b818103818111156200042457634e487b7160e01b5f52601160045260245ffd5b5f82620014c257634e487b7160e01b5f52601260045260245ffd5b500490565b5f60208284031215620014d8575f80fd5b81518015158114620011e7575f80fd5b602081525f82516101408060208501526200150861016085018362001348565b91506020850151601f198086850301604087015262001528848362001348565b9350604087015191506200154760608701836001600160a01b03169052565b606087015163ffffffff81166080880152915060808701516001600160a01b03811660a0880152915060a087015160ff811660c0880152915060c08701519150808685030160e08701526200159d848362001348565b935060e08701519150610100818786030181880152620015be858462001348565b945080880151925050610120818786030181880152620015df858462001348565b9450808801519250505062001603828601826bffffffffffffffffffffffff169052565b509094935050505056fe608060405234801562000010575f80fd5b506040516200156038038062001560833981016040819052620000339162000179565b33806200005957604051631e4fbdf760e01b81525f600482015260240160405180910390fd5b62000064816200010e565b50600380546001600160a01b03199081166001600160a01b03968716179091556040805180820182529486168086526020958601859052600780548416909117905560089390935560018054821697861697909717909655600280548716958516959095179094558051608081018252939092168084525f91840182905291830181905260609092018290526009805490931617909155600a819055600b819055600c55620001ed565b5f80546001600160a01b038381166001600160a01b0319831681178455604051919092169283917f8be0079c531659141344cd1fd0a4f28419497f9722a3daafe3b4186f6b6457e09190a35050565b80516001600160a01b038116811462000174575f80fd5b919050565b5f805f805f8060c087890312156200018f575f80fd5b6200019a876200015d565b9550620001aa602088016200015d565b9450620001ba604088016200015d565b9350620001ca606088016200015d565b925060808701519150620001e160a088016200015d565b90509295509295509295565b61136580620001fb5f395ff3fe608060405234801561000f575f80fd5b5060043610610106575f3560e01c80638da5cb5b1161009e578063b96243ba1161006e578063b96243ba14610282578063c6ca5bf21461028a578063d170b376146102b2578063d7ca70c4146102c5578063f2fde38b146102ce575f80fd5b80638da5cb5b146101fa578063913cef991461020a57806393287a1d1461021d578063a91647e61461023c575f80fd5b8063705caf5f116100d9578063705caf5f146101aa578063715018a6146101d5578063770fea5e146101df578063819ed863146101e7575f80fd5b806311ee307e1461010a5780631394cd8f14610126578063150b7a021461016a5780632279de4e146101a2575b5f80fd5b61011360045481565b6040519081526020015b60405180910390f35b61012e6102e1565b60405161011d919081516001600160a01b0316815260208083015190820152604080830151908201526060918201519181019190915260800190565b610189610178366004611018565b630a85bd0160e11b95945050505050565b6040516001600160e01b0319909116815260200161011d565b610113610347565b6002546101bd906001600160a01b031681565b6040516001600160a01b03909116815260200161011d565b6101dd610452565b005b610113610465565b6001546101bd906001600160a01b031681565b5f546001600160a01b03166101bd565b6003546101bd906001600160a01b031681565b60055461022a9060ff1681565b60405160ff909116815260200161011d565b6040805180820182525f808252602091820152815180830183526007546001600160a01b031680825260085491830191825283519081529051918101919091520161011d565b6101dd61047b565b60035461029f90600160a01b900461ffff1681565b60405161ffff909116815260200161011d565b6101dd6102c03660046110af565b610743565b61011360065481565b6101dd6102dc3660046110f3565b610e27565b61031160405180608001604052805f6001600160a01b031681526020015f81526020015f81526020015f81525090565b50604080516080810182526009546001600160a01b03168152600a546020820152600b5491810191909152600c54606082015290565b5f806004546006546103599190611129565b9050806009600301540361036e575f91505090565b6003545f90829061038c90600160a01b900461ffff16612710611148565b6103969190611241565b90505f6103a583612710611241565b60035484906103c190600160a01b900461ffff16612710611148565b6103cb9190611241565b6103d5919061124c565b600354600a549192505f91839185916103f991600160a01b900461ffff169061125f565b610403919061125f565b61040d9190611129565b6005549091505f906104239060ff166064611276565b6005546104349060ff16606e611276565b61043e908461125f565b6104489190611129565b9695505050505050565b61045a610e64565b6104635f610e90565b565b600b54600a545f916104769161124c565b905090565b610483610e64565b6009546001600160a01b03165f610498610347565b9050805f0361050d57600754600254600854604051632142170760e11b81526001600160a01b03938416936342842e0e936104dc9330939290911691600401611284565b5f604051808303815f87803b1580156104f3575f80fd5b505af1158015610505573d5f803e3d5ffd5b505050505050565b6002546040516370a0823160e01b81526001600160a01b03918216600482015282918416906370a0823190602401602060405180830381865afa158015610556573d5f803e3d5ffd5b505050506040513d601f19601f8201168201806040525081019061057a91906112a8565b101580156105f95750600254604051636eb1769f60e11b81526001600160a01b039182166004820152306024820152829184169063dd62ed3e90604401602060405180830381865afa1580156105d2573d5f803e3d5ffd5b505050506040513d601f19601f820116820180604052508101906105f691906112a8565b10155b156106fb576002546001546040516323b872dd60e01b81526001600160a01b03808616936323b872dd93610637939183169216908690600401611284565b6020604051808303815f875af1158015610653573d5f803e3d5ffd5b505050506040513d601f19601f8201168201806040525081019061067791906112bf565b506004546006546106889190611129565b6106949061271061125f565b600354600a546106af91600160a01b900461ffff169061125f565b6106b99190611129565b6106c3908261124c565b600b80545f906106d4908490611148565b9091555050600c8054905f6106e8836112de565b90915550506005805460ff191690555050565b6005805460ff161015610737576005805460ff16905f61071a836112f6565b91906101000a81548160ff021916908360ff160217905550505050565b61073f610edf565b5050565b61074b610e64565b6009546007546001600160a01b039182169116838510156107cc5760405162461bcd60e51b815260206004820152603060248201527f54696d6520706572696f642063616e6e6f74206265206c657373207468616e2060448201526f1c185e5b595b9d081a5b9d195c9d985b60821b60648201526084015b60405180910390fd5b6127106107db876109c461125f565b6107e59190611129565b600254604051636eb1769f60e11b81526001600160a01b0391821660048201523060248201529084169063dd62ed3e90604401602060405180830381865afa158015610833573d5f803e3d5ffd5b505050506040513d601f19601f8201168201806040525081019061085791906112a8565b10156108a55760405162461bcd60e51b815260206004820152601b60248201527f426f72726f77657220616c6c6f77616e636520746f6f206c6f772e000000000060448201526064016107c3565b6127106108b4876109c461125f565b6108be9190611129565b6002546040516370a0823160e01b81526001600160a01b039182166004820152908416906370a0823190602401602060405180830381865afa158015610906573d5f803e3d5ffd5b505050506040513d601f19601f8201168201806040525081019061092a91906112a8565b10156109785760405162461bcd60e51b815260206004820152601960248201527f426f72726f7765722062616c616e636520746f6f206c6f772e0000000000000060448201526064016107c3565b600154604051636eb1769f60e11b81526001600160a01b039182166004820152306024820152879184169063dd62ed3e90604401602060405180830381865afa1580156109c7573d5f803e3d5ffd5b505050506040513d601f19601f820116820180604052508101906109eb91906112a8565b1015610a395760405162461bcd60e51b815260206004820152601960248201527f4c656e64657220616c6c6f77616e636520746f6f206c6f772e0000000000000060448201526064016107c3565b6001546040516370a0823160e01b81526001600160a01b03918216600482015287918416906370a0823190602401602060405180830381865afa158015610a82573d5f803e3d5ffd5b505050506040513d601f19601f82011682018060405250810190610aa691906112a8565b1015610af45760405162461bcd60e51b815260206004820152601760248201527f4c656e6465722062616c616e636520746f6f206c6f772e00000000000000000060448201526064016107c3565b60085460405163020604bf60e21b815230916001600160a01b0384169163081812fc91610b279160040190815260200190565b602060405180830381865afa158015610b42573d5f803e3d5ffd5b505050506040513d601f19601f82011682018060405250810190610b669190611314565b6001600160a01b031614610be25760405162461bcd60e51b815260206004820152603760248201527f4173736574206f776e6572206e6565647320746f20617070726f7665206c6f6160448201527f6e206163636f756e7420666f722061737365742069642e00000000000000000060648201526084016107c3565b600a545f908103610d1757600686905560048581556003805461ffff8716600160a01b0261ffff60a01b1982168117909255600754600854604051632142170760e11b81526001600160a01b03928316956342842e0e95610c50959085169416939093179230929101611284565b5f604051808303815f87803b158015610c67575f80fd5b505af1158015610c79573d5f803e3d5ffd5b50506009546002546003546001600160a01b0392831694506323b872dd93509082169116612710610cac8c6109c461125f565b610cb69190611129565b6040518463ffffffff1660e01b8152600401610cd493929190611284565b6020604051808303815f875af1158015610cf0573d5f803e3d5ffd5b505050506040513d601f19601f82011682018060405250810190610d1491906112bf565b90505b6009546001546003546040516323b872dd60e01b81525f936001600160a01b03908116936323b872dd93610d55939183169216908d90600401611284565b6020604051808303815f875af1158015610d71573d5f803e3d5ffd5b505050506040513d601f19601f82011682018060405250810190610d9591906112bf565b90508760096001015f828254610dab9190611148565b909155508190508015610dbb5750815b610e1d5760405162461bcd60e51b815260206004820152602d60248201527f44697362757273656d656e74204661696c65642e20506c65617365206170707260448201526c37bb329031b7b73a3930b1ba1760991b60648201526084016107c3565b5050505050505050565b610e2f610e64565b6001600160a01b038116610e5857604051631e4fbdf760e01b81525f60048201526024016107c3565b610e6181610e90565b50565b5f546001600160a01b031633146104635760405163118cdaa760e01b81523360048201526024016107c3565b5f80546001600160a01b038381166001600160a01b0319831681178455604051919092169283917f8be0079c531659141344cd1fd0a4f28419497f9722a3daafe3b4186f6b6457e09190a35050565b6009546007546001546040516370a0823160e01b81523060048201526001600160a01b039384169392831692849263a9059cbb9291169083906370a0823190602401602060405180830381865afa158015610f3c573d5f803e3d5ffd5b505050506040513d601f19601f82011682018060405250810190610f6091906112a8565b6040516001600160e01b031960e085901b1681526001600160a01b03909216600483015260248201526044016020604051808303815f875af1158015610fa8573d5f803e3d5ffd5b505050506040513d601f19601f82011682018060405250810190610fcc91906112bf565b50600154600854604051632142170760e11b81526001600160a01b03848116936342842e0e936104dc93309390921691600401611284565b6001600160a01b0381168114610e61575f80fd5b5f805f805f6080868803121561102c575f80fd5b853561103781611004565b9450602086013561104781611004565b935060408601359250606086013567ffffffffffffffff8082111561106a575f80fd5b818801915088601f83011261107d575f80fd5b81358181111561108b575f80fd5b89602082850101111561109c575f80fd5b9699959850939650602001949392505050565b5f805f80608085870312156110c2575f80fd5b843593506020850135925060408501359150606085013561ffff811681146110e8575f80fd5b939692955090935050565b5f60208284031215611103575f80fd5b813561110e81611004565b9392505050565b634e487b7160e01b5f52601160045260245ffd5b5f8261114357634e487b7160e01b5f52601260045260245ffd5b500490565b8082018082111561115b5761115b611115565b92915050565b600181815b8085111561119b57815f190482111561118157611181611115565b8085161561118e57918102915b93841c9390800290611166565b509250929050565b5f826111b15750600161115b565b816111bd57505f61115b565b81600181146111d357600281146111dd576111f9565b600191505061115b565b60ff8411156111ee576111ee611115565b50506001821b61115b565b5060208310610133831016604e8410600b841016171561121c575081810a61115b565b6112268383611161565b805f190482111561123957611239611115565b029392505050565b5f61110e83836111a3565b8181038181111561115b5761115b611115565b808202811582820484141761115b5761115b611115565b5f61110e60ff8416836111a3565b6001600160a01b039384168152919092166020820152604081019190915260600190565b5f602082840312156112b8575f80fd5b5051919050565b5f602082840312156112cf575f80fd5b8151801515811461110e575f80fd5b5f600182016112ef576112ef611115565b5060010190565b5f60ff821660ff810361130b5761130b611115565b60010192915050565b5f60208284031215611324575f80fd5b815161110e8161100456fea2646970667358221220200a91f9fd8b0f35ce37d6b313aa8d13f254b8e740f3c5eb60e9debe82e78d3b64736f6c63430008160033a2646970667358221220d5dc8073d92598c01fd16080538d53bedfb9f9ed3281f0f4c824f1f05a0cf6c264736f6c63430008160033",
			"opcodes": "PUSH1 0x80 PUSH1 0x40 MSTORE CALLVALUE DUP1 ISZERO PUSH2 0xF JUMPI PUSH0 DUP1 REVERT JUMPDEST POP PUSH1 0x5 DUP1 SLOAD PUSH1 0x1 PUSH1 0x1 PUSH1 0xA0 SHL SUB NOT AND CALLER SWAP1 DUP2 OR SWAP1 SWAP2 SSTORE PUSH2 0x30 SWAP1 PUSH0 SWAP1 PUSH2 0x36 JUMP JUMPDEST POP PUSH2 0xDF JUMP JUMPDEST PUSH0 DUP3 DUP2 MSTORE PUSH1 0x20 DUP2 DUP2 MSTORE PUSH1 0x40 DUP1 DUP4 KECCAK256 PUSH1 0x1 PUSH1 0x1 PUSH1 0xA0 SHL SUB DUP6 AND DUP5 MSTORE SWAP1 SWAP2 MSTORE DUP2 KECCAK256 SLOAD PUSH1 0xFF AND PUSH2 0xD6 JUMPI PUSH0 DUP4 DUP2 MSTORE PUSH1 0x20 DUP2 DUP2 MSTORE PUSH1 0x40 DUP1 DUP4 KECCAK256 PUSH1 0x1 PUSH1 0x1 PUSH1 0xA0 SHL SUB DUP7 AND DUP5 MSTORE SWAP1 SWAP2 MSTORE SWAP1 KECCAK256 DUP1 SLOAD PUSH1 0xFF NOT AND PUSH1 0x1 OR SWAP1 SSTORE PUSH2 0x8E CALLER SWAP1 JUMP JUMPDEST PUSH1 0x1 PUSH1 0x1 PUSH1 0xA0 SHL SUB AND DUP3 PUSH1 0x1 PUSH1 0x1 PUSH1 0xA0 SHL SUB AND DUP5 PUSH32 0x2F8788117E7EFF1D82E926EC794901D17C78024A50270940304540A733656F0D PUSH1 0x40 MLOAD PUSH1 0x40 MLOAD DUP1 SWAP2 SUB SWAP1 LOG4 POP PUSH1 0x1 PUSH2 0xD9 JUMP JUMPDEST POP PUSH0 JUMPDEST SWAP3 SWAP2 POP POP JUMP JUMPDEST PUSH2 0x2BA3 DUP1 PUSH2 0xEC PUSH0 CODECOPY PUSH0 RETURN INVALID PUSH1 0x80 PUSH1 0x40 MSTORE CALLVALUE DUP1 ISZERO PUSH3 0x10 JUMPI PUSH0 DUP1 REVERT JUMPDEST POP PUSH1 0x4 CALLDATASIZE LT PUSH3 0x164 JUMPI PUSH0 CALLDATALOAD PUSH1 0xE0 SHR DUP1 PUSH4 0x7B820F4C GT PUSH3 0xCF JUMPI DUP1 PUSH4 0xB960B079 GT PUSH3 0x83 JUMPI DUP1 PUSH4 0xB960B079 EQ PUSH3 0x35E JUMPI DUP1 PUSH4 0xC5F2409B EQ PUSH3 0x380 JUMPI DUP1 PUSH4 0xCCF3A06F EQ PUSH3 0x397 JUMPI DUP1 PUSH4 0xCE27D01A EQ PUSH3 0x3AE JUMPI DUP1 PUSH4 0xD547741F EQ PUSH3 0x3C5 JUMPI DUP1 PUSH4 0xF3FEF3A3 EQ PUSH3 0x3DC JUMPI PUSH0 DUP1 REVERT JUMPDEST DUP1 PUSH4 0x7B820F4C EQ PUSH3 0x2EC JUMPI DUP1 PUSH4 0x8DA5CB5B EQ PUSH3 0x303 JUMPI DUP1 PUSH4 0x91D14854 EQ PUSH3 0x317 JUMPI DUP1 PUSH4 0x9767B19C EQ PUSH3 0x32E JUMPI DUP1 PUSH4 0x98671614 EQ PUSH3 0x342 JUMPI DUP1 PUSH4 0xA217FDDF EQ PUSH3 0x356 JUMPI PUSH0 DUP1 REVERT JUMPDEST DUP1 PUSH4 0x3BF3513F GT PUSH3 0x127 JUMPI DUP1 PUSH4 0x3BF3513F EQ PUSH3 0x20F JUMPI DUP1 PUSH4 0x3CAE4E19 EQ PUSH3 0x231 JUMPI DUP1 PUSH4 0x3E4BEA4F EQ PUSH3 0x248 JUMPI DUP1 PUSH4 0x4585E33B EQ PUSH3 0x28C JUMPI DUP1 PUSH4 0x6E04FF0D EQ PUSH3 0x2A3 JUMPI DUP1 PUSH4 0x79357E6C EQ PUSH3 0x2CA JUMPI PUSH0 DUP1 REVERT JUMPDEST DUP1 PUSH4 0x1FFC9A7 EQ PUSH3 0x168 JUMPI DUP1 PUSH4 0x248A9CA3 EQ PUSH3 0x194 JUMPI DUP1 PUSH4 0x24FF766E EQ PUSH3 0x1C8 JUMPI DUP1 PUSH4 0x2F2FF15D EQ PUSH3 0x1E1 JUMPI DUP1 PUSH4 0x36568ABE EQ PUSH3 0x1F8 JUMPI JUMPDEST PUSH0 DUP1 REVERT JUMPDEST PUSH3 0x17F PUSH3 0x179 CALLDATASIZE PUSH1 0x4 PUSH3 0x11BE JUMP JUMPDEST PUSH3 0x3F3 JUMP JUMPDEST PUSH1 0x40 MLOAD SWAP1 ISZERO ISZERO DUP2 MSTORE PUSH1 0x20 ADD JUMPDEST PUSH1 0x40 MLOAD DUP1 SWAP2 SUB SWAP1 RETURN JUMPDEST PUSH3 0x1B9 PUSH3 0x1A5 CALLDATASIZE PUSH1 0x4 PUSH3 0x11EE JUMP JUMPDEST PUSH0 SWAP1 DUP2 MSTORE PUSH1 0x20 DUP2 SWAP1 MSTORE PUSH1 0x40 SWAP1 KECCAK256 PUSH1 0x1 ADD SLOAD SWAP1 JUMP JUMPDEST PUSH1 0x40 MLOAD SWAP1 DUP2 MSTORE PUSH1 0x20 ADD PUSH3 0x18B JUMP JUMPDEST PUSH3 0x1DF PUSH3 0x1D9 CALLDATASIZE PUSH1 0x4 PUSH3 0x121B JUMP JUMPDEST PUSH3 0x42A JUMP JUMPDEST STOP JUMPDEST PUSH3 0x1DF PUSH3 0x1F2 CALLDATASIZE PUSH1 0x4 PUSH3 0x1239 JUMP JUMPDEST PUSH3 0x48B JUMP JUMPDEST PUSH3 0x1DF PUSH3 0x209 CALLDATASIZE PUSH1 0x4 PUSH3 0x1239 JUMP JUMPDEST PUSH3 0x4B9 JUMP JUMPDEST PUSH3 0x1B9 PUSH3 0x220 CALLDATASIZE PUSH1 0x4 PUSH3 0x121B JUMP JUMPDEST PUSH1 0x2 PUSH1 0x20 MSTORE PUSH0 SWAP1 DUP2 MSTORE PUSH1 0x40 SWAP1 KECCAK256 SLOAD DUP2 JUMP JUMPDEST PUSH3 0x1DF PUSH3 0x242 CALLDATASIZE PUSH1 0x4 PUSH3 0x126A JUMP JUMPDEST PUSH3 0x4F4 JUMP JUMPDEST PUSH3 0x273 PUSH3 0x259 CALLDATASIZE PUSH1 0x4 PUSH3 0x121B JUMP JUMPDEST PUSH1 0x1 PUSH1 0x20 MSTORE PUSH0 SWAP1 DUP2 MSTORE PUSH1 0x40 SWAP1 KECCAK256 SLOAD PUSH1 0x1 PUSH1 0x1 PUSH1 0xA0 SHL SUB AND DUP2 JUMP JUMPDEST PUSH1 0x40 MLOAD PUSH1 0x1 PUSH1 0x1 PUSH1 0xA0 SHL SUB SWAP1 SWAP2 AND DUP2 MSTORE PUSH1 0x20 ADD PUSH3 0x18B JUMP JUMPDEST PUSH3 0x1DF PUSH3 0x29D CALLDATASIZE PUSH1 0x4 PUSH3 0x12D7 JUMP JUMPDEST PUSH3 0x5B3 JUMP JUMPDEST PUSH3 0x2BA PUSH3 0x2B4 CALLDATASIZE PUSH1 0x4 PUSH3 0x12D7 JUMP JUMPDEST PUSH3 0x731 JUMP JUMPDEST PUSH1 0x40 MLOAD PUSH3 0x18B SWAP3 SWAP2 SWAP1 PUSH3 0x138D JUMP JUMPDEST PUSH3 0x1B9 PUSH3 0x2DB CALLDATASIZE PUSH1 0x4 PUSH3 0x121B JUMP JUMPDEST PUSH1 0x4 PUSH1 0x20 MSTORE PUSH0 SWAP1 DUP2 MSTORE PUSH1 0x40 SWAP1 KECCAK256 SLOAD DUP2 JUMP JUMPDEST PUSH3 0x1DF PUSH3 0x2FD CALLDATASIZE PUSH1 0x4 PUSH3 0x121B JUMP JUMPDEST PUSH3 0x893 JUMP JUMPDEST PUSH1 0x5 SLOAD PUSH3 0x273 SWAP1 PUSH1 0x1 PUSH1 0x1 PUSH1 0xA0 SHL SUB AND DUP2 JUMP JUMPDEST PUSH3 0x17F PUSH3 0x328 CALLDATASIZE PUSH1 0x4 PUSH3 0x1239 JUMP JUMPDEST PUSH3 0x93A JUMP JUMPDEST PUSH1 0x7 SLOAD PUSH3 0x273 SWAP1 PUSH1 0x1 PUSH1 0x1 PUSH1 0xA0 SHL SUB AND DUP2 JUMP JUMPDEST PUSH1 0x6 SLOAD PUSH3 0x273 SWAP1 PUSH1 0x1 PUSH1 0x1 PUSH1 0xA0 SHL SUB AND DUP2 JUMP JUMPDEST PUSH3 0x1B9 PUSH0 DUP2 JUMP JUMPDEST PUSH3 0x1B9 PUSH3 0x36F CALLDATASIZE PUSH1 0x4 PUSH3 0x121B JUMP JUMPDEST PUSH1 0x3 PUSH1 0x20 MSTORE PUSH0 SWAP1 DUP2 MSTORE PUSH1 0x40 SWAP1 KECCAK256 SLOAD DUP2 JUMP JUMPDEST PUSH3 0x1DF PUSH3 0x391 CALLDATASIZE PUSH1 0x4 PUSH3 0x121B JUMP JUMPDEST PUSH3 0x962 JUMP JUMPDEST PUSH3 0x1DF PUSH3 0x3A8 CALLDATASIZE PUSH1 0x4 PUSH3 0x13B1 JUMP JUMPDEST PUSH3 0x9C5 JUMP JUMPDEST PUSH3 0x1DF PUSH3 0x3BF CALLDATASIZE PUSH1 0x4 PUSH3 0x121B JUMP JUMPDEST PUSH3 0xB53 JUMP JUMPDEST PUSH3 0x1DF PUSH3 0x3D6 CALLDATASIZE PUSH1 0x4 PUSH3 0x1239 JUMP JUMPDEST PUSH3 0xBAB JUMP JUMPDEST PUSH3 0x1DF PUSH3 0x3ED CALLDATASIZE PUSH1 0x4 PUSH3 0x13FF JUMP JUMPDEST PUSH3 0xBD3 JUMP JUMPDEST PUSH0 PUSH1 0x1 PUSH1 0x1 PUSH1 0xE0 SHL SUB NOT DUP3 AND PUSH4 0x7965DB0B PUSH1 0xE0 SHL EQ DUP1 PUSH3 0x424 JUMPI POP PUSH4 0x1FFC9A7 PUSH1 0xE0 SHL PUSH1 0x1 PUSH1 0x1 PUSH1 0xE0 SHL SUB NOT DUP4 AND EQ JUMPDEST SWAP3 SWAP2 POP POP JUMP JUMPDEST PUSH1 0x5 SLOAD PUSH1 0x1 PUSH1 0x1 PUSH1 0xA0 SHL SUB AND CALLER PUSH1 0x1 PUSH1 0x1 PUSH1 0xA0 SHL SUB AND EQ PUSH3 0x469 JUMPI PUSH1 0x40 MLOAD PUSH3 0x461BCD PUSH1 0xE5 SHL DUP2 MSTORE PUSH1 0x4 ADD PUSH3 0x460 SWAP1 PUSH3 0x142C JUMP JUMPDEST PUSH1 0x40 MLOAD DUP1 SWAP2 SUB SWAP1 REVERT JUMPDEST PUSH1 0x7 DUP1 SLOAD PUSH1 0x1 PUSH1 0x1 PUSH1 0xA0 SHL SUB NOT AND PUSH1 0x1 PUSH1 0x1 PUSH1 0xA0 SHL SUB SWAP3 SWAP1 SWAP3 AND SWAP2 SWAP1 SWAP2 OR SWAP1 SSTORE JUMP JUMPDEST PUSH0 DUP3 DUP2 MSTORE PUSH1 0x20 DUP2 SWAP1 MSTORE PUSH1 0x40 SWAP1 KECCAK256 PUSH1 0x1 ADD SLOAD PUSH3 0x4A7 DUP2 PUSH3 0xC80 JUMP JUMPDEST PUSH3 0x4B3 DUP4 DUP4 PUSH3 0xC8F JUMP JUMPDEST POP POP POP POP JUMP JUMPDEST PUSH1 0x1 PUSH1 0x1 PUSH1 0xA0 SHL SUB DUP2 AND CALLER EQ PUSH3 0x4E3 JUMPI PUSH1 0x40 MLOAD PUSH4 0x334BD919 PUSH1 0xE1 SHL DUP2 MSTORE PUSH1 0x4 ADD PUSH1 0x40 MLOAD DUP1 SWAP2 SUB SWAP1 REVERT JUMPDEST PUSH3 0x4EF DUP3 DUP3 PUSH3 0xD24 JUMP JUMPDEST POP POP POP JUMP JUMPDEST PUSH0 CALLER DUP7 DUP7 DUP7 DUP7 DUP7 PUSH1 0x40 MLOAD PUSH3 0x509 SWAP1 PUSH3 0x11B0 JUMP JUMPDEST PUSH1 0x1 PUSH1 0x1 PUSH1 0xA0 SHL SUB SWAP7 DUP8 AND DUP2 MSTORE SWAP5 DUP7 AND PUSH1 0x20 DUP7 ADD MSTORE SWAP3 DUP6 AND PUSH1 0x40 DUP6 ADD MSTORE SWAP1 DUP5 AND PUSH1 0x60 DUP5 ADD MSTORE PUSH1 0x80 DUP4 ADD MSTORE SWAP1 SWAP2 AND PUSH1 0xA0 DUP3 ADD MSTORE PUSH1 0xC0 ADD PUSH1 0x40 MLOAD DUP1 SWAP2 SUB SWAP1 PUSH0 CREATE DUP1 ISZERO DUP1 ISZERO PUSH3 0x558 JUMPI RETURNDATASIZE PUSH0 DUP1 RETURNDATACOPY RETURNDATASIZE PUSH0 REVERT JUMPDEST POP PUSH1 0x1 PUSH1 0x1 PUSH1 0xA0 SHL SUB DUP2 AND PUSH0 DUP2 DUP2 MSTORE PUSH1 0x1 PUSH1 0x20 MSTORE PUSH1 0x40 DUP1 DUP3 KECCAK256 DUP1 SLOAD PUSH1 0x1 PUSH1 0x1 PUSH1 0xA0 SHL SUB NOT AND CALLER OR SWAP1 SSTORE MLOAD SWAP3 SWAP4 POP SWAP1 SWAP2 PUSH32 0x17FBC99083C988B1936CF513CD75DE61E8E7E9545B3F8CF403855068B7C1BEA2 SWAP2 SWAP1 LOG2 POP POP POP POP POP POP JUMP JUMPDEST PUSH0 PUSH3 0x5C2 DUP3 DUP5 ADD DUP5 PUSH3 0x121B JUMP JUMPDEST SWAP1 POP PUSH0 DUP2 SWAP1 POP DUP1 PUSH1 0x1 PUSH1 0x1 PUSH1 0xA0 SHL SUB AND PUSH4 0x11EE307E PUSH1 0x40 MLOAD DUP2 PUSH4 0xFFFFFFFF AND PUSH1 0xE0 SHL DUP2 MSTORE PUSH1 0x4 ADD PUSH1 0x20 PUSH1 0x40 MLOAD DUP1 DUP4 SUB DUP2 DUP7 GAS STATICCALL ISZERO DUP1 ISZERO PUSH3 0x605 JUMPI RETURNDATASIZE PUSH0 DUP1 RETURNDATACOPY RETURNDATASIZE PUSH0 REVERT JUMPDEST POP POP POP POP PUSH1 0x40 MLOAD RETURNDATASIZE PUSH1 0x1F NOT PUSH1 0x1F DUP3 ADD AND DUP3 ADD DUP1 PUSH1 0x40 MSTORE POP DUP2 ADD SWAP1 PUSH3 0x62B SWAP2 SWAP1 PUSH3 0x146F JUMP JUMPDEST PUSH1 0x1 PUSH1 0x1 PUSH1 0xA0 SHL SUB DUP4 AND PUSH0 SWAP1 DUP2 MSTORE PUSH1 0x4 PUSH1 0x20 MSTORE PUSH1 0x40 SWAP1 KECCAK256 SLOAD PUSH3 0x64F SWAP1 TIMESTAMP PUSH3 0x1487 JUMP JUMPDEST LT PUSH3 0x67B JUMPI PUSH3 0x660 DUP3 PUSH3 0x893 JUMP JUMPDEST PUSH1 0x1 PUSH1 0x1 PUSH1 0xA0 SHL SUB DUP3 AND PUSH0 SWAP1 DUP2 MSTORE PUSH1 0x4 PUSH1 0x20 MSTORE PUSH1 0x40 SWAP1 KECCAK256 TIMESTAMP SWAP1 SSTORE JUMPDEST DUP1 PUSH1 0x1 PUSH1 0x1 PUSH1 0xA0 SHL SUB AND PUSH4 0x11EE307E PUSH1 0x40 MLOAD DUP2 PUSH4 0xFFFFFFFF AND PUSH1 0xE0 SHL DUP2 MSTORE PUSH1 0x4 ADD PUSH1 0x20 PUSH1 0x40 MLOAD DUP1 DUP4 SUB DUP2 DUP7 GAS STATICCALL ISZERO DUP1 ISZERO PUSH3 0x6B8 JUMPI RETURNDATASIZE PUSH0 DUP1 RETURNDATACOPY RETURNDATASIZE PUSH0 REVERT JUMPDEST POP POP POP POP PUSH1 0x40 MLOAD RETURNDATASIZE PUSH1 0x1F NOT PUSH1 0x1F DUP3 ADD AND DUP3 ADD DUP1 PUSH1 0x40 MSTORE POP DUP2 ADD SWAP1 PUSH3 0x6DE SWAP2 SWAP1 PUSH3 0x146F JUMP JUMPDEST PUSH1 0x1 PUSH1 0x1 PUSH1 0xA0 SHL SUB DUP4 AND PUSH0 SWAP1 DUP2 MSTORE PUSH1 0x3 PUSH1 0x20 MSTORE PUSH1 0x40 SWAP1 KECCAK256 SLOAD PUSH3 0x702 SWAP1 TIMESTAMP PUSH3 0x1487 JUMP JUMPDEST LT PUSH3 0x4B3 JUMPI PUSH3 0x713 DUP3 PUSH3 0x962 JUMP JUMPDEST POP PUSH1 0x1 PUSH1 0x1 PUSH1 0xA0 SHL SUB AND PUSH0 SWAP1 DUP2 MSTORE PUSH1 0x3 PUSH1 0x20 MSTORE PUSH1 0x40 SWAP1 KECCAK256 TIMESTAMP SWAP1 SSTORE POP POP JUMP JUMPDEST PUSH0 PUSH1 0x60 DUP2 PUSH3 0x743 DUP5 DUP7 ADD DUP7 PUSH3 0x121B JUMP JUMPDEST SWAP1 POP PUSH0 DUP2 SWAP1 POP DUP1 PUSH1 0x1 PUSH1 0x1 PUSH1 0xA0 SHL SUB AND PUSH4 0x11EE307E PUSH1 0x40 MLOAD DUP2 PUSH4 0xFFFFFFFF AND PUSH1 0xE0 SHL DUP2 MSTORE PUSH1 0x4 ADD PUSH1 0x20 PUSH1 0x40 MLOAD DUP1 DUP4 SUB DUP2 DUP7 GAS STATICCALL ISZERO DUP1 ISZERO PUSH3 0x786 JUMPI RETURNDATASIZE PUSH0 DUP1 RETURNDATACOPY RETURNDATASIZE PUSH0 REVERT JUMPDEST POP POP POP POP PUSH1 0x40 MLOAD RETURNDATASIZE PUSH1 0x1F NOT PUSH1 0x1F DUP3 ADD AND DUP3 ADD DUP1 PUSH1 0x40 MSTORE POP DUP2 ADD SWAP1 PUSH3 0x7AC SWAP2 SWAP1 PUSH3 0x146F JUMP JUMPDEST PUSH1 0x1 PUSH1 0x1 PUSH1 0xA0 SHL SUB DUP4 AND PUSH0 SWAP1 DUP2 MSTORE PUSH1 0x3 PUSH1 0x20 MSTORE PUSH1 0x40 SWAP1 KECCAK256 SLOAD PUSH3 0x7D0 SWAP1 TIMESTAMP PUSH3 0x1487 JUMP JUMPDEST LT ISZERO DUP1 PUSH3 0x863 JUMPI POP DUP1 PUSH1 0x1 PUSH1 0x1 PUSH1 0xA0 SHL SUB AND PUSH4 0x11EE307E PUSH1 0x40 MLOAD DUP2 PUSH4 0xFFFFFFFF AND PUSH1 0xE0 SHL DUP2 MSTORE PUSH1 0x4 ADD PUSH1 0x20 PUSH1 0x40 MLOAD DUP1 DUP4 SUB DUP2 DUP7 GAS STATICCALL ISZERO DUP1 ISZERO PUSH3 0x816 JUMPI RETURNDATASIZE PUSH0 DUP1 RETURNDATACOPY RETURNDATASIZE PUSH0 REVERT JUMPDEST POP POP POP POP PUSH1 0x40 MLOAD RETURNDATASIZE PUSH1 0x1F NOT PUSH1 0x1F DUP3 ADD AND DUP3 ADD DUP1 PUSH1 0x40 MSTORE POP DUP2 ADD SWAP1 PUSH3 0x83C SWAP2 SWAP1 PUSH3 0x146F JUMP JUMPDEST PUSH1 0x1 PUSH1 0x1 PUSH1 0xA0 SHL SUB DUP4 AND PUSH0 SWAP1 DUP2 MSTORE PUSH1 0x4 PUSH1 0x20 MSTORE PUSH1 0x40 SWAP1 KECCAK256 SLOAD PUSH3 0x860 SWAP1 TIMESTAMP PUSH3 0x1487 JUMP JUMPDEST LT ISZERO JUMPDEST PUSH1 0x40 DUP1 MLOAD PUSH1 0x1 PUSH1 0x1 PUSH1 0xA0 SHL SUB DUP6 AND PUSH1 0x20 DUP3 ADD MSTORE ADD PUSH1 0x40 MLOAD PUSH1 0x20 DUP2 DUP4 SUB SUB DUP2 MSTORE SWAP1 PUSH1 0x40 MSTORE SWAP4 POP SWAP4 POP POP POP SWAP3 POP SWAP3 SWAP1 POP JUMP JUMPDEST PUSH0 DUP2 SWAP1 POP DUP2 PUSH1 0x1 PUSH1 0x1 PUSH1 0xA0 SHL SUB AND PUSH32 0x15EBEE52007E74F07C8B4073BAE0DBF814E0B17C74D81CC4E3309433C92D3721 DUP3 PUSH1 0x1 PUSH1 0x1 PUSH1 0xA0 SHL SUB AND PUSH4 0x2279DE4E PUSH1 0x40 MLOAD DUP2 PUSH4 0xFFFFFFFF AND PUSH1 0xE0 SHL DUP2 MSTORE PUSH1 0x4 ADD PUSH1 0x20 PUSH1 0x40 MLOAD DUP1 DUP4 SUB DUP2 DUP7 GAS STATICCALL ISZERO DUP1 ISZERO PUSH3 0x8FF JUMPI RETURNDATASIZE PUSH0 DUP1 RETURNDATACOPY RETURNDATASIZE PUSH0 REVERT JUMPDEST POP POP POP POP PUSH1 0x40 MLOAD RETURNDATASIZE PUSH1 0x1F NOT PUSH1 0x1F DUP3 ADD AND DUP3 ADD DUP1 PUSH1 0x40 MSTORE POP DUP2 ADD SWAP1 PUSH3 0x925 SWAP2 SWAP1 PUSH3 0x146F JUMP JUMPDEST PUSH1 0x40 MLOAD SWAP1 DUP2 MSTORE PUSH1 0x20 ADD PUSH1 0x40 MLOAD DUP1 SWAP2 SUB SWAP1 LOG2 POP POP JUMP JUMPDEST PUSH0 SWAP2 DUP3 MSTORE PUSH1 0x20 DUP3 DUP2 MSTORE PUSH1 0x40 DUP1 DUP5 KECCAK256 PUSH1 0x1 PUSH1 0x1 PUSH1 0xA0 SHL SUB SWAP4 SWAP1 SWAP4 AND DUP5 MSTORE SWAP2 SWAP1 MSTORE SWAP1 KECCAK256 SLOAD PUSH1 0xFF AND SWAP1 JUMP JUMPDEST PUSH0 DUP2 SWAP1 POP DUP1 PUSH1 0x1 PUSH1 0x1 PUSH1 0xA0 SHL SUB AND PUSH4 0xB96243BA PUSH1 0x40 MLOAD DUP2 PUSH4 0xFFFFFFFF AND PUSH1 0xE0 SHL DUP2 MSTORE PUSH1 0x4 ADD PUSH0 PUSH1 0x40 MLOAD DUP1 DUP4 SUB DUP2 PUSH0 DUP8 DUP1 EXTCODESIZE ISZERO DUP1 ISZERO PUSH3 0x99F JUMPI PUSH0 DUP1 REVERT JUMPDEST POP GAS CALL ISZERO DUP1 ISZERO PUSH3 0x9B2 JUMPI RETURNDATASIZE PUSH0 DUP1 RETURNDATACOPY RETURNDATASIZE PUSH0 REVERT JUMPDEST POP POP POP POP PUSH3 0x9C1 DUP2 PUSH3 0xD91 JUMP JUMPDEST POP POP JUMP JUMPDEST PUSH1 0x1 PUSH1 0x1 PUSH1 0xA0 SHL SUB DUP1 DUP7 AND PUSH0 SWAP1 DUP2 MSTORE PUSH1 0x1 PUSH1 0x20 MSTORE PUSH1 0x40 SWAP1 KECCAK256 SLOAD DUP7 SWAP2 AND CALLER EQ PUSH3 0xA4E JUMPI PUSH1 0x40 MLOAD PUSH3 0x461BCD PUSH1 0xE5 SHL DUP2 MSTORE PUSH1 0x20 PUSH1 0x4 DUP3 ADD MSTORE PUSH1 0x34 PUSH1 0x24 DUP3 ADD MSTORE PUSH32 0x4F6E6C79206C656E646572206F662074686973206163636F756E742063616E20 PUSH1 0x44 DUP3 ADD MSTORE PUSH20 0x3832B93337B936903A3434B99030B1BA34B7B717 PUSH1 0x61 SHL PUSH1 0x64 DUP3 ADD MSTORE PUSH1 0x84 ADD PUSH3 0x460 JUMP JUMPDEST PUSH1 0x40 MLOAD PUSH4 0x68B859BB PUSH1 0xE1 SHL DUP2 MSTORE PUSH1 0x4 DUP2 ADD DUP7 SWAP1 MSTORE PUSH1 0x24 DUP2 ADD DUP6 SWAP1 MSTORE PUSH1 0x44 DUP2 ADD DUP5 SWAP1 MSTORE PUSH2 0xFFFF DUP4 AND PUSH1 0x64 DUP3 ADD MSTORE DUP7 SWAP1 PUSH1 0x1 PUSH1 0x1 PUSH1 0xA0 SHL SUB DUP3 AND SWAP1 PUSH4 0xD170B376 SWAP1 PUSH1 0x84 ADD PUSH0 PUSH1 0x40 MLOAD DUP1 DUP4 SUB DUP2 PUSH0 DUP8 DUP1 EXTCODESIZE ISZERO DUP1 ISZERO PUSH3 0xAA8 JUMPI PUSH0 DUP1 REVERT JUMPDEST POP GAS CALL ISZERO DUP1 ISZERO PUSH3 0xABB JUMPI RETURNDATASIZE PUSH0 DUP1 RETURNDATACOPY RETURNDATASIZE PUSH0 REVERT JUMPDEST POP POP POP PUSH1 0x1 PUSH1 0x1 PUSH1 0xA0 SHL SUB DUP9 AND PUSH0 SWAP1 DUP2 MSTORE PUSH1 0x3 PUSH1 0x20 MSTORE PUSH1 0x40 SWAP1 KECCAK256 TIMESTAMP SWAP1 SSTORE POP PUSH3 0xAE6 PUSH1 0x2 DUP6 PUSH3 0x14A7 JUMP JUMPDEST PUSH3 0xAF2 SWAP1 TIMESTAMP PUSH3 0x1487 JUMP JUMPDEST PUSH1 0x1 PUSH1 0x1 PUSH1 0xA0 SHL SUB DUP9 AND PUSH0 SWAP1 DUP2 MSTORE PUSH1 0x4 PUSH1 0x20 MSTORE PUSH1 0x40 SWAP1 KECCAK256 SSTORE PUSH3 0xB15 DUP2 PUSH3 0xF40 JUMP JUMPDEST PUSH1 0x40 MLOAD DUP7 DUP2 MSTORE ADDRESS SWAP1 PUSH32 0xC31BB806FCBA2C023D34EAC91B760422818E0446743A8EA9759932F9282C3EAD SWAP1 PUSH1 0x20 ADD PUSH1 0x40 MLOAD DUP1 SWAP2 SUB SWAP1 LOG2 POP POP POP POP POP POP POP JUMP JUMPDEST PUSH1 0x5 SLOAD PUSH1 0x1 PUSH1 0x1 PUSH1 0xA0 SHL SUB AND CALLER PUSH1 0x1 PUSH1 0x1 PUSH1 0xA0 SHL SUB AND EQ PUSH3 0xB89 JUMPI PUSH1 0x40 MLOAD PUSH3 0x461BCD PUSH1 0xE5 SHL DUP2 MSTORE PUSH1 0x4 ADD PUSH3 0x460 SWAP1 PUSH3 0x142C JUMP JUMPDEST PUSH1 0x6 DUP1 SLOAD PUSH1 0x1 PUSH1 0x1 PUSH1 0xA0 SHL SUB NOT AND PUSH1 0x1 PUSH1 0x1 PUSH1 0xA0 SHL SUB SWAP3 SWAP1 SWAP3 AND SWAP2 SWAP1 SWAP2 OR SWAP1 SSTORE JUMP JUMPDEST PUSH0 DUP3 DUP2 MSTORE PUSH1 0x20 DUP2 SWAP1 MSTORE PUSH1 0x40 SWAP1 KECCAK256 PUSH1 0x1 ADD SLOAD PUSH3 0xBC7 DUP2 PUSH3 0xC80 JUMP JUMPDEST PUSH3 0x4B3 DUP4 DUP4 PUSH3 0xD24 JUMP JUMPDEST PUSH1 0x5 SLOAD PUSH1 0x1 PUSH1 0x1 PUSH1 0xA0 SHL SUB AND CALLER PUSH1 0x1 PUSH1 0x1 PUSH1 0xA0 SHL SUB AND EQ PUSH3 0xC09 JUMPI PUSH1 0x40 MLOAD PUSH3 0x461BCD PUSH1 0xE5 SHL DUP2 MSTORE PUSH1 0x4 ADD PUSH3 0x460 SWAP1 PUSH3 0x142C JUMP JUMPDEST PUSH1 0x5 SLOAD PUSH1 0x40 MLOAD PUSH4 0xA9059CBB PUSH1 0xE0 SHL DUP2 MSTORE PUSH1 0x1 PUSH1 0x1 PUSH1 0xA0 SHL SUB SWAP2 DUP3 AND PUSH1 0x4 DUP3 ADD MSTORE PUSH1 0x24 DUP2 ADD DUP4 SWAP1 MSTORE SWAP1 DUP4 AND SWAP1 PUSH4 0xA9059CBB SWAP1 PUSH1 0x44 ADD PUSH1 0x20 PUSH1 0x40 MLOAD DUP1 DUP4 SUB DUP2 PUSH0 DUP8 GAS CALL ISZERO DUP1 ISZERO PUSH3 0xC5A JUMPI RETURNDATASIZE PUSH0 DUP1 RETURNDATACOPY RETURNDATASIZE PUSH0 REVERT JUMPDEST POP POP POP POP PUSH1 0x40 MLOAD RETURNDATASIZE PUSH1 0x1F NOT PUSH1 0x1F DUP3 ADD AND DUP3 ADD DUP1 PUSH1 0x40 MSTORE POP DUP2 ADD SWAP1 PUSH3 0x4EF SWAP2 SWAP1 PUSH3 0x14C7 JUMP JUMPDEST PUSH3 0xC8C DUP2 CALLER PUSH3 0x1173 JUMP JUMPDEST POP JUMP JUMPDEST PUSH0 PUSH3 0xC9C DUP4 DUP4 PUSH3 0x93A JUMP JUMPDEST PUSH3 0xD1C JUMPI PUSH0 DUP4 DUP2 MSTORE PUSH1 0x20 DUP2 DUP2 MSTORE PUSH1 0x40 DUP1 DUP4 KECCAK256 PUSH1 0x1 PUSH1 0x1 PUSH1 0xA0 SHL SUB DUP7 AND DUP5 MSTORE SWAP1 SWAP2 MSTORE SWAP1 KECCAK256 DUP1 SLOAD PUSH1 0xFF NOT AND PUSH1 0x1 OR SWAP1 SSTORE PUSH3 0xCD3 CALLER SWAP1 JUMP JUMPDEST PUSH1 0x1 PUSH1 0x1 PUSH1 0xA0 SHL SUB AND DUP3 PUSH1 0x1 PUSH1 0x1 PUSH1 0xA0 SHL SUB AND DUP5 PUSH32 0x2F8788117E7EFF1D82E926EC794901D17C78024A50270940304540A733656F0D PUSH1 0x40 MLOAD PUSH1 0x40 MLOAD DUP1 SWAP2 SUB SWAP1 LOG4 POP PUSH1 0x1 PUSH3 0x424 JUMP JUMPDEST POP PUSH0 PUSH3 0x424 JUMP JUMPDEST PUSH0 PUSH3 0xD31 DUP4 DUP4 PUSH3 0x93A JUMP JUMPDEST ISZERO PUSH3 0xD1C JUMPI PUSH0 DUP4 DUP2 MSTORE PUSH1 0x20 DUP2 DUP2 MSTORE PUSH1 0x40 DUP1 DUP4 KECCAK256 PUSH1 0x1 PUSH1 0x1 PUSH1 0xA0 SHL SUB DUP7 AND DUP1 DUP6 MSTORE SWAP3 MSTORE DUP1 DUP4 KECCAK256 DUP1 SLOAD PUSH1 0xFF NOT AND SWAP1 SSTORE MLOAD CALLER SWAP3 DUP7 SWAP2 PUSH32 0xF6391F5C32D9C69D2A47EA670B442974B53935D1EDC7FD64EB21E047A839171B SWAP2 SWAP1 LOG4 POP PUSH1 0x1 PUSH3 0x424 JUMP JUMPDEST PUSH0 DUP2 PUSH1 0x1 PUSH1 0x1 PUSH1 0xA0 SHL SUB AND PUSH4 0x2279DE4E PUSH1 0x40 MLOAD DUP2 PUSH4 0xFFFFFFFF AND PUSH1 0xE0 SHL DUP2 MSTORE PUSH1 0x4 ADD PUSH1 0x20 PUSH1 0x40 MLOAD DUP1 DUP4 SUB DUP2 DUP7 GAS STATICCALL ISZERO DUP1 ISZERO PUSH3 0xDCF JUMPI RETURNDATASIZE PUSH0 DUP1 RETURNDATACOPY RETURNDATASIZE PUSH0 REVERT JUMPDEST POP POP POP POP PUSH1 0x40 MLOAD RETURNDATASIZE PUSH1 0x1F NOT PUSH1 0x1F DUP3 ADD AND DUP3 ADD DUP1 PUSH1 0x40 MSTORE POP DUP2 ADD SWAP1 PUSH3 0xDF5 SWAP2 SWAP1 PUSH3 0x146F JUMP JUMPDEST GT PUSH3 0xE9E JUMPI PUSH1 0x6 SLOAD PUSH1 0x1 PUSH1 0x1 PUSH1 0xA0 SHL SUB DUP3 DUP2 AND PUSH0 SWAP1 DUP2 MSTORE PUSH1 0x2 PUSH1 0x20 MSTORE PUSH1 0x40 SWAP1 DUP2 SWAP1 KECCAK256 SLOAD SWAP1 MLOAD PUSH4 0x64024011 PUSH1 0xE1 SHL DUP2 MSTORE PUSH1 0x4 DUP2 ADD SWAP2 SWAP1 SWAP2 MSTORE SWAP2 AND SWAP1 PUSH4 0xC8048022 SWAP1 PUSH1 0x24 ADD PUSH0 PUSH1 0x40 MLOAD DUP1 DUP4 SUB DUP2 PUSH0 DUP8 DUP1 EXTCODESIZE ISZERO DUP1 ISZERO PUSH3 0xE51 JUMPI PUSH0 DUP1 REVERT JUMPDEST POP GAS CALL ISZERO DUP1 ISZERO PUSH3 0xE64 JUMPI RETURNDATASIZE PUSH0 DUP1 RETURNDATACOPY RETURNDATASIZE PUSH0 REVERT JUMPDEST POP POP PUSH1 0x40 MLOAD PUSH1 0x1 PUSH1 0x1 PUSH1 0xA0 SHL SUB DUP5 AND SWAP3 POP PUSH32 0x2AC7D74AB1F8585F26DC62C514E692302D68208FF8EBA59985066CE6FF9136A2 SWAP2 POP PUSH0 SWAP1 LOG2 POP JUMP JUMPDEST DUP1 PUSH1 0x1 PUSH1 0x1 PUSH1 0xA0 SHL SUB AND PUSH32 0xEB7C26FE56B2A64244FEBA0EEDFDEBC4D422A2D05688A3A7CAB93C91382D4AB3 DUP3 PUSH1 0x1 PUSH1 0x1 PUSH1 0xA0 SHL SUB AND PUSH4 0x770FEA5E PUSH1 0x40 MLOAD DUP2 PUSH4 0xFFFFFFFF AND PUSH1 0xE0 SHL DUP2 MSTORE PUSH1 0x4 ADD PUSH1 0x20 PUSH1 0x40 MLOAD DUP1 DUP4 SUB DUP2 DUP7 GAS STATICCALL ISZERO DUP1 ISZERO PUSH3 0xF06 JUMPI RETURNDATASIZE PUSH0 DUP1 RETURNDATACOPY RETURNDATASIZE PUSH0 REVERT JUMPDEST POP POP POP POP PUSH1 0x40 MLOAD RETURNDATASIZE PUSH1 0x1F NOT PUSH1 0x1F DUP3 ADD AND DUP3 ADD DUP1 PUSH1 0x40 MSTORE POP DUP2 ADD SWAP1 PUSH3 0xF2C SWAP2 SWAP1 PUSH3 0x146F JUMP JUMPDEST PUSH1 0x40 MLOAD SWAP1 DUP2 MSTORE PUSH1 0x20 ADD PUSH1 0x40 MLOAD DUP1 SWAP2 SUB SWAP1 LOG2 POP JUMP JUMPDEST PUSH1 0x40 DUP1 MLOAD PUSH2 0x140 DUP2 ADD DUP3 MSTORE PUSH15 0x2637B0B71020B1B1B7BAB73A10169 PUSH1 0x8D SHL PUSH2 0x160 DUP3 ADD MSTORE PUSH1 0x60 DUP4 DUP2 SHL PUSH12 0xFFFFFFFFFFFFFFFFFFFFFFFF NOT AND PUSH2 0x16F DUP4 ADD MSTORE DUP3 MLOAD PUSH2 0x163 DUP2 DUP5 SUB ADD DUP2 MSTORE PUSH2 0x183 DUP4 ADD DUP5 MSTORE DUP3 MSTORE DUP3 MLOAD PUSH1 0x20 DUP1 DUP3 ADD DUP6 MSTORE PUSH0 DUP1 DUP4 MSTORE DUP2 DUP6 ADD SWAP3 SWAP1 SWAP3 MSTORE ADDRESS DUP5 DUP7 ADD MSTORE PUSH3 0x4C4B40 SWAP3 DUP5 ADD SWAP3 SWAP1 SWAP3 MSTORE PUSH1 0x5 SLOAD PUSH1 0x1 PUSH1 0x1 PUSH1 0xA0 SHL SUB SWAP1 DUP2 AND PUSH1 0x80 DUP6 ADD MSTORE PUSH1 0xA0 DUP5 ADD DUP3 SWAP1 MSTORE DUP5 MLOAD DUP2 DUP8 AND DUP2 DUP6 ADD MSTORE DUP6 MLOAD DUP1 DUP3 SUB DUP6 ADD DUP2 MSTORE SWAP1 DUP7 ADD DUP7 MSTORE PUSH1 0xC0 DUP6 ADD MSTORE DUP5 MLOAD DUP1 DUP5 ADD DUP7 MSTORE DUP3 DUP2 MSTORE PUSH1 0xE0 DUP6 ADD MSTORE DUP5 MLOAD DUP1 DUP5 ADD DUP7 MSTORE DUP3 DUP2 MSTORE PUSH2 0x100 DUP6 ADD MSTORE PUSH8 0x1BC16D674EC80000 PUSH2 0x120 DUP6 ADD DUP2 SWAP1 MSTORE PUSH1 0x7 SLOAD PUSH1 0x6 SLOAD DUP8 MLOAD PUSH4 0x95EA7B3 PUSH1 0xE0 SHL DUP2 MSTORE SWAP1 DUP5 AND PUSH1 0x4 DUP3 ADD MSTORE PUSH1 0x24 DUP2 ADD SWAP3 SWAP1 SWAP3 MSTORE SWAP6 MLOAD SWAP5 SWAP6 SWAP1 SWAP2 AND SWAP4 PUSH4 0x95EA7B3 SWAP4 PUSH1 0x44 DUP1 DUP5 ADD SWAP5 SWAP2 SWAP4 DUP4 SWAP1 SUB ADD SWAP1 DUP3 SWAP1 DUP8 GAS CALL ISZERO DUP1 ISZERO PUSH3 0x106E JUMPI RETURNDATASIZE PUSH0 DUP1 RETURNDATACOPY RETURNDATASIZE PUSH0 REVERT JUMPDEST POP POP POP POP PUSH1 0x40 MLOAD RETURNDATASIZE PUSH1 0x1F NOT PUSH1 0x1F DUP3 ADD AND DUP3 ADD DUP1 PUSH1 0x40 MSTORE POP DUP2 ADD SWAP1 PUSH3 0x1094 SWAP2 SWAP1 PUSH3 0x14C7 JUMP JUMPDEST POP PUSH1 0x6 SLOAD PUSH1 0x40 MLOAD PUSH4 0x3F678E11 PUSH1 0xE0 SHL DUP2 MSTORE PUSH0 SWAP2 PUSH1 0x1 PUSH1 0x1 PUSH1 0xA0 SHL SUB AND SWAP1 PUSH4 0x3F678E11 SWAP1 PUSH3 0x10C7 SWAP1 DUP6 SWAP1 PUSH1 0x4 ADD PUSH3 0x14E8 JUMP JUMPDEST PUSH1 0x20 PUSH1 0x40 MLOAD DUP1 DUP4 SUB DUP2 PUSH0 DUP8 GAS CALL ISZERO DUP1 ISZERO PUSH3 0x10E4 JUMPI RETURNDATASIZE PUSH0 DUP1 RETURNDATACOPY RETURNDATASIZE PUSH0 REVERT JUMPDEST POP POP POP POP PUSH1 0x40 MLOAD RETURNDATASIZE PUSH1 0x1F NOT PUSH1 0x1F DUP3 ADD AND DUP3 ADD DUP1 PUSH1 0x40 MSTORE POP DUP2 ADD SWAP1 PUSH3 0x110A SWAP2 SWAP1 PUSH3 0x146F JUMP JUMPDEST SWAP1 POP DUP1 ISZERO PUSH3 0x1132 JUMPI PUSH1 0x1 PUSH1 0x1 PUSH1 0xA0 SHL SUB DUP4 AND PUSH0 SWAP1 DUP2 MSTORE PUSH1 0x2 PUSH1 0x20 MSTORE PUSH1 0x40 SWAP1 KECCAK256 DUP2 SWAP1 SSTORE POP POP POP JUMP JUMPDEST PUSH1 0x40 MLOAD PUSH3 0x461BCD PUSH1 0xE5 SHL DUP2 MSTORE PUSH1 0x20 PUSH1 0x4 DUP3 ADD MSTORE PUSH1 0x15 PUSH1 0x24 DUP3 ADD MSTORE PUSH21 0x185D5D1BCB585C1C1C9BDD9948191A5CD8589B1959 PUSH1 0x5A SHL PUSH1 0x44 DUP3 ADD MSTORE PUSH1 0x64 ADD PUSH3 0x460 JUMP JUMPDEST PUSH3 0x117F DUP3 DUP3 PUSH3 0x93A JUMP JUMPDEST PUSH3 0x9C1 JUMPI PUSH1 0x40 MLOAD PUSH4 0xE2517D3F PUSH1 0xE0 SHL DUP2 MSTORE PUSH1 0x1 PUSH1 0x1 PUSH1 0xA0 SHL SUB DUP3 AND PUSH1 0x4 DUP3 ADD MSTORE PUSH1 0x24 DUP2 ADD DUP4 SWAP1 MSTORE PUSH1 0x44 ADD PUSH3 0x460 JUMP JUMPDEST PUSH2 0x1560 DUP1 PUSH3 0x160E DUP4 CODECOPY ADD SWAP1 JUMP JUMPDEST PUSH0 PUSH1 0x20 DUP3 DUP5 SUB SLT ISZERO PUSH3 0x11CF JUMPI PUSH0 DUP1 REVERT JUMPDEST DUP2 CALLDATALOAD PUSH1 0x1 PUSH1 0x1 PUSH1 0xE0 SHL SUB NOT DUP2 AND DUP2 EQ PUSH3 0x11E7 JUMPI PUSH0 DUP1 REVERT JUMPDEST SWAP4 SWAP3 POP POP POP JUMP JUMPDEST PUSH0 PUSH1 0x20 DUP3 DUP5 SUB SLT ISZERO PUSH3 0x11FF JUMPI PUSH0 DUP1 REVERT JUMPDEST POP CALLDATALOAD SWAP2 SWAP1 POP JUMP JUMPDEST PUSH1 0x1 PUSH1 0x1 PUSH1 0xA0 SHL SUB DUP2 AND DUP2 EQ PUSH3 0xC8C JUMPI PUSH0 DUP1 REVERT JUMPDEST PUSH0 PUSH1 0x20 DUP3 DUP5 SUB SLT ISZERO PUSH3 0x122C JUMPI PUSH0 DUP1 REVERT JUMPDEST DUP2 CALLDATALOAD PUSH3 0x11E7 DUP2 PUSH3 0x1206 JUMP JUMPDEST PUSH0 DUP1 PUSH1 0x40 DUP4 DUP6 SUB SLT ISZERO PUSH3 0x124B JUMPI PUSH0 DUP1 REVERT JUMPDEST DUP3 CALLDATALOAD SWAP2 POP PUSH1 0x20 DUP4 ADD CALLDATALOAD PUSH3 0x125F DUP2 PUSH3 0x1206 JUMP JUMPDEST DUP1 SWAP2 POP POP SWAP3 POP SWAP3 SWAP1 POP JUMP JUMPDEST PUSH0 DUP1 PUSH0 DUP1 PUSH0 PUSH1 0xA0 DUP7 DUP9 SUB SLT ISZERO PUSH3 0x127F JUMPI PUSH0 DUP1 REVERT JUMPDEST DUP6 CALLDATALOAD PUSH3 0x128C DUP2 PUSH3 0x1206 JUMP JUMPDEST SWAP5 POP PUSH1 0x20 DUP7 ADD CALLDATALOAD PUSH3 0x129E DUP2 PUSH3 0x1206 JUMP JUMPDEST SWAP4 POP PUSH1 0x40 DUP7 ADD CALLDATALOAD PUSH3 0x12B0 DUP2 PUSH3 0x1206 JUMP JUMPDEST SWAP3 POP PUSH1 0x60 DUP7 ADD CALLDATALOAD SWAP2 POP PUSH1 0x80 DUP7 ADD CALLDATALOAD PUSH3 0x12C9 DUP2 PUSH3 0x1206 JUMP JUMPDEST DUP1 SWAP2 POP POP SWAP3 SWAP6 POP SWAP3 SWAP6 SWAP1 SWAP4 POP JUMP JUMPDEST PUSH0 DUP1 PUSH1 0x20 DUP4 DUP6 SUB SLT ISZERO PUSH3 0x12E9 JUMPI PUSH0 DUP1 REVERT JUMPDEST DUP3 CALLDATALOAD PUSH8 0xFFFFFFFFFFFFFFFF DUP1 DUP3 GT ISZERO PUSH3 0x1301 JUMPI PUSH0 DUP1 REVERT JUMPDEST DUP2 DUP6 ADD SWAP2 POP DUP6 PUSH1 0x1F DUP4 ADD SLT PUSH3 0x1315 JUMPI PUSH0 DUP1 REVERT JUMPDEST DUP2 CALLDATALOAD DUP2 DUP2 GT ISZERO PUSH3 0x1324 JUMPI PUSH0 DUP1 REVERT JUMPDEST DUP7 PUSH1 0x20 DUP3 DUP6 ADD ADD GT ISZERO PUSH3 0x1336 JUMPI PUSH0 DUP1 REVERT JUMPDEST PUSH1 0x20 SWAP3 SWAP1 SWAP3 ADD SWAP7 SWAP2 SWAP6 POP SWAP1 SWAP4 POP POP POP POP JUMP JUMPDEST PUSH0 DUP2 MLOAD DUP1 DUP5 MSTORE PUSH0 JUMPDEST DUP2 DUP2 LT ISZERO PUSH3 0x136E JUMPI PUSH1 0x20 DUP2 DUP6 ADD DUP2 ADD MLOAD DUP7 DUP4 ADD DUP3 ADD MSTORE ADD PUSH3 0x1350 JUMP JUMPDEST POP PUSH0 PUSH1 0x20 DUP3 DUP7 ADD ADD MSTORE PUSH1 0x20 PUSH1 0x1F NOT PUSH1 0x1F DUP4 ADD AND DUP6 ADD ADD SWAP2 POP POP SWAP3 SWAP2 POP POP JUMP JUMPDEST DUP3 ISZERO ISZERO DUP2 MSTORE PUSH1 0x40 PUSH1 0x20 DUP3 ADD MSTORE PUSH0 PUSH3 0x13A9 PUSH1 0x40 DUP4 ADD DUP5 PUSH3 0x1348 JUMP JUMPDEST SWAP5 SWAP4 POP POP POP POP JUMP JUMPDEST PUSH0 DUP1 PUSH0 DUP1 PUSH0 PUSH1 0xA0 DUP7 DUP9 SUB SLT ISZERO PUSH3 0x13C6 JUMPI PUSH0 DUP1 REVERT JUMPDEST DUP6 CALLDATALOAD PUSH3 0x13D3 DUP2 PUSH3 0x1206 JUMP JUMPDEST SWAP5 POP PUSH1 0x20 DUP7 ADD CALLDATALOAD SWAP4 POP PUSH1 0x40 DUP7 ADD CALLDATALOAD SWAP3 POP PUSH1 0x60 DUP7 ADD CALLDATALOAD SWAP2 POP PUSH1 0x80 DUP7 ADD CALLDATALOAD PUSH2 0xFFFF DUP2 AND DUP2 EQ PUSH3 0x12C9 JUMPI PUSH0 DUP1 REVERT JUMPDEST PUSH0 DUP1 PUSH1 0x40 DUP4 DUP6 SUB SLT ISZERO PUSH3 0x1411 JUMPI PUSH0 DUP1 REVERT JUMPDEST DUP3 CALLDATALOAD PUSH3 0x141E DUP2 PUSH3 0x1206 JUMP JUMPDEST SWAP5 PUSH1 0x20 SWAP4 SWAP1 SWAP4 ADD CALLDATALOAD SWAP4 POP POP POP JUMP JUMPDEST PUSH1 0x20 DUP1 DUP3 MSTORE PUSH1 0x23 SWAP1 DUP3 ADD MSTORE PUSH32 0x4F6E6C79206F776E65722063616E20706572666F726D20746869732061637469 PUSH1 0x40 DUP3 ADD MSTORE PUSH3 0x37B717 PUSH1 0xE9 SHL PUSH1 0x60 DUP3 ADD MSTORE PUSH1 0x80 ADD SWAP1 JUMP JUMPDEST PUSH0 PUSH1 0x20 DUP3 DUP5 SUB SLT ISZERO PUSH3 0x1480 JUMPI PUSH0 DUP1 REVERT JUMPDEST POP MLOAD SWAP2 SWAP1 POP JUMP JUMPDEST DUP2 DUP2 SUB DUP2 DUP2 GT ISZERO PUSH3 0x424 JUMPI PUSH4 0x4E487B71 PUSH1 0xE0 SHL PUSH0 MSTORE PUSH1 0x11 PUSH1 0x4 MSTORE PUSH1 0x24 PUSH0 REVERT JUMPDEST PUSH0 DUP3 PUSH3 0x14C2 JUMPI PUSH4 0x4E487B71 PUSH1 0xE0 SHL PUSH0 MSTORE PUSH1 0x12 PUSH1 0x4 MSTORE PUSH1 0x24 PUSH0 REVERT JUMPDEST POP DIV SWAP1 JUMP JUMPDEST PUSH0 PUSH1 0x20 DUP3 DUP5 SUB SLT ISZERO PUSH3 0x14D8 JUMPI PUSH0 DUP1 REVERT JUMPDEST DUP2 MLOAD DUP1 ISZERO ISZERO DUP2 EQ PUSH3 0x11E7 JUMPI PUSH0 DUP1 REVERT JUMPDEST PUSH1 0x20 DUP2 MSTORE PUSH0 DUP3 MLOAD PUSH2 0x140 DUP1 PUSH1 0x20 DUP6 ADD MSTORE PUSH3 0x1508 PUSH2 0x160 DUP6 ADD DUP4 PUSH3 0x1348 JUMP JUMPDEST SWAP2 POP PUSH1 0x20 DUP6 ADD MLOAD PUSH1 0x1F NOT DUP1 DUP7 DUP6 SUB ADD PUSH1 0x40 DUP8 ADD MSTORE PUSH3 0x1528 DUP5 DUP4 PUSH3 0x1348 JUMP JUMPDEST SWAP4 POP PUSH1 0x40 DUP8 ADD MLOAD SWAP2 POP PUSH3 0x1547 PUSH1 0x60 DUP8 ADD DUP4 PUSH1 0x1 PUSH1 0x1 PUSH1 0xA0 SHL SUB AND SWAP1 MSTORE JUMP JUMPDEST PUSH1 0x60 DUP8 ADD MLOAD PUSH4 0xFFFFFFFF DUP2 AND PUSH1 0x80 DUP9 ADD MSTORE SWAP2 POP PUSH1 0x80 DUP8 ADD MLOAD PUSH1 0x1 PUSH1 0x1 PUSH1 0xA0 SHL SUB DUP2 AND PUSH1 0xA0 DUP9 ADD MSTORE SWAP2 POP PUSH1 0xA0 DUP8 ADD MLOAD PUSH1 0xFF DUP2 AND PUSH1 0xC0 DUP9 ADD MSTORE SWAP2 POP PUSH1 0xC0 DUP8 ADD MLOAD SWAP2 POP DUP1 DUP7 DUP6 SUB ADD PUSH1 0xE0 DUP8 ADD MSTORE PUSH3 0x159D DUP5 DUP4 PUSH3 0x1348 JUMP JUMPDEST SWAP4 POP PUSH1 0xE0 DUP8 ADD MLOAD SWAP2 POP PUSH2 0x100 DUP2 DUP8 DUP7 SUB ADD DUP2 DUP9 ADD MSTORE PUSH3 0x15BE DUP6 DUP5 PUSH3 0x1348 JUMP JUMPDEST SWAP5 POP DUP1 DUP9 ADD MLOAD SWAP3 POP POP PUSH2 0x120 DUP2 DUP8 DUP7 SUB ADD DUP2 DUP9 ADD MSTORE PUSH3 0x15DF DUP6 DUP5 PUSH3 0x1348 JUMP JUMPDEST SWAP5 POP DUP1 DUP9 ADD MLOAD SWAP3 POP POP POP PUSH3 0x1603 DUP3 DUP7 ADD DUP3 PUSH12 0xFFFFFFFFFFFFFFFFFFFFFFFF AND SWAP1 MSTORE JUMP JUMPDEST POP SWAP1 SWAP5 SWAP4 POP POP POP POP JUMP INVALID PUSH1 0x80 PUSH1 0x40 MSTORE CALLVALUE DUP1 ISZERO PUSH3 0x10 JUMPI PUSH0 DUP1 REVERT JUMPDEST POP PUSH1 0x40 MLOAD PUSH3 0x1560 CODESIZE SUB DUP1 PUSH3 0x1560 DUP4 CODECOPY DUP2 ADD PUSH1 0x40 DUP2 SWAP1 MSTORE PUSH3 0x33 SWAP2 PUSH3 0x179 JUMP JUMPDEST CALLER DUP1 PUSH3 0x59 JUMPI PUSH1 0x40 MLOAD PUSH4 0x1E4FBDF7 PUSH1 0xE0 SHL DUP2 MSTORE PUSH0 PUSH1 0x4 DUP3 ADD MSTORE PUSH1 0x24 ADD PUSH1 0x40 MLOAD DUP1 SWAP2 SUB SWAP1 REVERT JUMPDEST PUSH3 0x64 DUP2 PUSH3 0x10E JUMP JUMPDEST POP PUSH1 0x3 DUP1 SLOAD PUSH1 0x1 PUSH1 0x1 PUSH1 0xA0 SHL SUB NOT SWAP1 DUP2 AND PUSH1 0x1 PUSH1 0x1 PUSH1 0xA0 SHL SUB SWAP7 DUP8 AND OR SWAP1 SWAP2 SSTORE PUSH1 0x40 DUP1 MLOAD DUP1 DUP3 ADD DUP3 MSTORE SWAP5 DUP7 AND DUP1 DUP7 MSTORE PUSH1 0x20 SWAP6 DUP7 ADD DUP6 SWAP1 MSTORE PUSH1 0x7 DUP1 SLOAD DUP5 AND SWAP1 SWAP2 OR SWAP1 SSTORE PUSH1 0x8 SWAP4 SWAP1 SWAP4 SSTORE PUSH1 0x1 DUP1 SLOAD DUP3 AND SWAP8 DUP7 AND SWAP8 SWAP1 SWAP8 OR SWAP1 SWAP7 SSTORE PUSH1 0x2 DUP1 SLOAD DUP8 AND SWAP6 DUP6 AND SWAP6 SWAP1 SWAP6 OR SWAP1 SWAP5 SSTORE DUP1 MLOAD PUSH1 0x80 DUP2 ADD DUP3 MSTORE SWAP4 SWAP1 SWAP3 AND DUP1 DUP5 MSTORE PUSH0 SWAP2 DUP5 ADD DUP3 SWAP1 MSTORE SWAP2 DUP4 ADD DUP2 SWAP1 MSTORE PUSH1 0x60 SWAP1 SWAP3 ADD DUP3 SWAP1 MSTORE PUSH1 0x9 DUP1 SLOAD SWAP1 SWAP4 AND OR SWAP1 SWAP2 SSTORE PUSH1 0xA DUP2 SWAP1 SSTORE PUSH1 0xB DUP2 SWAP1 SSTORE PUSH1 0xC SSTORE PUSH3 0x1ED JUMP JUMPDEST PUSH0 DUP1 SLOAD PUSH1 0x1 PUSH1 0x1 PUSH1 0xA0 SHL SUB DUP4 DUP2 AND PUSH1 0x1 PUSH1 0x1 PUSH1 0xA0 SHL SUB NOT DUP4 AND DUP2 OR DUP5 SSTORE PUSH1 0x40 MLOAD SWAP2 SWAP1 SWAP3 AND SWAP3 DUP4 SWAP2 PUSH32 0x8BE0079C531659141344CD1FD0A4F28419497F9722A3DAAFE3B4186F6B6457E0 SWAP2 SWAP1 LOG3 POP POP JUMP JUMPDEST DUP1 MLOAD PUSH1 0x1 PUSH1 0x1 PUSH1 0xA0 SHL SUB DUP2 AND DUP2 EQ PUSH3 0x174 JUMPI PUSH0 DUP1 REVERT JUMPDEST SWAP2 SWAP1 POP JUMP JUMPDEST PUSH0 DUP1 PUSH0 DUP1 PUSH0 DUP1 PUSH1 0xC0 DUP8 DUP10 SUB SLT ISZERO PUSH3 0x18F JUMPI PUSH0 DUP1 REVERT JUMPDEST PUSH3 0x19A DUP8 PUSH3 0x15D JUMP JUMPDEST SWAP6 POP PUSH3 0x1AA PUSH1 0x20 DUP9 ADD PUSH3 0x15D JUMP JUMPDEST SWAP5 POP PUSH3 0x1BA PUSH1 0x40 DUP9 ADD PUSH3 0x15D JUMP JUMPDEST SWAP4 POP PUSH3 0x1CA PUSH1 0x60 DUP9 ADD PUSH3 0x15D JUMP JUMPDEST SWAP3 POP PUSH1 0x80 DUP8 ADD MLOAD SWAP2 POP PUSH3 0x1E1 PUSH1 0xA0 DUP9 ADD PUSH3 0x15D JUMP JUMPDEST SWAP1 POP SWAP3 SWAP6 POP SWAP3 SWAP6 POP SWAP3 SWAP6 JUMP JUMPDEST PUSH2 0x1365 DUP1 PUSH3 0x1FB PUSH0 CODECOPY PUSH0 RETURN INVALID PUSH1 0x80 PUSH1 0x40 MSTORE CALLVALUE DUP1 ISZERO PUSH2 0xF JUMPI PUSH0 DUP1 REVERT JUMPDEST POP PUSH1 0x4 CALLDATASIZE LT PUSH2 0x106 JUMPI PUSH0 CALLDATALOAD PUSH1 0xE0 SHR DUP1 PUSH4 0x8DA5CB5B GT PUSH2 0x9E JUMPI DUP1 PUSH4 0xB96243BA GT PUSH2 0x6E JUMPI DUP1 PUSH4 0xB96243BA EQ PUSH2 0x282 JUMPI DUP1 PUSH4 0xC6CA5BF2 EQ PUSH2 0x28A JUMPI DUP1 PUSH4 0xD170B376 EQ PUSH2 0x2B2 JUMPI DUP1 PUSH4 0xD7CA70C4 EQ PUSH2 0x2C5 JUMPI DUP1 PUSH4 0xF2FDE38B EQ PUSH2 0x2CE JUMPI PUSH0 DUP1 REVERT JUMPDEST DUP1 PUSH4 0x8DA5CB5B EQ PUSH2 0x1FA JUMPI DUP1 PUSH4 0x913CEF99 EQ PUSH2 0x20A JUMPI DUP1 PUSH4 0x93287A1D EQ PUSH2 0x21D JUMPI DUP1 PUSH4 0xA91647E6 EQ PUSH2 0x23C JUMPI PUSH0 DUP1 REVERT JUMPDEST DUP1 PUSH4 0x705CAF5F GT PUSH2 0xD9 JUMPI DUP1 PUSH4 0x705CAF5F EQ PUSH2 0x1AA JUMPI DUP1 PUSH4 0x715018A6 EQ PUSH2 0x1D5 JUMPI DUP1 PUSH4 0x770FEA5E EQ PUSH2 0x1DF JUMPI DUP1 PUSH4 0x819ED863 EQ PUSH2 0x1E7 JUMPI PUSH0 DUP1 REVERT JUMPDEST DUP1 PUSH4 0x11EE307E EQ PUSH2 0x10A JUMPI DUP1 PUSH4 0x1394CD8F EQ PUSH2 0x126 JUMPI DUP1 PUSH4 0x150B7A02 EQ PUSH2 0x16A JUMPI DUP1 PUSH4 0x2279DE4E EQ PUSH2 0x1A2 JUMPI JUMPDEST PUSH0 DUP1 REVERT JUMPDEST PUSH2 0x113 PUSH1 0x4 SLOAD DUP2 JUMP JUMPDEST PUSH1 0x40 MLOAD SWAP1 DUP2 MSTORE PUSH1 0x20 ADD JUMPDEST PUSH1 0x40 MLOAD DUP1 SWAP2 SUB SWAP1 RETURN JUMPDEST PUSH2 0x12E PUSH2 0x2E1 JUMP JUMPDEST PUSH1 0x40 MLOAD PUSH2 0x11D SWAP2 SWAP1 DUP2 MLOAD PUSH1 0x1 PUSH1 0x1 PUSH1 0xA0 SHL SUB AND DUP2 MSTORE PUSH1 0x20 DUP1 DUP4 ADD MLOAD SWAP1 DUP3 ADD MSTORE PUSH1 0x40 DUP1 DUP4 ADD MLOAD SWAP1 DUP3 ADD MSTORE PUSH1 0x60 SWAP2 DUP3 ADD MLOAD SWAP2 DUP2 ADD SWAP2 SWAP1 SWAP2 MSTORE PUSH1 0x80 ADD SWAP1 JUMP JUMPDEST PUSH2 0x189 PUSH2 0x178 CALLDATASIZE PUSH1 0x4 PUSH2 0x1018 JUMP JUMPDEST PUSH4 0xA85BD01 PUSH1 0xE1 SHL SWAP6 SWAP5 POP POP POP POP POP JUMP JUMPDEST PUSH1 0x40 MLOAD PUSH1 0x1 PUSH1 0x1 PUSH1 0xE0 SHL SUB NOT SWAP1 SWAP2 AND DUP2 MSTORE PUSH1 0x20 ADD PUSH2 0x11D JUMP JUMPDEST PUSH2 0x113 PUSH2 0x347 JUMP JUMPDEST PUSH1 0x2 SLOAD PUSH2 0x1BD SWAP1 PUSH1 0x1 PUSH1 0x1 PUSH1 0xA0 SHL SUB AND DUP2 JUMP JUMPDEST PUSH1 0x40 MLOAD PUSH1 0x1 PUSH1 0x1 PUSH1 0xA0 SHL SUB SWAP1 SWAP2 AND DUP2 MSTORE PUSH1 0x20 ADD PUSH2 0x11D JUMP JUMPDEST PUSH2 0x1DD PUSH2 0x452 JUMP JUMPDEST STOP JUMPDEST PUSH2 0x113 PUSH2 0x465 JUMP JUMPDEST PUSH1 0x1 SLOAD PUSH2 0x1BD SWAP1 PUSH1 0x1 PUSH1 0x1 PUSH1 0xA0 SHL SUB AND DUP2 JUMP JUMPDEST PUSH0 SLOAD PUSH1 0x1 PUSH1 0x1 PUSH1 0xA0 SHL SUB AND PUSH2 0x1BD JUMP JUMPDEST PUSH1 0x3 SLOAD PUSH2 0x1BD SWAP1 PUSH1 0x1 PUSH1 0x1 PUSH1 0xA0 SHL SUB AND DUP2 JUMP JUMPDEST PUSH1 0x5 SLOAD PUSH2 0x22A SWAP1 PUSH1 0xFF AND DUP2 JUMP JUMPDEST PUSH1 0x40 MLOAD PUSH1 0xFF SWAP1 SWAP2 AND DUP2 MSTORE PUSH1 0x20 ADD PUSH2 0x11D JUMP JUMPDEST PUSH1 0x40 DUP1 MLOAD DUP1 DUP3 ADD DUP3 MSTORE PUSH0 DUP1 DUP3 MSTORE PUSH1 0x20 SWAP2 DUP3 ADD MSTORE DUP2 MLOAD DUP1 DUP4 ADD DUP4 MSTORE PUSH1 0x7 SLOAD PUSH1 0x1 PUSH1 0x1 PUSH1 0xA0 SHL SUB AND DUP1 DUP3 MSTORE PUSH1 0x8 SLOAD SWAP2 DUP4 ADD SWAP2 DUP3 MSTORE DUP4 MLOAD SWAP1 DUP2 MSTORE SWAP1 MLOAD SWAP2 DUP2 ADD SWAP2 SWAP1 SWAP2 MSTORE ADD PUSH2 0x11D JUMP JUMPDEST PUSH2 0x1DD PUSH2 0x47B JUMP JUMPDEST PUSH1 0x3 SLOAD PUSH2 0x29F SWAP1 PUSH1 0x1 PUSH1 0xA0 SHL SWAP1 DIV PUSH2 0xFFFF AND DUP2 JUMP JUMPDEST PUSH1 0x40 MLOAD PUSH2 0xFFFF SWAP1 SWAP2 AND DUP2 MSTORE PUSH1 0x20 ADD PUSH2 0x11D JUMP JUMPDEST PUSH2 0x1DD PUSH2 0x2C0 CALLDATASIZE PUSH1 0x4 PUSH2 0x10AF JUMP JUMPDEST PUSH2 0x743 JUMP JUMPDEST PUSH2 0x113 PUSH1 0x6 SLOAD DUP2 JUMP JUMPDEST PUSH2 0x1DD PUSH2 0x2DC CALLDATASIZE PUSH1 0x4 PUSH2 0x10F3 JUMP JUMPDEST PUSH2 0xE27 JUMP JUMPDEST PUSH2 0x311 PUSH1 0x40 MLOAD DUP1 PUSH1 0x80 ADD PUSH1 0x40 MSTORE DUP1 PUSH0 PUSH1 0x1 PUSH1 0x1 PUSH1 0xA0 SHL SUB AND DUP2 MSTORE PUSH1 0x20 ADD PUSH0 DUP2 MSTORE PUSH1 0x20 ADD PUSH0 DUP2 MSTORE PUSH1 0x20 ADD PUSH0 DUP2 MSTORE POP SWAP1 JUMP JUMPDEST POP PUSH1 0x40 DUP1 MLOAD PUSH1 0x80 DUP2 ADD DUP3 MSTORE PUSH1 0x9 SLOAD PUSH1 0x1 PUSH1 0x1 PUSH1 0xA0 SHL SUB AND DUP2 MSTORE PUSH1 0xA SLOAD PUSH1 0x20 DUP3 ADD MSTORE PUSH1 0xB SLOAD SWAP2 DUP2 ADD SWAP2 SWAP1 SWAP2 MSTORE PUSH1 0xC SLOAD PUSH1 0x60 DUP3 ADD MSTORE SWAP1 JUMP JUMPDEST PUSH0 DUP1 PUSH1 0x4 SLOAD PUSH1 0x6 SLOAD PUSH2 0x359 SWAP2 SWAP1 PUSH2 0x1129 JUMP JUMPDEST SWAP1 POP DUP1 PUSH1 0x9 PUSH1 0x3 ADD SLOAD SUB PUSH2 0x36E JUMPI PUSH0 SWAP2 POP POP SWAP1 JUMP JUMPDEST PUSH1 0x3 SLOAD PUSH0 SWAP1 DUP3 SWAP1 PUSH2 0x38C SWAP1 PUSH1 0x1 PUSH1 0xA0 SHL SWAP1 DIV PUSH2 0xFFFF AND PUSH2 0x2710 PUSH2 0x1148 JUMP JUMPDEST PUSH2 0x396 SWAP2 SWAP1 PUSH2 0x1241 JUMP JUMPDEST SWAP1 POP PUSH0 PUSH2 0x3A5 DUP4 PUSH2 0x2710 PUSH2 0x1241 JUMP JUMPDEST PUSH1 0x3 SLOAD DUP5 SWAP1 PUSH2 0x3C1 SWAP1 PUSH1 0x1 PUSH1 0xA0 SHL SWAP1 DIV PUSH2 0xFFFF AND PUSH2 0x2710 PUSH2 0x1148 JUMP JUMPDEST PUSH2 0x3CB SWAP2 SWAP1 PUSH2 0x1241 JUMP JUMPDEST PUSH2 0x3D5 SWAP2 SWAP1 PUSH2 0x124C JUMP JUMPDEST PUSH1 0x3 SLOAD PUSH1 0xA SLOAD SWAP2 SWAP3 POP PUSH0 SWAP2 DUP4 SWAP2 DUP6 SWAP2 PUSH2 0x3F9 SWAP2 PUSH1 0x1 PUSH1 0xA0 SHL SWAP1 DIV PUSH2 0xFFFF AND SWAP1 PUSH2 0x125F JUMP JUMPDEST PUSH2 0x403 SWAP2 SWAP1 PUSH2 0x125F JUMP JUMPDEST PUSH2 0x40D SWAP2 SWAP1 PUSH2 0x1129 JUMP JUMPDEST PUSH1 0x5 SLOAD SWAP1 SWAP2 POP PUSH0 SWAP1 PUSH2 0x423 SWAP1 PUSH1 0xFF AND PUSH1 0x64 PUSH2 0x1276 JUMP JUMPDEST PUSH1 0x5 SLOAD PUSH2 0x434 SWAP1 PUSH1 0xFF AND PUSH1 0x6E PUSH2 0x1276 JUMP JUMPDEST PUSH2 0x43E SWAP1 DUP5 PUSH2 0x125F JUMP JUMPDEST PUSH2 0x448 SWAP2 SWAP1 PUSH2 0x1129 JUMP JUMPDEST SWAP7 SWAP6 POP POP POP POP POP POP JUMP JUMPDEST PUSH2 0x45A PUSH2 0xE64 JUMP JUMPDEST PUSH2 0x463 PUSH0 PUSH2 0xE90 JUMP JUMPDEST JUMP JUMPDEST PUSH1 0xB SLOAD PUSH1 0xA SLOAD PUSH0 SWAP2 PUSH2 0x476 SWAP2 PUSH2 0x124C JUMP JUMPDEST SWAP1 POP SWAP1 JUMP JUMPDEST PUSH2 0x483 PUSH2 0xE64 JUMP JUMPDEST PUSH1 0x9 SLOAD PUSH1 0x1 PUSH1 0x1 PUSH1 0xA0 SHL SUB AND PUSH0 PUSH2 0x498 PUSH2 0x347 JUMP JUMPDEST SWAP1 POP DUP1 PUSH0 SUB PUSH2 0x50D JUMPI PUSH1 0x7 SLOAD PUSH1 0x2 SLOAD PUSH1 0x8 SLOAD PUSH1 0x40 MLOAD PUSH4 0x21421707 PUSH1 0xE1 SHL DUP2 MSTORE PUSH1 0x1 PUSH1 0x1 PUSH1 0xA0 SHL SUB SWAP4 DUP5 AND SWAP4 PUSH4 0x42842E0E SWAP4 PUSH2 0x4DC SWAP4 ADDRESS SWAP4 SWAP3 SWAP1 SWAP2 AND SWAP2 PUSH1 0x4 ADD PUSH2 0x1284 JUMP JUMPDEST PUSH0 PUSH1 0x40 MLOAD DUP1 DUP4 SUB DUP2 PUSH0 DUP8 DUP1 EXTCODESIZE ISZERO DUP1 ISZERO PUSH2 0x4F3 JUMPI PUSH0 DUP1 REVERT JUMPDEST POP GAS CALL ISZERO DUP1 ISZERO PUSH2 0x505 JUMPI RETURNDATASIZE PUSH0 DUP1 RETURNDATACOPY RETURNDATASIZE PUSH0 REVERT JUMPDEST POP POP POP POP POP POP JUMP JUMPDEST PUSH1 0x2 SLOAD PUSH1 0x40 MLOAD PUSH4 0x70A08231 PUSH1 0xE0 SHL DUP2 MSTORE PUSH1 0x1 PUSH1 0x1 PUSH1 0xA0 SHL SUB SWAP2 DUP3 AND PUSH1 0x4 DUP3 ADD MSTORE DUP3 SWAP2 DUP5 AND SWAP1 PUSH4 0x70A08231 SWAP1 PUSH1 0x24 ADD PUSH1 0x20 PUSH1 0x40 MLOAD DUP1 DUP4 SUB DUP2 DUP7 GAS STATICCALL ISZERO DUP1 ISZERO PUSH2 0x556 JUMPI RETURNDATASIZE PUSH0 DUP1 RETURNDATACOPY RETURNDATASIZE PUSH0 REVERT JUMPDEST POP POP POP POP PUSH1 0x40 MLOAD RETURNDATASIZE PUSH1 0x1F NOT PUSH1 0x1F DUP3 ADD AND DUP3 ADD DUP1 PUSH1 0x40 MSTORE POP DUP2 ADD SWAP1 PUSH2 0x57A SWAP2 SWAP1 PUSH2 0x12A8 JUMP JUMPDEST LT ISZERO DUP1 ISZERO PUSH2 0x5F9 JUMPI POP PUSH1 0x2 SLOAD PUSH1 0x40 MLOAD PUSH4 0x6EB1769F PUSH1 0xE1 SHL DUP2 MSTORE PUSH1 0x1 PUSH1 0x1 PUSH1 0xA0 SHL SUB SWAP2 DUP3 AND PUSH1 0x4 DUP3 ADD MSTORE ADDRESS PUSH1 0x24 DUP3 ADD MSTORE DUP3 SWAP2 DUP5 AND SWAP1 PUSH4 0xDD62ED3E SWAP1 PUSH1 0x44 ADD PUSH1 0x20 PUSH1 0x40 MLOAD DUP1 DUP4 SUB DUP2 DUP7 GAS STATICCALL ISZERO DUP1 ISZERO PUSH2 0x5D2 JUMPI RETURNDATASIZE PUSH0 DUP1 RETURNDATACOPY RETURNDATASIZE PUSH0 REVERT JUMPDEST POP POP POP POP PUSH1 0x40 MLOAD RETURNDATASIZE PUSH1 0x1F NOT PUSH1 0x1F DUP3 ADD AND DUP3 ADD DUP1 PUSH1 0x40 MSTORE POP DUP2 ADD SWAP1 PUSH2 0x5F6 SWAP2 SWAP1 PUSH2 0x12A8 JUMP JUMPDEST LT ISZERO JUMPDEST ISZERO PUSH2 0x6FB JUMPI PUSH1 0x2 SLOAD PUSH1 0x1 SLOAD PUSH1 0x40 MLOAD PUSH4 0x23B872DD PUSH1 0xE0 SHL DUP2 MSTORE PUSH1 0x1 PUSH1 0x1 PUSH1 0xA0 SHL SUB DUP1 DUP7 AND SWAP4 PUSH4 0x23B872DD SWAP4 PUSH2 0x637 SWAP4 SWAP2 DUP4 AND SWAP3 AND SWAP1 DUP7 SWAP1 PUSH1 0x4 ADD PUSH2 0x1284 JUMP JUMPDEST PUSH1 0x20 PUSH1 0x40 MLOAD DUP1 DUP4 SUB DUP2 PUSH0 DUP8 GAS CALL ISZERO DUP1 ISZERO PUSH2 0x653 JUMPI RETURNDATASIZE PUSH0 DUP1 RETURNDATACOPY RETURNDATASIZE PUSH0 REVERT JUMPDEST POP POP POP POP PUSH1 0x40 MLOAD RETURNDATASIZE PUSH1 0x1F NOT PUSH1 0x1F DUP3 ADD AND DUP3 ADD DUP1 PUSH1 0x40 MSTORE POP DUP2 ADD SWAP1 PUSH2 0x677 SWAP2 SWAP1 PUSH2 0x12BF JUMP JUMPDEST POP PUSH1 0x4 SLOAD PUSH1 0x6 SLOAD PUSH2 0x688 SWAP2 SWAP1 PUSH2 0x1129 JUMP JUMPDEST PUSH2 0x694 SWAP1 PUSH2 0x2710 PUSH2 0x125F JUMP JUMPDEST PUSH1 0x3 SLOAD PUSH1 0xA SLOAD PUSH2 0x6AF SWAP2 PUSH1 0x1 PUSH1 0xA0 SHL SWAP1 DIV PUSH2 0xFFFF AND SWAP1 PUSH2 0x125F JUMP JUMPDEST PUSH2 0x6B9 SWAP2 SWAP1 PUSH2 0x1129 JUMP JUMPDEST PUSH2 0x6C3 SWAP1 DUP3 PUSH2 0x124C JUMP JUMPDEST PUSH1 0xB DUP1 SLOAD PUSH0 SWAP1 PUSH2 0x6D4 SWAP1 DUP5 SWAP1 PUSH2 0x1148 JUMP JUMPDEST SWAP1 SWAP2 SSTORE POP POP PUSH1 0xC DUP1 SLOAD SWAP1 PUSH0 PUSH2 0x6E8 DUP4 PUSH2 0x12DE JUMP JUMPDEST SWAP1 SWAP2 SSTORE POP POP PUSH1 0x5 DUP1 SLOAD PUSH1 0xFF NOT AND SWAP1 SSTORE POP POP JUMP JUMPDEST PUSH1 0x5 DUP1 SLOAD PUSH1 0xFF AND LT ISZERO PUSH2 0x737 JUMPI PUSH1 0x5 DUP1 SLOAD PUSH1 0xFF AND SWAP1 PUSH0 PUSH2 0x71A DUP4 PUSH2 0x12F6 JUMP JUMPDEST SWAP2 SWAP1 PUSH2 0x100 EXP DUP2 SLOAD DUP2 PUSH1 0xFF MUL NOT AND SWAP1 DUP4 PUSH1 0xFF AND MUL OR SWAP1 SSTORE POP POP POP POP JUMP JUMPDEST PUSH2 0x73F PUSH2 0xEDF JUMP JUMPDEST POP POP JUMP JUMPDEST PUSH2 0x74B PUSH2 0xE64 JUMP JUMPDEST PUSH1 0x9 SLOAD PUSH1 0x7 SLOAD PUSH1 0x1 PUSH1 0x1 PUSH1 0xA0 SHL SUB SWAP2 DUP3 AND SWAP2 AND DUP4 DUP6 LT ISZERO PUSH2 0x7CC JUMPI PUSH1 0x40 MLOAD PUSH3 0x461BCD PUSH1 0xE5 SHL DUP2 MSTORE PUSH1 0x20 PUSH1 0x4 DUP3 ADD MSTORE PUSH1 0x30 PUSH1 0x24 DUP3 ADD MSTORE PUSH32 0x54696D6520706572696F642063616E6E6F74206265206C657373207468616E20 PUSH1 0x44 DUP3 ADD MSTORE PUSH16 0x1C185E5B595B9D081A5B9D195C9D985B PUSH1 0x82 SHL PUSH1 0x64 DUP3 ADD MSTORE PUSH1 0x84 ADD JUMPDEST PUSH1 0x40 MLOAD DUP1 SWAP2 SUB SWAP1 REVERT JUMPDEST PUSH2 0x2710 PUSH2 0x7DB DUP8 PUSH2 0x9C4 PUSH2 0x125F JUMP JUMPDEST PUSH2 0x7E5 SWAP2 SWAP1 PUSH2 0x1129 JUMP JUMPDEST PUSH1 0x2 SLOAD PUSH1 0x40 MLOAD PUSH4 0x6EB1769F PUSH1 0xE1 SHL DUP2 MSTORE PUSH1 0x1 PUSH1 0x1 PUSH1 0xA0 SHL SUB SWAP2 DUP3 AND PUSH1 0x4 DUP3 ADD MSTORE ADDRESS PUSH1 0x24 DUP3 ADD MSTORE SWAP1 DUP5 AND SWAP1 PUSH4 0xDD62ED3E SWAP1 PUSH1 0x44 ADD PUSH1 0x20 PUSH1 0x40 MLOAD DUP1 DUP4 SUB DUP2 DUP7 GAS STATICCALL ISZERO DUP1 ISZERO PUSH2 0x833 JUMPI RETURNDATASIZE PUSH0 DUP1 RETURNDATACOPY RETURNDATASIZE PUSH0 REVERT JUMPDEST POP POP POP POP PUSH1 0x40 MLOAD RETURNDATASIZE PUSH1 0x1F NOT PUSH1 0x1F DUP3 ADD AND DUP3 ADD DUP1 PUSH1 0x40 MSTORE POP DUP2 ADD SWAP1 PUSH2 0x857 SWAP2 SWAP1 PUSH2 0x12A8 JUMP JUMPDEST LT ISZERO PUSH2 0x8A5 JUMPI PUSH1 0x40 MLOAD PUSH3 0x461BCD PUSH1 0xE5 SHL DUP2 MSTORE PUSH1 0x20 PUSH1 0x4 DUP3 ADD MSTORE PUSH1 0x1B PUSH1 0x24 DUP3 ADD MSTORE PUSH32 0x426F72726F77657220616C6C6F77616E636520746F6F206C6F772E0000000000 PUSH1 0x44 DUP3 ADD MSTORE PUSH1 0x64 ADD PUSH2 0x7C3 JUMP JUMPDEST PUSH2 0x2710 PUSH2 0x8B4 DUP8 PUSH2 0x9C4 PUSH2 0x125F JUMP JUMPDEST PUSH2 0x8BE SWAP2 SWAP1 PUSH2 0x1129 JUMP JUMPDEST PUSH1 0x2 SLOAD PUSH1 0x40 MLOAD PUSH4 0x70A08231 PUSH1 0xE0 SHL DUP2 MSTORE PUSH1 0x1 PUSH1 0x1 PUSH1 0xA0 SHL SUB SWAP2 DUP3 AND PUSH1 0x4 DUP3 ADD MSTORE SWAP1 DUP5 AND SWAP1 PUSH4 0x70A08231 SWAP1 PUSH1 0x24 ADD PUSH1 0x20 PUSH1 0x40 MLOAD DUP1 DUP4 SUB DUP2 DUP7 GAS STATICCALL ISZERO DUP1 ISZERO PUSH2 0x906 JUMPI RETURNDATASIZE PUSH0 DUP1 RETURNDATACOPY RETURNDATASIZE PUSH0 REVERT JUMPDEST POP POP POP POP PUSH1 0x40 MLOAD RETURNDATASIZE PUSH1 0x1F NOT PUSH1 0x1F DUP3 ADD AND DUP3 ADD DUP1 PUSH1 0x40 MSTORE POP DUP2 ADD SWAP1 PUSH2 0x92A SWAP2 SWAP1 PUSH2 0x12A8 JUMP JUMPDEST LT ISZERO PUSH2 0x978 JUMPI PUSH1 0x40 MLOAD PUSH3 0x461BCD PUSH1 0xE5 SHL DUP2 MSTORE PUSH1 0x20 PUSH1 0x4 DUP3 ADD MSTORE PUSH1 0x19 PUSH1 0x24 DUP3 ADD MSTORE PUSH32 0x426F72726F7765722062616C616E636520746F6F206C6F772E00000000000000 PUSH1 0x44 DUP3 ADD MSTORE PUSH1 0x64 ADD PUSH2 0x7C3 JUMP JUMPDEST PUSH1 0x1 SLOAD PUSH1 0x40 MLOAD PUSH4 0x6EB1769F PUSH1 0xE1 SHL DUP2 MSTORE PUSH1 0x1 PUSH1 0x1 PUSH1 0xA0 SHL SUB SWAP2 DUP3 AND PUSH1 0x4 DUP3 ADD MSTORE ADDRESS PUSH1 0x24 DUP3 ADD MSTORE DUP8 SWAP2 DUP5 AND SWAP1 PUSH4 0xDD62ED3E SWAP1 PUSH1 0x44 ADD PUSH1 0x20 PUSH1 0x40 MLOAD DUP1 DUP4 SUB DUP2 DUP7 GAS STATICCALL ISZERO DUP1 ISZERO PUSH2 0x9C7 JUMPI RETURNDATASIZE PUSH0 DUP1 RETURNDATACOPY RETURNDATASIZE PUSH0 REVERT JUMPDEST POP POP POP POP PUSH1 0x40 MLOAD RETURNDATASIZE PUSH1 0x1F NOT PUSH1 0x1F DUP3 ADD AND DUP3 ADD DUP1 PUSH1 0x40 MSTORE POP DUP2 ADD SWAP1 PUSH2 0x9EB SWAP2 SWAP1 PUSH2 0x12A8 JUMP JUMPDEST LT ISZERO PUSH2 0xA39 JUMPI PUSH1 0x40 MLOAD PUSH3 0x461BCD PUSH1 0xE5 SHL DUP2 MSTORE PUSH1 0x20 PUSH1 0x4 DUP3 ADD MSTORE PUSH1 0x19 PUSH1 0x24 DUP3 ADD MSTORE PUSH32 0x4C656E64657220616C6C6F77616E636520746F6F206C6F772E00000000000000 PUSH1 0x44 DUP3 ADD MSTORE PUSH1 0x64 ADD PUSH2 0x7C3 JUMP JUMPDEST PUSH1 0x1 SLOAD PUSH1 0x40 MLOAD PUSH4 0x70A08231 PUSH1 0xE0 SHL DUP2 MSTORE PUSH1 0x1 PUSH1 0x1 PUSH1 0xA0 SHL SUB SWAP2 DUP3 AND PUSH1 0x4 DUP3 ADD MSTORE DUP8 SWAP2 DUP5 AND SWAP1 PUSH4 0x70A08231 SWAP1 PUSH1 0x24 ADD PUSH1 0x20 PUSH1 0x40 MLOAD DUP1 DUP4 SUB DUP2 DUP7 GAS STATICCALL ISZERO DUP1 ISZERO PUSH2 0xA82 JUMPI RETURNDATASIZE PUSH0 DUP1 RETURNDATACOPY RETURNDATASIZE PUSH0 REVERT JUMPDEST POP POP POP POP PUSH1 0x40 MLOAD RETURNDATASIZE PUSH1 0x1F NOT PUSH1 0x1F DUP3 ADD AND DUP3 ADD DUP1 PUSH1 0x40 MSTORE POP DUP2 ADD SWAP1 PUSH2 0xAA6 SWAP2 SWAP1 PUSH2 0x12A8 JUMP JUMPDEST LT ISZERO PUSH2 0xAF4 JUMPI PUSH1 0x40 MLOAD PUSH3 0x461BCD PUSH1 0xE5 SHL DUP2 MSTORE PUSH1 0x20 PUSH1 0x4 DUP3 ADD MSTORE PUSH1 0x17 PUSH1 0x24 DUP3 ADD MSTORE PUSH32 0x4C656E6465722062616C616E636520746F6F206C6F772E000000000000000000 PUSH1 0x44 DUP3 ADD MSTORE PUSH1 0x64 ADD PUSH2 0x7C3 JUMP JUMPDEST PUSH1 0x8 SLOAD PUSH1 0x40 MLOAD PUSH4 0x20604BF PUSH1 0xE2 SHL DUP2 MSTORE ADDRESS SWAP2 PUSH1 0x1 PUSH1 0x1 PUSH1 0xA0 SHL SUB DUP5 AND SWAP2 PUSH4 0x81812FC SWAP2 PUSH2 0xB27 SWAP2 PUSH1 0x4 ADD SWAP1 DUP2 MSTORE PUSH1 0x20 ADD SWAP1 JUMP JUMPDEST PUSH1 0x20 PUSH1 0x40 MLOAD DUP1 DUP4 SUB DUP2 DUP7 GAS STATICCALL ISZERO DUP1 ISZERO PUSH2 0xB42 JUMPI RETURNDATASIZE PUSH0 DUP1 RETURNDATACOPY RETURNDATASIZE PUSH0 REVERT JUMPDEST POP POP POP POP PUSH1 0x40 MLOAD RETURNDATASIZE PUSH1 0x1F NOT PUSH1 0x1F DUP3 ADD AND DUP3 ADD DUP1 PUSH1 0x40 MSTORE POP DUP2 ADD SWAP1 PUSH2 0xB66 SWAP2 SWAP1 PUSH2 0x1314 JUMP JUMPDEST PUSH1 0x1 PUSH1 0x1 PUSH1 0xA0 SHL SUB AND EQ PUSH2 0xBE2 JUMPI PUSH1 0x40 MLOAD PUSH3 0x461BCD PUSH1 0xE5 SHL DUP2 MSTORE PUSH1 0x20 PUSH1 0x4 DUP3 ADD MSTORE PUSH1 0x37 PUSH1 0x24 DUP3 ADD MSTORE PUSH32 0x4173736574206F776E6572206E6565647320746F20617070726F7665206C6F61 PUSH1 0x44 DUP3 ADD MSTORE PUSH32 0x6E206163636F756E7420666F722061737365742069642E000000000000000000 PUSH1 0x64 DUP3 ADD MSTORE PUSH1 0x84 ADD PUSH2 0x7C3 JUMP JUMPDEST PUSH1 0xA SLOAD PUSH0 SWAP1 DUP2 SUB PUSH2 0xD17 JUMPI PUSH1 0x6 DUP7 SWAP1 SSTORE PUSH1 0x4 DUP6 DUP2 SSTORE PUSH1 0x3 DUP1 SLOAD PUSH2 0xFFFF DUP8 AND PUSH1 0x1 PUSH1 0xA0 SHL MUL PUSH2 0xFFFF PUSH1 0xA0 SHL NOT DUP3 AND DUP2 OR SWAP1 SWAP3 SSTORE PUSH1 0x7 SLOAD PUSH1 0x8 SLOAD PUSH1 0x40 MLOAD PUSH4 0x21421707 PUSH1 0xE1 SHL DUP2 MSTORE PUSH1 0x1 PUSH1 0x1 PUSH1 0xA0 SHL SUB SWAP3 DUP4 AND SWAP6 PUSH4 0x42842E0E SWAP6 PUSH2 0xC50 SWAP6 SWAP1 DUP6 AND SWAP5 AND SWAP4 SWAP1 SWAP4 OR SWAP3 ADDRESS SWAP3 SWAP2 ADD PUSH2 0x1284 JUMP JUMPDEST PUSH0 PUSH1 0x40 MLOAD DUP1 DUP4 SUB DUP2 PUSH0 DUP8 DUP1 EXTCODESIZE ISZERO DUP1 ISZERO PUSH2 0xC67 JUMPI PUSH0 DUP1 REVERT JUMPDEST POP GAS CALL ISZERO DUP1 ISZERO PUSH2 0xC79 JUMPI RETURNDATASIZE PUSH0 DUP1 RETURNDATACOPY RETURNDATASIZE PUSH0 REVERT JUMPDEST POP POP PUSH1 0x9 SLOAD PUSH1 0x2 SLOAD PUSH1 0x3 SLOAD PUSH1 0x1 PUSH1 0x1 PUSH1 0xA0 SHL SUB SWAP3 DUP4 AND SWAP5 POP PUSH4 0x23B872DD SWAP4 POP SWAP1 DUP3 AND SWAP2 AND PUSH2 0x2710 PUSH2 0xCAC DUP13 PUSH2 0x9C4 PUSH2 0x125F JUMP JUMPDEST PUSH2 0xCB6 SWAP2 SWAP1 PUSH2 0x1129 JUMP JUMPDEST PUSH1 0x40 MLOAD DUP5 PUSH4 0xFFFFFFFF AND PUSH1 0xE0 SHL DUP2 MSTORE PUSH1 0x4 ADD PUSH2 0xCD4 SWAP4 SWAP3 SWAP2 SWAP1 PUSH2 0x1284 JUMP JUMPDEST PUSH1 0x20 PUSH1 0x40 MLOAD DUP1 DUP4 SUB DUP2 PUSH0 DUP8 GAS CALL ISZERO DUP1 ISZERO PUSH2 0xCF0 JUMPI RETURNDATASIZE PUSH0 DUP1 RETURNDATACOPY RETURNDATASIZE PUSH0 REVERT JUMPDEST POP POP POP POP PUSH1 0x40 MLOAD RETURNDATASIZE PUSH1 0x1F NOT PUSH1 0x1F DUP3 ADD AND DUP3 ADD DUP1 PUSH1 0x40 MSTORE POP DUP2 ADD SWAP1 PUSH2 0xD14 SWAP2 SWAP1 PUSH2 0x12BF JUMP JUMPDEST SWAP1 POP JUMPDEST PUSH1 0x9 SLOAD PUSH1 0x1 SLOAD PUSH1 0x3 SLOAD PUSH1 0x40 MLOAD PUSH4 0x23B872DD PUSH1 0xE0 SHL DUP2 MSTORE PUSH0 SWAP4 PUSH1 0x1 PUSH1 0x1 PUSH1 0xA0 SHL SUB SWAP1 DUP2 AND SWAP4 PUSH4 0x23B872DD SWAP4 PUSH2 0xD55 SWAP4 SWAP2 DUP4 AND SWAP3 AND SWAP1 DUP14 SWAP1 PUSH1 0x4 ADD PUSH2 0x1284 JUMP JUMPDEST PUSH1 0x20 PUSH1 0x40 MLOAD DUP1 DUP4 SUB DUP2 PUSH0 DUP8 GAS CALL ISZERO DUP1 ISZERO PUSH2 0xD71 JUMPI RETURNDATASIZE PUSH0 DUP1 RETURNDATACOPY RETURNDATASIZE PUSH0 REVERT JUMPDEST POP POP POP POP PUSH1 0x40 MLOAD RETURNDATASIZE PUSH1 0x1F NOT PUSH1 0x1F DUP3 ADD AND DUP3 ADD DUP1 PUSH1 0x40 MSTORE POP DUP2 ADD SWAP1 PUSH2 0xD95 SWAP2 SWAP1 PUSH2 0x12BF JUMP JUMPDEST SWAP1 POP DUP8 PUSH1 0x9 PUSH1 0x1 ADD PUSH0 DUP3 DUP3 SLOAD PUSH2 0xDAB SWAP2 SWAP1 PUSH2 0x1148 JUMP JUMPDEST SWAP1 SWAP2 SSTORE POP DUP2 SWAP1 POP DUP1 ISZERO PUSH2 0xDBB JUMPI POP DUP2 JUMPDEST PUSH2 0xE1D JUMPI PUSH1 0x40 MLOAD PUSH3 0x461BCD PUSH1 0xE5 SHL DUP2 MSTORE PUSH1 0x20 PUSH1 0x4 DUP3 ADD MSTORE PUSH1 0x2D PUSH1 0x24 DUP3 ADD MSTORE PUSH32 0x44697362757273656D656E74204661696C65642E20506C656173652061707072 PUSH1 0x44 DUP3 ADD MSTORE PUSH13 0x37BB329031B7B73A3930B1BA17 PUSH1 0x99 SHL PUSH1 0x64 DUP3 ADD MSTORE PUSH1 0x84 ADD PUSH2 0x7C3 JUMP JUMPDEST POP POP POP POP POP POP POP POP JUMP JUMPDEST PUSH2 0xE2F PUSH2 0xE64 JUMP JUMPDEST PUSH1 0x1 PUSH1 0x1 PUSH1 0xA0 SHL SUB DUP2 AND PUSH2 0xE58 JUMPI PUSH1 0x40 MLOAD PUSH4 0x1E4FBDF7 PUSH1 0xE0 SHL DUP2 MSTORE PUSH0 PUSH1 0x4 DUP3 ADD MSTORE PUSH1 0x24 ADD PUSH2 0x7C3 JUMP JUMPDEST PUSH2 0xE61 DUP2 PUSH2 0xE90 JUMP JUMPDEST POP JUMP JUMPDEST PUSH0 SLOAD PUSH1 0x1 PUSH1 0x1 PUSH1 0xA0 SHL SUB AND CALLER EQ PUSH2 0x463 JUMPI PUSH1 0x40 MLOAD PUSH4 0x118CDAA7 PUSH1 0xE0 SHL DUP2 MSTORE CALLER PUSH1 0x4 DUP3 ADD MSTORE PUSH1 0x24 ADD PUSH2 0x7C3 JUMP JUMPDEST PUSH0 DUP1 SLOAD PUSH1 0x1 PUSH1 0x1 PUSH1 0xA0 SHL SUB DUP4 DUP2 AND PUSH1 0x1 PUSH1 0x1 PUSH1 0xA0 SHL SUB NOT DUP4 AND DUP2 OR DUP5 SSTORE PUSH1 0x40 MLOAD SWAP2 SWAP1 SWAP3 AND SWAP3 DUP4 SWAP2 PUSH32 0x8BE0079C531659141344CD1FD0A4F28419497F9722A3DAAFE3B4186F6B6457E0 SWAP2 SWAP1 LOG3 POP POP JUMP JUMPDEST PUSH1 0x9 SLOAD PUSH1 0x7 SLOAD PUSH1 0x1 SLOAD PUSH1 0x40 MLOAD PUSH4 0x70A08231 PUSH1 0xE0 SHL DUP2 MSTORE ADDRESS PUSH1 0x4 DUP3 ADD MSTORE PUSH1 0x1 PUSH1 0x1 PUSH1 0xA0 SHL SUB SWAP4 DUP5 AND SWAP4 SWAP3 DUP4 AND SWAP3 DUP5 SWAP3 PUSH4 0xA9059CBB SWAP3 SWAP2 AND SWAP1 DUP4 SWAP1 PUSH4 0x70A08231 SWAP1 PUSH1 0x24 ADD PUSH1 0x20 PUSH1 0x40 MLOAD DUP1 DUP4 SUB DUP2 DUP7 GAS STATICCALL ISZERO DUP1 ISZERO PUSH2 0xF3C JUMPI RETURNDATASIZE PUSH0 DUP1 RETURNDATACOPY RETURNDATASIZE PUSH0 REVERT JUMPDEST POP POP POP POP PUSH1 0x40 MLOAD RETURNDATASIZE PUSH1 0x1F NOT PUSH1 0x1F DUP3 ADD AND DUP3 ADD DUP1 PUSH1 0x40 MSTORE POP DUP2 ADD SWAP1 PUSH2 0xF60 SWAP2 SWAP1 PUSH2 0x12A8 JUMP JUMPDEST PUSH1 0x40 MLOAD PUSH1 0x1 PUSH1 0x1 PUSH1 0xE0 SHL SUB NOT PUSH1 0xE0 DUP6 SWAP1 SHL AND DUP2 MSTORE PUSH1 0x1 PUSH1 0x1 PUSH1 0xA0 SHL SUB SWAP1 SWAP3 AND PUSH1 0x4 DUP4 ADD MSTORE PUSH1 0x24 DUP3 ADD MSTORE PUSH1 0x44 ADD PUSH1 0x20 PUSH1 0x40 MLOAD DUP1 DUP4 SUB DUP2 PUSH0 DUP8 GAS CALL ISZERO DUP1 ISZERO PUSH2 0xFA8 JUMPI RETURNDATASIZE PUSH0 DUP1 RETURNDATACOPY RETURNDATASIZE PUSH0 REVERT JUMPDEST POP POP POP POP PUSH1 0x40 MLOAD RETURNDATASIZE PUSH1 0x1F NOT PUSH1 0x1F DUP3 ADD AND DUP3 ADD DUP1 PUSH1 0x40 MSTORE POP DUP2 ADD SWAP1 PUSH2 0xFCC SWAP2 SWAP1 PUSH2 0x12BF JUMP JUMPDEST POP PUSH1 0x1 SLOAD PUSH1 0x8 SLOAD PUSH1 0x40 MLOAD PUSH4 0x21421707 PUSH1 0xE1 SHL DUP2 MSTORE PUSH1 0x1 PUSH1 0x1 PUSH1 0xA0 SHL SUB DUP5 DUP2 AND SWAP4 PUSH4 0x42842E0E SWAP4 PUSH2 0x4DC SWAP4 ADDRESS SWAP4 SWAP1 SWAP3 AND SWAP2 PUSH1 0x4 ADD PUSH2 0x1284 JUMP JUMPDEST PUSH1 0x1 PUSH1 0x1 PUSH1 0xA0 SHL SUB DUP2 AND DUP2 EQ PUSH2 0xE61 JUMPI PUSH0 DUP1 REVERT JUMPDEST PUSH0 DUP1 PUSH0 DUP1 PUSH0 PUSH1 0x80 DUP7 DUP9 SUB SLT ISZERO PUSH2 0x102C JUMPI PUSH0 DUP1 REVERT JUMPDEST DUP6 CALLDATALOAD PUSH2 0x1037 DUP2 PUSH2 0x1004 JUMP JUMPDEST SWAP5 POP PUSH1 0x20 DUP7 ADD CALLDATALOAD PUSH2 0x1047 DUP2 PUSH2 0x1004 JUMP JUMPDEST SWAP4 POP PUSH1 0x40 DUP7 ADD CALLDATALOAD SWAP3 POP PUSH1 0x60 DUP7 ADD CALLDATALOAD PUSH8 0xFFFFFFFFFFFFFFFF DUP1 DUP3 GT ISZERO PUSH2 0x106A JUMPI PUSH0 DUP1 REVERT JUMPDEST DUP2 DUP9 ADD SWAP2 POP DUP9 PUSH1 0x1F DUP4 ADD SLT PUSH2 0x107D JUMPI PUSH0 DUP1 REVERT JUMPDEST DUP2 CALLDATALOAD DUP2 DUP2 GT ISZERO PUSH2 0x108B JUMPI PUSH0 DUP1 REVERT JUMPDEST DUP10 PUSH1 0x20 DUP3 DUP6 ADD ADD GT ISZERO PUSH2 0x109C JUMPI PUSH0 DUP1 REVERT JUMPDEST SWAP7 SWAP10 SWAP6 SWAP9 POP SWAP4 SWAP7 POP PUSH1 0x20 ADD SWAP5 SWAP4 SWAP3 POP POP POP JUMP JUMPDEST PUSH0 DUP1 PUSH0 DUP1 PUSH1 0x80 DUP6 DUP8 SUB SLT ISZERO PUSH2 0x10C2 JUMPI PUSH0 DUP1 REVERT JUMPDEST DUP5 CALLDATALOAD SWAP4 POP PUSH1 0x20 DUP6 ADD CALLDATALOAD SWAP3 POP PUSH1 0x40 DUP6 ADD CALLDATALOAD SWAP2 POP PUSH1 0x60 DUP6 ADD CALLDATALOAD PUSH2 0xFFFF DUP2 AND DUP2 EQ PUSH2 0x10E8 JUMPI PUSH0 DUP1 REVERT JUMPDEST SWAP4 SWAP7 SWAP3 SWAP6 POP SWAP1 SWAP4 POP POP JUMP JUMPDEST PUSH0 PUSH1 0x20 DUP3 DUP5 SUB SLT ISZERO PUSH2 0x1103 JUMPI PUSH0 DUP1 REVERT JUMPDEST DUP2 CALLDATALOAD PUSH2 0x110E DUP2 PUSH2 0x1004 JUMP JUMPDEST SWAP4 SWAP3 POP POP POP JUMP JUMPDEST PUSH4 0x4E487B71 PUSH1 0xE0 SHL PUSH0 MSTORE PUSH1 0x11 PUSH1 0x4 MSTORE PUSH1 0x24 PUSH0 REVERT JUMPDEST PUSH0 DUP3 PUSH2 0x1143 JUMPI PUSH4 0x4E487B71 PUSH1 0xE0 SHL PUSH0 MSTORE PUSH1 0x12 PUSH1 0x4 MSTORE PUSH1 0x24 PUSH0 REVERT JUMPDEST POP DIV SWAP1 JUMP JUMPDEST DUP1 DUP3 ADD DUP1 DUP3 GT ISZERO PUSH2 0x115B JUMPI PUSH2 0x115B PUSH2 0x1115 JUMP JUMPDEST SWAP3 SWAP2 POP POP JUMP JUMPDEST PUSH1 0x1 DUP2 DUP2 JUMPDEST DUP1 DUP6 GT ISZERO PUSH2 0x119B JUMPI DUP2 PUSH0 NOT DIV DUP3 GT ISZERO PUSH2 0x1181 JUMPI PUSH2 0x1181 PUSH2 0x1115 JUMP JUMPDEST DUP1 DUP6 AND ISZERO PUSH2 0x118E JUMPI SWAP2 DUP2 MUL SWAP2 JUMPDEST SWAP4 DUP5 SHR SWAP4 SWAP1 DUP1 MUL SWAP1 PUSH2 0x1166 JUMP JUMPDEST POP SWAP3 POP SWAP3 SWAP1 POP JUMP JUMPDEST PUSH0 DUP3 PUSH2 0x11B1 JUMPI POP PUSH1 0x1 PUSH2 0x115B JUMP JUMPDEST DUP2 PUSH2 0x11BD JUMPI POP PUSH0 PUSH2 0x115B JUMP JUMPDEST DUP2 PUSH1 0x1 DUP2 EQ PUSH2 0x11D3 JUMPI PUSH1 0x2 DUP2 EQ PUSH2 0x11DD JUMPI PUSH2 0x11F9 JUMP JUMPDEST PUSH1 0x1 SWAP2 POP POP PUSH2 0x115B JUMP JUMPDEST PUSH1 0xFF DUP5 GT ISZERO PUSH2 0x11EE JUMPI PUSH2 0x11EE PUSH2 0x1115 JUMP JUMPDEST POP POP PUSH1 0x1 DUP3 SHL PUSH2 0x115B JUMP JUMPDEST POP PUSH1 0x20 DUP4 LT PUSH2 0x133 DUP4 LT AND PUSH1 0x4E DUP5 LT PUSH1 0xB DUP5 LT AND OR ISZERO PUSH2 0x121C JUMPI POP DUP2 DUP2 EXP PUSH2 0x115B JUMP JUMPDEST PUSH2 0x1226 DUP4 DUP4 PUSH2 0x1161 JUMP JUMPDEST DUP1 PUSH0 NOT DIV DUP3 GT ISZERO PUSH2 0x1239 JUMPI PUSH2 0x1239 PUSH2 0x1115 JUMP JUMPDEST MUL SWAP4 SWAP3 POP POP POP JUMP JUMPDEST PUSH0 PUSH2 0x110E DUP4 DUP4 PUSH2 0x11A3 JUMP JUMPDEST DUP2 DUP2 SUB DUP2 DUP2 GT ISZERO PUSH2 0x115B JUMPI PUSH2 0x115B PUSH2 0x1115 JUMP JUMPDEST DUP1 DUP3 MUL DUP2 ISZERO DUP3 DUP3 DIV DUP5 EQ OR PUSH2 0x115B JUMPI PUSH2 0x115B PUSH2 0x1115 JUMP JUMPDEST PUSH0 PUSH2 0x110E PUSH1 0xFF DUP5 AND DUP4 PUSH2 0x11A3 JUMP JUMPDEST PUSH1 0x1 PUSH1 0x1 PUSH1 0xA0 SHL SUB SWAP4 DUP5 AND DUP2 MSTORE SWAP2 SWAP1 SWAP3 AND PUSH1 0x20 DUP3 ADD MSTORE PUSH1 0x40 DUP2 ADD SWAP2 SWAP1 SWAP2 MSTORE PUSH1 0x60 ADD SWAP1 JUMP JUMPDEST PUSH0 PUSH1 0x20 DUP3 DUP5 SUB SLT ISZERO PUSH2 0x12B8 JUMPI PUSH0 DUP1 REVERT JUMPDEST POP MLOAD SWAP2 SWAP1 POP JUMP JUMPDEST PUSH0 PUSH1 0x20 DUP3 DUP5 SUB SLT ISZERO PUSH2 0x12CF JUMPI PUSH0 DUP1 REVERT JUMPDEST DUP2 MLOAD DUP1 ISZERO ISZERO DUP2 EQ PUSH2 0x110E JUMPI PUSH0 DUP1 REVERT JUMPDEST PUSH0 PUSH1 0x1 DUP3 ADD PUSH2 0x12EF JUMPI PUSH2 0x12EF PUSH2 0x1115 JUMP JUMPDEST POP PUSH1 0x1 ADD SWAP1 JUMP JUMPDEST PUSH0 PUSH1 0xFF DUP3 AND PUSH1 0xFF DUP2 SUB PUSH2 0x130B JUMPI PUSH2 0x130B PUSH2 0x1115 JUMP JUMPDEST PUSH1 0x1 ADD SWAP3 SWAP2 POP POP JUMP JUMPDEST PUSH0 PUSH1 0x20 DUP3 DUP5 SUB SLT ISZERO PUSH2 0x1324 JUMPI PUSH0 DUP1 REVERT JUMPDEST DUP2 MLOAD PUSH2 0x110E DUP2 PUSH2 0x1004 JUMP INVALID LOG2 PUSH5 0x6970667358 0x22 SLT KECCAK256 KECCAK256 EXP SWAP2 0xF9 REVERT DUP12 0xF CALLDATALOAD 0xCE CALLDATACOPY 0xD6 0xB3 SGT 0xAA DUP14 SGT CALLCODE SLOAD 0xB8 0xE7 BLOCKHASH RETURN 0xC5 0xEB PUSH1 0xE9 0xDE 0xBE DUP3 0xE7 DUP14 EXTCODESIZE PUSH5 0x736F6C6343 STOP ADDMOD AND STOP CALLER LOG2 PUSH5 0x6970667358 0x22 SLT KECCAK256 0xD5 0xDC DUP1 PUSH20 0xD92598C01FD16080538D53BEDFB9F9ED3281F0F4 0xC8 0x24 CALL CREATE GAS 0xC 0xF6 0xC2 PUSH5 0x736F6C6343 STOP ADDMOD AND STOP CALLER "
		},
		"gasEstimates": {
			"creation": {
				"codeDepositCost": "2234200",
				"executionCost": "55316",
				"totalCost": "2289516"
			},
			"external": {
				"DEFAULT_ADMIN_ROLE()": "326",
				"_automation_registrar_address()": "2447",
				"_emi_timestamps(address)": "2532",
				"_lenders(address)": "2616",
				"_link_address()": "2425",
				"_reminder_timestamps(address)": "2643",
				"_upkeep_ids(address)": "2533",
				"checkUpkeep(bytes)": "infinite",
				"create_loan_account(address,address,address,uint256,address)": "infinite",
				"deduct_emi(address)": "infinite",
				"disburse_loan(address,uint256,uint256,uint256,uint16)": "infinite",
				"getRoleAdmin(bytes32)": "2490",
				"grantRole(bytes32,address)": "infinite",
				"hasRole(bytes32,address)": "2714",
				"owner()": "2381",
				"performUpkeep(bytes)": "infinite",
				"remind_borrower(address)": "infinite",
				"renounceRole(bytes32,address)": "29129",
				"revokeRole(bytes32,address)": "infinite",
				"setAutomationRegistrar(address)": "26809",
				"setLinkAddress(address)": "26789",
				"supportsInterface(bytes4)": "447",
				"withdraw(address,uint256)": "infinite"
			},
			"internal": {
				"check_loan(contract LoanAccount)": "infinite",
				"registerUpkeepForLoanAccount(contract LoanAccount)": "infinite"
			}
		},
		"methodIdentifiers": {
			"DEFAULT_ADMIN_ROLE()": "a217fddf",
			"_automation_registrar_address()": "98671614",
			"_emi_timestamps(address)": "b960b079",
			"_lenders(address)": "3e4bea4f",
			"_link_address()": "9767b19c",
			"_reminder_timestamps(address)": "79357e6c",
			"_upkeep_ids(address)": "3bf3513f",
			"checkUpkeep(bytes)": "6e04ff0d",
			"create_loan_account(address,address,address,uint256,address)": "3cae4e19",
			"deduct_emi(address)": "c5f2409b",
			"disburse_loan(address,uint256,uint256,uint256,uint16)": "ccf3a06f",
			"getRoleAdmin(bytes32)": "248a9ca3",
			"grantRole(bytes32,address)": "2f2ff15d",
			"hasRole(bytes32,address)": "91d14854",
			"owner()": "8da5cb5b",
			"performUpkeep(bytes)": "4585e33b",
			"remind_borrower(address)": "7b820f4c",
			"renounceRole(bytes32,address)": "36568abe",
			"revokeRole(bytes32,address)": "d547741f",
			"setAutomationRegistrar(address)": "ce27d01a",
			"setLinkAddress(address)": "24ff766e",
			"supportsInterface(bytes4)": "01ffc9a7",
			"withdraw(address,uint256)": "f3fef3a3"
		}
	},
	"abi": [
		{
			"inputs": [],
			"stateMutability": "nonpayable",
			"type": "constructor"
		},
		{
			"inputs": [],
			"name": "AccessControlBadConfirmation",
			"type": "error"
		},
		{
			"inputs": [
				{
					"internalType": "address",
					"name": "account",
					"type": "address"
				},
				{
					"internalType": "bytes32",
					"name": "neededRole",
					"type": "bytes32"
				}
			],
			"name": "AccessControlUnauthorizedAccount",
			"type": "error"
		},
		{
			"inputs": [],
			"name": "OnlySimulatedBackend",
			"type": "error"
		},
		{
			"anonymous": false,
			"inputs": [
				{
					"indexed": true,
					"internalType": "address",
					"name": "_account",
					"type": "address"
				}
			],
			"name": "CloseLoanAccount",
			"type": "event"
		},
		{
			"anonymous": false,
			"inputs": [
				{
					"indexed": true,
					"internalType": "address",
					"name": "_account",
					"type": "address"
				}
			],
			"name": "LoanAccountCreated",
			"type": "event"
		},
		{
			"anonymous": false,
			"inputs": [
				{
					"indexed": true,
					"internalType": "address",
					"name": "_account",
					"type": "address"
				},
				{
					"indexed": false,
					"internalType": "uint256",
					"name": "_amount",
					"type": "uint256"
				}
			],
			"name": "LoanDisbursed",
			"type": "event"
		},
		{
			"anonymous": false,
			"inputs": [
				{
					"indexed": true,
					"internalType": "address",
					"name": "_account",
					"type": "address"
				},
				{
					"indexed": false,
					"internalType": "uint256",
					"name": "_outstanding_balance",
					"type": "uint256"
				}
			],
			"name": "LoanPayment",
			"type": "event"
		},
		{
			"anonymous": false,
			"inputs": [
				{
					"indexed": true,
					"internalType": "address",
					"name": "_account",
					"type": "address"
				},
				{
					"indexed": false,
					"internalType": "uint256",
					"name": "_amount",
					"type": "uint256"
				}
			],
			"name": "LoanPaymentReminder",
			"type": "event"
		},
		{
			"anonymous": false,
			"inputs": [
				{
					"indexed": true,
					"internalType": "bytes32",
					"name": "role",
					"type": "bytes32"
				},
				{
					"indexed": true,
					"internalType": "bytes32",
					"name": "previousAdminRole",
					"type": "bytes32"
				},
				{
					"indexed": true,
					"internalType": "bytes32",
					"name": "newAdminRole",
					"type": "bytes32"
				}
			],
			"name": "RoleAdminChanged",
			"type": "event"
		},
		{
			"anonymous": false,
			"inputs": [
				{
					"indexed": true,
					"internalType": "bytes32",
					"name": "role",
					"type": "bytes32"
				},
				{
					"indexed": true,
					"internalType": "address",
					"name": "account",
					"type": "address"
				},
				{
					"indexed": true,
					"internalType": "address",
					"name": "sender",
					"type": "address"
				}
			],
			"name": "RoleGranted",
			"type": "event"
		},
		{
			"anonymous": false,
			"inputs": [
				{
					"indexed": true,
					"internalType": "bytes32",
					"name": "role",
					"type": "bytes32"
				},
				{
					"indexed": true,
					"internalType": "address",
					"name": "account",
					"type": "address"
				},
				{
					"indexed": true,
					"internalType": "address",
					"name": "sender",
					"type": "address"
				}
			],
			"name": "RoleRevoked",
			"type": "event"
		},
		{
			"inputs": [],
			"name": "DEFAULT_ADMIN_ROLE",
			"outputs": [
				{
					"internalType": "bytes32",
					"name": "",
					"type": "bytes32"
				}
			],
			"stateMutability": "view",
			"type": "function"
		},
		{
			"inputs": [],
			"name": "_automation_registrar_address",
			"outputs": [
				{
					"internalType": "address",
					"name": "",
					"type": "address"
				}
			],
			"stateMutability": "view",
			"type": "function"
		},
		{
			"inputs": [
				{
					"internalType": "address",
					"name": "",
					"type": "address"
				}
			],
			"name": "_emi_timestamps",
			"outputs": [
				{
					"internalType": "uint256",
					"name": "",
					"type": "uint256"
				}
			],
			"stateMutability": "view",
			"type": "function"
		},
		{
			"inputs": [
				{
					"internalType": "address",
					"name": "",
					"type": "address"
				}
			],
			"name": "_lenders",
			"outputs": [
				{
					"internalType": "address",
					"name": "",
					"type": "address"
				}
			],
			"stateMutability": "view",
			"type": "function"
		},
		{
			"inputs": [],
			"name": "_link_address",
			"outputs": [
				{
					"internalType": "address",
					"name": "",
					"type": "address"
				}
			],
			"stateMutability": "view",
			"type": "function"
		},
		{
			"inputs": [
				{
					"internalType": "address",
					"name": "",
					"type": "address"
				}
			],
			"name": "_reminder_timestamps",
			"outputs": [
				{
					"internalType": "uint256",
					"name": "",
					"type": "uint256"
				}
			],
			"stateMutability": "view",
			"type": "function"
		},
		{
			"inputs": [
				{
					"internalType": "address",
					"name": "",
					"type": "address"
				}
			],
			"name": "_upkeep_ids",
			"outputs": [
				{
					"internalType": "uint256",
					"name": "",
					"type": "uint256"
				}
			],
			"stateMutability": "view",
			"type": "function"
		},
		{
			"inputs": [
				{
					"internalType": "bytes",
					"name": "checkdata",
					"type": "bytes"
				}
			],
			"name": "checkUpkeep",
			"outputs": [
				{
					"internalType": "bool",
					"name": "upkeepNeeded",
					"type": "bool"
				},
				{
					"internalType": "bytes",
					"name": "performData",
					"type": "bytes"
				}
			],
			"stateMutability": "view",
			"type": "function"
		},
		{
			"inputs": [
				{
					"internalType": "address",
					"name": "_borrower",
					"type": "address"
				},
				{
					"internalType": "address",
					"name": "_asset_owner",
					"type": "address"
				},
				{
					"internalType": "address",
					"name": "_asset_contract",
					"type": "address"
				},
				{
					"internalType": "uint256",
					"name": "_asset_id",
					"type": "uint256"
				},
				{
					"internalType": "address",
					"name": "_token_contract",
					"type": "address"
				}
			],
			"name": "create_loan_account",
			"outputs": [],
			"stateMutability": "nonpayable",
			"type": "function"
		},
		{
			"inputs": [
				{
					"internalType": "address",
					"name": "_account",
					"type": "address"
				}
			],
			"name": "deduct_emi",
			"outputs": [],
			"stateMutability": "nonpayable",
			"type": "function"
		},
		{
			"inputs": [
				{
					"internalType": "address",
					"name": "_account",
					"type": "address"
				},
				{
					"internalType": "uint256",
					"name": "_disbursement",
					"type": "uint256"
				},
				{
					"internalType": "uint256",
					"name": "_time_period",
					"type": "uint256"
				},
				{
					"internalType": "uint256",
					"name": "_payment_interval",
					"type": "uint256"
				},
				{
					"internalType": "uint16",
					"name": "_interest_rate",
					"type": "uint16"
				}
			],
			"name": "disburse_loan",
			"outputs": [],
			"stateMutability": "nonpayable",
			"type": "function"
		},
		{
			"inputs": [
				{
					"internalType": "bytes32",
					"name": "role",
					"type": "bytes32"
				}
			],
			"name": "getRoleAdmin",
			"outputs": [
				{
					"internalType": "bytes32",
					"name": "",
					"type": "bytes32"
				}
			],
			"stateMutability": "view",
			"type": "function"
		},
		{
			"inputs": [
				{
					"internalType": "bytes32",
					"name": "role",
					"type": "bytes32"
				},
				{
					"internalType": "address",
					"name": "account",
					"type": "address"
				}
			],
			"name": "grantRole",
			"outputs": [],
			"stateMutability": "nonpayable",
			"type": "function"
		},
		{
			"inputs": [
				{
					"internalType": "bytes32",
					"name": "role",
					"type": "bytes32"
				},
				{
					"internalType": "address",
					"name": "account",
					"type": "address"
				}
			],
			"name": "hasRole",
			"outputs": [
				{
					"internalType": "bool",
					"name": "",
					"type": "bool"
				}
			],
			"stateMutability": "view",
			"type": "function"
		},
		{
			"inputs": [],
			"name": "owner",
			"outputs": [
				{
					"internalType": "address",
					"name": "",
					"type": "address"
				}
			],
			"stateMutability": "view",
			"type": "function"
		},
		{
			"inputs": [
				{
					"internalType": "bytes",
					"name": "performData",
					"type": "bytes"
				}
			],
			"name": "performUpkeep",
			"outputs": [],
			"stateMutability": "nonpayable",
			"type": "function"
		},
		{
			"inputs": [
				{
					"internalType": "address",
					"name": "_account",
					"type": "address"
				}
			],
			"name": "remind_borrower",
			"outputs": [],
			"stateMutability": "nonpayable",
			"type": "function"
		},
		{
			"inputs": [
				{
					"internalType": "bytes32",
					"name": "role",
					"type": "bytes32"
				},
				{
					"internalType": "address",
					"name": "callerConfirmation",
					"type": "address"
				}
			],
			"name": "renounceRole",
			"outputs": [],
			"stateMutability": "nonpayable",
			"type": "function"
		},
		{
			"inputs": [
				{
					"internalType": "bytes32",
					"name": "role",
					"type": "bytes32"
				},
				{
					"internalType": "address",
					"name": "account",
					"type": "address"
				}
			],
			"name": "revokeRole",
			"outputs": [],
			"stateMutability": "nonpayable",
			"type": "function"
		},
		{
			"inputs": [
				{
					"internalType": "address",
					"name": "automation_registrar_address",
					"type": "address"
				}
			],
			"name": "setAutomationRegistrar",
			"outputs": [],
			"stateMutability": "nonpayable",
			"type": "function"
		},
		{
			"inputs": [
				{
					"internalType": "address",
					"name": "link_address",
					"type": "address"
				}
			],
			"name": "setLinkAddress",
			"outputs": [],
			"stateMutability": "nonpayable",
			"type": "function"
		},
		{
			"inputs": [
				{
					"internalType": "bytes4",
					"name": "interfaceId",
					"type": "bytes4"
				}
			],
			"name": "supportsInterface",
			"outputs": [
				{
					"internalType": "bool",
					"name": "",
					"type": "bool"
				}
			],
			"stateMutability": "view",
			"type": "function"
		},
		{
			"inputs": [
				{
					"internalType": "address",
					"name": "_token",
					"type": "address"
				},
				{
					"internalType": "uint256",
					"name": "_amount",
					"type": "uint256"
				}
			],
			"name": "withdraw",
			"outputs": [],
			"stateMutability": "nonpayable",
			"type": "function"
		}
	]
}